:100000000C941A010C9444010C9444010C94440186
:100010000C9444010C9444010C9444010C9444014C
:100020000C9444010C9444010C9444010C9444013C
:100030000C9444010C9444010C9444010C947236C9
:100040000C9444010C942D370C9444010C944401FD
:100050000C9444010C9444010C9444010C9444010C
:100060000C9444010C94DF3E0C9444010C94483EE3
:100070000C9444010C9444010C9444010C944401EC
:100080000C9444010C9444010C9444010C944401DC
:100090000C94A73E0C9444010C94003E0C94440133
:1000A0000C9444010C9444010C9444010C944401BC
:1000B0000C9444010C9444010C9444010C944401AC
:1000C0000C9444010C9444010C9444010C9444019C
:1000D0000C9444010C9444010C9444010C9444018C
:1000E0000C944401F9083C0A1E091A092809600BFE
:1000F000600B1A09330A600B3F0AB50ACA0AF00AF4
:10010000C309CC09D3091A09F209600B03096D0967
:10011000260B600B600B370B5468696E672D4F2DF3
:100120004D6174696300536E616B652047616D6555
:10013000004A6F67204D6F6465004275696C6420EA
:1001400066726F6D205344004D6F6E69746F72203C
:100150004D6F6465004E6F005965730043616E63B7
:10016000656C204275696C643F004265643A2020EA
:100170002020202F2020204300546F6F6C3A202035
:1001800020202F202020430047414D45204F564539
:100190005221004C4F4E470053484F5254002020EC
:1001A000592D202020202020202020205A2D0058AA
:1001B0002D2020582B20202020286D6F64652900D9
:1001C0002020592B202020202020202020205A2BA6
:1001D000004A6F67206D6F64653A20002020202060
:1001E000202020202020202020202020002020202F
:1001F0002D2D2D2D2D2D2D2D2D2020202000205476
:1002000068696E672D4F2D4D617469632020002051
:1002100020202020202020202020202020202000FE
:100220000502870603089B1032151D299930133AE1
:100230006E3B203F11241FBECFEFD1E2DEBFCDBF0A
:1002400012E0A0E0B2E0E2E3F1E800E00BBF02C0A0
:1002500007900D92A639B107D9F71AE0A6E9B2E0E6
:1002600001C01D92A437B107E1F712E0C4E3D2E068
:1002700004C02297FE010E94B43FC032D107C9F7E3
:100280000E949F0C0C9497400C940000F89480916D
:100290009804909199042091960430919704281B1A
:1002A000390B7894C90108958093A0040895809132
:1002B000A0040895809198049091990420E0892BDE
:1002C00009F421E0822F0895109299041092980465
:1002D00010929B0410929A0410929E0410929F0414
:1002E0001092A2041092A1040895FC01CB01248174
:1002F000358160817181820F931F0E944E3F26815C
:100300003781280F391FC90108951F93182F209195
:10031000980430919904809196049091970428173D
:100320003907A0F4609198047091990486E994E0EB
:100330000E947501FC0110838091980490919904AA
:100340000196909399048093980403C081E0809370
:100350009E041F910895CF93DF93EC018A819B81C6
:10036000892B21F481E0898780E015C0CE0160E00F
:1003700070E00E947501FC018C819D81688179810A
:1003800001960E944E3F9D838C838A819B810197B9
:100390009B838A838081DF91CF910895DF92EF92D2
:1003A000FF920F931F9306E914E0C8010E94AB016E
:1003B000D82EC8010E94AB01E82EC8010E94AB01F3
:1003C000F82EC8010E94AB01982F6D2D7E2D8F2D28
:1003D0001F910F91FF90EF90DF900895FF920F9380
:1003E0001F9306E914E0C8010E94AB01F82EC80172
:1003F0000E94AB01982F8F2D1F910F91FF900895B0
:1004000086E994E00E94AB01089580E092E0909329
:100410009704809396041092990410929804109275
:100420009B0410929A0486E992E090939D04809335
:100430009C0410929E0410929F0483EA94E00E9410
:10044000A5148DEA94E00E94A51487EB94E00E9425
:10045000A51408952F923F924F925F926F927F92D0
:100460008F929F92AF92BF92CF92DF92EF92FF92C4
:100470000F931F93DF93CF93CDB7DEB7CC59D04006
:100480000FB6F894DEBF0FBECDBF0E94B20C88231A
:10049000C1F436C0609198047091990486E994E0A3
:1004A0000E947501FC011083809198049091990439
:1004B0000196909399048093980404C000939E043D
:1004C00001C001E020919804309199048091960434
:1004D000909197048217930799F00E94B80C882393
:1004E00079F00E942F0D182F2091980430919904D3
:1004F000809196049091970428173907F8F6CACF8F
:100500008091A004882309F0E8C38091A104909110
:10051000A204039781F40E94780F882341F08DEAAA
:1005200094E00E94AC14882331F00E94FE0F1092D8
:10053000A2041092A1048091A1049091A2040197B9
:1005400041F40E94780F882321F41092A2041092A3
:10055000A1048091A1049091A204029751F483EA2E
:1005600094E00E94AC14882321F01092A20410920F
:10057000A1048091A1049091A2040497D9F587EB7E
:1005800094E00E94AC14882329F01092A2041092E7
:10059000A10430C00E941C15882361F10E94F5144B
:1005A0008C010E94F2147C01C8010E946B3CC801BE
:1005B0006091E0050E94BF3CC80164E20E94BF3C1C
:1005C0000E94371502C00E948E150E942D158823A7
:1005D000D1F3D70192968C91882351F4C70161E041
:1005E0000E944C3C80FF04C01092A2041092A1040F
:1005F0000E942A158091A1049091A2040597D1F53B
:1006000087EB94E00E94AC14882329F01092A20496
:100610001092A1042FC00E941C15882359F10E943A
:10062000F5148C010E94F2147C01C8010E946B3CFD
:10063000C8016091E0050E94BF3CC80163E20E94CE
:10064000BF3C0E94371502C00E948E150E942D15D6
:100650008823D1F3F70182A1882351F4C70161E017
:100660000E944C3C882321F01092A2041092A10415
:100670000E942A158091A1049091A204892B09F06F
:100680002CC38091980490919904892B09F425C377
:1006900086E994E060E070E00E947501FC01108141
:1006A0001138C1F58091980490919904419708F40C
:1006B00014C386E994E00E94AB0181E090E090933E
:1006C000A2048093A1040E94CE013B014C010E9430
:1006D000CE015B016C010E94CE017B018C010E9466
:1006E000CE01AB01BC016D827E828F829886A98685
:1006F000BA86CB86DC86ED86FE860F87188B198A34
:100700001A8A1B8A1C8A1D8A1E8A1F8A188ECE018D
:10071000059650C01B3809F050C080919804909104
:100720009904499708F4D9C286E994E00E94AB0184
:1007300081E090E09093A2048093A1040E94CE01F6
:10074000C756DF4F688379838A839B83C959D0401A
:100750000E94CE011B012C010E94CE013B014C01E5
:100760000E94CE015B016C010E94CE017B018C01D5
:100770000E94CE01AB01BC01C756DF4F8881998131
:10078000AA81BB81C959D040898F9A8FAB8FBC8F0A
:100790002D8E3E8E4F8E58A269A27AA28BA29CA269
:1007A000ADA2BEA2CFA2D8A6E9A6FAA60BA71CA707
:1007B000CE0149960E94D41390C21E3809F065C03C
:1007C00080919804909199044A9708F486C286E92A
:1007D00094E00E94AB0181E090E09093A2048093AA
:1007E000A1040E94CE01CB56DF4F688379838A83B0
:1007F0009B83C559D0400E94CE01CF56DF4F6883FE
:1008000079838A839B83C159D0400E94CE011B010A
:100810002C010E94CE017B018C010E94CE015B0164
:100820006C010E94CE013B014C010E940002282F66
:10083000CB56DF4F88819981AA81BB81C559D040B1
:100840008DA79EA7AFA7B8ABCF56DF4F8881998100
:10085000AA81BB81C159D04089AB9AABABABBCABD1
:100860002DAA3EAA4FAA58AEE9AEFAAE0BAF1CAF06
:10087000FE01FD96A082B182C282D382CE018D9606
:10088000B401A3010E940A1328C2163891F4809182
:10089000980490919904029708F41FC286E994E0A5
:1008A0000E94AB0186E994E00E94AB018093E005D1
:1008B00014C2193851F580919804909199040297C7
:1008C00008F40BC286E994E00E94AB0186E994E04B
:1008D0000E94AB01D82EDD1CDD24DD1C00E010E001
:1008E000E82EFF24C701002E02C0959587950A9433
:1008F000E2F780FF04C0802F6D2D0E940C120F5F65
:100900001F4F0530110571F7E8C11238D9F58091F4
:100910009804909199040D9708F4DFC186E994E05A
:100920000E94AB010E94CE017B018C010E94CE018E
:100930005B016C010E94CE01DE01AF5BBF4FED9207
:10094000FD920D931C931397FE01EB5BFF4FA0826A
:10095000B182C282D382FE01E75BFF4F6083718365
:1009600082839383FE01E35BFF4F10821182128228
:100970001382FE01EF5AFF4F1082118212821382FE
:10098000CD0158C11C38B1F580919804909199041B
:10099000459708F4A2C186E994E00E94AB010E9449
:1009A000CE011B012C010E94CE013B014C010E9493
:1009B000CE015B016C010E94CE017B018C010E9483
:1009C000CE01FE01EB5AFF4F2082318242825382D8
:1009D0006482758286829782A086B186C286D3861B
:1009E000E486F58606871787608B718B828B938BE5
:1009F000CF0120C11538F1F48091980490919904A9
:100A0000059708F46AC182E090E09093A204809375
:100A1000A10486E994E00E94AB010E94CE0128EE79
:100A200033E040E050E00E942F3FAB01BC0183EA7D
:100A300094E061C0812F83588230A0F580919804A2
:100A400090919904089708F448C186E994E00E94BF
:100A5000AB010E940002082F0E94CE016B017C01B5
:100A60000E94EE0123E030E03093A2042093A10421
:100A7000A0E0B0E0BC01CD0120E432E44FE050E062
:100A80000E942F3FAB01BC018DEA94E00E94D1147B
:100A900080E0143809F481E0602FA70196010E94DC
:100AA00020121BC1173851F5809198049091990438
:100AB000069708F412C184E090E09093A20480931A
:100AC000A10486E994E00E94AB0186E994E00E94CB
:100AD000AB010E94EE010E94EE01A0E0B0E0BC017B
:100AE000CD0120E432E44FE050E00E942F3FAB0103
:100AF000BC0187EB94E00E94D114EFC01D3851F483
:100B00008091980490919904069708F4E6C085E0D6
:100B100090E0D3CF1F3809F04AC08091980490919B
:100B20009904029708F4D9C086E994E00E94AB01C9
:100B30000E94000259E6E52EF12CEC0EFD1E00E0AD
:100B400010E040E6C42ED12CA82EBB24C7012E2CC9
:100B5000692E4E010894811C911CC501002E02C013
:100B6000959587950A94E2F780FF15C0822D962D02
:100B70000E944110F70180819181A281B381898314
:100B80009A83AB83BC83F894C401B60144E050E07F
:100B90000E947F4078940F5F1F4F84E090E0E80E42
:100BA000F91EC80ED91E05301105B9F696C01039C8
:100BB00009F043C08091980490919904029708F439
:100BC0008CC086E994E00E94AB010E940002F82EDE
:100BD0008E0103581F4FC8010E944110CC24DD2410
:100BE00030E6A32EB12CEF2CFF24C7010C2C02C041
:100BF000959587950A94E2F780FF0EC0F894C60198
:100C0000880F991F880F991F800F911FB50144E02D
:100C100050E00E946F4078940894C11CD11CA4E05D
:100C2000B0E0AA0EBB1EB5E0CB16D104F1F6CE01A2
:100C300083589F4F0E94031050C0183809F04DC0D0
:100C40008091980490919904049708F446C086E92D
:100C500094E063E070E00E947501FC01209198042B
:100C600030919904808190E0049628173907A8F103
:100C70000E941C15882389F10E94F5147C010E94B2
:100C80006B3C86E994E00E94AB0186E994E00E9407
:100C9000AB01682FC7010E94BF3C86E994E00E9427
:100CA000AB01682FC7010E94BF3C0E940002C82E02
:100CB000DD2400E010E00AC086E994E00E94AB0168
:100CC000682FC7010E94BF3C0F5F1F4F0C151D0509
:100CD0009CF30E9437150E942A15C456DF4F0FB6A9
:100CE000F894DEBF0FBECDBFCF91DF911F910F9162
:100CF000FF90EF90DF90CF90BF90AF909F908F903C
:100D00007F906F905F904F903F902F90089581EC6F
:100D100094E00E94633C08956F927F928F929F921D
:100D2000AF92BF92CF92DF92EF92FF920F931F93F9
:100D3000DF93CF93CDB7DEB764970FB6F894DEBFDD
:100D40000FBECDBF7C016B01FC018081882309F4BB
:100D5000E2C03701C70160E00E944C3C982F8077C9
:100D6000803709F0D8C09037B9F4C6010E946B3CB7
:100D700001E010E00AC0C301602F0E944C3C682FC4
:100D8000C6010E94BF3C0F5F1F4FF701808190E0BA
:100D90000817190784F3C1C0913709F4BCC0923712
:100DA00009F4B9C0933709F07FC00E94F5145C01C3
:100DB0000E94F2144C01C5010E946B3C01E010E05E
:100DC0000AC0C301602F0E944C3C682FC5010E94DD
:100DD000BF3C0F5F1F4FF701808190E00817190794
:100DE00084F38E010F5F1F4FC8010E94A514C80134
:100DF00040E553EC60E070E00E94D114F02E012F2A
:100E00000FC08F2D902F0E94AC14882349F0C6018B
:100E100068E80E94BF3C80E599E062E070E026C08F
:100E20000E941C15882369F38E01055F1F4FC801BE
:100E30000E94A514C80140E553EC60E070E00E94F8
:100E4000D1140E9437150E942A15F02E012F13C0CD
:100E50008F2D902F0E94AC14882359F0C60167E8AB
:100E60000E94BF3C80E599E061E070E00E9451364D
:100E700054C00E948E150E942D15882349F37401D9
:100E800000E010E00AC0C701602F0E944C3C682FB0
:100E9000C6010E94BF3C0F5F1F4FF401808190E0AC
:100EA0000817190784F339C0943739F40E94640194
:100EB000C60161E80E94BF3C30C09637A1F4C7016B
:100EC00061E00E944C3C182FC70162E00E944C3C3C
:100ED000682F112329F480E599E070E00E945136D3
:100EE000C60161E816C09737B1F4C70161E00E94FE
:100EF0004C3C182FC60161E80E94BF3C112339F415
:100F000080E599E00E946F36682FC60102C0C601D5
:100F100060E00E94BF3C80E001C081E064960FB6B3
:100F2000F894DEBF0FBECDBFCF91DF911F910F911F
:100F3000FF90EF90DF90CF90BF90AF909F908F90F9
:100F40007F906F9008951F93DF93CF930F92CDB74B
:100F5000DEB79C01162FCE010196B90141E050E0A9
:100F60000E946F4089818F3F09F4198389810F9016
:100F7000CF91DF911F910895DF93CF9300D0CDB72C
:100F8000DEB7CE01019660E070E042E050E00E94E2
:100F90006F403A8184E6389FC00111242981820F75
:100FA000911D84529140F1F032503D3F78F082E043
:100FB00090E062E00E94894083E090E06FE10E944F
:100FC000894080E290E060E00E9489408CE589835E
:100FD00082E08A83CE01019660E070E042E050E05A
:100FE0000E947F400F900F90CF91DF91089581E193
:100FF00095E008958091300590913105089581E044
:1010000080930D02089587EE94E00E94A514089540
:1010100081E195E00E94F10E9C01009731F482E09D
:1010200090E09093310580933005C9010895CF93E6
:10103000DF938091F104882371F4C0E2D0E0CE0107
:1010400060E00E94A307FE01EF52FB4F80832196D0
:10105000C034D105A1F78091F104882371F480E0B8
:1010600090E0FC01E85EFE4FE491DC01AF50BB4F25
:10107000EC9301968E309105A1F781EF94E0DF911A
:10108000CF910895AF92BF92CF92DF92EF92FF92ED
:101090000F931F93DF93CF93CDB7DEB72A970FB689
:1010A000F894DEBF0FBECDBF6C018E010F5F1F4FE6
:1010B000C8010E94A514C80142E350E060E070E05E
:1010C0000E94D114F02E012F11C08F2D902F0E945D
:1010D000AC14882359F0C60167E80E94BF3C80E544
:1010E00099E062E070E00E9451363EC00E941C15FB
:1010F000882359F30E94F5148C010E94F2147C019C
:10110000C8010E946B3CC8016091E0050E94BF3C91
:10111000C80167E10E94BF3C0E9437150E942A1552
:1011200002C00E948E150E942D158823D1F3F7016D
:1011300082A1843021F0570100E010E00FC0C60109
:1011400067E80E94BF3C10C0C501602F0E944C3C64
:10115000682FC6010E94BF3C0F5F1F4FF7018081BF
:1011600090E00817190784F32A960FB6F894DEBFAB
:101170000FBECDBFCF91DF911F910F91FF90EF90E8
:10118000DF90CF90BF90AF9008956F927F928F9233
:101190009F92AF92BF92CF92DF92EF92FF920F9306
:1011A0001F93DF93CF93CDB7DEB7CD54D0400FB6AA
:1011B000F894DEBF0FBECDBF7C015B01FC018081D6
:1011C000882309F47DC27E2C6F2CC70160E00E9449
:1011D0004C3C87FD75C2E82FF0E0EA31F10508F0DC
:1011E0006FC2EE58FF4FEE0FFF1F0590F491E02DF8
:1011F0000994C50161E80E94BF3CC50164E271E049
:101200000E94DB3C5BC2C50161E80E94BF3C01E17A
:1012100015E0C501F80160810E94BF3CF8018081A2
:10122000882309F44BC20F5F1F4FF5E000331F07FF
:1012300081F744C281E080930D021EC1C50161E8BF
:101240000E94BF3C0E944601AC0160E070E033C2E6
:10125000F894CE014B960E944110C50161E80E94AE
:10126000BF3C4B8D5C8D6D8D7E8DC5010E94113D07
:101270004F8D58A169A17AA1C5010E94113D4BA1D2
:101280005CA16DA17EA1C5010E94113D63E0E62E27
:10129000F12CCC240894E108F108870154E0000FF8
:1012A000111F5A95E1F70E0D1F1D005B164FC80167
:1012B0000E94703A882311F4DD2402C042E0D42E4B
:1012C000C8010E94903ACC0CCC0CCD28C82AE1145D
:1012D000F10401F7C5016C2D59C1F894CE014B966C
:1012E0000E944110C50161E80E94BF3C4B8D5C8D9E
:1012F0006D8D7E8DC5010E94113D4F8D58A169A154
:101300007AA1C5010E94113D4BA15CA16DA17EA1F6
:10131000C5010E94113D4FA158A569A57AA5C50137
:101320000E94113D4BA55CA56DA57EA5C5010E943F
:10133000113D35E0E32EF12CCC240894E108F108AE
:10134000870124E0000F111F2A95E1F70E0D1F1DE4
:10135000005B164FC8010E94703A882311F4DD2407
:1013600002C092E0D92EC8010E94903ACC0CCC0C5D
:10137000CD28C82AE114F10401F7C5016C2D70E0F5
:101380000E94DB3C05C1C50161E80E94BF3CC7016A
:1013900003960E94250F23C0C50161E80E94BF3C4F
:1013A0000E94CC0C86C1C50161E80E94BF3C01E0EF
:1013B00010E00BC0872D962D602F0E944C3CF80149
:1013C000E05FFA4F80830F5F1F4FF701808190E04D
:1013D000081719077CF310922F050E940808682F40
:1013E000C50115C0C50161E80E94BF3C8E2D9F2D2F
:1013F00061E00E944C3C882369F00E94640FBC01AC
:10140000009741F0C5010E94BF3CC50160E00E9409
:10141000BF3C54C18E01015D1F4FC8016FE10E94A6
:10142000F70DBC018FA5882329F06115710511F412
:101430008E3299F3C5010E94BF3C8E01015D1F4FA2
:101440008FE1E82EF12CE00EF11E08C0C5010E94CC
:10145000BF3C0F5F1F4F0E151F05B9F2F8016081E9
:101460006623A1F7D2CF0E94570191E089270E94FD
:101470005401C5010E944208C50161E8C8CFF701C7
:101480008081823048F4C50160E80E94BF3C80E55D
:1014900099E068E070E01EC08E010F5F1F4FC80129
:1014A0000E94A514C80142E350E060E070E00E9491
:1014B000D114D02E012F11C08D2D902F0E94AC146D
:1014C000882359F0C50167E80E94BF3C80E599E098
:1014D00062E070E00E945136F1C00E941C15882322
:1014E00059F30E94F5144C010E94F2146C01C401DE
:1014F0000E946B3C01E010E00BC0872D962D602F01
:101500000E944C3C682FC4010E94BF3C0F5F1F4FDC
:10151000F701808190E0081719077CF30E943715C6
:101520000E942A1502C00E948E150E942D15882344
:10153000D1F3F60182A1843021F0760100E010E0C1
:101540000DC0C50167E863CFC701602F0E944C3C06
:10155000682FC5010E94BF3C0F5F1F4FF6018081BD
:1015600090E00817190784F3A9C0C50161E80E943B
:10157000BF3CF8940E94780F882309F0B8C00E94FD
:101580005A01882309F4B3C061E0C5010E94BF3C41
:10159000789494C08E2D9F2D61E00E94513C6C0187
:1015A0008E2D9F2D63E00E944C3CE82EFF248E017F
:1015B000055F1F4FC801B601A7010E946F40C5011A
:1015C00061E80E94BF3CE00EF11E06C0C501F801B3
:1015D00061918F010E94BF3C0E151F05B9F76EC0C7
:1015E0008E2D9F2D61E00E94513CC82E992E8E2D8C
:1015F0009F2D63E00E944C3CD82E8E01055F1F4F4B
:10160000C8016C2D792D4D2D50E00E946F4078015E
:1016100014E00D2D0C5F09C0872D962D612F0E94BF
:101620004C3CF70181937F011F5F1017A9F7CE0192
:101630000B966C2D792D4D2D50E00E947F40C501F9
:1016400061E80E94BF3CC5016D2DE1CE8E2D9F2D1E
:1016500061E00E944C3C082F80FF02C00E94FE0FF8
:1016600001FF02C00E946401C50161E8CCCEC50142
:1016700061E80E94BF3CC50140E050E060E070E0DE
:101680000E94113D0E94F814AB01BC01C5010E94EB
:10169000113D0E940115AB01BC01C5010E94113D25
:1016A0000E940A15AB01BC01C5010E94113D0E94B8
:1016B0001315AB01BC01C5010E94113D81E001C0C1
:1016C00080E0C35BDF4F0FB6F894DEBF0FBECDBF27
:1016D000CF91DF911F910F91FF90EF90DF90CF900E
:1016E000BF90AF909F908F907F906F90089560E033
:1016F0004CCFCF92DF92EF92FF920F931F93CF9335
:10170000DF93EC017B0188818823A1F16E01CE017A
:1017100060E00E944C3C87FF2DC00E94B50C8823DE
:1017200041F0CE010E94370DC70161E80E94BF3C25
:101730001FC0F89418810E944601212F30E08217C3
:10174000930788F0C0E0D0E0890107C0C6016C2F84
:101750000E944C3C0E9485012196C017D107B4F32A
:10176000C70161E802C0C70162E80E94BF3C7894EB
:1017700081E001C080E0DF91CF911F910F91FF9038
:10178000EF90DF90CF9008958091200A9091210AE8
:10179000892B09F48BC08091200A9091210A04972B
:1017A00009F08AC083C010920D0280E00E945D0C97
:1017B00087EE94E00E94A9141092F1041092110592
:1017C000109231051092300508958091FA09909198
:1017D000FB09892B01F18091FA099091FB0904978B
:1017E000D1F08091E704882349F487EE94E040E249
:1017F0005EE460E070E00E94D1140DC087EE94E0DA
:101800000E94AC14882339F087ED99E00E94B13B27
:1018100084E08093F9098091F909882399F08091F7
:10182000F909843029F480E599E064E070E004C0AF
:1018300080E599E065E070E00E94513687ED99E01F
:101840000E94BF3B8091FA099091FB090497A1F592
:1018500087EE94E00E94A9148DEF99E00E946B3C02
:1018600087ED99E06DEF79E00E948C068823A9F45A
:1018700087ED99E06DEF79E00E94790B882369F498
:1018800087ED99E06DEF79E00E94C508882329F47F
:101890008DEF99E065E80E94BF3C87ED99E00E94DA
:1018A000BF3B83ED99E00E94803E089580910D0238
:1018B000882309F48ACF77CF0895FF920F931F935F
:1018C000DF93CF93CDB7DEB72A970FB6F894DEBF7C
:1018D0000FBECDBF182FF8940E94EB0C0E94FE0F94
:1018E0000E9464010E94BC0780E599E00E9457377E
:1018F00078941123A9F08E010F5F1F4FC8010E9439
:10190000A514C80140EA55E266E270E00E94D114D5
:10191000F02E012F8F2D902F0E94AC148823D1F32D
:101920000E94291778942A960FB6F894DEBF0FBE4E
:10193000CDBFCF91DF911F910F91FF90089580E56A
:1019400099E00E94810F81E00E945D0C78940E94D2
:101950008E150E94C40B0E942A0280E599E00E9425
:10196000EB36F5CF80913B05089580913A050895B7
:1019700080914105089510923B0580913805909122
:101980003905009721F00E9450230E949F26109253
:10199000390510923805089580913A05882381F021
:1019A0008091380590913905009721F00E945023CD
:1019B0000E949F26109239051092380510923A0520
:1019C0000E94EB0C60913C0570913D0580913E05B5
:1019D00090913F05089580913B05882311F00E9466
:1019E000BB0C80913A05882311F00E94CC0C8091A9
:1019F000360590913705009731F00E94D61B109262
:101A00003705109236058091340590913505009781
:101A100031F00E946B1710923505109234058091B9
:101A2000320590913305009731F00E94692410929D
:101A3000330510923205089580913805909139054B
:101A400060E475E041E050E00E94121910924105F7
:101A5000181619061CF481E08093410508951F9320
:101A6000109140050E941C0D812F1F910895CF9366
:101A7000DF93EC0180913805909139050097E1F0F2
:101A8000BE016E5F7F4F488150E00E945C1A288142
:101A900080913C0590913D05A0913E05B0913F0598
:101AA000820F911DA11DB11D80933C0590933D05B2
:101AB000A0933E05B0933F05DF91CF910895DF934A
:101AC000CF93CDB7DEB7AB970FB6F894DEBF0FBE9E
:101AD000CDBFBC018091360590913705AE014F5FB7
:101AE0005F4F0E94EC22811181E0AB960FB6F89413
:101AF000DEBF0FBECDBFCF91DF9108950F931F932F
:101B0000CF93DF93EC018B010EC0C801BE010E9490
:101B10003E40009741F480913605909137050E9430
:101B2000DC1B81E009C08091360590913705B80132
:101B30000E94C01C882349F7DF91CF911F910F911C
:101B400008950F931F93DF93CF93CDB7DEB7AB9775
:101B50000FB6F894DEBF0FBECDBF8E010F5F1F4FD3
:101B6000B8010E947E0D882341F080913405909148
:101B70003505B8010E94E91B81E0AB960FB6F894D9
:101B8000DEBF0FBECDBFCF91DF911F910F910895A2
:101B9000EF92FF920F931F93DF93CF93CDB7DEB7F2
:101BA000AB970FB6F894DEBF0FBECDBF7B018E01A1
:101BB0000F5F1F4FB8010E947E0D882359F080915E
:101BC000340590913505B8010E94A023F701918357
:101BD000808381E0AB960FB6F894DEBF0FBECDBF19
:101BE000CF91DF911F910F91FF90EF900895AF92E9
:101BF000BF92DF92EF92FF920F931F93DF93CF93E9
:101C0000CDB7DEB7AB970FB6F894DEBF0FBECDBF32
:101C10007C0185E0D82E5E010894A11CB11C062F22
:101C200010E0015010408091360590913705B501C4
:101C30000E94C01C8823D1F080E090E005C0F7012D
:101C4000E80FF91F208301968017910734F4F501FE
:101C5000E80FF91F2081222391F7F701E80FF91F00
:101C60001082892B29F4DA94F1F602C0F701108270
:101C700080E090E0AB960FB6F894DEBF0FBECDBF0C
:101C8000CF91DF911F910F91FF90EF90DF90BF9068
:101C9000AF9008950F931F93DF93CF93CDB7DEB727
:101CA000AB970FB6F894DEBF0FBECDBF8091340561
:101CB0009091350560E072E08E010F5F1F4FA80123
:101CC0000E94D8238091340590913505B8010E9477
:101CD0006323909337058093360520E0892B09F024
:101CE00021E0822FAB960FB6F894DEBF0FBECDBFBA
:101CF000CF91DF911F910F910895809132059091BE
:101D000033050E94CF1E909335058093340520E063
:101D1000892B09F021E0822F08950F9389EB96E239
:101D200067E777E240EC55E225E938E200E00E94FF
:101D300071249093330580933205892B79F489EBD4
:101D400096E267E777E240EC55E225E938E20FEFEB
:101D50000E947124909333058093320520E0809196
:101D6000320590913305892B09F021E0822F0F91E4
:101D700008950E94E727882371F40E944D25882347
:101D800029F40E94EB0C21E030E029C00E94EB0C0A
:101D900022E030E024C00E948D0E882329F40E94A6
:101DA000EB0C23E030E01BC00E947D0E882329F459
:101DB0000E94EB0C24E030E012C00E944A0E8823FF
:101DC00029F40E94EB0C25E030E009C00E94562562
:101DD000882319F420E030E002C026E030E0C90199
:101DE0000895CF93DF93EC010E94EB0C0E94B90E93
:101DF0009C01009719F086309105D9F410923C05AA
:101E000010923D0510923E0510923F051092390543
:101E100010923805CE0168E375E00E94C80D882352
:101E200031F08091380590913905892B31F427E004
:101E300030E0C901DF91CF91089581E080933B05A7
:101E40000E941C0D20E030E0F4CF0F931F93CF933E
:101E5000DF93EC010E94EB0C0E94B90E8C010097FD
:101E600069F510923C0510923D0510923E051092C6
:101E70003F051092390510923805CE010E94A10D40
:101E8000CE010E945F0D882319F407E010E016C010
:101E9000CE0168E375E00E94C80D882319F403E0C1
:101EA00010E00CC08091380590913905892B19F408
:101EB00008E010E003C081E080933A05C801DF919B
:101EC000CF911F910F9108950E94EB0C0E94B90EC3
:101ED0009C01009719F08630910541F480913605F8
:101EE000909137050E94DC1B20E030E0C901089585
:101EF00080914205882311F081E008958091D205F8
:101F000008950F931F93DF93CF93CDB7DEB76197FB
:101F10000FB6F894DEBF0FBECDBFBC0110924205D4
:101F20004BE455E020E030E00BE110E01E861F8618
:101F3000188A198A1A861B861C861D861E821F8295
:101F4000188619861A821B821C821D82209FF0012E
:101F5000219FF00D309FF00D1124E55BFA4F898130
:101F6000828F8A819B81AC81BD81868B978BA08F6C
:101F7000B18F8E819F81A885B985828B938BA48B2D
:101F8000B58B8A859B85AC85BD8586879787A08B19
:101F9000B18BDA011A961D921D921D921C921D970B
:101FA00016961D921D921D921C9219978E859F85E3
:101FB000A889B98982839383A483B583C901E4E0A6
:101FC000880F991FEA95E1F7820F931F860F971FDD
:101FD000FA01918380832F5F3F4F455E5F4F25302D
:101FE000310509F0A3CF61960FB6F894DEBF0FBE9E
:101FF000CDBFCF91DF911F910F91089510924205AF
:102000001092D2050895FC0180819181A281B38153
:1020100080934D0590934E05A0934F05B0935005C6
:1020200084819581A681B781809368059093690525
:10203000A0936A05B0936B0580859185A285B385D1
:102040008093830590938405A0938505B0938605BE
:1020500084859585A685B78580939E0590939F0579
:10206000A093A005B093A10580899189A289B38925
:102070008093B9059093BA05A093BB05B093BC05B6
:1020800008956F927F928F929F92AF92BF92CF925C
:10209000DF92EF92FF920F931F93FC0180914D0509
:1020A00090914E05A0914F05B09150052091680583
:1020B0003091690540916A0550916B05E090830568
:1020C000F09084050091850510918605A0909E05ED
:1020D000B0909F05C090A005D090A1056090B90573
:1020E0007090BA058090BB059090BC058083918369
:1020F000A283B3832483358346835783E086F186A6
:1021000002871387A486B586C686D786608A718AB9
:10211000828A938ACF011F910F91FF90EF90DF90F9
:10212000CF90BF90AF909F908F907F906F900895C9
:102130008093D3050895EBE4F5E0118210827B963D
:1021400085E0E23DF807C9F708958F929F92AF921C
:10215000BF92CF92DF92EF92FF920F931F93CF9394
:10216000DF9380914205882309F4B1C0809147052F
:1021700090914805A0914905B0914A050197A109A0
:10218000B1098093470590934805A0934905B09302
:102190004A050196A11DB11D0097A105B10519F4CD
:1021A0001092420591C00BE415E0EE24FF24ABE150
:1021B0008A2E912CA0904305B0904405C09045050F
:1021C000D0904605E89CE001E99CD00DF89CD00D2C
:1021D0001124C55BDA4F8A899B89AC89BD892E8918
:1021E0003F89488D598D280F391F4A1F5B1F2A8B45
:1021F0003B8B4C8B5D8B8A899B89AC89BD89B7FDF4
:1022000059C06A8DF801808191810E941A3A8A89A9
:102210009B89AC89BD898A199B09AC09BD098A8B48
:102220009B8BAC8BBD8B8A8DF801208131818823FB
:10223000E1F0C9010E94703A882331F4F8018081ED
:10224000918161E00E943A3AE89CF001E99CF00D2E
:10225000F89CF00D1124E55BFA4F82819381A481F3
:10226000B5810196A11DB11D1BC0C9010E94903A04
:10227000882331F4F8018081918161E00E943A3A2B
:10228000E89CF001E99CF00DF89CF00D1124E55B51
:10229000FA4F82819381A481B5810197A109B10987
:1022A00082839383A483B583F8018081918160E068
:1022B0000E943A3A0894E11CF11C055E1F4FF5E0BC
:1022C000EF16F10409F076CF8091420598C0809115
:1022D000D205882309F493C01092D2050BE415E0CF
:1022E000AA24BB24FBE18F2E912CC0904305D090F3
:1022F0004405E0904505F0904605A89CE001A99CA6
:10230000D00DB89CD00D1124C55BDA4F8E899F8902
:10231000A88DB98D0097A105B10509F45EC08A8921
:102320009B89AC89BD892E893F89488D598D280F9D
:10233000391F4A1F5B1F2A8B3B8B4C8B5D8B8A8915
:102340009B89AC89BD89B7FD4BC06A8DF80180813E
:1023500091810E941A3A8A899B89AC89BD898C191E
:102360009D09AE09BF098A8B9B8BAC8BBD8B8A8D77
:10237000F80120813181882399F0C9010E94703AC7
:10238000882359F5F8018081918161E00E943A3AF1
:102390008A819B81AC81BD810196A11DB11D12C0B6
:1023A000C9010E94903A8823C1F4F801808191818B
:1023B00061E00E943A3A8A819B81AC81BD8101979C
:1023C000A109B1098A839B83AC83BD83F801808115
:1023D000918160E00E943A3A03C08091D205811158
:1023E00081E08093D2050894A11CB11C055E1F4FAB
:1023F000F5E0AF16B10409F078CF8091D205DF91F6
:10240000CF911F910F91FF90EF90DF90CF90BF90F1
:10241000AF909F908F900895853088F4282F30E0FA
:102420008BE190E0289FF001299FF00D389FF00D7F
:102430001124E55BFA4F808191810E94553A0895FD
:102440002F923F924F925F926F927F928F929F92C4
:10245000AF92BF92CF92DF92EF92FF920F931F93B2
:10246000DF93CF9300D00F92CDB7DEB78983162FBD
:102470008FEF9FEFAFEFBFE780934705909348053D
:10248000A0934905B0934A0597E05695479537952F
:1024900027959A95D1F720934305309344054093AF
:1024A000450550934605CA01B90122E030E040E0FD
:1024B00050E00E94973F882499245401821A930A7D
:1024C000A40AB50A8BE4C82E85E0D82EEE24FF249A
:1024D0000BE1202E312C012F10E0B1E04B2E512CBE
:1024E000612C712CE29CC001E39C900DF29C900D3C
:1024F0001124855B9A4F9B838A83FC01828A938A8D
:10250000A48AB58AC8010E2C02C0959587950A94B5
:10251000E2F780FF0FC08981828FF601808191816F
:1025200061E00E94553AEA81FB81468A578A608EB3
:10253000718E06C0EA81FB81168A178A108E118E71
:102540000894E11CF11C8BE190E0C80ED91E95E0C7
:10255000E916F10439F681E08093D2050F900F90CF
:102560000F90CF91DF911F910F91FF90EF90DF902F
:10257000CF90BF90AF909F908F907F906F905F9023
:102580004F903F902F900895CF93DF93EC014E87AB
:102590005F87688B798B222329F08E859F85A88998
:1025A000B9890CC08E859F85A889B9892A813B810C
:1025B0004C815D81821B930BA40BB50B8E8B9F8B83
:1025C000A88FB98F81E08A8F8E899F89A88DB98D58
:1025D0000097A105B10529F08881998161E00E94E9
:1025E000553A8E899F89A88DB98DB7FF10C08E8905
:1025F0009F89A88DB98DB095A095909581959F4F95
:10260000AF4FBF4F8E8B9F8BA88FB98F1A8EDF91E4
:10261000CF9108954F925F926F927F928F929F9287
:10262000AF92BF92CF92DF92EF92FF920F931F93E0
:10263000CF93DF934A015B016C014BE4E42E45E04C
:10264000F42EC0E0D0E03BE1432E512C622E7724E3
:10265000C49D8001C59D100DD49D100D1124055BF6
:102660001A4FF601408151816281738193010C2ED2
:1026700002C0359527950A94E2F721703070C801A1
:102680000E94C412F80126893789408D518DC230CD
:10269000D10579F48091D305882359F4809181057F
:1026A0009091820560E0211531054105510551F0F9
:1026B00008C0211531054105510531F0F701808130
:1026C000918161E00E94553A219684E090E0C80E25
:1026D000D91EEBE1F0E0EE0EFF1EC530D10509F08A
:1026E000B7CFC501B40120E830E040E050E00E94DF
:1026F000973FB901CA0160934305709344058093E5
:10270000450590934605609347057093480580936F
:10271000490590934A0522E030E040E050E00E94F5
:10272000973F50954095309521953F4F4F4F5F4FC4
:1027300020935D0530935E0540935F0550936005DF
:10274000209378053093790540937A0550937B0563
:1027500020939305309394054093950550939605E7
:102760002093AE053093AF054093B0055093B1056B
:102770002093C9053093CA054093CB055093CC05EF
:1027800081E080934205DF91CF911F910F91FF90DF
:10279000EF90DF90CF90BF90AF909F908F907F9001
:1027A0006F905F904F9008952F923F924F925F925B
:1027B0006F927F928F929F92AF92BF92CF92DF9251
:1027C000EF92FF920F931F93CF93DF931A012B0188
:1027D0003C015BE4852E55E0952EAA24BB246501BF
:1027E000C0E0D0E08BE190E0C89F8001C99F100D50
:1027F000D89F100D1124055B1A4FF30140815181C0
:1028000062817381C80120E00E94C412F801E68849
:10281000F788008D118DC230D10579F48091D305F0
:10282000882359F4809181059091820560E0E1143C
:10283000F1040105110551F008C0E114F10401058E
:10284000110531F0F4018081918161E00E94553AD7
:10285000AE14BF04C006D10614F4570168012196D6
:1028600084E090E0680E791EEBE1F0E08E0E9F1E92
:10287000C530D10509F0B6CFC601B501A20191015D
:102880000E942F3F20E830E040E050E00E94973F58
:10289000B901CA01609343057093440580934505CF
:1028A00090934605609347057093480580934905CA
:1028B00090934A0522E030E040E050E00E94973FCC
:1028C00050954095309521953F4F4F4F5F4F209346
:1028D0005D0530935E0540935F055093600520933E
:1028E00078053093790540937A0550937B052093C2
:1028F0009305309394054093950550939605209346
:10290000AE053093AF054093B0055093B1052093C9
:10291000C9053093CA054093CB055093CC0581E09F
:1029200080934205DF91CF911F910F91FF90EF901F
:10293000DF90CF90BF90AF909F908F907F906F90DF
:102940005F904F903F902F900895FC01108211826C
:102950000895FC0110820895CF93DF93EC018881E4
:102960008823D9F089818823C1F480E599E00E9409
:1029700044362A813B814C815D81621B730B840B41
:10298000950B2E813F81488559856217730784070F
:10299000950718F0188281E089838981DF91CF91B2
:1029A0000895CF92DF92EF92FF920F931F938C01C5
:1029B0006A017B0181E0F8018083118280E599E062
:1029C0000E944436F8016283738384839583C682B0
:1029D000D782E086F1861F910F91FF90EF90DF90F4
:1029E000CF90089587E29AE008958DE49AE00895E3
:1029F0006091E1057091E2058091E3059091E40515
:102A000008956091E5057091E6058091E705909144
:102A1000E80508956091E9057091EA058091EB055C
:102A20009091EC0508956091ED057091EE0580910F
:102A3000EF059091F00508958091D405882341F425
:102A40008091D505882321F481E08093D5050895F0
:102A500080E008951092D50508958091D40591E005
:102A60008927089586ED95E00E94A5140895FF92A8
:102A70000F931F93DF93CF93CDB7DEB72A970FB68F
:102A8000F894DEBF0FBECDBF8091E1059091E205C5
:102A9000A091E305B091E4050196A11DB11D8093BD
:102AA000E1059093E205A093E305B093E4058E0160
:102AB0000F5F1F4FC8010E94A514C80144EF51E0E9
:102AC00060E070E00E94D114F02E012F8F2D902F26
:102AD0000E94AC148823D1F381E08093D40586ED65
:102AE00095E040E553EC60E070E00E94D11485E091
:102AF00080930E0287E29AE00E94BF3B83E29AE055
:102B00000E94803E2A960FB6F894DEBF0FBECDBF5E
:102B1000CF91DF911F910F91FF9008958091D4057F
:102B2000882309F4A9C080914A0A90914B0A04971E
:102B300019F41092D40508958091490A8823E1F18F
:102B40008091490A8130C1F48091ED059091EE05A4
:102B5000A091EF05B091F0050196A11DB11D8093E4
:102B6000ED059093EE05A093EF05B093F00587E295
:102B70009AE00E94BF3B089520910E02222339F56E
:102B80008091E5059091E605A091E705B091E805F3
:102B90000196A11DB11D8093E5059093E605A093D4
:102BA000E705B093E8051092D40580E599E063E06D
:102BB00070E00E945136089586ED95E00E94AC14B5
:102BC000882309F459C020910E02222379F18091C3
:102BD000E9059091EA05A091EB05B091EC0501960D
:102BE000A11DB11D8093E9059093EA05A093EB0523
:102BF000B093EC05215020930E0286ED95E040E560
:102C000053EC60E070E00E94D1148DE49AE00E94E1
:102C1000733C87E29AE00E94BF3B83E29AE00E9405
:102C2000F13D83E29AE00E94803E08958091E5059F
:102C30009091E605A091E705B091E8050196A11DE8
:102C4000B11D8093E5059093E605A093E705B09349
:102C5000E80587E29AE00E94B13B84E08093490A4C
:102C600083E29AE00E94F13D1092D40580E599E05C
:102C700061E070E00E9451360895FF920F931F9318
:102C8000DF93CF93CDB7DEB72A970FB6F894DEBFA8
:102C90000FBECDBF8E010F5F1F4FC8010E94A5144C
:102CA000C80140EA56E861E070E00E94D114F02EBD
:102CB000012F0CC081E08093D5051092D40580E5EA
:102CC00099E062E070E00E94513613C08091D40513
:102CD000882341F48091D505882321F481E08093F5
:102CE000D50507C08F2D902F0E94AC14882371F357
:102CF000E1CF8DE49AE00E946B3C8DE49AE060E0C5
:102D00000E94BF3C8DE49AE068E20E94BF3C0E94B2
:102D1000371586ED95E040EA56E861E070E00E94E4
:102D2000D1141092D50502C00E948E158091D40551
:102D30008823D1F72A960FB6F894DEBF0FBECDBF19
:102D4000CF91DF911F910F91FF900895FF920F9304
:102D50001F93DF93CF93CDB7DEB72A970FB6F894C2
:102D6000DEBF0FBECDBF8E010F5F1F4FC8010E9497
:102D7000A514C80140EA56E861E070E00E94D11451
:102D8000F02E012F0CC081E08093D5051092D40560
:102D900080E599E062E070E00E94513613C08091B6
:102DA000D405882341F48091D505882321F481E05E
:102DB0008093D50507C08F2D902F0E94AC148823D7
:102DC00071F3E1CF8DE49AE00E946B3C8DE49AE0D0
:102DD00060E00E94BF3C8DE49AE060E00E94BF3C4E
:102DE0008DE49AE060E00E94BF3C8DE49AE060E0F0
:102DF0000E94BF3C0E94371586ED95E040EA56E8F8
:102E000061E070E00E94D1141092D50502C00E94CA
:102E10008E158091D4058823D1F78091490A84309A
:102E200011F490E009C087E29AE060E00E944C3C17
:102E300090E0813009F491E0892F2A960FB6F8943A
:102E4000DEBF0FBECDBFCF91DF911F910F91FF90DD
:102E500008951F931092E1051092E2051092E30588
:102E60001092E4051092E5051092E6051092E70530
:102E70001092E8051092E9051092EA051092EB0510
:102E80001092EC051092ED051092EE051092EF05F0
:102E90001092F00510E00E94A6161F5F103811F086
:102EA0008823C9F78091E9059091EA05A091EB0587
:102EB000B091EC050097A105B10511F40E943D16F3
:102EC00080914A0A90914B0A20E0049709F421E08E
:102ED000822F1F910895FC01009711F0118210823A
:102EE0000895DF93CF9300D0CDB7DEB7DC01009714
:102EF00081F16230710568F1ED91FC911197660FD7
:102F0000771F80E090E016962D913D914D915C9158
:102F10001997620F731F841F951F0190F081E02D98
:102F2000AE014F5F5F4F22E030E00995882389F0C2
:102F300029813A812115310571F08FEF273F38073C
:102F400041F0C9014096079720F08FEF283F3807DE
:102F500010F020E030E0C9010F900F90CF91DF9189
:102F600008954F925F926F927F928F929F92AF924D
:102F7000BF92CF92DF92EF92FF920F931F93DF9356
:102F8000CF9300D0CDB7DEB75C01009709F449C0FC
:102F90006230710508F445C0DC0116966D907D9095
:102FA0008D909C9019972E010894411C511C660F1E
:102FB000771F7B0100E010E0E60CF71C081D191DCF
:102FC000D501ED91FC910190F081E02DC801B70190
:102FD000A20122E030E00995882319F1C980DA8046
:102FE000C114D10401F1C60140960897D0F0B8EFA2
:102FF000CB16BFEFDB0610F0CC24DD241A82198239
:10300000D501ED91FC910480F581E02DC801B70157
:10301000A20122E030E00995B601C114D10439F6CD
:1030200002C080E001C081E00F900F90CF91DF914E
:103030001F910F91FF90EF90DF90CF90BF90AF90D6
:103040009F908F907F906F905F904F9008952F92F8
:103050003F924F925F926F927F928F929F92AF9228
:10306000BF92CF92DF92EF92FF920F931F93DF9365
:10307000CF93CDB7DEB72C970FB6F894DEBF0FBE57
:10308000CDBF4C011B01CA018114910409F4ABC0EE
:10309000D401ED91FC911197208131813C872B87E0
:1030A000448155815A87498716962D913D914D91BE
:1030B0005C9119972D833E834F8358875A96AD9024
:1030C000BC905B971A962D913D914D915C911D9707
:1030D00056954795379527953C832B835B961C9295
:1030E0001E925A973C012901CC24DD2454C0B2E041
:1030F000AB16B10428F0EB81FC81AE16BF0618F0C8
:1031000042E0A42EB12CC501880F991F7C0100E07C
:1031100010E02D813E814F815885E20EF31E041F81
:10312000151FC801B701AE014F5F5F4F22E030E0CD
:10313000AB85BC85FD010995882309F454C08981BC
:103140009A81892B11F56114710421F4F401B38E75
:10315000A28E27C0C114D10429F42FEF3FEF3A8388
:10316000298302C0DA82C982C801B701AE014F5F6C
:103170005F4F22E030E0A985BA85FD0109958823DB
:1031800071F10894610871086501089441085108BB
:103190000894A11CB11C4114510409F0A8CF672860
:1031A000F1F4B2E02B16310400F1C982DA82220C6C
:1031B000331CB10180E090E02D813E814F81588524
:1031C000620F731F841F951FAE014F5F5F4F22E098
:1031D00030E0A985BA85FD010995882331F4C40141
:1031E000B6010E94B117CC24DD24C6012C960FB67F
:1031F000F894DEBF0FBECDBFCF91DF911F910F912D
:10320000FF90EF90DF90CF90BF90AF909F908F9006
:103210007F906F905F904F903F902F90089580E146
:1032200090E008952F923F924F925F926F927F921B
:103230008F929F92AF92BF92CF92DF92EF92FF92C6
:103240000F931F93DF93CF93CDB7DEB72A970FB6B7
:10325000F894DEBF0FBECDBF2C017A8369835C83F7
:103260004B83009709F409C1672B09F406C1452B6C
:1032700009F403C1DC019D96AD90BD90CD90DC902A
:10328000D09795962D913D914D915C919897EB81BA
:10329000FC81CF01A0E0B0E08A0D9B1DAC1DBD1DDF
:1032A000281739074A075B0740F4B9016A197B09F7
:1032B0007C836B83672B09F4E3C0D201ED91FC9111
:1032C000119720883188D196ED91FC91D297FA8799
:1032D000E987EF2BF1F593962D913C9194973A87DE
:1032E0002987232B39F4A114B104C104D10409F4B2
:1032F000C7C0C3C0A114B104C104D10451F18601F7
:10330000750131018824992466277727CB01661936
:103310007709880999096D837E838F83988714C004
:10332000D2018D919C9169857A850E9471179A8747
:103330008987892B09F4A1C06D817E818F81988551
:10334000E60EF71E081F191FE614F70408051905F5
:1033500038F7089421083108A220B3200894211CD2
:10336000311CCB80DC80D201ED90FC90E114F104A3
:1033700009F1E985FA85E230F105E0F03297BF0105
:1033800080E090E03296FA87E987D70150962D9138
:103390003C91519740E050E00E942F3F9B01AC01CF
:1033A000F70182899389A489B589280F391F4A1F9B
:1033B0005B1F04C020E030E040E050E081010A19CA
:1033C0001B09C016D10608F48601D701ED91FC91C6
:1033D000C501A0E0B0E0280F391F4A1F5B1F019014
:1033E000F081E02DCA01B90149815A8198010995FE
:1033F000882341F1C01AD10AC801A0E0B0E0F2016F
:1034000025A536A547A550A9280F391F4A1F5B1FC0
:10341000D2019D962D933D934D935C93D097C80117
:103420008A0D9B1D82159305A0F08D919C91698555
:103430007A850E9471179A878987892B41F4F20156
:1034400012AA11AA4B815C814C195D091BC0AA24E8
:10345000BB24E985FA85D201D296FC93EE93D197ED
:10346000C114D10439F029813A81200F311F3A83E8
:10347000298379CF4B815C8105C04FEF5FEF02C09C
:1034800040E050E0CA012A960FB6F894DEBF0FBEA6
:10349000CDBFCF91DF911F910F91FF90EF90DF9003
:1034A000CF90BF90AF909F908F907F906F905F90E4
:1034B0004F903F902F9008952F923F924F925F929E
:1034C0006F927F928F929F92AF92BF92CF92DF9234
:1034D000EF92FF920F931F93DF93CF9300D000D012
:1034E00000D0CDB7DEB76C017A8369835C834B83F0
:1034F000009709F43FC1672B09F43CC1452B09F43F
:1035000039C1DC019D968D909D90AD90BC90D09777
:1035100095968D919D910D90BC91A02D8815990542
:10352000AA05BB0508F426C1D601ED91FC911197BF
:1035300020883188D1962D913C91D2973E832D835E
:10354000232B09F057C093968D919C9194979E835D
:103550008D83892BB9F481149104A104B10409F07D
:1035600009C1CF0160E070E041E050E00E942718FF
:103570009E838D83D60194969C938E939397892BEB
:1035800009F4F8C0F601E5A4F6A407A510A9E11412
:10359000F1040105110531F52DC0E418F5080609FF
:1035A0001709D6018D919C916D817E810E947117C2
:1035B000009719F09E838D8318C0E114F104010572
:1035C000110509F0D7C0F601808191816D817E815E
:1035D00041E050E00E942718009709F4CBC09E8379
:1035E0008D8303C0210166247724E414F5040605C5
:1035F000170598F608942108310882209320089432
:10360000211C311CAB80BC80D601ED90FC90E114F4
:10361000F10409F1ED81FE81E230F105E0F032972D
:10362000BF0180E090E03296FE83ED83D701509693
:103630002D913C91519740E050E00E942F3F9B011B
:10364000AC01F70182899389A489B589280F391FB4
:103650004A1F5B1F04C020E030E040E050E08101E1
:1036600008191909A016B10608F48501D701ED91D2
:10367000FC91C401A0E0B0E0280F391F4A1F5B1F76
:103680000480F581E02DCA01B90149815A81980170
:103690000995882309F44DC0A01AB10AC801A0E019
:1036A000B0E0F60125A536A547A550A9280F391F7A
:1036B0004A1F5B1FD6019D962D933D934D935C93BE
:1036C000D097C801880D991D8215930518F18D9129
:1036D0009C916D817E810E947117009719F09E83E5
:1036E0008D8316C0A114B10459F0F6018081918137
:1036F0006D817E8141E050E00E942718009731F4EF
:10370000D601D2961C921E92D19713C09E838D83B0
:10371000882499242D813E81F60132AB21ABA1147E
:10372000B10439F089819A81800F911F9A8389832E
:103730006BCFD6019D962D913D914D915C91D09787
:1037400095968D919D910D90BC91A02D8217930718
:10375000A407B50750F481E0F60183ABD601959636
:103760002D933D934D935C9398974B815C814A19BF
:103770005B0902C04FEF5FEFCA0126960FB6F894BF
:10378000DEBF0FBECDBFCF91DF911F910F91FF9094
:10379000EF90DF90CF90BF90AF909F908F907F90F1
:1037A0006F905F904F903F902F900895FC0100978D
:1037B00011F0118210820895FC01009711F480E04D
:1037C000089583A194A196A785A710AA17A681E0C2
:1037D00008957F928F929F92AF92BF92CF92DF9285
:1037E000EF92FF920F931F93DF93CF93CDB7DEB786
:1037F0002C970FB6F894DEBF0FBECDBF6C015B01F6
:10380000009709F44EC06115710509F44AC0DB0147
:103810009796ED90FD900D911C919A97E114F1040B
:1038200001051105F1F14E010894811C911C75EE02
:10383000772ED601ED91FC910190F081E02DC80129
:10384000B701A4012CE030E00995882351F1798279
:10385000D601ED91FC910480F581E02DC801B701FE
:10386000A4012CE030E009958823D9F08C858F30B5
:1038700049F480E290E0A0E0B0E0E80EF91E0A1FF3
:103880001B1FD7CFD50191966D917C9192976115B1
:10389000710529F0C6010E94B117882319F081E053
:1038A00001C080E02C960FB6F894DEBF0FBECDBFEE
:1038B000CF91DF911F910F91FF90EF90DF90CF900C
:1038C000BF90AF909F908F907F900895CF92DF929E
:1038D000EF92FF920F931F93DF93CF93CDB7DEB795
:1038E00060970FB6F894DEBF0FBECDBF8C0162307B
:1038F000710510F480E035C0009729F440E050E0F5
:1039000060E070E016C06250704080E090E0F80126
:103910002089318940E050E00E942F3FAB01BC017B
:10392000F80182899389A489B589480F591F6A1FB4
:103930007B1FDE01119680E1FD0111928A95E9F766
:10394000F8018081918120893189FC01C680D7806E
:10395000CB01BA01AD010FE019E1EE24FF24F6011D
:10396000099560960FB6F894DEBF0FBECDBFCF911C
:10397000DF911F910F91FF90EF90DF90CF9008950E
:103980002F923F924F925F926F927F928F929F926F
:10399000AF92BF92CF92DF92EF92FF920F931F935D
:1039A000DF93CF93CDB7DEB7AA970FB6F894DEBFFB
:1039B0000FBECDBF4C01DB01009709F4B5C0611506
:1039C000710509F4B1C0FC0160807180F3012088A9
:1039D0003188FC01A5A4B6A427A530A9221533057A
:1039E00008F07EC0AE014F5F5F4F86E0FA01119292
:1039F0008A95E9F78BE2FB0111928A95E9F7A11408
:103A0000B10409F074C0F30122883388868997894C
:103A1000281A390A6CC0720100E010E0A114B10448
:103A200041F4D30156966D917D918D919C9159975A
:103A300024C061147104D9F0B2E0AB16B104B8F03F
:103A4000F3012089318940E050E06FA178A589A574
:103A50009AA50E942F3F9B01AC01F30182899389B3
:103A6000A489B589280F391F4A1F5B1F04C020E0B5
:103A700030E040E050E0CA01B9016E0D7F1D801FAB
:103A8000911F1C821B82D301ED91FC9181010419CD
:103A900015090280F381E02DAE01495F5F4F20E2FE
:103AA00030E0AEEAEA2EADE1FA2E6E010894C11CB8
:103AB000D11C09958823C1F18B819C81480E591E28
:103AC0004214530430F1C301B5010E9471175C0127
:103AD00020E030E0009769F48E818823F1F4F4014E
:103AE00083A194A196A785A710AA17A61DC0BA8383
:103AF000A98329018EEF9FEFA80EB91EC501A0E092
:103B0000B0E08FA398A7A9A7BAA7A2E0B0E0AA0E39
:103B1000BB1E8E81882309F47ECFF401B6A6A5A62C
:103B200050AA47A68E8101C080E0AA960FB6F894ED
:103B3000DEBF0FBECDBFCF91DF911F910F91FF90E0
:103B4000EF90DF90CF90BF90AF909F908F907F903D
:103B50006F905F904F903F902F900895CF92DF929B
:103B6000EF92FF920F931F93DF93CF93CDB7DEB702
:103B70002D970FB6F894DEBF0FBECDBF8C016A0142
:103B80007B01B901D9014D915C91119712968D91EC
:103B90009C911397809613969C938E931297F8019D
:103BA0009081953E11F0992321F4DB0114961C922B
:103BB000E6C0F80183858F3009F04FC0D901149613
:103BC0009C91992319F08585981789F08BE2FA0169
:103BD00011928A95E9F7D8011D968C91FB01848397
:103BE000DA019796CD92DD92ED92FC929A97F801C8
:103BF000808190E08F73907001972DE030E0829F7C
:103C0000B001839F700D929F700D1124DE011196FB
:103C1000EFE0F2E08DE001900D928150E1F7DA01E2
:103C2000A60FB71F20E030E0AE014F5F5F4F0FC01F
:103C3000FA01E20FF31F8081F801E80FF11D808186
:103C40008D932F5F3F4F2D30310509F498C0C90186
:103C5000860F971F4F9760F392C0DA018C918823EB
:103C6000C9F0F901B481F801A1E0892F90E09C012D
:103C7000359527959695982F882797958795982F0E
:103C8000922B8181980FAF5F3196AB3071F7B917E6
:103C900009F45AC08BE2DA011D928A95E9F7FA011C
:103CA000C7A2D0A6E1A6F2A67801DA01680120E059
:103CB000F60190819032A1F09C93F801848583FFF6
:103CC00008C0F6018081813420F08B3510F4905EBD
:103CD0009C932F5F0894C11CD11C1196283041F78A
:103CE000DA018C91853011F485EE8C93F801808592
:103CF000803231F1FA01E20FF11D8EE28083322F22
:103D00003F5F2C5FD70118969C919032C1F0FA0169
:103D1000E30FF11D9083D8011C968C9184FF09C09C
:103D2000D70118968C91813420F08B3510F4905E79
:103D300090833F5F0894E11CF11C321719F7232F81
:103D4000FA01E20FF11D1082F8018385DA019096E5
:103D50008C939097828D938D92969C938E9391974E
:103D6000848D958DA68DB78DFA0183A394A3A5A309
:103D7000B6A381E0DB0115968C9380E001C081E061
:103D80002D960FB6F894DEBF0FBECDBFCF91DF9159
:103D90001F910F91FF90EF90DF90CF9008952F9299
:103DA0003F924F925F926F927F928F929F92AF92CB
:103DB000BF92CF92DF92EF92FF920F931F93DF9308
:103DC000CF93CDB7DEB7A8970FB6F894DEBF0FBE7E
:103DD000CDBF98A78FA3009709F436C1DC011496D4
:103DE0008D919C911597892B09F42EC116968D9172
:103DF0009C911797892B09F427C16DC1E981FA813C
:103E0000FBA3EAA32C813D81FB81FCA34E818F8122
:103E100098859EA38DA3E985FA856C857D856E883E
:103E20007F88888C998C611471048104910431F429
:103E3000309709F405C13F01882499246115710563
:103E400009F4FEC0C901A0E0B0E08A8F9B8FAC8F5F
:103E5000BD8F80E090E0242F30E040E050E00E94F1
:103E60002F3F6E8F7F8F88A399A3840173012A8DC2
:103E70003B8D4C8D5D8DE21AF30A040B150BE61A8F
:103E8000F70A080B190B8AA19BA101972DA13EA14E
:103E9000F5E0220F331FFA95E1F7820F931F6AA115
:103EA0007BA10E944E3F80E090E0E61AF70A080BE3
:103EB000190B8CA1282F30E040E050E0C801B70179
:103EC0000E94753F79018A0195EFE9169FE0F90696
:103ED00090E0090790E0190708F4B2C0A5EFEA16D0
:103EE000AFEFFA06A0E00A07A0E01A0728F486E080
:103EF000EFA1F8A5808705C08BE0AFA1B8A5189603
:103F00008C9388E1E9E8F6E0DF011D928A95E9F7F4
:103F1000EAA1FBA15F01CC24DD24C401B301A60109
:103F200095010E942F3F6093890670938A068093C3
:103F30008B0690938C06C601B5012A8D3B8D4C8D66
:103F40005D8D0E942F3F260E371E481E591E20925F
:103F50008D0630928E0640928F0650929006AFA149
:103F6000B8A518968C91863029F064E070E080E066
:103F700090E004C062E070E080E090E022E030E099
:103F800040E050E0E20EF31E041F151FA801970148
:103F90000E942F3F60939106709392068093930640
:103FA000909394064AA15BA1509396064093950680
:103FB0005CA1852F90E0DC01EAA1FBA1AE9FC001CE
:103FC000AF9F900DBE9F900D112490939806809303
:103FD00097066E8D7F8D88A199A1A60195010E94FB
:103FE0002F3F20918D0630918E0640918F06509183
:103FF0009006620F731F841F951F60939D06709338
:104000009E0680939F069093A006ADA1BEA19D0140
:1040100040E050E0E5E0220F331F441F551FEA95B2
:10402000D1F7620F731F841F951F609399067093D9
:104030009A0680939B0690939C0627E836E006C07C
:10404000109288061092870620E030E0C901A896F9
:104050000FB6F894DEBF0FBECDBFCF91DF911F9199
:104060000F91FF90EF90DF90CF90BF90AF909F9017
:104070008F907F906F905F904F903F902F9008951A
:10408000E7E8F6E08CE1DF011D928A95E9F7EFA100
:10409000F8A5F0938806E093870621843284438450
:1040A000548489E0220C331C441C551C8A95D1F79A
:1040B000C201B101655F7F4F8F4F9F4F0190F0812B
:1040C000E02DAE014F5F5F4F29E130E00995882375
:1040D00009F4B6CF93CE8091870690918806892BFC
:1040E00009F0B2CFCDCF2F923F924F925F926F9255
:1040F0007F928F929F92AF92BF92CF92DF92EF9278
:10410000FF920F931F93DF93CF9300D00F92CDB701
:10411000DEB71C019B01009709F4D2C0411551057F
:1041200009F4CEC0FA0101900020E9F7E41BF50B79
:10413000CF010B966DE070E00E944E3F862F8F5F9F
:104140008B83D90193964D905C90949741145104C0
:1041500051F0AA24BB246501EE24FF2487016624C4
:10416000772443010BC0F101E688F788008D118D9B
:104170006288738884889588570168011A82E614DA
:10418000F7040805190509F06EC04114510409F43B
:1041900097C0E114F1040105110589F1C101B201D3
:1041A0000E947117009751F5C101B20141E050E042
:1041B0000E9427188C01009709F482C00250104019
:1041C000B80180E090E00E5F1F4FD10150962D9115
:1041D0003C91519740E050E00E942F3F5B016C0101
:1041E000F10182899389A489B589A80EB91ECA1ED6
:1041F000DB1EC101B8010E94661C65C02C01F2E003
:104200004F16510420F4EE24FF2487011DC02EEF29
:104210003FEF420E531EB20180E090E0A2E0B0E01A
:104220004A0E5B1EF1012089318940E050E00E9476
:104230002F3F7B018C01F10182899389A489B58983
:10424000E80EF91E0A1F1B1FD10150968D919C91FB
:1042500051973C01882499246E0C7F1C801E911E6E
:10426000570168011A82D101ED91FC910190F08112
:10427000E02DC801B701AE014F5F5F4F21E030E094
:1042800009958823E9F08981853E11F0882379F426
:10429000BA81BF5FBA83EB81BE17A8F480E290E0D9
:1042A000A0E0B0E0E80EF91E0A1F1B1F68CF80E2F5
:1042B00090E0A0E0B0E0E80EF91E0A1F1B1F5CCFE3
:1042C000AA24BB246501B501C6010F900F900F9081
:1042D000CF91DF911F910F91FF90EF90DF90CF90E2
:1042E000BF90AF909F908F907F906F905F904F9016
:1042F0003F902F9008952F923F924F925F926F922E
:104300007F928F929F92AF92BF92CF92DF92EF9265
:10431000FF920F931F93DF93CF93CDB7DEB7A09794
:104320000FB6F894DEBF0FBECDBFFC018B01009726
:1043300009F438C16115710509F434C10190F081A7
:10434000E02D24803580DB019796AD90BD90CD9017
:10435000DC909A97E62E912EFB0101900020E9F760
:104360003197FE2EF61A8F2D90E00C966DE070E0DE
:104370000E94623F762ECE01019660E270E04BE033
:1043800050E00E942C40C8016EE270E00E94644040
:10439000FC010097E1F09C012F5F3F4F8181882352
:1043A000B1F0D9010D900020E9F71197A21BB30BD2
:1043B0008A2F8095F80EBE01675F7F4F4A2FA43089
:1043C00008F043E0CB01B90150E00E942340CE0148
:1043D0000196B8E0BF1588F06E2D792D4F2D50E075
:1043E0000E942340F80180818E3291F581818E32C6
:1043F00009F48281882359F12BC0DC018E2D992D7F
:104400009C01F90188E001900D928150E1F7D801FB
:1044100091962C91822F90E0203A40F4B4E095954B
:104420008795BA95E1F7982F905D07C0A4E0959520
:104430008795AA95E1F7982F9F59822F8F708A3020
:1044400010F4805D01C08F599F83888701C0772455
:104450008981853E11F485E08983FCE08F2E912CC3
:104460008C0E9D1E85E1F40111928A95E9F7D80121
:1044700090968C9190978C8791968D919C91929724
:104480009C8F8B8F93968D919D910D90BC91A02DBB
:104490008D8F9E8FAF8FB8A3672D70E0E5E0660F1C
:1044A000771FEA95E1F780E090E06A0D7B1D8C1D97
:1044B0009D1DAE014F5F5F4F20E230E0F101099595
:1044C000882309F46FC0E980FE013296A4018E2D85
:1044D00090E09C01359527959695982F882797957C
:1044E0008795E82EE22A8191E80EE417F50779F71F
:1044F000F72C4E010894811C911CBDE04B2E512CD1
:10450000AFE06A2E4AC0C4016FEF70E040E250E0B5
:104510000E942C408F2D90E00197849DD001859DB5
:10452000B00D949DB00D1124A00FB11F91E0F401C6
:10453000E90FF11D8C918083892F8F5FF401E80FC3
:10454000F11D10829E5F9B3019F09A3121F402C058
:104550009EE001C09CE18C91882321F09F3110F4F2
:104560001196E5CFF982F71419F48F2D80648983B1
:104570006C86EE861D861B8E1C8EC601B501A401BD
:1045800020E230E0F101099580E290E0A0E0B0E0A7
:10459000A80EB91ECA1EDB1EFA94FF2009F0B3CF85
:1045A00081E001C080E0A0960FB6F894DEBF0FBE98
:1045B000CDBFCF91DF911F910F91FF90EF90DF90D2
:1045C000CF90BF90AF909F908F907F906F905F90B3
:1045D0004F903F902F900895AF92BF92CF92DF926D
:1045E000EF92FF920F931F93CF93DF938C017B0188
:1045F000EA01009709F448C06115710509F444C047
:10460000FB018081882309F43FC041155105E1F188
:10461000B42EAD2EC801BE010E94C01C882379F0C3
:10462000C7016B2D7A2D0E943E40009799F7F80143
:1046300083A194A196A785A710AA17A625C0F80163
:10464000C080D1808BE2FE0111928A95E9F78B2D13
:104650009A2DB7014FE150E00E945540C601B801C4
:10466000AE010E9473206FA378A789A79AA761154E
:1046700071058105910541F0C601BE010E947B21B3
:10468000882319F081E001C080E0DF91CF911F9174
:104690000F91FF90EF90DF90CF90BF90AF90089573
:1046A000CF93DF93EC01009759F08BA9813031F45F
:1046B000FE0181919191BF010E947B211982188294
:1046C000DF91CF910895CF93DF93AC01DB01009789
:1046D00089F16115710571F190968C91909784FF25
:1046E00029C08091F1059091F205892B19F4E1EF31
:1046F000F5E008C08091220690912306892BD1F421
:10470000E2E2F6E09F012E5F3F4FBD018BE2EB013D
:104710000990BE01E90109929E018150C1F75183C0
:10472000408391968D919C91929796A785A710AA08
:1047300017A602C0E0E0F0E0CF01DF91CF9108952D
:10474000CF93DF939C01FB01009731F06115710558
:1047500019F080A184FF25C020E030E0C901DF917D
:10476000CF910895C5E5D6E0DF018BE20D90099267
:104770008150E1F73093540620935306109280063F
:1047800010928106109282061092830681A192A156
:1047900090938506809384061092860623E536E082
:1047A000DDCF8091530690915406892BA9F6DACF7C
:1047B0006F927F928F929F92AF92BF92CF92DF9231
:1047C000EF92FF920F931F93CF93DF934C01EB0176
:1047D0007A01009709F467C06115710509F463C097
:1047E0008881882309F45FC04115510509F45BC035
:1047F0008F3209F421968BE2F70111928A95E9F73D
:1048000080E1F70180A3370101C0E5018881882399
:1048100009F44BC0C401B7010E9463236C010097E7
:1048200009F441C0CE016FE270E00E94334000976E
:1048300039F0482F4C1B5C010894A11CB11C2AC004
:10484000FE0101900020E9F731974E2F4C1B5E01CD
:10485000A40EB11C1FC0F30101900020E9F73197AD
:10486000E619F709E017F107B9F4CE01B301A80181
:104870000E944740009781F4F601118210820C0FCC
:104880001D1FF8018081882381F0F70180A184FD3C
:10489000BCCF09C0042F10E0C601B7010E94C01CA4
:1048A0008823C9F612C080E001C081E0DF91CF917A
:1048B0001F910F91FF90EF90DF90CF90BF90AF903E
:1048C0009F908F907F906F900895F60111821082D3
:1048D0009DCFFC01009711F480E00895108681E0DF
:1048E00008958F929F92AF92BF92CF92DF92EF92F4
:1048F000FF920F93DF93CF93CDB7DEB760970FB6DC
:10490000F894DEBF0FBECDBF7C016B015A01490197
:10491000009709F493C06115710509F48FC0043044
:104920000CF08CC007FD1DC0602F772767FD7095C8
:10493000E4E0660F771FEA95E1F762547E4F88271F
:1049400077FD8095982FAE014F5F5F4F20E130E0FB
:10495000F7010995882309F471C08D81882309F432
:104960006DC08091AB06882309F068C07CC08D8142
:104970008093AB062A8530E040E050E0542F432F6F
:10498000322F22278B8590E0A0E0B0E0DC01992750
:104990008827282B392B4A2B5B2B898590E0A0E0B8
:1049A000B0E0282B392B4A2B5B2B8C8590E0A0E0C4
:1049B000B0E0B82FAA2799278827282B392B4A2B14
:1049C0005B2B2093AC063093AD064093AE0650931C
:1049D000AF062E8530E040E050E0542F432F322FB9
:1049E00022278F8590E0A0E0B0E0DC01992788279E
:1049F000282B392B4A2B5B2B8D8590E0A0E0B0E073
:104A0000282B392B4A2B5B2B888990E0A0E0B0E063
:104A1000B82FAA2799278827282B392B4A2B5B2BBD
:104A20002093B0063093B1064093B2065093B3067C
:104A300003C08FEF8093AB069F0102C020E030E0FF
:104A4000C90160960FB6F894DEBF0FBECDBFCF91FF
:104A5000DF910F91FF90EF90DF90CF90BF90AF90DC
:104A60009F908F900895E3EAF6E081E1DF011D92C7
:104A70008A95E9F7F092A406E092A306D092A606E2
:104A8000C092A506B092A806A092A7069092AA0688
:104A90008092A90607FF6BCFCCCFE091C209F091BD
:104AA000C30980818695809581700895E091C2093F
:104AB000F091C309808181700895282F8FEF8EBDFA
:104AC0000DB407FEFDCF8DB58F778DBD8EB5822FCE
:104AD00080648EBD0DB407FEFDCF8DB58F778DBD83
:104AE000872F9927AA27BB278EBD0DB407FEFDCFC0
:104AF0008DB58F778DBDCB01AA27BB278EBD0DB499
:104B000007FEFDCF8DB58F778DBDBB27A72F962FC5
:104B1000852F8EBD0DB407FEFDCF8DB58F778DBD72
:104B20004EBD0DB407FEFDCF8DB58F778DBD222311
:104B300019F0283069F406C085E98EBD0DB407FE72
:104B4000FDCF0BC087E88EBD0DB407FEFDCF05C0BD
:104B50008FEF8EBD0DB407FEFDCF8DB58F778DBD68
:104B600090E02FEF2EBD0DB407FEFDCF8DB58F77F2
:104B70008DBD8EB58F3F19F49F5F9A3099F70895D8
:104B80002F923F924F925F926F927F928F929F925D
:104B9000AF92BF92CF92DF92EF92FF920F931F934B
:104BA000CF93DF934B015C012A013901E091C209E7
:104BB000F091C309808180FFA3C0ABC0E401D17034
:104BC000CE01A0E0B0E085017401E81AF90A0A0BF1
:104BD0001B0BC12CB2E0DB2ECC1ADD0A6C147D0459
:104BE00008F463018091B5069091B606A091B706CE
:104BF000B091B806E816F9060A071B07F9F00E94FB
:104C00009F26882309F485C0209729F480E0C816E0
:104C100082E0D80658F4C801B70149EB56E020E01D
:104C200032E00E94B926882309F473C0E092B506E9
:104C3000F092B6060093B7061093B80689EB4816B3
:104C400086E0580671F09E012754394FC901B20120
:104C5000A6010E9423401092B4066C147D0409F44E
:104C60005AC0289888E1B801A7010E945D258823D1
:104C700011F0289A4EC08EEF8EBD0DB407FEFDCF09
:104C80008DB58F778DBDE9EBF6E081918EBD0DB4CA
:104C900007FEFDCF8DB58F778DBD88E0E93BF80726
:104CA000A1F73EBC0DB407FEFDCF8DB58F778DBD4E
:104CB0003EBC0DB407FEFDCF8DB58F778DBD3EBCDC
:104CC0000DB407FEFDCF8DB58F778DBD8EB58F3FAF
:104CD000B1F78EBD0DB407FEFDCF8DB58F778DBDBD
:104CE0008EB5289A4C0C5D1CC601A0E0B0E0880E81
:104CF000991EAA1EBB1E6C187D082092B40604C023
:104D000033243A94222423946114710409F056CF79
:104D100002C080E001C081E0DF91CF911F910F912F
:104D2000FF90EF90DF90CF90BF90AF909F908F90CB
:104D30007F906F905F904F903F902F90089580915B
:104D4000B406882311F081E008956091B506709152
:104D5000B6068091B7069091B80649EB56E020E080
:104D600032E00E94C025882319F081E08093B406C8
:104D700008953F924F925F926F927F928F929F928F
:104D8000AF92BF92CF92DF92EF92FF920F931F9359
:104D9000CF93DF933B014C016A01290133243A94FC
:104DA0008FC01FEFA12E11E0B12EA620B720C501A4
:104DB000A0E0B0E084017301E81AF90A0A0B1B0BAA
:104DC000C0E0D2E0CA19DB094C165D0608F4E20126
:104DD0008091B5069091B606A091B706B091B8063D
:104DE000E816F9060A071B0709F457C00E949F2618
:104DF000882309F46AC0289881E1B801A7010E94BC
:104E00005D25882319F0289A80E05FC03EBC0DB470
:104E100007FEFDCF8DB58F778DBD8EB58E3FB1F777
:104E2000E9EBF6E03EBC0DB407FEFDCF8DB58F7704
:104E30008DBD8EB5808388E0E83BF80711F0319690
:104E4000F1CFE092B506F092B6060093B706109344
:104E5000B80695012754394FC601B901AE010E9429
:104E600023403EBC0DB407FEFDCF8DB58F778DBDC1
:104E70008EB53EBC0DB407FEFDCF8DB58F778DBDD1
:104E80008EB5289A3EBC0DB407FEFDCFCC0EDD1EBC
:104E90008DB58F778DBD8EB50AC095012754394FDA
:104EA000C601B901AE010E942340CC0EDD1E4C1A92
:104EB0005D0ACE01A0E0B0E0680E791E8A1E9B1E3E
:104EC0004114510409F06DCF81E0DF91CF911F9122
:104ED0000F91FF90EF90DF90CF90BF90AF909F9099
:104EE0008F907F906F905F904F903F9008952F929A
:104EF0003F924F925F926F927F928F929F92AF926A
:104F0000BF92CF92DF92EF92FF920F931F93DF93A6
:104F1000CF9300D000D0CDB7DEB74B015C013A0192
:104F20003C832B832701DA82C98241155105A9F1FF
:104F30002115310591F10217130778F1E114F104FD
:104F400061F119013094219431083394021B130B41
:104F50006901EE24FF24C501B401A3012B813C812A
:104F60000E94B9268823C9F0C301B501A401298193
:104F70003A81F2010995882391F0020D131D8B816E
:104F80009C81800F911F2B813C818217930738F001
:104F90008C0C9D1CAE1CBF1CDECF80E001C081E0EC
:104FA0000F900F900F900F90CF91DF911F910F9165
:104FB000FF90EF90DF90CF90BF90AF909F908F9039
:104FC0007F906F905F904F903F902F9008950F9338
:104FD0001F93CF93DF93E091C209F091C3098181C0
:104FE0008D7F8183E091C209F091C30981818E7F19
:104FF0008183229A219A209A2398289A83E58CBD4E
:105000008DB58E7F8DBD1092B908E091C209F091E7
:10501000C309808181FD1FC090E02FEF2EBD0DB42C
:1050200007FEFDCF8DB58F778DBD8EB59F5F9A3012
:10503000A9F72898C0E0D0E080E040E050E060E0D0
:1050400070E00E945D25182F813049F081E0CF3F4C
:10505000D80719F4289A80E063C02196EDCF87E342
:1050600040E050E060E070E00E945D2589E240E0B1
:1050700050E060E070E00E945D2582FD02C0109368
:10508000B9088091B908082F10E003701070C0E0D3
:10509000D0E00115110549F087E340E050E060E001
:1050A00070E00E945D2589E201C081E040E050E0AF
:1050B00060E070E00E945D2580FF06C08FE7CF3F73
:1050C000D80741F22196E5CF80E140E052E060E070
:1050D00070E00E945D25882309F0BCCF289A8CB52A
:1050E0008C7F8CBD8DB581608DBD8FEF9FEFAFEF55
:1050F000BFEF8093B5069093B606A093B706B09322
:10510000B80681E08093B40660E070E080E090E053
:1051100049EB56E020E032E00E94B926811181E09F
:10512000DF91CF911F910F9108954F925F926F92EF
:105130007F928F929F92AF92BF92CF92DF92EF9227
:10514000FF920F931F93CF93DF935B016C014A0192
:10515000E901380127014115510571F101151105CA
:1051600059F1FF242115310511F5FF24F3941FC0D7
:10517000C401B601A5019201F30109958C010097C4
:10518000E9F0FF2019F4C817D907B0F0C601B5013E
:10519000A40198010E94C025882371F0C801A0E0F5
:1051A000B0E0A80EB91ECA1EDB1EC01BD10BFF202B
:1051B000F9F62097E9F602C080E001C081E0DF91B6
:1051C000CF911F910F91FF90EF90DF90CF90BF9004
:1051D000AF909F908F907F906F905F904F900895C9
:1051E000E091C009F091C109828181608283E091E0
:1051F000C009F091C10981818E7F8183E091C0094E
:10520000F091C109808180FD0CC081818160818322
:10521000E091C009F091C10982818160828381E0BF
:105220000895818181608183E091C009F091C10975
:1052300082818E7F828380E008958AEB98E00E94CD
:105240009D2A08958AEB98E00E943C2A08958AEBF3
:1052500098E00E94BD2908958AEB98E00E94B92940
:1052600008958AEB98E00E94172A0895BC018AEB02
:1052700098E00E94D42908958AEB98E00E94B8290A
:105280000895FC0110821182EAE0F1E080818170D2
:10529000808387B1897F87B9EBE0F1E080818170FD
:1052A000808388B1897F88B908950F931F93FC018B
:1052B0008381882309F04CC01091090156B1808187
:1052C000181721F1812721E030E0A82FB0E0612FED
:1052D00070E001E0CD01022E02C0959587950A94F9
:1052E000E2F780FF0EC0CB01022E02C09595879594
:1052F0000A94E2F780FD05C08381882311F422839C
:1053000003832F5F3F4F2830310521F781815817E4
:10531000E9F08527982F91FF0BC0852F869580FD9A
:1053200007C08381882321F48BE0828381E083831B
:1053300092FF0CC0852F8695869580FD07C08381DE
:10534000882321F48CE0828381E08383108351835E
:105350001F910F910895FC01DB01F89483819281E4
:1053600013827894882319F09C9311961C920895C7
:10537000089589960E9455290895DC01A85BBF4FC6
:10538000EC91A854B040F0E07F96EE0FFF1FEA0FBB
:10539000FB1FA081B181ED91FC9111970190F081EB
:1053A000E02DCD01099508950F931F93CF93DF93BF
:1053B000EC01DC01A85BBF4FEC91E43050F4EF5FEF
:1053C000EC93F0E07F96EE0FFF1FE80FF91F71835B
:1053D00060838E01085B1F4FD801EC91F0E07F964F
:1053E000EE0FFF1FEC0FFD1FA081B181ED91FC912D
:1053F00011970480F581E02DCD010995D801EC913C
:10540000F0E07F96EE0FFF1FEC0FFD1FA081B18132
:10541000ED91FC9111970280F381E02DCD01BE0149
:1054200041E00995DF91CF911F910F910895CF939E
:10543000DF93EC01FC01E85BFF4F8081882311F0D2
:1054400081508083C85BDF4FE881C854D040F0E0D2
:105450007F96EE0FFF1FEC0FFD1FA081B181ED9134
:10546000FC9111970280F381E02DCD01BE0141E056
:105470000995DF91CF9108950F931F93CF93DF93F9
:10548000EC010E94FA0701978E01075B1F4F0297FC
:1054900070F4F8018081882399F4BE016B5C7F4F22
:1054A000CE010E94D42981E0F801808309C0F8016F
:1054B0008081882329F0CE010E94172AF8011082EA
:1054C000CE01899664E079E00E94AB298823C9F077
:1054D000C85BDF4FE881C854D040F0E07F96EE0F04
:1054E000FF1FEC0FFD1FA081B181ED91FC91119781
:1054F00060910409709105090680F781E02DCD01C6
:105500000995C85BDF4FE881C854D040F0E07F9632
:10551000EE0FFF1FEC0FFD1FA081B181ED91FC91FB
:1055200011970280F381E02DCD01BE0140E0099585
:10553000DF91CF911F910F9108956F927F928F927B
:105540009F92AF92BF92CF92DF92EF92FF920F9312
:105550001F93DF93CF93CDB7DEB762970FB6F89462
:10556000DEBF0FBECDBF3C01F82EB72C2091C00985
:105570003091C1093A8329838B81807F84608B833A
:105580003D832C838E81807F83608E838091C209CE
:105590009091C30998878F838985807F87608987E9
:1055A0002091C8093091C9093B872A878C85807F63
:1055B00082608C873E872D878F85807F81608F8773
:1055C000398B288B8A89807F8A8B00D000D000D0CD
:1055D0002DB73EB72F5F3F4FD901FE013D9683E0C7
:1055E00001900D928150E1F7D9011396FE0170965A
:1055F00083E001900D928150E1F78F2D9B2D498121
:105600005A816B810C811D812E81CF80D884E984E1
:105610008A849B84AC840E94132F8EE892E0D3018D
:105620009E969C938E939D97EDB7FEB736960FB6D8
:10563000F894FEBF0FBEEDBF8301015D1F4FC8018F
:105640000E9485308AE692E0D301D6969C938E9391
:10565000D597C301C7960E947530C30189960E94F1
:1056600041298F2D9B2D60E144E020E00E94732DA5
:105670008F2D9B2D0E946B2D8F2D9B2D0E94632DB6
:10568000E091C009F091C10982818E7F8283E0910F
:10569000C009F091C109818181608183E091D009C5
:1056A000F091D10982818E7F8283E091D009F091BF
:1056B000D109818181608183E9E4F0E06E0E7F1E73
:1056C000D3011C92F30112923F0128EB3FEF620ECF
:1056D000731ED301DF961C930E93DE979F96ED9178
:1056E000FC91D0970480F581E02DC8010995C30194
:1056F000EDE2F0E06E0E7F1EB3010E94D4296296A7
:105700000FB6F894DEBF0FBECDBFCF91DF911F91D2
:105710000F91FF90EF90DF90CF90BF90AF909F9050
:105720008F907F906F900895FC01A081B1811296B7
:105730004C91129782818F7021E030E002C0220FDD
:10574000331F8A95E2F7922F662311F0822F01C052
:1057500080E090959423892B12968C930895CF9294
:10576000DF92EF92FF920F931F93CF93DF93EC01A1
:105770006B01042F423051F0433018F4413089F569
:1057800008C0433049F0443061F50AC024E630E0F7
:1057900005C02AE030E002C028EE33E010E01FC070
:1057A00020E137E2FBCFC9016AE070E00E944E3F82
:1057B000F62EE72EE881F981C601B9010E944E3F1D
:1057C0006F2D7E2D0E944E3F605D0190F081E02D97
:1057D000CE0109951F5F2F2D3E2DC9019C01101789
:1057E00010F3DF91CF911F910F91FF90EF90DF9019
:1057F000CF9008950F931F93CF93DF938C01EB010C
:1058000009C0D801ED91FC910190F081E02DC80113
:105810000995219668816623A1F7DF91CF911F91A9
:105820000F9108950F931F93CF93DF938C01EB019A
:1058300008C0D801ED91FC910190F081E02DC801E4
:105840000995FE0121966491662399F7DF91CF9126
:105850001F910F910895FF920F931F938C01085F82
:105860001F4FC80160E00E94942B85E0F82E8F2D19
:105870008A95F1F7C80161E00E94942B8F2D8A95DB
:10588000F1F7C80160E00E94942BFA94F1F71F91A0
:105890000F91FF900895AF92BF92CF92DF92EF9257
:1058A000FF920F931F93CF93DF938C017C01C0E095
:1058B000D0E021E0A22EB12CC62EDD24F701A38575
:1058C000B48511963C911197AE01440F551F4C0FB2
:1058D0005D1FF801E40FF51F85858F70B50102C0CB
:1058E000660F771F8A95E2F7262F20952323262B14
:1058F00011962C93455F5F4FB6010C2E02C0759533
:1059000067950A94E2F761707070C801840F951F63
:105910000E94942B219683E090E0E80EF91EC4309B
:10592000D10561F6C8010E942B2CDF91CF911F9108
:105930000F91FF90EF90DF90CF90BF90AF900895C0
:10594000AF92BF92CF92DF92EF92FF920F931F938D
:10595000CF93DF938C017C01C0E0D0E071E0A72EF3
:10596000B12CC62EDD24F701A385B48511963C9198
:105970001197AE01440F551F4C0F5D1FF801E40F46
:10598000F51F85858F70B50102C0660F771F8A9558
:10599000E2F7262F20952323262B11962C93455F83
:1059A0005F4FB6010C2E02C0759567950A94E2F719
:1059B00061707070C801840F951F0E94942B21960E
:1059C00083E090E0E80EF91EC830D10561F6C80109
:1059D0000E942B2CDF91CF911F910F91FF90EF90A0
:1059E000DF90CF90BF90AF9008951F93CF93DF9338
:1059F000EC01162F0296642F0E94942B8D819E81BC
:105A00008F5F9F4F29F0CE01059660E00E94942B96
:105A10008BA184FF05C0CE01612F0E94A02C0EC077
:105A2000612F70E0E4E075956795EA95E1F7CE01A6
:105A30000E944B2CCE01612F0E944B2CDF91CF9105
:105A40001F91089541E00E94F52C089540E00E94C6
:105A5000F52C0895FC0164A1862F846084A36C60FA
:105A6000CF010E94262D0895DF93CF93CDB7DEB7E7
:105A700028970FB6F894DEBF0FBECDBF9C01FE0184
:105A80003196A2E2B2E088E00D9001928150E1F7F8
:105A9000F90187A1841710F4482F4150E42FF0E05A
:105AA000EE0FFF1FEC0FFD1F8181680F6068C901B9
:105AB0000E94262D28960FB6F894DEBF0FBECDBFEC
:105AC000CF91DF91089562E00E94262D80E49FE14E
:105AD0000197F1F7089561E00E94262D80E49FE18F
