:100000000C9418010C9449010C9449010C94490179
:100010000C9449010C9449010C9449010C94490138
:100020000C9449010C9449010C9449010C94490128
:100030000C9449010C9449010C9449010C94DB2C5B
:100040000C9449010C94E32B0C9449010C94490144
:100050000C9449010C9449010C9449010C944901F8
:100060000C9449010C94EC3E0C9449010C94183FFB
:100070000C9449010C9449010C9449010C944901D8
:100080000C9449010C9449010C9449010C944901C8
:100090000C944A3F0C9449010C94823F0C94490102
:1000A0000C9449010C9449010C9449010C944901A8
:1000B0000C9449010C9449010C9449010C94490198
:1000C0000C9449010C9449010C9449010C94490188
:1000D0000C9449010C9449010C9449010C94490178
:1000E0000C944901750CCB0C980C940CA20C200DAF
:1000F000200D940CC20C200DD00CD50CEA0CEF0C8A
:10010000AC0CB10CB80C940CBD0C200D7A0CA70CE7
:10011000F40C200D200DF90C5468696E672D4F2DDD
:100120004D6174696300536E616B652047616D6555
:10013000004A6F67204D6F6465004275696C6420EA
:1001400066726F6D205344004D6F6E69746F72203C
:100150004D6F6465004E6F005965730043616E63B7
:10016000656C204275696C643F004265643A2020EA
:100170002D2D2D2F2D2D2D4300546F6F6C3A202DDA
:100180002D2D2F2D2D2D430047414D45204F5645F8
:100190005221004C4F4E470053484F5254002020EC
:1001A000592D202020202020202020205A2D0058AA
:1001B0002D2020582B20202020286D6F64652900D9
:1001C0002020592B202020202020202020205A2BA6
:1001D000004A6F67206D6F64653A20002020202060
:1001E000202020202020202020202020002020202F
:1001F0002D2D2D2D2D2D2D2D2D2020202000205476
:1002000068696E672D4F2D4D617469632020002051
:1002100020202020202020202020202020202000FE
:100220007A06BB07BE0DAF14A217952DE12DC03F76
:1002300011241FBECFEFD1E2DEBFCDBF00E00CBF67
:1002400012E0A0E0B2E0E4E5F2E800E00BBF02C09B
:1002500007900D92AA39B107D9F71AE0AAE9B2E0DE
:1002600001C01D92A339B107E1F712E0C0E3D2E06B
:1002700000E006C022970109FE010BBF0E94524018
:10028000C032D10780E00807A9F70E94070E0C943E
:1002900028410C94000080919C0490919D0400974B
:1002A00029F481E08093A30480E0089580919E0466
:1002B00090919F0420919A0430919B04B9010E946F
:1002C000EE3FE091A004F091A104E80FF91F8091A6
:1002D0009E0490919F040196B9010E94EE3F909375
:1002E0009F0480939E0480919C0490919D040197AB
:1002F00090939D0480939C0480810895F89480914C
:100300009C0490919D0420919A0430919B04281B99
:10031000390B7894C90108958093A40408958091BD
:10032000A404089520919C0430919D0481E021153E
:10033000310509F080E008950E944B0108951F9354
:100340000E944B01182F0E944B01982F812F1F9163
:1003500008951F93DF93CF930F920F92CDB7DEB71F
:100360000E944B018A830E944B0189830E944B01AA
:10037000182F0E944B01982F6A817981812F0F904D
:100380000F90CF91DF911F91089510929D041092CC
:100390009C0410929F0410929E041092A20410924A
:1003A000A3041092A6041092A5040895FC01462F00
:1003B000828193812081318182179307A0F4628129
:1003C000738184819581860F971FB9010E94EE3F4A
:1003D000A681B781A80FB91F4C93828193810196A2
:1003E00093838283089581E080870895682F8AE946
:1003F00094E00E94D60108952F923F924F925F920F
:100400006F927F928F929F92AF92BF92CF92DF9224
:10041000EF92FF920F931F93DF93CF93CDB7DEB789
:10042000CB59D0400FB6F894DEBF0FBECDBF0E94AF
:10043000E00F8823B9F080919C0490919D04209155
:100440009A0430919B042817390761F00E9420100C
:10045000882341F00E942310682F8AE994E00E94CB
:10046000D601E9CF8091A404882309F029C48091A2
:10047000A5049091A6048330910581F40E94561141
:10048000882341F081EB94E00E94C13D882331F044
:100490000E94B2111092A6041092A5048091A504A6
:1004A0009091A6048130910541F40E945611882351
:1004B00021F41092A6041092A5048091A5049091B5
:1004C000A6048230910551F487EA94E00E94C13D70
:1004D000882321F01092A6041092A5048091A5040F
:1004E0009091A60484309105E9F58BEB94E00E948D
:1004F000C13D882329F01092A6041092A50432C0B1
:100500000E94F314882371F10E94CC148C010E9484
:10051000C9145C01C8010E94BA3A0E949F17682F53
:10052000C8010E94003BC80164E20E94003B0E9497
:10053000061502C00E9462150E945D158823D1F342
:10054000D50192968C919297882351F4C50161E070
:100550000E949A3A80FF04C01092A6041092A5044B
:100560000E9403158091A5049091A6048530910501
:10057000D9F58BEB94E00E94C13D882329F01092BD
:10058000A6041092A50430C00E94F314882361F1E0
:100590000E94CC148C010E94C9145C01C8010E9405
:1005A000BA3A0E949F17682FC8010E94003BC801F9
:1005B00063E20E94003B0E94061502C00E94621581
:1005C0000E945D158823D1F3F50182A1882351F49F
:1005D000C50161E00E949A3A882321F01092A60496
:1005E0001092A5040E9403158091A5049091A60481
:1005F000009709F065C380919C0490919D04009739
:1006000009F45EC380919E0490919F0420919A0406
:1006100030919B04E091A004F091A104B9010E94E3
:10062000EE3F8E0F9F1FDC010C910138F1F5809198
:100630009C0490919D048131910508F441C30E946E
:100640004B0181E090E09093A6048093A5040E9462
:10065000A9016B017C010E94A9011B012C010E94D0
:10066000A9013B014C010E94A901CF56DF4F6883CD
:1006700079838A839B83C159D040E5E0AE2EB12CAB
:10068000AC0EBD1EC501B701A60192018101740126
:1006900063010E944E0EC501CF56DF4F488159813C
:1006A0006A817B81C159D04074C00B3809F074C095
:1006B00080919C0490919D048931910508F400C3B8
:1006C0000E944B0181E090E09093A6048093A504E2
:1006D0000E94A9014B015C010E94A9018B019C01B0
:1006E000C656DF4F2883CA59D040C556DF4F3883DE
:1006F000CB59D0400E94A9011B012C010E94A901E5
:10070000CF56DF4F688379838A839B83C159D0405A
:100710000E94A9016B017C010E94A901CB56DF4F09
:10072000688379838A839B83C559D04000D00F9218
:1007300079E1672E712C6C0E7D1EEDB7FEB7C1827C
:10074000D282E382F482C301B501A401C656DF4F11
:100750002881CA59D040C556DF4F3881CB59D04087
:1007600072016101CF56DF4F88809980AA80BB80DB
:10077000C159D0400E941A0E0F900F900F900F9009
:10078000C301CB56DF4F488159816A817B81C559AE
:10079000D0400E94371294C20E3809F082C0809176
:1007A0009C0490919D048A31910508F489C20E94AD
:1007B0004B0181E090E09093A6048093A5040E94F1
:1007C000A9014B015C010E94A9018B019C01C65645
:1007D000DF4F2883CA59D040C556DF4F3883CB59E5
:1007E000D0400E94A9011B012C010E94A901CF56F3
:1007F000DF4F688379838A839B83C159D0400E94ED
:10080000A9016B017C010E94A901CB56DF4F6883CF
:1008100079838A839B83C559D0400E949C01C75627
:10082000DF4F8883C959D04000D00F926DE2662E09
:10083000712C6C0E7D1EADB7BEB71196CD92DD92B8
:10084000ED92FC921497C301B501A401C656DF4F87
:100850002881CA59D040C556DF4F3881CB59D04086
:1008600072016101CF56DF4F88809980AA80BB80DA
:10087000C159D0400E941A0E0F900F900F900F9008
:10088000C301CB56DF4F488159816A817B81C559AD
:10089000D040C756DF4F2881C959D0400E94FF126F
:1008A0000FC2063879F480919C0490919D048230A7
:1008B000910508F405C20E944B010E944B010E9461
:1008C0009C17FEC1093839F580919C0490919D04D4
:1008D0008230910508F4F4C10E944B010E944B0143
:1008E000A82EAA1CAA24AA1C00E010E0C82EDD2411
:1008F000C601002E02C0959587950A94E2F780FF05
:1009000004C0802F6A2D0E9428140F5F1F4F0530EE
:10091000110571F7D5C1023821F580919C049091A1
:100920009D048D30910508F4CBC10E944B010E94BB
:10093000A9013B014C010E94A9011B012C010E944D
:10094000A9016B017C0151E4A52EB12CAC0EBD1E9A
:10095000C501B401A301920181010E944E0EC5019F
:100960005EC10C3809F046C080919C0490919D04B2
:100970008531910508F4A4C10E944B010E94A90190
:100980006B017C010E94A9011B012C010E94A9019D
:100990004B015C010E94A901CF56DF4F6883798328
:1009A0008A839B83C159D0400E94A90100D00F9235
:1009B00045E5642E712C6C0E7D1EEDB7FEB761838C
:1009C000728383839483C301B701A60192018101DD
:1009D00075016401CF56DF4F88809980AA80BB8063
:1009E000C159D0400E941A0E0F900F900F900F9097
:1009F000C30115C10538E9F480919C0490919D04D0
:100A00008530910508F45CC182E090E09093A604E3
:100A10008093A5040E944B010E94A90128EE33E0B7
:100A200040E050E00E94CF3FAB01BC0187EA94E078
:100A30005BC0802F8358823090F580919C04909108
:100A40009D048830910508F43BC10E944B010E942F
:100A50009C01A82E0E94A9016B017C010E949F01AC
:100A600023E030E03093A6042093A504BC0180E08D
:100A700090E020E432E44FE050E00E94CF3FAB0131
:100A8000BC0181EB94E00E94A43D81E0043809F0B0
:100A900080E06A2DA70196010E94B71311C10738A3
:100AA00031F580919C0490919D048630910508F465
:100AB00007C184E090E09093A6048093A5040E946F
:100AC0004B010E944B010E949F010E949F01BC01AB
:100AD00080E090E020E432E44FE050E00E94CF3F1D
:100AE000AB01BC018BEB94E00E94A43DE9C00D3842
:100AF00059F480919C0490919D048630910508F4EE
:100B0000DFC085E090E0D7CF0F3809F047C0809173
:100B10009C0490919D048230910508F4D1C00E94FC
:100B20004B010E949C0130E6A32EB12C00E010E0A6
:100B3000882E992429E6622E712C6C0E7D1E6E0182
:100B40000894C11CD11CC401002E02C09595879544
:100B50000A94E2F780FF18C0C3010E94E211C301AA
:100B6000B8010E94700EFC0180819181A281B38145
:100B700089839A83AB83BC83F894C601B50144E0B2
:100B800050E00E94104178940F5F1F4F84E090E086
:100B9000A80EB91E05301105B1F692C0003909F052
:100BA00041C080919C0490919D048230910508F48D
:100BB00087C00E944B010E949C01C82E9DE7A92E70
:100BC000B12CAC0EBD1EC5010E94E21180E6682E5C
:100BD000712C00E010E0DD248A2CAB2CC601002E25
:100BE00002C0959587950A94E2F780FF0CC0F894AF
:100BF000882D9A2DB8010E94780EB30144E050E090
:100C00000E94004178940F5F1F4FA4E0B0E06A0E8D
:100C10007B1E0530110511F7CE0183589F4F0E94AE
:100C2000B7114EC0083809F04BC080919C049091D8
:100C30009D048430910508F443C080919E049091F6
:100C40009F0400919C0410919D040396B9010E9499
:100C5000EE3F8E0F9F1FFC01808190E004960817E5
:100C6000190770F10E94F314882351F10E94CC14EB
:100C70008C010E94BA3A0E944B010E944B01682FDE
:100C8000C8010E94003B0E944B01682FC8010E94CE
:100C9000003B0E949C01C82EDD24AA24BB2409C06D
:100CA0000E944B01682FC8010E94003B0894A11CC0
:100CB000B11CAC14BD04A4F30E9406150E940315D8
:100CC000C556DF4F0FB6F894DEBF0FBECDBFCF9134
:100CD000DF911F910F91FF90EF90DF90CF90BF9029
:100CE000AF909F908F907F906F905F904F903F90CC
:100CF0002F90089580E092E090939B0480939A0453
:100D000010929D0410929C0410929F0410929E04D5
:100D10008AE992E09093A1048093A0041092A20427
:100D20001092A30487EA94E00E94A03D81EB94E036
:100D30000E94A03D8BEB94E00E94A03D08956F922D
:100D40007F928F929F92AF92BF92CF92DF92EF925B
:100D5000FF920F931F93DF93CF93CDB7DEB76497C6
:100D60000FB6F894DEBF0FBECDBF8C017B01FC0136
:100D70008081882309F4E9C0702E612EC80160E0EB
:100D80000E949A3A982F9077903709F0DEC080370A
:100D9000D1F4C7010E94BA3A91E0C92ED12C0CC0FF
:100DA000872D962D6C2D0E949A3A682FC7010E94BC
:100DB000003B0894C11CD11CF801808190E0C8164A
:100DC000D90674F392C0813709F4BFC0823709F4A1
:100DD000BCC0833709F081C00E94CC145C010E9422
:100DE000C9144C01C5010E94BA3A81E0C82ED12C29
:100DF0000CC0872D962D6C2D0E949A3A682FC50144
:100E00000E94003B0894C11CD11CF801808190E035
:100E1000C816D90674F38E010F5F1F4FC8010E94D8
:100E2000A03DC80140E553EC60E070E00E94A43DA5
:100E3000C02E012F0FC08C2D902F0E94C13D882302
:100E400049F0C70168E80E94003B80EC98E062E04E
:100E500070E026C00E94F314882369F38E01055FB9
:100E60001F4FC8010E94A03DC80140E553EC60E05F
:100E700070E00E94A43D0E9406150E940315C02E3A
:100E8000012F13C08C2D902F0E94C13D882359F053
:100E9000C70167E80E94003B80EC98E061E070E0E9
:100EA0000E940D2C22C00E9462150E945D158823AD
:100EB00049F300E010E00AC0C401602F0E949A3A92
:100EC000682FC7010E94003B0F5F1F4FF401808114
:100ED00090E00817190784F308C0843741F40E9492
:100EE000C501C70161E80E94003B81E02FC0863741
:100EF000A1F4C80161E00E949A3AC82EC80162E0DC
:100F00000E949A3A682FCC2029F480EC98E070E097
:100F10000E940D2CC70161E816C08737B1F4C801E3
:100F200061E00E949A3A082FC70161E80E94003BE5
:100F3000002339F480EC98E00E94D82C682FC70178
:100F400002C0C70160E00E94003B80E064960FB6DB
:100F5000F894DEBF0FBECDBFCF91DF911F910F91EF
:100F6000FF90EF90DF90CF90BF90AF909F908F90C9
:100F70007F906F90089585EC94E00E94B23A0895B6
:100F800082E090E062E00E941A4183E090E06FE12D
:100F90000E941A4180E290E060E00E941A410895A8
:100FA000FC0183A194A1009741F023A134A181E029
:100FB0002430310519F480E0089580E00895CF923F
:100FC000DF92EF92FF920F931F93CF93DF93EC0189
:100FD0008B0188818823A9F17E01DC2ECF2CCE01E4
:100FE00060E00E949A3A87FF2CC00E94E30F88239A
:100FF00041F0CE010E94E60FC80161E80E94003B6B
:101000001EC0F894E8800E947E01FF248E159F0583
:1010100088F0C0E0D0E008C08D2D9C2D6C2F0E9480
:101020009A3A0E94F6012196CE15DF05ACF3C8016D
:1010300061E802C0C80162E80E94003B789481E048
:1010400001C080E0DF91CF911F910F91FF90EF9051
:10105000DF90CF900895CF93DF93EB0161E00E9482
:101060009F3A8A31910540F4CE0161E80E94003B2D
:10107000CE0160E070E007C0CE0161E80E94003B55
:10108000CE016CE271E00E94033BDF91CF910895A5
:101090009F92AF92BF92CF92DF92EF92FF920F9307
:1010A0001F93DF93CF93CDB7DEB765970FB6F89454
:1010B000DEBF0FBECDBF6B01F8948E010F5F1F4FD7
:1010C000C8010E94E211C60161E80E94003BC8010C
:1010D00060E070E00E94700EFC01408151816281ED
:1010E0007381C6010E94193BC80161E070E00E9453
:1010F000700EFC014081518162817381C6010E94A2
:10110000193BC80162E070E00E94700EFC01408152
:10111000518162817381C6010E94193B02E010E097
:1011200060E083E1A82EB12C0A9D70010B9DF00CAC
:101130001A9DF00C112480EC98E0E80EF91E962E12
:10114000990C990CC7010E94FE3C882311F022E003
:1011500001C020E0C7012D8B0E941A3D2D89622F0E
:101160006929682B015010409FEF0F3F1907E1F6E6
:10117000C6010E94003B789465960FB6F894DEBFD6
:101180000FBECDBFCF91DF911F910F91FF90EF90D8
:10119000DF90CF90BF90AF909F9008959F92AF92B5
:1011A000BF92CF92DF92EF92FF920F931F93DF9344
:1011B000CF93CDB7DEB765970FB6F894DEBF0FBEFD
:1011C000CDBF8B01F8947E010894E11CF11CC7018E
:1011D0000E94E211C80161E80E94003BC70160E083
:1011E00070E00E94700EFC01408151816281738128
:1011F000C8010E94193BC70161E070E00E94700EB7
:10120000FC014081518162817381C8010E94193BB8
:10121000C70162E070E00E94700EFC0140815181C4
:1012200062817381C8010E94193BC70163E070E0CD
:101230000E94700EFC014081518162817381C8015E
:101240000E94193BC70164E070E00E94700EFC012F
:101250004081518162817381C8010E94193B24E061
:10126000C22ED12C60E093E1A92EB12CCA9C700152
:10127000CB9CF00CDA9CF00C112480EC98E0E80E8A
:10128000F91E962E990C990CC7010E94FE3C8823EA
:1012900011F022E001C020E0C7012D8B0E941A3D11
:1012A0002D89622F6929682B0894C108D1089FEF06
:1012B000C9169FEFD906D1F6C80170E00E94033B22
:1012C000789465960FB6F894DEBF0FBECDBFCF9170
:1012D000DF911F910F91FF90EF90DF90CF90BF9023
:1012E000AF909F9008950F931F93CF93DF93EB01DF
:1012F0008C010D5F1F4FCB0161E80E94003BC801CC
:101300000E94FF10682FCE010E94003BDF91CF9119
:101310001F910F910895CF92DF92EF92FF920F935A
:101320001F93DF93CF93CDB7DEB76F970FB6F894C7
:10133000DEBF0FBECDBF7C018B01CB0161E80E94F7
:10134000003BC70161E00E949A3A882349F00E945D
:101350004211BC01009721F0C8010E94003B28C047
:101360007E010894E11CF11CC7016FE10E94F10E9F
:10137000BC018981882329F06115710511F48E3231
:1013800099F3C8010E94003B7E010894E11CF11C06
:1013900030E2C32ED12CCC0EDD1EF70161917F010E
:1013A000662331F0C8010E94003BEC14FD04A9F74C
:1013B000C80160E00E94003B6F960FB6F894DEBF54
:1013C0000FBECDBFCF91DF911F910F91FF90EF9096
:1013D000DF90CF900895CF92DF92EF92FF920F931C
:1013E0001F93DF93CF93CDB7DEB72A970FB6F8944C
:1013F000DEBF0FBECDBF6C018E010F5F1F4FC80156
:101400000E94A03DC80142E350E060E070E00E940D
:10141000A43DE02E012F11C08E2D902F0E94C13DC2
:10142000882359F0C60167E80E94003B80EC98E0F1
:1014300062E070E00E940D2C3EC00E94F3148823ED
:1014400059F30E94CC148C010E94C9147C01C8017C
:101450000E94BA3A0E949F17682FC8010E94003B61
:10146000C80167E10E94003B0E9406150E94031517
:1014700002C00E9462150E945D158823D1F3F70116
:1014800082A1843019F000E010E00FC0C60167E8C7
:101490000E94003B10C0C701602F0E949A3A682F3B
:1014A000C6010E94003B0F5F1F4FF701808190E053
:1014B0000817190784F32A960FB6F894DEBF0FBEFB
:1014C000CDBFCF91DF911F910F91FF90EF90DF90F3
:1014D000CF9008958F929F92AF92BF92CF92DF925A
:1014E000EF92FF920F931F93DF93CF93CDB7DEB7A9
:1014F0002A970FB6F894DEBF0FBECDBF5C016B011B
:10150000FC018081823048F4CB0160E80E94003BFE
:1015100080EC98E068E070E01EC08E010F5F1F4F06
:10152000C8010E94A03DC80142E350E060E070E0C5
:101530000E94A43DE02E012F11C08E2D902F0E94FD
:10154000C13D882359F0C60167E80E94003B80EC4A
:1015500098E062E070E00E940D2C47C00E94F314F6
:10156000882359F30E94CC144C010E94C9147C01B9
:10157000C4010E94BA3A01E010E00AC0C501602F20
:101580000E949A3A682FC4010E94003B0F5F1F4FD0
:10159000F501808190E00817190784F30E94061571
:1015A0000E94031502C00E9462150E945D158823E7
:1015B000D1F3F70182A1843019F000E010E00FC0F0
:1015C000C60167E80E94003B10C0C701602F0E945F
:1015D0009A3A682FC6010E94003B0F5F1F4FF70128
:1015E000808190E00817190784F32A960FB6F894C3
:1015F000DEBF0FBECDBFCF91DF911F910F91FF9046
:10160000EF90DF90CF90BF90AF909F908F90089514
:10161000AF92BF92CF92DF92EF92FF920F931F9300
:10162000DF93CF93CDB7DEB760970FB6F894DEBFE8
:101630000FBECDBFC82E092F5B0161E00E949F3A0B
:101640007C018C2D902F63E00E949A3AC82E8E0167
:101650000F5F1F4FC801B7014C2D50E00E940041A1
:10166000C50161E80E94003B780100E010E0DD2444
:1016700008C0F70161917F01C5010E94003B0F5F27
:101680001F4F0C151D05ACF360960FB6F894DEBF26
:101690000FBECDBFCF91DF911F910F91FF90EF90C3
:1016A000DF90CF90BF90AF9008954F925F927F925E
:1016B0008F929F92AF92BF92CF92DF92EF92FF9262
:1016C0000F931F93DF93CF93CDB7DEB760970FB61D
:1016D000F894DEBF0FBECDBFC82EB92E4B0161E01E
:1016E0000E949F3AA82E792E8C2D9B2D63E00E949C
:1016F0009A3AD82E8E010F5F1F4FC8016A2D772DA1
:101700004D2D50E00E940041780100E010E04D2C8A
:1017100055240BC0602F6C5F8C2D9B2D0E949A3A34
:10172000F70181937F010F5F1F4F0415150594F397
:10173000CE0101966A2D772D4D2D50E00E9410416B
:10174000C40161E80E94003BC4016D2D0E94003B72
:1017500060960FB6F894DEBF0FBECDBFCF91DF917C
:101760001F910F91FF90EF90DF90CF90BF90AF90BF
:101770009F908F907F905F904F9008950F931F934D
:10178000CF93DF93EB0161E00E949A3A082F80FF2C
:1017900002C00E94B21101FF02C00E94C501CE0129
:1017A00061E80E94003BCE0160E00E94003BDF91B7
:1017B000CF911F910F9108950F931F93CF93DF93B4
:1017C0008091F504882379F405EF14E0C0E2D0E0BD
:1017D000CE0160E00E94532EF80181938F01219683
:1017E000C034D105A9F78091F504882369F4A5EFE9
:1017F000B4E080E090E0FC01E85EFE4FE491ED9300
:1018000001968E309105B9F785EF94E0DF91CF9185
:101810001F910F91089585E195E008958091340519
:1018200090913505089585E195E00E94CB109C01CB
:10183000009731F482E090E0909335058093340571
:10184000C9010895CF92DF92EF92FF920F931F93F9
:10185000CF93DF936C017B01CB0161E80E94003BD9
:1018600005E115E0C1E0D0E008C0C6016C2F0E9480
:101870009A3AF80181938F012196F601808190E0D8
:10188000C817D90794F3109233050E94130C682FE0
:10189000C7010E94003BDF91CF911F910F91FF90F4
:1018A000EF90DF90CF900895EF92FF920F931F93E8
:1018B000CF93DF938C01EB01FC018081882309F435
:1018C000BFC0C80160E00E949A3A87FDB9C0E82F06
:1018D000F0E0EA31F10508F0B3C0EE58FF4FEE0F2B
:1018E000FF1F0590F491E02D1994C801BE010E94DC
:1018F0002B08A8C0CE0161E80E94003B45E1E42E20
:1019000045E0F42E8701CE01F70161917F010E942D
:10191000003BF8018081882309F494C0F4E3EF16BA
:10192000F5E0FF0679F78EC081E08093110233C0A5
:10193000CE0161E80E94003B0E947E01AC0160E0A4
:1019400070E07AC0C801BE010E9448087BC0C8018F
:10195000BE010E94CE0876C0C801BE010E94730974
:1019600071C0CE0161E80E94003B0E94741062C009
:10197000C801BE010E94220C65C0C801BE010E94C0
:101980008B0960C00E948F0191E089270E948C0121
:10199000CE010E94EB09CE0161E80E94003B52C0DB
:1019A000C801BE010E946A0A4DC0CE0161E80E94D2
:1019B000003BF8940E945611882321F40E94920162
:1019C000882311F460E001C061E0CE010E94003B79
:1019D000789438C0C801BE010E94080B33C0C8010A
:1019E000BE010E94550B2EC0C801BE010E94BE0B55
:1019F00029C0CE0161E80E94003BCE0140E050E0EA
:101A0000BA010E94193B0E94CF14AB01BC01CE0168
:101A10000E94193B0E94D814AB01BC01CE010E9468
:101A2000193B0E94E114AB01BC01CE010E94193B9D
:101A30000E94EA14AB01BC01CE010E94193B02C016
:101A400080E001C081E0DF91CF911F910F91FF9065
:101A5000EF9008958CE19AE00E94D007882309F066
:101A600088C080911102882391F01092110280E0C9
:101A70000E94C30D8BEE94E00E94E43D1092F504A9
:101A80001092150510923505109234050895809135
:101A9000190A90911A0A009709F18091190A9091F8
:101AA0001A0A84309105D1F08091EB04882349F41F
:101AB0008BEE94E040E25EE460E070E00E94A43DC2
:101AC0000DC08BEE94E00E94C13D882339F086EF73
:101AD00099E00E94373A84E08093180A8091180AAE
:101AE000882399F08091180A843029F480EC98E0DA
:101AF00064E070E004C080EC98E065E070E00E9473
:101B00000D2C86EF99E00E94453A8091190A909138
:101B10001A0A8430910569F58BEE94E00E94E43D49
:101B20008CE19AE00E94BA3A86EF99E06CE17AE0A3
:101B30000E949F068823A9F486EF99E06CE17AE081
:101B40000E94DF07882369F486EF99E06CE17AE070
:101B50000E94540C882329F48CE19AE065E80E94E5
:101B6000003B86EF99E00E94453A82EF99E00E949F
:101B70005B3E089581E08093110208958BEE94E01E
:101B80000E94A03D0895FF920F931F93DF93CF9380
:101B9000CDB7DEB72A970FB6F894DEBF0FBECDBF24
:101BA000082FF8940E9443100E94B2110E94C501B0
:101BB0000E94242E80EC98E00E94422C789400230E
:101BC000B9F08E010F5F1F4FC8010E94A03DC801F0
:101BD00040EA55E266E270E00E94A43DF02E012F3B
:101BE0008F2D902F0E94C13D8823D1F30E9453175F
:101BF0000E94121678942A960FB6F894DEBF0FBE94
:101C0000CDBFCF91DF911F910F91FF90089580EC90
:101C100098E00E945F1181E00E94C30D78940E94B9
:101C200062150E942A0D0E94FC0180EC98E00E943F
:101C3000BE2BF5CF8F929F92AF92BF92CF92DF9241
:101C4000EF92FF920F931F93DF93CF93CDB7DEB741
:101C5000FC0140835183628373830483158326834D
:101C60003783C086D186E286F38684869586A686EB
:101C7000B78688899989AA89BB89808B918BA28B29
:101C8000B38BCF91DF911F910F91FF90EF90DF9079
:101C9000CF90BF90AF909F908F900895CF92DF929A
:101CA000EF92FF920F931F93FC0140835183628355
:101CB00073830483158326833783C086D186E286A7
:101CC000F3861486158616861786108A118A128A5C
:101CD000138A1F910F91FF90EF90DF90CF9008959E
:101CE000660F771F660F771F680F791FCB01089566
:101CF000660F771F660F771F680F791FCB01089556
:101D00000F9380E595E263EF75E24FE157E226EE2F
:101D100037E200E00E94CA2390933705809336058E
:101D2000009779F480E595E263EF75E24FE157E2C1
:101D300026EE37E20FEF0E94CA2390933705809377
:101D4000360581E0209136053091370521153105A2
:101D500009F480E00F910895809136059091370540
:101D60000E94F81C9C01909339058093380581E00E
:101D70002115310509F480E008950F931F93DF9337
:101D8000CF93CDB7DEB7AB970FB6F894DEBF0FBEDB
:101D9000CDBF809138059091390560E072E08E01E9
:101DA0000F5F1F4FA8010E944D228091380590912E
:101DB0003905B8010E9439219C0190933B0580931D
:101DC0003A0581E02115310509F480E0AB960FB6A4
:101DD000F894DEBF0FBECDBFCF91DF911F910F9161
:101DE0000895BF92CF92DF92EF92FF920F931F93CD
:101DF000DF93CF93CDB7DEB7AB970FB6F894DEBFC6
:101E00000FBECDBF8C0185E0B82E6E010894C11CB9
:101E1000D11CE62EFF240894E108F10880913A05D0
:101E200090913B05B6010E947C218823B1F0D80136
:101E3000F60180E090E08E159F0534F42191222375
:101E400019F02D930196F7CFF801E80FF91F1082D2
:101E5000009729F4BA9411F702C0F801108280E0CB
:101E600090E0AB960FB6F894DEBF0FBECDBFCF911A
:101E7000DF911F910F91FF90EF90DF90CF90BF9077
:101E800008950F931F93CF93DF938C01EB010EC046
:101E9000CE01B8010E94CF40009741F480913A05ED
:101EA00090913B050E94D82281E009C080913A05BB
:101EB00090913B05BE010E947C21882349F7DF9168
:101EC000CF911F910F910895EF92FF920F931F935F
:101ED000DF93CF93CDB7DEB7AB970FB6F894DEBFE5
:101EE0000FBECDBF7B018E010F5F1F4FB8010E9457
:101EF000410F882361F08091380590913905B80130
:101F00000E949D1EF7019183808381E001C080E0E3
:101F1000AB960FB6F894DEBF0FBECDBFCF91DF9169
:101F20001F910F91FF90EF9008950F931F93DF93F0
:101F3000CF93CDB7DEB7AB970FB6F894DEBF0FBE29
:101F4000CDBF8E010F5F1F4FB8010E94410F882344
:101F500049F08091380590913905B8010E944823D5
:101F600081E001C080E0AB960FB6F894DEBF0FBEF3
:101F7000CDBFCF91DF911F910F910895DF93CF9344
:101F8000CDB7DEB7AB970FB6F894DEBF0FBECDBFAF
:101F9000BC0180913A0590913B05AE014F5F5F4FC8
:101FA0000E94E52291E0882309F490E0892FAB9606
:101FB0000FB6F894DEBF0FBECDBFCF91DF9108956D
:101FC00080913F05089580913E050895CF93DF935A
:101FD000EC0180913C0590913D050097E1F0BE0138
:101FE0006E5F7F4F488150E00E94F61F28818091EC
:101FF000400590914105A0914205B0914305820FA3
:10200000911DA11DB11D8093400590934105A093A2
:102010004205B0934305DF91CF91089580913C052F
:1020200090913D0564E475E041E050E00E94E81EB7
:1020300021E0181619060CF020E0209345050895BC
:10204000809145050895DF93CF930F92CDB7DEB70A
:102050008091440589830E940E1089810F90CF9151
:10206000DF91089510923F0580913C0590913D05C8
:10207000009721F00E94D51E0E94342510923D0544
:1020800010923C05089580913F05882311F00E942D
:10209000321080913E05882311F00E9474108091C7
:1020A0003A0590913B05009731F00E9476211092FD
:1020B0003B0510923A0580913805909139050097BB
:1020C00031F00E94971E10923905109238058091C8
:1020D000360590913705009731F00E949C241092AC
:1020E000370510923605089580913E05882381F0CA
:1020F00080913C0590913D05009721F00E94D51EEE
:102100000E94342510923D0510923C0510923E0528
:102110000E944310609140057091410580914205F5
:102120009091430508950E946326882371F40E94CC
:102130000125882329F40E94431021E030E029C0C2
:102140000E94431022E030E024C00E94800E8823C9
:1021500029F40E94431023E030E01BC00E94AC0E23
:10216000882329F40E94431024E030E012C00E942A
:10217000BD0E882329F40E94431025E030E009C0F9
:102180000E941C25882319F026E030E002C020E0E0
:1021900030E0C9010895CF93DF93EC010E94431012
:1021A0000E9493109C01009719F086309105D9F494
:1021B000109240051092410510924205109243057D
:1021C00010923D0510923C05CE016CE375E00E9433
:1021D000640F882331F080913C0590913D05009774
:1021E00031F427E030E0C901DF91CF91089581E01B
:1021F00080933F050E940E1020E030E0F4CFEF9274
:10220000FF920F931F93CF93DF938C010E94431093
:102210000E949310EC01009769F51092400510920E
:102220004105109242051092430510923D0510920F
:102230003C05C8010E94950FC8010E94BE0F88236B
:1022400089F0C8016CE375E00E94640F882369F08F
:1022500080913C0590913D05009751F081E080937D
:102260003E0508C0C7E0D0E005C0C3E0D0E002C032
:10227000C8E0D0E0CE01DF91CF911F910F91FF9088
:10228000EF9008950E9443100E9493109C010097C4
:1022900019F08630910541F480913A0590913B0503
:1022A0000E94D82220E030E0C901089580914605BF
:1022B000882319F48091D605089581E008958F92BE
:1022C0009F92AF92BF92CF92DF92EF92FF920F93C5
:1022D0001F93DF93CF93CDB7DEB76B970FB6F8940C
:1022E000DEBF0FBECDBF5C01109246059FE4E92E14
:1022F00095E0F92E00E010E083E1882E912C6E012C
:102300000894C11CD11C089DB001099D700D189D39
:10231000700D11246A0D7B1DC6010E94473BD70139
:10232000F6018BE101900D928150E1F70F5F1F4F95
:102330008BE190E0E80EF91E0530110521F76B9650
:102340000FB6F894DEBF0FBECDBFCF91DF911F91C6
:102350000F91FF90EF90DF90CF90BF90AF909F9044
:102360008F900895109246051092D6050895EF9229
:10237000FF920F931F93CF93DF938C01C0E0D0E0C7
:102380002BE1E22EF12CC801BE010E94700EFC016F
:10239000CE9DC001CF9D900DDE9D900D11244081FA
:1023A000518162817381815B9A4F0E94BD3B21966E
:1023B000C530D10541F7DF91CF911F910F91FF906B
:1023C000EF9008958F929F92AF92BF92CF92DF923B
:1023D000EF92FF920F931F93CF93DF93EC01409105
:1023E000510550915205609153057091540500912B
:1023F0006C0510916D0520916E0530916F05C090B0
:102400008705D0908805E0908905F0908A05809036
:10241000A2059090A305A090A405B090A505809179
:10242000BD059091BE05A091BF05B091C00500D03B
:102430000F92EDB7FEB781839283A383B483CE015D
:102440000E941A0E0F900F900F900F90CE01DF9107
:10245000CF911F910F91FF90EF90DF90CF90BF90A1
:10246000AF909F908F9008958093D70508952F92F5
:102470003F924F925F926F927F928F929F92AF9214
:10248000BF92CF92DF92EF92FF920F931F93CF9361
:10249000DF931C012A013B01CC24DD2488249924EC
:1024A00054018BE190E0C89EE001C99ED00DD89EFA
:1024B000D00D1124C15BDA4FC101B6010E94700E2C
:1024C000FC014081518162817381CE0120E00E9434
:1024D000633BEE88FF88088D198DF2E0CF16D1049A
:1024E00069F48091D705882349F461E0E114F1048F
:1024F0000105110509F460E0CE0107C0E114F10403
:102500000105110521F0CE0161E00E94C33B8E144C
:102510009F04A006B10614F4470158010894C11C99
:10252000D11C85E0C816D10409F0BBCFC501B401A8
:10253000A30192010E94CF3F20E830E040E050E04C
:102540000E94374020934705309348054093490542
:1025500050934A0520934B0530934C0540934D050D
:1025600050934E05CA01B90122E030E040E050E04E
:102570000E94374050954095309521953F4F4F4FE1
:102580005F4F20936105309362054093630550933C
:10259000640520937C0530937D0540937E05509320
:1025A0007F052093970530939805409399055093A4
:1025B0009A052093B2053093B3054093B405509328
:1025C000B5052093CD053093CE054093CF055093AC
:1025D000D00581E080934605DF91CF911F910F9147
:1025E000FF90EF90DF90CF90BF90AF909F908F9033
:1025F0007F906F905F904F903F902F9008956F92D3
:102600007F928F929F92AF92BF92CF92DF92EF9282
:10261000FF920F931F93CF93DF935C016A017B01BD
:10262000C0E0D0E03BE1832E912C622E7724C89D40
:102630008001C99D100DD89D100D1124015B1A4F0A
:10264000C501BE010E94700EFC0140815181628172
:10265000738193010C2E02C0359527950A94E2F7F9
:1026600021703070C8010E94633BF8018689978908
:10267000A08DB18DC230D10561F42091D705222300
:1026800041F461E00097A105B10509F460E0C801DB
:1026900006C00097A105B10521F0C80161E00E94C4
:1026A000C33B2196C530D10509F0C1CFC701B601A2
:1026B00020E830E040E050E00E943740209347059A
:1026C000309348054093490550934A0520934B05A4
:1026D00030934C0540934D0550934E05CA01B90106
:1026E00022E030E040E050E00E94374050954095B5
:1026F000309521953F4F4F4F5F4F209361053093A9
:102700006205409363055093640520937C053093E4
:102710007D0540937E0550937F0520939705309368
:1027200098054093990550939A052093B2053093EC
:10273000B3054093B4055093B5052093CD05309370
:10274000CE054093CF055093D00581E08093460598
:10275000DF91CF911F910F91FF90EF90DF90CF907D
:10276000BF90AF909F908F907F906F9008959F92B1
:10277000AF92BF92CF92DF92EF92FF920F931F938F
:10278000CF93DF93982E162FCA01B9012FEF3FEF99
:102790004FEF5FE720934B0530934C0540934D0579
:1027A00050934E0557E096958795779567955A957E
:1027B000D1F760934705709348058093490590933E
:1027C0004A0522E030E040E050E00E943740CC244F
:1027D000DD247601C21AD30AE40AF50AC0E0D0E08B
:1027E0004BE1A42EB12C012F10E0CA9DC001CB9D5E
:1027F000900DDA9D900D1124815B9A4FFC01C28AE5
:10280000D38AE48AF58A98010C2E02C03595279563
:102810000A94E2F720FF04C0692D0E94A93B05C07D
:10282000FC01168A178A108E118E2196C530D105AB
:10283000E1F681E08093D605DF91CF911F910F9152
:10284000FF90EF90DF90CF90BF90AF909F90089552
:10285000853078F4482F50E02BE130E0429FC001F2
:10286000439F900D529F900D1124815B9A4F0E94BF
:10287000C33B08950F931F93CF93DF938091460539
:102880008823D9F180914B0590914C05A0914D057D
:10289000B0914E059C01AD01215030404040504068
:1028A00020934B0530934C0540934D0550934E05B6
:1028B0000097A105B10519F4109246051BC0C0E0B0
:1028C000D0E00BE110E0C09FC001C19F900DD09FF0
:1028D000900D11244091470550914805609149059C
:1028E00070914A05815B9A4F0E94C93B2196C53081
:1028F000D10549F7809146052DC08091D6058823E2
:1029000041F11092D605C0E0D0E00BE110E0C09F8D
:10291000C001C19F900DD09F900D1124409147059B
:10292000509148056091490570914A05815B9A4F25
:102930000E942F3C882319F48091D60501C081E0C4
:102940008093D6052196C530D10509F78091D6052B
:1029500001C080E0DF91CF911F910F910895CF9337
:10296000DF93CFE4D5E0CE010E94433BCE014B96EE
:102970000E94433BCE01C6960E94433B80EA95E00D
:102980000E94433B8BEB95E00E94433BDF91CF914C
:10299000089586E49AE008958CE69AE0089560919F
:1029A000E5057091E6058091E7059091E8050895A9
:1029B0006091E9057091EA058091EB059091EC0535
:1029C00008956091ED057091EE058091EF0590916D
:1029D000F00508956091F1057091F2058091F3057D
:1029E0009091F40508958091D805882341F4809151
:1029F000D905882331F481E08093D905089580E0DA
:102A0000089580E008951092D9050895FF920F93DC
:102A10001F93DF93CF93CDB7DEB72A970FB6F89405
:102A2000DEBF0FBECDBF8091E5059091E605A09178
:102A3000E705B091E8050196A11DB11D8093E5055C
:102A40009093E605A093E705B093E8058E010F5F2C
:102A50001F4FC8010E94A03DC80144EF51E060E053
:102A600070E00E94A43DF02E012F8F2D902F0E9428
:102A7000C13D8823D1F381E08093D8058AED95E0AC
:102A800040E553EC60E070E00E94A43D85E0809357
:102A9000120286E49AE00E94453A82E49AE00E949B
:102AA0005B3E2A960FB6F894DEBF0FBECDBFCF9126
:102AB000DF911F910F91FF9008959091D80581E0CB
:102AC000892708958091D805882309F4AAC08091A8
:102AD000690A90916A0A8430910519F41092D80518
:102AE00008958091680A8823E1F18091680A813015
:102AF000C1F48091F1059091F205A091F305B09198
:102B0000F4050196A11DB11D8093F1059093F20586
:102B1000A093F305B093F40586E49AE00E94453A49
:102B2000089520911202222339F58091E9059091B0
:102B3000EA05A091EB05B091EC050196A11DB11D30
:102B40008093E9059093EA05A093EB05B093EC051B
:102B50001092D80580EC98E063E070E00E940D2CA4
:102B600008958AED95E00E94C13D882309F459C07B
:102B700020911202222379F18091ED059091EE05CA
:102B8000A091EF05B091F0050196A11DB11D8093B4
:102B9000ED059093EE05A093EF05B093F00521505D
:102BA000209312028AED95E040E553EC60E070E07E
:102BB0000E94A43D8CE69AE00E94C23A86E49AE024
:102BC0000E94453A82E49AE00E94E13E82E49AE063
:102BD0000E945B3E08958091E9059091EA05A091DD
:102BE000EB05B091EC050196A11DB11D8093E9059F
:102BF0009093EA05A093EB05B093EC0586E49AE088
:102C00000E94373A84E08093680A82E49AE00E9446
:102C1000E13E1092D80580EC98E061E070E00E94FF
:102C20000D2C0895FF920F931F93DF93CF93CDB791
:102C3000DEB72A970FB6F894DEBF0FBECDBF8E0168
:102C40000F5F1F4FC8010E94A03DC80140EA56E82F
:102C500061E070E00E94A43DF02E012F12C08F2D84
:102C6000902F0E94C13D882361F081E08093D905B7
:102C70001092D80580EC98E062E070E00E940D2C84
:102C800004C00E94F314882351F38CE69AE00E945A
:102C9000BA3A8CE69AE06FE70E94003B8CE69AE035
:102CA00061E00E94003B0E9406158AED95E040EA33
:102CB00056E861E070E00E94A43D1092D90502C080
:102CC0000E9462158091D8058823D1F72091690A66
:102CD00030916A0A81E02430310509F080E02A96BB
:102CE0000FB6F894DEBF0FBECDBFCF91DF911F911D
:102CF0000F91FF900895FF920F931F93DF93CF934F
:102D0000CDB7DEB72A970FB6F894DEBF0FBECDBFA2
:102D10008E010F5F1F4FC8010E94A03DC80140EA0D
:102D200056E861E070E00E94A43DF02E012F12C031
:102D30008F2D902F0E94C13D882361F081E0809308
:102D4000D9051092D80580EC98E062E070E00E940E
:102D50000D2C04C00E94F314882351F38CE69AE0F2
:102D60000E94BA3A8CE69AE060E00E94003B8CE652
:102D70009AE068E20E94003B0E9406158AED95E009
:102D800040EA56E861E070E00E94A43D1092D90547
:102D900002C00E9462158091D8058823D1F72A9637
:102DA0000FB6F894DEBF0FBECDBFCF91DF911F915C
:102DB0000F91FF900895FF920F931F93DF93CF938E
:102DC000CDB7DEB72A970FB6F894DEBF0FBECDBFE2
:102DD0008E010F5F1F4FC8010E94A03DC80140EA4D
:102DE00056E861E070E00E94A43DF02E012F12C071
:102DF0008F2D902F0E94C13D882361F081E0809348
:102E0000D9051092D80580EC98E062E070E00E944D
:102E10000D2C04C00E94F314882351F38CE69AE031
:102E20000E94BA3A8CE69AE060E00E94003B8CE691
:102E30009AE060E00E94003B8CE69AE060E00E942D
:102E4000003B8CE69AE060E00E94003B0E94061581
:102E50008AED95E040EA56E861E070E00E94A43D0A
:102E60001092D90502C00E9462158091D80588236E
:102E7000D1F78091680A843041F086E49AE060E0FE
:102E80000E949A3A91E0813009F090E0892F2A96C9
:102E90000FB6F894DEBF0FBECDBFCF91DF911F916B
:102EA0000F91FF9008951F93DF93CF930F92CDB7AB
:102EB000DEB71092E5051092E6051092E705109234
:102EC000E8051092E9051092EA051092EB051092C0
:102ED000EC051092ED051092EE051092EF051092A0
:102EE000F0051092F1051092F2051092F305109280
:102EF000F40510E002C0882379F00E94DB161F5F02
:102F00001038C9F709C089830E947B1689810F9008
:102F1000CF91DF911F91089581E02091ED053091CF
:102F2000EE054091EF055091F00521153105410561
:102F3000510549F380E0EBCF8093E405089580913B
:102F4000E40508958AED95E00E94A03D0895DF9381
:102F5000CF930F920F92CDB7DEB7FC01009769F1C6
:102F60006230710550F1A081B181660F771F80E05A
:102F700090E02681378140855185620F731F841F41
:102F8000951FED91FC91AE014F5F5F4F22E030E065
:102F90001995882391F029813A812115310579F01D
:102FA0008FEF273F380749F0C901409687309105D8
:102FB00020F08FEF283F380710F020E030E0C90103
:102FC0000F900F90CF91DF9108954F925F926F9283
:102FD0007F928F929F92AF92BF92CF92DF92EF92A9
:102FE000FF920F931F93DF93CF930F920F92CDB762
:102FF000DEB75C018B01009709F449C062307105AE
:1030000008F445C0DC0116964D905D906D907C9063
:1030100019974E010894811C911C000F111F680123
:10302000EE24FF24C40CD51CE61CF71CD501ED9141
:10303000FC910190F081E02DC701B601A40122E0CE
:1030400030E01995882319F109811A8101151105BC
:10305000E1F0C801409688309105C8F0BFEF083F05
:103060001B0710F000E010E01A821982D501ED91E3
:10307000FC910480F581E02DC701B601A40122E096
:1030800030E019950115110541F681E001C080E09D
:103090000F900F90CF91DF911F910F91FF90EF90C4
:1030A000DF90CF90BF90AF909F908F907F906F9068
:1030B0005F904F9008952F923F924F925F926F9240
:1030C0007F928F929F92AF92BF92CF92DF92EF92B8
:1030D000FF920F931F93DF93CF93CDB7DEB72E9759
:1030E0000FB6F894DEBF0FBECDBF6C017A8769873B
:1030F000009709F4A4C0DC01ED91FC9111972081A7
:1031000031813C872B87848195819C838B831696A4
:103110008D919D910D90BC91A02D8D839E83AF8349
:10312000B887F601028D138D4284538464847584BC
:1031300076946794579447945E864D86138E128ECC
:10314000642E752EEE24FF241E010894211C311CD0
:103150004CC00230110528F02D853E85021713075B
:1031600010F002E010E04801880C991CAA24BB244E
:103170008D819E81AF81B885880E991EAA1EBB1EC7
:10318000C501B401A10122E030E0AB85BC85FD01A1
:103190001995882309F453C089819A81009701F514
:1031A0006114710421F4F601138F028F25C0E1141C
:1031B000F10429F42FEF3FEF3A83298302C0FA820A
:1031C000E982C501B401A10122E030E0AB81BC81FC
:1031D000FD011995882379F1089461087108780137
:1031E0000894410851080F5F1F4F4114510409F022
:1031F000B0CF61147104F9F4E985FA85E230F10584
:1032000000F1FA82E982BF01660F771F80E090E04B
:103210002D813E814F815885620F731F841F951F3A
:10322000AE014F5F5F4F22E030E0AB81BC81FD011A
:103230001995882331F4C601B7010E94E517EE24E1
:10324000FF24C7012E960FB6F894DEBF0FBECDBF88
:10325000CF91DF911F910F91FF90EF90DF90CF9072
:10326000BF90AF909F908F907F906F905F904F90A6
:103270003F902F90089580E190E00895CF93DF93E1
:10328000EC010097C1F062307105A8F06250704007
:1032900080E090E02889398940E050E00E94CF3FEB
:1032A0009B01AC018A899B89AC89BD89280F391F94
:1032B0004A1F5B1F03C020E030E0A901B901CA0129
:1032C000DF91CF910895FC0181914AE0282F30E0F1
:1032D0005191C9019695982F88279795879535958F
:1032E0002795822B850F415089F70895EF92FF9221
:1032F0000F931F93DF93CF93CDB7DEB760970FB6D1
:10330000F894DEBF0FBECDBF8C0162307105D8F0DE
:103310000E943E19AE014F5F5F4F20E1DA011D921E
:103320002A95E9F7D801ED91FC91119750962D91CE
:103330003C9151970680F781E02D0BE319E1EE24D3
:10334000FF24199501C080E060960FB6F894DEBFA7
:103350000FBECDBFCF91DF911F910F91FF90EF90E6
:1033600008958F929F92AF92BF92CF92DF92EF9289
:10337000FF920F931F93DF93CF93CDB7DEB72D97B7
:103380000FB6F894DEBF0FBECDBF8C014A015B01C2
:103390006901D901ED90FC90119712968D919C9145
:1033A0001397809613969C938E931297F8018081C1
:1033B000853E11F0882329F4D60114961C921497A7
:1033C000D0C0F80183858F3009F04AC0D901149626
:1033D0008C911497882319F09585891779F08BE2E1
:1033E000D7011D928A95E9F7F8018585D6011496D3
:1033F0008C93F70187A290A6A1A6B2A6D8012C9122
:1034000030E02F733070215030404DE050E0249F69
:10341000C001259F900D349F900D1124DE0111965F
:10342000E3E1F2E02DE001900D922150E1F7DE01A1
:103430001196E80EF91E9C01235F3F4F8F319105D5
:1034400008F08FC04D91F801E40FF11D4081F701A4
:1034500041937F0101968217930709F482C0EECF52
:10346000D7018C91882341F0C8010E946319F601AD
:103470009481981709F458C08BE2D7011D928A9560
:10348000E9F7F70187A290A6A1A6B2A6B801D701D5
:10349000C80140E0FC015191CF015032A1F05C9392
:1034A000F801248523FF0BC09C0121503040F90115
:1034B0002081213420F02B3510F4505E5C934F5F57
:1034C0001196483039F7D7018C91853011F485EE8B
:1034D0008C93F8018085803219F1D701A40FB11DBA
:1034E0008EE28C93242F2C5F4F5FDB0118968C911A
:1034F00018978032A9F0D701A40FB11D8C93F80161
:10350000948594FF08C0FB019085913420F09B3591
:1035100010F4805E8C934F5F6F5F7F4F421729F7E7
:10352000F701E40FF11D1082D8011B968C911B97B7
:10353000F70180A35A968D919C915B9792A381A3EA
:103540005C968D919D910D90BC91A02D83A394A329
:10355000A5A3B6A381E0D60115968C93159780E0BC
:1035600001C081E02D960FB6F894DEBF0FBECDBF2F
:10357000CF91DF911F910F91FF90EF90DF90CF904F
:10358000BF90AF909F908F9008952F923F924F924F
:103590005F926F927F928F929F92AF92BF92CF92E3
:1035A000DF92EF92FF920F931F93DF93CF93CDB7EC
:1035B000DEB7A0970FB6F894DEBF0FBECDBF8B016C
:1035C000009709F418C16115710509F414C1DC01F3
:1035D000ED91FC9124803580FB0187A090A4A1A4EB
:1035E000B2A46B01DB010D900020E9F71197FA2ED0
:1035F000F61A8F2D90E00C966DE070E00E9402406C
:10360000E62ECE01019660E270E04BE050E00E94B1
:10361000BD40C8016EE270E00E94F5400097F9F0ED
:103620009C012F5F3F4FDC0111968C9111978823ED
:10363000B1F0F90101900020E9F73197E21BF30B9B
:103640008E2F8095F80EBE01675F7F4F4E2FE430BE
:1036500008F043E0CB01B90150E00E94B440CE0134
:103660000196BF2DB93080F4B6014F2D50E00E9475
:10367000B440F80180818E3281F581818E3209F467
:103680008281882349F129C0FC018C2D9D2DDC010C
:1036900088E00D9001928150E1F7D80191962C912C
:1036A0009197822F90E0203A38F444E095958795E1
:1036B0004A95E1F7805D06C034E0959587953A9587
:1036C000E1F78F598F83822F8F708A3010F4805DDD
:1036D00001C08F59888701C0EE248981853E11F48D
:1036E00085E0898385E1FE013C96DF011D928A9584
:1036F000E9F7F80180A18C8781A192A19C8F8B8F23
:1037000083A194A1A5A1B6A18D8F9E8FAF8FB8A3E1
:103710006E2D70E095E0660F771F9A95E1F780E0D7
:1037200090E0680D791D8A1D9B1D6E010894C11CD7
:10373000D11CA60120E230E0F1011995882309F49B
:103740005AC0C6010E946319482EFE2C8DE0682ED7
:10375000712CBFE05B2E4AC0C6016FEF70E040E203
:1037600050E00E94BD408F2D90E00197869DF001B2
:10377000879DF00D969DF00D1124E00FF11F21E0C3
:10378000CF01D601A20FB11D30813C932F5FD6012E
:10379000A20FB11D1C922F5F2B3019F02A3121F49A
:1037A00002C02EE001C02CE13196DC018C9188230F
:1037B00011F02F3128F3F982FE1419F48F2D806453
:1037C00089835C864E861D861B8E1C8EC501B401C6
:1037D000A60120E230E0F101199580E290E0A0E03E
:1037E000B0E0880E991EAA1EBB1EFA94FF2009F0B5
:1037F000B3CF81E001C080E0A0960FB6F894DEBFA1
:103800000FBECDBFCF91DF911F910F91FF90EF9031
:10381000DF90CF90BF90AF909F908F907F906F90F0
:103820005F904F903F902F9008952F923F924F922C
:103830005F926F927F928F929F92AF92BF92CF9240
:10384000DF92EF92FF920F931F93DF93CF9300D0FD
:10385000CDB7DEB74C019B01009709F4AEC041150E
:10386000510509F4AAC0FA0101900020E9F7CF013F
:10387000841B950B0B966DE070E00E94EE3F6F5F2E
:103880006B83D9016D907C9011976114710451F490
:10389000F401A688B788C08CD18C228833884488EC
:1038A000558806C0222433242101AA24BB246501A3
:1038B000860175011A82A214B304C404D50409F068
:1038C0004CC06114710409F478C0A114B104C1049E
:1038D000D10479F1C401B3010E94A717009741F503
:1038E000C401B30141E050E00E945B185C01009705
:1038F00009F463C0BC016250704080E090E0D401E4
:1039000050962D913C91519740E050E00E94CF3F5E
:103910007B018C01F40182899389A489B589E80E21
:10392000F91E0A1F1B1FC401B5010E94761948C069
:103930003C01C401B3010E943E195B016C01D4013A
:1039400050962D903C90519744245524260E371EB6
:10395000481E591E7B018C011A82D401ED91FC9105
:103960000190F081E02DC601B501AE014F5F5F4FC0
:1039700021E030E01995882301F18981853E11F01D
:10398000882379F4BA81BF5FBA83EB81BE17C0F494
:1039900080E290E0A0E0B0E0A80EB91ECA1EDB1ED7
:1039A0008ACF50E2E52EF12C012D112DEA0CFB1CE3
:1039B0000C1D1D1D570168017DCFEE24FF248701DA
:1039C000B701C8010F900F900F90CF91DF911F9119
:1039D0000F91FF90EF90DF90CF90BF90AF909F90AE
:1039E0008F907F906F905F904F903F902F900895B1
:1039F0002F923F924F925F926F927F928F929F92FF
:103A0000AF92BF92CF92DF92EF92FF920F931F93EC
:103A1000DF93CF93CDB7DEB7AC970FB6F894DEBF88
:103A20000FBECDBF6C01009709F45EC1DC01149696
:103A30008D919C911597009709F456C116968D911A
:103A40009C911797009709F44FC16AC1EBE8F6E023
:103A50008CE1DF011D928A95E9F7D0928C06C09225
:103A60008B06D6011996ED90FD900D911C911C9737
:103A700089E0EE0CFF1C001F111F8A95D1F7EA8E1A
:103A8000FB8E0C8F1D8FC801B701655F7F4F8F4F75
:103A90009F4FED91FC91AE014F5F5F4F29E130E008
:103AA0001995882309F41CC129803A804C815D81D5
:103AB000BB81BAA32E81EF81F885FCA3EBA3898596
:103AC0009A856C857D85EE88FF88088D198DEE8E30
:103AD000FF8E08A319A3E114F1040105110551F4A7
:103AE000009709F4FDC07C0100E010E0EE8EFF8E2F
:103AF00008A319A36115710509F4F2C0CA01A0E079
:103B0000B0E08DA39EA3AFA3B8A780E090E030E023
:103B100040E050E00E94CF3F69A77AA78BA79CA7FF
:103B2000EE8CFF8C08A119A18DA19EA1AFA1B8A513
:103B3000E81AF90A0A0B1B0B89A59AA5ABA5BCA527
:103B4000E81AF90A0A0B1B0BC10101972BA13CA132
:103B5000F5E0220F331FFA95E1F7820F931FB101B1
:103B60000E94EE3F80E090E0E61AF70A080B190B7E
:103B70009AA1292F30E040E050E0C801B7010E942F
:103B8000154029013A01253FAFE03A07A0E04A0776
:103B9000A0E05A0708F4A4C0253FBFEF3B07B0E000
:103BA0004B07B0E05B0720F486E0F601808704C095
:103BB0008BE0D60118968C9388E1EDE8F6E0DF0102
:103BC0001D928A95E9F74101AA24BB246E8D7F8D51
:103BD00088A199A1A50194010E94CF3F60938D0611
:103BE00070938E0680938F0690939006C501B40162
:103BF0002DA13EA14FA158A50E94CF3F7B018C0172
:103C00008A8D9B8DAC8DBD8DE80EF91E0A1F1B1F82
:103C1000E0929106F0929206009393061093940618
:103C2000A30192012E5F3F4F4F4F5F4FD601189671
:103C30008C911897863029F462E070E080E090E083
:103C400004C064E070E080E090E00E94CF3F6093A9
:103C500095067093960680939706909398063092F7
:103C60009A0620929906BAA12B2F30E0229DC0011E
:103C7000239D900D329D900D112490939C0680936E
:103C80009B0669A57AA58BA59CA5A50194010E9418
:103C9000CF3F6E0D7F1D801F911F6093A106709313
:103CA000A2068093A3069093A406EBA1FCA19F011A
:103CB00040E050E0E5E0220F331F441F551FEA9516
:103CC000D1F7260F371F481F591F20939D063093A9
:103CD0009E0640939F065093A0062BE836E006C050
:103CE00010928C0610928B0620E030E0C901AC9651
:103CF0000FB6F894DEBF0FBECDBFCF91DF911F91FD
:103D00000F91FF90EF90DF90CF90BF90AF909F907A
:103D10008F907F906F905F904F903F902F9008957D
:103D200080918B0690918C060097F1F68FCE0097CC
:103D300019F0FC01118210820895CF93DF93FB01EB
:103D4000009729F1309719F120A124FD20C025C04A
:103D5000C9E5D6E0DF012BE20D9009922150E1F791
:103D60009093580680935706109284061092850609
:103D7000109286061092870681A192A190938906DF
:103D80008093880610928A0627E536E002C020E07C
:103D900030E0C901DF91CF9108952091570630910D
:103DA00058062115310599F7D3CFCF93DF93EC0156
:103DB000009759F08BA9813031F4FE0181919191E6
:103DC000BF010E94C51A19821882DF91CF91089510
:103DD0002F923F924F925F926F927F928F929F921B
:103DE000AF92BF92CF92DF92EF92FF920F931F9309
:103DF000DF93CF9300D000D0CDB7DEB79E838D8305
:103E00007C836B833A01009709F4D4C06115710576
:103E100009F4D0C04115510509F4CCC0DC019D96D0
:103E2000CD90DD90ED90FC90D09795962D913D91A1
:103E30004D915C919897C301A0E0B0E08C0D9D1D61
:103E4000AE1DBF1D281739074A075B0728F4390143
:103E50006C187D0809F4ABC0AD81BE81ED91FC9179
:103E60001197208931893A832983D1960D911C912C
:103E7000D2970115110579F593960D911C919497A0
:103E80000115110539F4C114D104E104F10409F458
:103E90008EC090C0C114D104E104F104E1F04601E8
:103EA000570189819A811C01442455240FC0AD819A
:103EB000BE818D919C91B8010E94A7178C0100973B
:103EC00009F478C082189308A408B50882149304F2
:103ED000A404B50460F789809A8008948108910849
:103EE0008C209D207301ED81FE8120803180C101F5
:103EF000B8010E943E199B01AC01C980DA80C81844
:103F0000D908EC14FD0408F46701D101ED91FC918E
:103F1000B40180E090E0620F731F841F951F019031
:103F2000F081E02D4B815C8196011995882349F140
:103F3000EC18FD08960140E050E0ED81FE8185A57A
:103F400096A5A7A5B0A9820F931FA41FB51F85A78B
:103F500096A7A7A7B0ABC601880D991D29813A8104
:103F600082179307A0F080819181B8010E94A71762
:103F70008C01009751F4AD81BE81D2961C921E92A5
:103F8000D19793012E193F0917C088249924ED81F8
:103F9000FE8112AB01ABE114F10439F02B813C81BD
:103FA0002C0D3D1D3C832B839ECF930105C020E04B
:103FB00030E002C02FEF3FEFC90126960FB6F8940C
:103FC000DEBF0FBECDBFCF91DF911F910F91FF904C
:103FD000EF90DF90CF90BF90AF909F908F907F90A9
:103FE0006F905F904F903F902F9008952F923F9247
:103FF0004F925F926F927F928F929F92AF92BF92F9
:10400000CF92DF92EF92FF920F931F93DF93CF93A4
:1040100000D000D0CDB7DEB79E838D831B015C83BB
:104020004B83009709F409C16115710509F405C1B5
:104030004115510509F401C1DC019D968D909D90BB
:10404000AD90BC90D097FC0185A196A1A7A1B0A589
:1040500088159905AA05BB0508F4EFC080819181F8
:10406000DC0150960D90BC91A02DBA83A98301A9C3
:1040700012A90115110509F052C003A114A10115DF
:104080001105A1F481149104A104B10409F0D5C073
:1040900060E070E041E050E00E945B188C01ED812F
:1040A000FE8194A383A3009709F4C7C0AD81BE81AC
:1040B0009D96CD90DD90ED90FC90D097C114D104E9
:1040C000E104F10461F121C0C418D508E608F7083D
:1040D000ED81FE8180819181B8010E94A717009730
:1040E00091F4C114D104E104F10409F0A6C0AD813A
:1040F000BE818D919C91B80141E050E00E945B1817
:10410000009709F49AC08C0105C0E981FA812F015A
:1041100066247724C414D504E604F704A8F6C980FD
:10412000DA800894C108D108C820D920AB80BC80AF
:10413000AD81BE818D909C90C401B8010E943E1952
:104140009B01AC01E980FA80EC18FD08AE14BF04B5
:1041500008F47501D401ED91FC91B60180E090E086
:10416000620F731F841F951F0480F581E02DA1014C
:1041700097011995882309F444C0AE18BF08970128
:1041800040E050E0ED81FE8185A596A5A7A5B0A9E8
:10419000820F931FA41FB51F85A796A7A7A7B0AB33
:1041A000C7018C0D9D1D29813A8182179307E8F084
:1041B00080819181B8010E94A717009799F4A114FA
:1041C000B10459F0AD81BE818D919C91B80141E05F
:1041D00050E00E945B18009729F4ED81FE8112AA3D
:1041E00011AA0FC08C01CC24DD24AD81BE81D296F2
:1041F0001C930E93D197A114B10419F02E0C3F1CFF
:1042000097CFED81FE8185A596A5A7A5B0A925A18B
:1042100036A147A150A5281739074A075B0740F484
:1042200021E023ABED81FE8185A396A3A7A3B0A7D0
:104230002B813C812A193B0902C02FEF3FEFC901B6
:1042400026960FB6F894DEBF0FBECDBFCF91DF919B
:104250001F910F91FF90EF90DF90CF90BF90AF90A4
:104260009F908F907F906F905F904F903F902F9096
:104270000895CF93DF93DB01009791F1109781F1BF
:1042800090962C91909724FF2BC02091F5053091AA
:10429000F6052115310551F02091260630912706AB
:1042A00021153105E9F4E6E2F6E002C0E5EFF5E0BC
:1042B0009F012E5F3F4FBD014BE2EB010990BE0114
:1042C000E90109929E014150C1F791838083919643
:1042D0008D919C91929796A785A710AA17A602C0C8
:1042E000E0E0F0E0CF01DF91CF910895009719F061
:1042F000FC011182108208952F923F924F925F929B
:104300006F927F928F929F92AF92BF92CF92DF92E5
:10431000EF92FF920F931F93DF93CF93CDB7DEB74A
:10432000A6970FB6F894DEBF0FBECDBF5C01009715
:1043300009F499C06115710509F495C0DC016D900F
:104340007C901197F301208831889D964D905C9068
:104350009E979F968D909C90D0978214930468F0BE
:1043600093968D919C9194979E969C938E939D97F6
:10437000D0961C921E929F9776C0FE01319686E0E1
:10438000DF011D928A95E9F78BE2DB011D928A9588
:10439000E9F77A8369834114510409F055C0F301A8
:1043A0002288338886899789281A390A4DC0610185
:1043B000C818D908740100E010E04114510441F418
:1043C000D30156966D917D918D919C91599704C022
:1043D000C301B2010E943E196E0D7F1D801F911F07
:1043E0001C821B82D301ED91FC910280F381E02DB0
:1043F000AE01495F5F4F20E230E08601A1EBEA2E7B
:10440000A9E1FA2E6E010894C11CD11C19958823CC
:1044100051F18B819C81880E991E82149304A0F027
:10442000C301B2010E94A7172C01009759F48E8195
:10443000882371F4F50183A194A196A785A710AAFA
:1044400017A611C0882499248E81882309F4AFCF40
:10445000D5019E965C924E929D97D0969C928E929C
:104460009F978E8101C080E0A6960FB6F894DEBFBC
:104470000FBECDBFCF91DF911F910F91FF90EF90B5
:10448000DF90CF90BF90AF909F908F907F906F9074
:104490005F904F903F902F9008958F929F92AF9290
:1044A000BF92CF92DF92EF92FF920F931F93CF9321
:1044B000DF934C01EB018A01009709F464C0209757
:1044C00009F461C08881882309F45DC04115510554
:1044D00009F459C08F3209F421968BE2D8011D925C
:1044E0008A95E9F780E1F80180A301C0E5018881A0
:1044F000882309F44AC0C401B8010E9439217C0113
:10450000009709F440C0CE016FE270E00E94C44001
:10451000009739F0A82FAC1B5C010894A11CB11CBA
:1045200029C0DE010D900020E9F71197AC1B5E0158
:10453000AA0EB11C1FC0F80101900020E9F73197C5
:10454000E01BF10BEC15FD05B9F4CE01B801A60195
:104550000E94D840009781F4D70111961C921E92B8
:10456000CC0DDD1D8881882381F0F80180A184FDB8
:10457000BDCF09C0CA2EDD24C701B8010E947C212D
:104580008823C9F610C080E001C081E0DF91CF919F
:104590001F910F91FF90EF90DF90CF90BF90AF9061
:1045A0009F908F900895D70111961C921E929FCFD5
:1045B000FC01009741F083A194A196A785A710AABA
:1045C00017A681E0089580E00895AF92BF92CF9240
:1045D000DF92EF92FF920F931F93CF93DF938C01A3
:1045E0007B01EA01009709F446C06115710509F4E1
:1045F00042C0DB018C918823F1F12097E1F1C801E1
:10460000BE010E947C21882371F0C701BE010E9477
:10461000CF400097A1F7F80183A194A196A785A7A1
:1046200010AA17A628C0D801CD90DC905E01EC2F0F
:10463000FB2D8BE2DF011D928A95E9F7CE01B701D0
:104640004FE150E00E94E640B8016D5D7F4FC6012A
:10465000AE010E94151C6FA378A789A79AA76115C0
:1046600071058105910539F0C601BE010E94C51A88
:1046700091E0882309F490E0892FDF91CF911F9179
:104680000F91FF90EF90DF90CF90BF90AF90089583
:104690007F928F929F92AF92BF92CF92DF92EF92D2
:1046A000FF920F931F93DF93CF93CDB7DEB72C9775
:1046B0000FB6F894DEBF0FBECDBF6C015B01009753
:1046C00009F453C06115710509F44FC0DB019796D9
:1046D000ED90FD900D911C919A97E114F104010564
:1046E000110509F442C04E010894811C911CB5EEDD
:1046F0007B2ED601ED91FC910190F081E02DC80157
:10470000B701A4012CE030E01995882371F179827A
:10471000D601ED91FC910480F581E02DC801B7012F
:10472000A4012CE030E019958823F9F08C858F30B6
:1047300049F480E290E0A0E0B0E0E80EF91E0A1F24
:104740001B1FD7CFD50191966D917C9192976115E2
:10475000710541F0C6010E94E51791E0882319F424
:1047600090E001C091E0892F01C080E02C960FB647
:10477000F894DEBF0FBECDBFCF91DF911F910F9197
:10478000FF90EF90DF90CF90BF90AF909F908F9071
:104790007F9008958F929F92AF92BF92CF92DF92B7
:1047A000EF92FF920F93DF93CF93CDB7DEB7609771
:1047B0000FB6F894DEBF0FBECDBF7C016B015A016E
:1047C0004901009709F4A3C06115710509F49FC060
:1047D00004300CF09CC007FD1DC0602F772767FDDB
:1047E000709584E0660F771F8A95E1F762547E4FDB
:1047F000882777FD8095982FAE014F5F5F4F20E1AE
:1048000030E0F7011995882309F481C08D81882350
:1048100009F47DC08091AF06882309F078C0E7EAEB
:10482000F6E081E1DF011D928A95E9F7F092A80692
:10483000E092A706D092AA06C092A906B092AC0652
:10484000A092AB069092AE068092AD0607FD5AC0CC
:104850008D818093AF068A8590E0A0E0B0E0BA2F0A
:10486000A92F982F88272B8530E040E050E0A90140
:1048700033272227822B932BA42BB52B298530E0BD
:1048800040E050E0822B932BA42BB52B2C8530E0FD
:1048900040E050E0522F442733272227822B932BCE
:1048A000A42BB52B81879287A387B4878E8590E050
:1048B000A0E0B0E0BA2FA92F982F88272F8530E0ED
:1048C00040E050E0A90133272227822B932BA42B11
:1048D000B52B2D8530E040E050E0822B932BA42BAC
:1048E000B52B288930E040E050E0522F4427332791
:1048F0002227822B932BA42BB52B85879687A787FE
:10490000B08B03C08FEF8093AF069F0102C020E001
:1049100030E0C90160960FB6F894DEBF0FBECDBF80
:10492000CF91DF910F91FF90EF90DF90CF90BF90EC
:10493000AF909F908F900895009721F0FC01108612
:1049400081E0089580E008958EBD0DB407FEFDCF8F
:104950008DB58F778DBD08958FEF8EBD0DB407FE99
:10496000FDCF8DB58F778DBD8EB508951F93DF93E5
:10497000CF9300D00F92CDB7DEB7182F4C835B8357
:104980006A8379830E94AC24812F80640E94A424CE
:104990007981872F0E94A4246A81862F0E94A424F3
:1049A0005B81852F0E94A4244C81842F0E94A42423
:1049B000112319F0183041F405C085E90E94A424A0
:1049C0001AE004C087E8FACF8FEFF8CF0E94AC243A
:1049D0008F3F11F41150D1F70F900F900F900F905F
:1049E000CF91DF911F910895462FFC0162816F7076
:1049F0000E94AA2D0895FC0162816F700E94BF2D54
:104A00000895DF93CF9300D0CDB7DEB78091DB0957
:104A10009091DC099A8389838B81807F81608B836D
:104A2000CE0101960E94FB2491E089270F900F9000
:104A30000F90CF91DF910895DF93CF9300D0CDB742
:104A4000DEB78091DB099091DC099A8389838B81A1
:104A5000807F8B83CE0101960E94FB240F900F90E4
:104A60000F90CF91DF9108958091B8068823A1F42B
:104A70006091B9067091BA068091BB069091BC0610
:104A80004DEB56E020E032E00E941F27882331F0F2
:104A900081E08093B806089581E0089580E008954C
:104AA0002F923F924F925F926F927F928F929F923E
:104AB000AF92BF92CF92DF92EF92FF920F931F932C
:104AC000CF93DF931B012C018A01790172C09FEF04
:104AD000A92E91E0B92EA220B320C501A0E0B0E03C
:104AE00042013101681A790A8A0A9B0AC0E0D2E0C1
:104AF000CA19DB09EC16FD0608F4E7018091B90636
:104B00009091BA06A091BB06B091BC0668167906D2
:104B10008A069B06D9F10E943425882309F44FC0E8
:104B2000289881E1B401A3010E94B624882311F0E2
:104B3000289A45C00E94AC248E3FE1F78DEBC82E29
:104B400086E0D82E0E94AC24F60181936F01FDEB24
:104B5000CF16F8E0DF06B1F76092B9067092BA0698
:104B60008092BB069092BC0695012354394FC80130
:104B7000B901AE010E94B4400C0F1D1F0E94AC246D
:104B80000E94AC24289A0E94AC240AC095012354A8
:104B9000394FC801B901AE010E94B4400C0F1D1F6E
:104BA000EC1AFD0ACE01A0E0B0E0280E391E4A1E24
:104BB0005B1EE114F10409F08ACF81E001C080E0BE
:104BC000DF91CF911F910F91FF90EF90DF90CF90E9
:104BD000BF90AF909F908F907F906F905F904F901D
:104BE0003F902F9008952F923F924F925F926F9235
:104BF0007F928F929F92AF92BF92CF92DF92EF926D
:104C0000FF920F931F93DF93CF9300D00F92CDB7F6
:104C1000DEB74B015C013A013C832B834115510502
:104C2000C1F121153105A9F10217130790F1E11423
:104C3000F10479F1309521953F4F3A8329832B81F7
:104C40003C81021B130B190144245524C501B401F6
:104C5000A3012B813C810E9450258823D1F0C30100
:104C6000B501A4019601F70119958823A1F0898166
:104C70009A81080F191F8B819C81800F911FEB81F6
:104C8000FC818E179F0738F0820C931CA41CB51C66
:104C9000DDCF80E001C081E00F900F900F900F906A
:104CA000CF91DF911F910F91FF90EF90DF90CF9008
:104CB000BF90AF909F908F907F906F905F904F903C
:104CC0003F902F9008950F931F93DF93CF9300D0C1
:104CD00000D0CDB7DEB78091DB099091DC099A83D3
:104CE00089838B81807F81608B83CE01019660E018
:104CF0000E94F4248091DB099091DC099D838C83D0
:104D00008E81807F8E83CE01049660E00E94F42421
:104D1000229A219A209A2398289A83E58CBD8DB5F2
:104D20008E7F8DBD1092BD080E940125882309F455
:104D300079C000E00E94AC240F5F0A30D9F72898B0
:104D400000E010E080E040E050E0BA010E94B624AC
:104D5000813041F081E00F3F180709F43FC00F5F39
:104D60001F4FF0CF87E340E050E0BA010E94B62425
:104D700089E240E050E0BA010E94B62482FD05C0FD
:104D80008091BD0881608093BD0800E010E08091B3
:104D9000BD0890E083709070009741F087E340E099
:104DA00050E0BA010E94B62489E201C081E040E0EF
:104DB00050E0BA010E94B62480FF07C08FE70F3F82
:104DC000180761F00F5F1F4FE2CF80E140E052E033
:104DD00060E070E00E94B624882311F0289A22C077
:104DE000289A8CB58C7F8CBD8DB581608DBD8FEF81
:104DF0009FEFAFEFBFEF8093B9069093BA06A093F1
:104E0000BB06B093BC0681E08093B80660E070E01A
:104E1000CB014DEB56E020E032E00E94502591E0BE
:104E2000882309F490E0892F26960FB6F894DEBF08
:104E30000FBECDBFCF91DF911F910F9108952F929B
:104E40003F924F925F926F927F928F929F92AF921A
:104E5000BF92CF92DF92EF92FF920F931F93CF9367
:104E6000DF932B013C014A0189010E941C25882304
:104E700009F48EC095C04FEFA42E41E0B42EA420BB
:104E8000B520C501A0E0B0E073016201C81AD90ADB
:104E9000EA0AFB0AE101CA19DB090C171D0708F42D
:104EA000E8018091B9069091BA06A091BB06B09135
:104EB000BC06C816D906EA06FB06F9F00E9434259E
:104EC000882309F46DC0A114B10421F422E0C0309C
:104ED000D20759F0C701B6014DEB56E020E032E0B1
:104EE0000E945025882309F45BC0C092B906D09275
:104EF000BA06E092BB06F092BC063DEB831636E0A4
:104F0000930671F095012354394FC901B401AE01E4
:104F10000E94B4401092B8060C171D0709F442C055
:104F2000289888E1B701A6010E94B624882311F0D1
:104F3000289A36C08EEF0E94A4243DEBC32E36E0A3
:104F4000D32EF60181916F010E94A424FDEBCF16B0
:104F5000F8E0DF06B1F78FEF0E94A4248FEF0E94E4
:104F6000A4240E94AC248F3FE1F70E94AC24289A2D
:104F70008C0E9D1ECE01A0E0B0E0480E591E6A1EA8
:104F80007B1E0C1B1D0BAA24A394A092B80603C081
:104F9000212C22E0322E0115110509F06CCF02C040
:104FA00080E001C081E0DF91CF911F910F91FF90D0
:104FB000EF90DF90CF90BF90AF909F908F907F90B9
:104FC0006F905F904F903F902F9008954F925F9217
:104FD0006F927F928F929F92AF92BF92CF92DF9209
:104FE000EF92FF920F931F93CF93DF934B015C01DE
:104FF0003A01690128014115510571F101151105A9
:1050000059F111E021153105C1F010E016C011234E
:1050100019F4CC16DD0600F1C501B401A3019E010F
:105020000E941F278823C1F0CE01A0E0B0E0880EC7
:10503000991EAA1EBB1ECC1ADD0A112319F4C11435
:10504000D10461F0C301B501A4019701F2011995E2
:10505000EC010097E1F602C080E001C081E0DF9141
:10506000CF911F910F91FF90EF90DF90CF90BF9065
:10507000AF909F908F907F906F905F904F9008952A
:105080001092BE081092BF08EAE0F1E080818170C2
:10509000808387B1897F87B9EBE0F1E080818170FF
:1050A000808388B1897F88B90895EF92FF920F932A
:1050B0001F93FC018181882309F058C000910901E8
:1050C00016B14091BE08041729F1402780E090E016
:1050D00050E0202F30E0FF24F394E82EE394019673
:1050E000DA01082E02C0B595A7950A94E2F7A0FF51
:1050F0000EC0D901082E02C0B595A7950A94E2F713
:10510000A0FD05C06181662311F4E082F182873041
:10511000910519F78091BF08181721F1812790E0B8
:105120009C013595279520FF0BC0212F269520FD4A
:1051300007C02181222321F42BE0208321E0218359
:10514000959587959595879580FF0CC0812F8695BD
:10515000869580FD07C08181882321F48CE08083BF
:1051600081E081830093BE081093BF081F910F91C7
:10517000FF90EF900895FC01DB01F894818190810C
:1051800011827894882321F09C9311961C92119798
:105190000895462FFC0162816F700E94CC2D089506
:1051A000CF93DF93EC010E949A2D8A81807F8A83BE
:1051B000CE0103960E949A2D8D81807F8D83CE0132
:1051C00006960E949A2D8885807F8887CE01099651
:1051D0000E949A2D8B85807F8B87CE010C960E9432
:1051E0009A2D8E85807F8E87DF91CF9108954F9283
:1051F0005F926F927F928F929F92AF92BF92CF9267
:10520000DF92EF92FF920F931F93DF93CF93CDB76F
:10521000DEB7C25CD0400FB6F894DEBF0FBECDBF84
:105220003C0100E010E0C301800F911F0E94D028D4
:105230000D5E1F4F0F351105B1F7C3018D599F4FFB
:105240000E94A03D90E7492E512C460C571C80919E
:10525000D9099091DA099A8389832B81207F246070
:105260002B839D838C838E81807F83608E8380914E
:10527000DB099091DC0998878F838985807F87601F
:1052800089878091E1099091E2099B878A872C8523
:10529000207F22602C879E878D872F85207F21602D
:1052A0002F87998B888B8A89807F8A8B00D000D04A
:1052B0004DB75EB74F5F5F4FCA01FE013D9623E0D9
:1052C0000190DC010D92CD012150D1F7DA01139646
:1052D000FE01709683E001900D928150E1F7C201CA
:1052E00049815A816B810C811D812E81CF80D884A8
:1052F000E9848A849B84AC840E940C338091D90910
:105300009091DA099C8B8B8B8D89807F8D8B80911E
:10531000E9099091EA099F8B8E8B888D807F888F19
:10532000EDB7FEB736960FB6F894FEBF0FBEEDBFD1
:10533000B30162597F4F83EBA82EB12CA60CB71C8A
:1053400005E0802E01E0902E860C971CC301875645
:105350009F4FA2019E012D5E3F4F8E010A5E1F4F9F
:10536000750164010E94F92EC5010E942A39F301DA
:10537000ED5FFE4F82E992E0918380838EE692E0BA
:10538000D4018D939C93C301895F9E4F0E94203965
:105390008091D5099091D6099A8F898F2B8D207F86
:1053A00025602B8F9D8F8C8F2E8D207F26602E8FDA
:1053B00098A38F8F89A1807F846089A38091D7096A
:1053C0009091D8099BA38AA32CA1207F25602CA3B0
:1053D0009EA38DA38FA1807F86608FA314E6A12E4C
:1053E000B12CAC0EBD1EC501BE01675E7F4FAE0184
:1053F000445E5F4F9E01215E3F4F8E010E5D1F4F49
:10540000B5E2EB2EF12CEC0EFD1EA2E0CA2ED12C43
:105410000E94A13CD301F50183E101900D928150DE
:10542000E1F78091D5099091D60999A788A72AA577
:10543000207F22602AA79CA78BA72DA5207F236011
:105440002DA79FA78EA788A9807F816088AB8091B8
:10545000E3099091E4099AAB89AB8BA9807F8660C0
:105460008BAB8091D7099091D8099DAB8CAB8EA95D
:10547000807F84608EABF7E7AF2EB12CAC0EBD1EE3
:10548000C501BE01685D7F4FAE01455D5F4F9E0166
:10549000225D3F4F8E010F5C1F4FE4E3EE2EF12C97
:1054A000EC0EFD1EB2E0CB2ED12C0E94A13CD3010C
:1054B0005396F50183E101900D928150E1F78091BF
:1054C000E3099091E40998AF8FAB29AD207F29AF14
:1054D0002091D5093091D6093BAF2AAF2CAD207F62
:1054E0002CAF9EAF8DAF2FAD207F21602FAF8E01EF
:1054F000005C1F4FF80191838083FE01EE5BFF4F3C
:105500002081207F24602083FE01ED5BFF4F91838B
:1055100080838281807F85608283AAE8AA2EB12C55
:10552000AC0EBD1EC501BE01695C7F4FAE01465C7D
:105530005F4F9E01235C3F4F7F01E2E0CE2ED12CD6
:105540000E94A13CD3019696F50183E101900D9252
:105550008150E1F78E010A5B1F4F8091E509909120
:10556000E609D80111969C938E9312962C9112976E
:10557000207F216012962C9329E4E22EF12CEC0E70
:10558000FD1EF701918380838281807F82838CE47A
:10559000C82ED12CCC0EDD1E8091DD099091DE0944
:1055A000D60111969C938E9312968C911297807FC0
:1055B000856012968C93BFE4AB2EB12CAC0EBD1E51
:1055C000C5010E949A2DF5018281807F8283A2E528
:1055D0008A2E912C8C0E9D1EC4010E949A2DD401FE
:1055E00012968C911297807F12968C93FDE94F2E24
:1055F000512C4C0E5D1EC201B801A7019601850118
:105600007401E2E0CE2ED12C0E94A13CD301D996A8
:10561000F20183E101900D928150E1F78E010B5A66
:105620001F4F8091DD099091DE09F80191838083FD
:105630008281807F8360828398E5E92EF12CEC0ED5
:10564000FD1E8091E1099091E209D70111969C938A
:105650008E9312968C911297807F856012968C9310
:105660008BE5C82ED12CCC0EDD1E8091E3099091E4
:10567000E409F601918380838281807F8360828345
:10568000BEE5AB2EB12CAC0EBD1EC5010E949A2DFD
:10569000D50112968C911297807F12968C93A1E679
:1056A0008A2E912C8C0E9D1EC4010E949A2DF4010D
:1056B0008281807F8283F0EB4F2E512C4C0E5D1E39
:1056C000C201B801A701960185017401E2E0CE2E66
:1056D000D12C0E94A13CD301A45BBF4FF20183E116
:1056E00001900D928150E1F7CE53DF4F0FB6F89441
:1056F000DEBF0FBECDBFCF91DF911F910F91FF9005
:10570000EF90DF90CF90BF90AF909F908F907F9061
:105710006F905F904F9008956FB7F894815A9F4FA4
:10572000FC0120813181428153816FBFB901CA01DF
:105730000895CF93DF93EC01FC01E359FF4F808183
:10574000882329F0CE0187569F4F0E94272FC15AE8
:10575000DF4F88819981AA81BB8180589F4FAF4FCD
:10576000BF4F88839983AA83BB830E948F018823BC
:1057700011F40E943A14DF91CF9108950F931F9373
:10578000CF93DF938C01FC01E359FF4F8081882385
:10579000A9F0E801CD59DF4FCE010E94C13D882319
:1057A00069F007561F4FC8010E94DF2FC8010E94F1
:1057B0002D2FAB01BC01CE010E94A43DDF91CF9102
:1057C0001F910F9108951F920F920FB60F920BB673
:1057D0000F9211242F933F934F935F936F937F9377
:1057E0008F939F93AF93BF93EF93FF9380EC98E0D9
:1057F0000E94992BFF91EF91BF91AF919F918F9153
:105800007F916F915F914F913F912F910F900BBEC0
:105810000F900FBE0F901F9018950F931F93DF935B
:10582000CF9300D0CDB7DEB78B0161157105A1F420
:105830001092D0091092CF098091D7099091D80980
:105840009A8389838B81807F87608B83CE010196C9
:1058500060E00E94C9280CC08091CE0990E08617B4
:10586000970731F082E090E09093D0098093CF09C0
:105870000093CE090F900F900F90CF91DF911F9161
:105880000F910895CF92DF92EF92FF920F931F93A3
:10589000DF93CF9300D0CDB7DEB78C0160E070E02E
:1058A0000E940D2C81E00E943412EE24FF2433E18B
:1058B000C32ED12CEC9CC001ED9C900DFC9C900D56
:1058C0001124800F911F6E2D0E94363D0894E11C1B
:1058D000F11C85E0E816F10469F782EF99E061E0D8
:1058E0000E947A3E86EF99E00E94453A82E49AE06F
:1058F00061E00E947A3E86E49AE00E94453A109266
:10590000800089E0809381001092820080E098E01E
:10591000909389008093880082E080936F001092BA
:10592000B00087E08093B10081E0809370008091A7
:10593000D7099091D8099A8389838B81807F87606A
:105940008B83CE01019661E00E94F4240E946C2EAC
:10595000F801E359FF4F80838823F1F029E9E22E13
:10596000F12CE00EF11EC7010E947E2FB8016D5F81
:105970007E4FC7010E94422FB80160597F4FC70177
:105980000E94E12EC7010E942D2FAB01BC01C8016E
:105990008D599F4F0E94A43D0F900F900F90CF9173
:1059A000DF911F910F91FF90EF90DF90CF900895BE
:1059B0008091CE0908951F920F920FB60F920BB6E9
:1059C0000F9211242F933F934F935F936F937F9385
:1059D0008F939F93AF93BF93EF93FF93DF93CF93F7
:1059E000CDB7DEB72997DEBFCDBF8091D1099091A9
:1059F000D2091816190614F401973FC08091CF09F7
:105A00009091D0098130910519F58091D309909139
:105A1000D40901969093D4098093D30982E090E051
:105A20009093D0098093CF0982E190E09093D209BE
:105A30008093D1098091D7099091D8099A8389835D
:105A40008B81807F87608B83CE01019660E053C09D
:105A50008230910581F58091CE0990E02091D309A3
:105A60003091D409281739076CF083E090E09093C7
:105A7000D0098093CF0980E590E09093D20980937C
:105A8000D1093BC081E090E09093D0098093CF0989
:105A900082E190E09093D2098093D1098091D70957
:105AA0009091D8099D838C838E81807F87608E83BF
:105AB000CE0104961FC083309105F9F41092D409E9
:105AC0001092D30981E090E09093D0098093CF09A0
:105AD00082E190E09093D2098093D1098091D70917
