:020000021000EC
:10FC0000112484B714BE982F9D7009F009D185E0A6
:10FC10008093810082E08093C00088E18093C100DE
:10FC200086E08093C20080E18093C4008EE0E3D040
:10FC3000279A88EC20E33CEF91E0309385002093F5
:10FC4000840096BBB09BFECF1F9AA8958150A9F760
:10FC5000C0E0D0E0DD24D39445E0C42E51E1B52EC0
:10FC6000BED0813479F4BBD0182FCBD0123829F410
:10FC700082E0AED080E1ACD0F3CF113809F0A0C063
:10FC800086E0F7CF823419F484E1C3D0F3CF853412
:10FC900011F485E0FACF853571F4A1D0C82FD0E0FA
:10FCA0009ED0D82B8D2F881F8827881F8BBFCC0F05
:10FCB000DD1FA7D0DFCF863521F484E0AAD080E015
:10FCC000D8CF843609F050C08AD0082F10E0102F0A
:10FCD000002785D0082B83D0A82E7801812C22E024
:10FCE000922E7DD0F40181934F01F1E0EF1AF108DB
:10FCF000C1F787D085E4A81213C07801EEEFFE1A91
:10FD00004E0100E012E0E016F10609F4B3CFF8016D
:10FD100061918F01C40192D0FFEF8F1A9F0AF3CF38
:10FD200083E0FE0187BFE89507B600FCFDCFFE012A
:10FD3000A0E0B2E08C9111962C91119790E0922B5B
:10FD40000C01D7BEE8951124329602501109129683
:10FD50000115110579F7FE01C7BEE89507B600FC4D
:10FD6000FDCFB7BEE89586CF843719F538D0082F78
:10FD700010E0102F002733D0082B31D0F82E41D0BF
:10FD8000F5E4FF120DC07E01C70150D021D0015013
:10FD900011098FEFE81AF80A01151105A9F76ACFC2
:10FDA0007E01F70187917F0113D001501109C9F736
:10FDB00061CF853739F425D08EE10AD087E908D0A4
:10FDC00083E057CF813509F074CF88E014D071CF2C
:10FDD0009091C00095FFFCCF8093C600089580915C
:10FDE000C00087FFFCCF8091C00084FD01C0A895B2
:10FDF0008091C6000895E0E6F0E098E1908380836A
:10FE00000895EDDF803219F088E0F5DFFFCF84E15F
:10FE1000DFCFCF93C82FE3DFC150E9F7CF91F1CF08
:10FE2000282E80E0E8DFE0E0FF270994F999FECF73
:10FE300092BD81BDF89A992780B50895262FF9992A
:10FE4000FECF1FBA92BD81BD20BD0FB6F894FA9ABD
:08FE5000F99A0FBE0196089516
:02FFFE000206F9
:040000031000FC00ED
:00000001FF
