:100000000C94313C0C94603C0C94603C0C94603C2F
:100010000C94603C0C94603C0C94603C0C94603CF0
:100020000C94603C0C94603C0C94603C0C94603CE0
:100030000C94603C0C94244C0C94603C0C94603CFC
:100040000C94603C0C94ED480C94603C0C94603C27
:100050000C94603C0C94304D0C94603C0C94603CCF
:100060000C94603C0C9479D00C94603C0C94A5D01A
:100070000C94603C0C94D49D0C94603C0C94603CBB
:100080000C94603C0C94603C0C94603C0C94603C80
:100090000C94603C0C94603C0C94603C0C94603C70
:1000A0000C94603C0C94603C0C94603C0C94603C60
:1000B0000C94603C0C94603C0C94603C0C94603C50
:1000C0000C94603C0C94603C0C94603C0C94603C40
:1000D0000C94603C0C94603C0C94603C0C94603C30
:1000E0000C94603C93632F64C963B263D3636A6406
:1000F0006A64B26329646A64346439644E64536424
:100100000E6413641F64B26324646A6498630964B0
:1001100058645D6461646A646A64656454686520F7
:100120005265706C696361743072007A7A7A797999
:10013000797978787878787777777776767676754C
:100140007575757574747474747373737372727275
:100150007272717171717170707070706F6F6F6F9A
:100160006F6E6E6E6E6E6D6D6D6D6D6D6C6C6C6CBC
:100170006C6B6B6B6B6B6A6A6A6A6A6A69696969DC
:1001800069696868686868676767676767666666F9
:100190006666666565656565656464646464646413
:1001A000636363636363626262626262626161612C
:1001B000616161606060606060605F5F5F5F5F5F42
:1001C0005F5E5E5E5E5E5E5E5D5D5D5D5D5D5D5C57
:1001D0005C5C5C5C5C5C5C5B5B5B5B5B5B5B5A5A6A
:1001E0005A5A5A5A5A5A595959595959595958587B
:1001F000585858585858575757575757575756568B
:100200005656565656565555555555555555555499
:1002100054545454545454545353535353535353A6
:1002200053525252525252525252515151515151B3
:1002300051515151505050505050505050504F4FBC
:100240004F4F4F4F4F4F4F4F4E4E4E4E4E4E4E4EC6
:100250004E4E4D4D4D4D4D4D4D4D4D4D4C4C4C4CD0
:100260004C4C4C4C4C4C4C4B4B4B4B4B4B4B4B4BD7
:100270004B4B4A4A4A4A4A4A4A4A4A4A4A4A4949DE
:1002800049494949494949494949484848484848E4
:1002900048484848484847474747474747474747E8
:1002A00047474646464646464646464646464645ED
:1002B00045454545454545454545454544444444F2
:1002C00044444444444444444443434343434343F5
:1002D00043434343434343424242424242424242F7
:1002E00042424242424241414141414141414141F8
:1002F00041414141404040404040404040404040FA
:10030000404040403F3F3F3F3F3F3F3F3F3F3F3FF9
:100310003F3F3F3F3E3E3E3E3E3E3E3E3E3E3E3EF9
:100320003E3E3E3E3D3D3D3D3D3D3D3D3D3D3D3DF9
:100330003D3D3D3D3D3C3C3C3C3C3C3C3C3C3C3CF8
:100340003C3C3C3C3C3C3B3B3B3B3B3B3B3B3B3BF7
:100350003B3B3B3B3B3B3B3B3A3A3A3A3A3A3A3AF5
:100360003A3A3A3A3A3A3A3A3A3A393939393939F3
:1003700039393939393939393939393939393838EF
:1003800038383838383838383838383838383838ED
:1003900038383737373737373737373737373737EB
:1003A00037373737373736363636363636363636E7
:1003B00036363636363636363636363635353535E1
:1003C00035353535353535353535353535353535DD
:1003D00035353434343434343434343434343434DB
:1003E00034343434343434343433333333333333D4
:1003F00033333333333333333333333333333333CD
:1004000033323232323232323232323232323232CB
:1004100032323232323232323232313131313131C2
:1004200031313131313131313131313131313131BC
:1004300031313131303030303030303030303030B8
:100440003030303030303030303030303030302FAD
:100450002F2F2F2F2F2F2F2F2F2F2F2F2F2F2F2FAC
:100460002F2F2F2F2F2F2F2F2F2F2F2F2E2E2E2EA0
:100470002E2E2E2E2E2E2E2E2E2E2E2E2E2E2E2E9C
:100480002E2E2E2E2E2E2E2E2E2D2D2D2D2D2D2D93
:100490002D2D2D2D2D2D2D2D2D2D2D2D2D2D2D2D8C
:1004A0002D2D2D2D2D2D2D2D2C2C2C2C2C2C2C2C84
:1004B0002C2C2C2C2C2C2C2C2C2C2C2C2C2C2C2C7C
:1004C0002C2C2C2C2C2C2C2C2B2B2B2B2B2B2B2B74
:1004D0002B2B2B2B2B2B2B2B2B2B2B2B2B2B2B2B6C
:1004E0002B2B2B2B2B2B2B2B2B2B2A2A2A2A2A2A62
:1004F0002A2A2A2A2A2A2A2A2A2A2A2A2A2A2A2A5C
:100500002A2A2A2A2A2A2A2A2A2A2A2A2A2A29294D
:10051000292929292929292929292929292929294B
:10052000292929292929292929292929292929293B
:100530002929292828282828282828282828282838
:10054000282828282828282828282828282828282B
:100550002828282828282828282827272727272721
:10056000272727272727272727272727272727271B
:10057000272727272727272727272727272727270B
:100580002727272626262626262626262626262608
:1005900026262626262626262626262626262626FB
:1005A00026262626262626262626262626262525ED
:1005B00025252525252525252525252525252525EB
:1005C00025252525252525252525252525252525DB
:1005D00025252525252525252525252524242424CF
:1005E00024242424242424242424242424242424CB
:1005F00024242424242424242424242424242424BB
:1006000024242424242424242424242423232323AE
:1006100023232323232323232323232323232323AA
:10062000232323232323232323232323232323239A
:10063000232323232323232323232323232323228B
:10064000222222222222222222222222222222228A
:10065000222222222222222222222222222222227A
:10066000222222222222222222222222222222226A
:100670002222222222212121212121212121212165
:10068000212121212121212121212121212121215A
:10069000212121212121212121212121212121214A
:1006A000212121212121212121212121212121203B
:1006B000202020202020202020202020202020203A
:1006C000202020202020202020202020202020202A
:1006D000202020202020202020202020202020201A
:1006E0002020202020202020202020201F1F1F1F0E
:1006F0001F1F1F1F1F1F1F1F1F1F1F1F1F1F1F1F0A
:100700001F1F1F1F1F1F1F1F1F1F1F1F1F1F1F1FF9
:100710001F1F1F1F1F1F1F1F1F1F1F1F1F1F1F1FE9
:100720001F1F1F1F1F1F1F1F1F1F1F1E0000000056
:1007300000000000000000000000000000000000B9
:1007400000000000000000000000000000000000A9
:100750000000000000000000000000000000000099
:10076000000000000000000000000000127A5F7628
:10077000E4729B6F826C9369CC662964A861465FC2
:10078000025DD85AC758CE56EB541D536151B84F2D
:10079000204E984C1F4BB44957480647C1458844E2
:1007A000594335421B410940013F013E093D193C77
:1007B000303B4D3A72399D38CE3705374136833557
:1007C000CA3415346633BB3215327231D4303A3004
:1007D000A32F102F812EF52D6C2DE62C642CE42BED
:1007E000672BED2A762A012A8E291E29B128452851
:1007F000DC2775271027AD264C26ED258F253425BF
:10080000DA2482242B24D62383233123E12292224B
:100810004422F821AD2163211B21D3208D204820C3
:100820000520C21F811F401F011FC21E851E481EBA
:100830000C1ED21D981D5F1D271DEF1CB91C831CAB
:100840004E1C1A1CE71BB41B821B511B201BF11AE8
:10085000C11A931A651A371A0B1ADF19B3198819B6
:100860005E1934190A19E118B91891186A18431851
:100870001D18F717D217AD178817641740171D17E3
:10088000FA16D816B6169416731652163216121693
:10089000F215D315B4159515771558153B151D157B
:1008A0000015E414C714AB148F14741458143D14B9
:1008B00023140814EE13D413BB13A11388136F135E
:1008C00056133E1326130E13F612DF12C812B1127E
:1008D0009A1283126D12571241122B121612001225
:1008E000EB11D611C111AD119911841170115C1168
:1008F0004911351122110F11FC10E910D610C41046
:10090000B2109F108D107B106A10581047103510D0
:10091000241013100210F20FE10FD10FC00FB00F0F
:10092000A00F900F800F710F610F520F420F330F06
:10093000240F150F060FF70EE90EDA0ECC0EBE0EC1
:10094000AF0EA10E930E850E780E6A0E5C0E4F0E42
:10095000420E340E270E1A0E0D0E000EF30DE70D8B
:10096000DA0DCE0DC10DB50DA90D9C0D900D840DA8
:10097000780D6C0D610D550D490D3E0D320D270D95
:100980001C0D100D050DFA0CEF0CE40CD90CCF0C5E
:10099000C40CB90CAF0CA40C9A0C8F0C850C7B0CFE
:1009A000710C670C5D0C530C490C3F0C350C2B0C77
:1009B000220C180C0E0C050CFB0BF20BE90BE00BD8
:1009C000D60BCD0BC40BBB0BB20BA90BA00B970B1B
:1009D0008F0B860B7D0B750B6C0B630B5B0B530B3B
:1009E0004A0B420B3A0B310B290B210B190B110B44
:1009F000090B010BF90AF10AE90AE20ADA0AD20A3A
:100A0000CA0AC30ABB0AB40AAC0AA50A9D0A960A16
:100A10008F0A870A800A790A720A6B0A640A5D0AD9
:100A2000560A4F0A480A410A3A0A330A2C0A250A8A
:100A30001F0A180A110A0B0A040AFE09F709F1092C
:100A4000EA09E409DD09D709D109CA09C409BE09BF
:100A5000B809B109AB09A5099F09990993098D093D
:100A6000870981097B0975096F096A0964095E09AB
:100A7000580953094D09470942093C09360931090A
:100A80002B09260920091B09160910090B0905095C
:100A90000009FB08F608F008EB08E608E108DC08A6
:100AA000D608D108CC08C708C208BD08B808B308E2
:100AB000AE08A908A408A0089B08960891088C080D
:100AC000870883087E087908750870086B0867082E
:100AD00062085D085908540850084B084708420846
:100AE0003E083908350830082C08280823081F0854
:100AF0001B08160812080E080A0805080108FD0759
:100B0000F907F507F107EC07E807E407E007DC075A
:100B1000D807D407D007CC07C807C407C007BC074D
:100B2000B807B407B107AD07A907A507A1079D0737
:100B30009A07960792078E078B07870783077F0719
:100B40007C077807740771076D076A0766076207F5
:100B50005F075B075807540751074D074A074607C9
:100B600043073F073C073807350732072E072B0797
:100B70002807240721071D071A071707140710075E
:100B80000D070A07070703070007FD06FA06F70621
:100B9000F306F006ED06EA06E706E406E106DD06E2
:100BA000DA06D706D406D106CE06CB06C806C50699
:100BB000C206BF06BC06B906B606B306B006AD0649
:100BC000AA06A806A506A2069F069C0699069606F2
:100BD000940691068E068B06880685068306800697
:100BE0007D067A067806750672066F066D066A0639
:100BF0006706650662065F065D065A0657065506D5
:100C0000520650064D064A0648064506430640066B
:100C10003D063B0638063606330631062E062C0600
:100C200029062706240622061F061D061B0618068F
:100C30001606130611060E060C060A06070605061A
:100C400002060006FE05FB05F905F705F405F205A9
:100C5000F005ED05EB05E905E705E405E205E0052E
:100C6000DE05DB05D905D705D505D205D005CE05AE
:100C7000CC05C905C705C505C305C105BF05BC052C
:100C8000BA05B805B605B405B205B005AD05AB05A6
:100C9000A905A705A505A305A1059F059D059B051C
:100CA000990597059505930591058E058C058A058F
:100CB000880586058405820580057E057C057B0503
:100CC000790577057505730571056F056D056B056C
:100CD0006905670565056305610560055E055C05D9
:100CE0005A05580556055405520551054F054D0541
:100CF0004B054905470546054405420540053E05A7
:100D00003C053B0539053705350534053205300509
:100D10002E052D052B052905270526052405220569
:100D200020051F051D051B051905180516051405C9
:100D3000130511050F050E050C050A050905070524
:100D40000505040502050005FF04FD04FC04FA0482
:100D5000F804F704F504F304F204F004EF04ED04DE
:100D6000EB04EA04E804E704E504E404E204E00434
:100D7000DF04DD04DC04DA04D904D704D604D40487
:100D8000D304D104D004CE04CD04CB04C904C804D8
:100D9000C604C504C404C204C104BF04BE04BC0428
:100DA000BB04B904B804B604B504B304B204B00477
:100DB000AF04AE04AC04AB04A904A804A604A504C3
:100DC000A404A204A1049F049E049D049B049A040D
:100DD00098049704960494049304920490048F0456
:100DE0008E048C048B04890488048704850484049D
:100DF0008304810480047F047D047C047B047904E3
:100E000078047704760474047304720470046F0425
:100E10006E046D046B046A04690467046604650467
:100E200064046204610460045F045D045C045B04A8
:100E30005A045804570456045504530452045104E8
:100E400050044F044D044C044B044A044804470426
:100E50004604450444044304410440043F043E0462
:100E60003D043B043A04390438043704360434049E
:100E700033043204310430042F042E042C042B04D8
:100E80002A04290428042704260424042304220411
:100E9000210420041F041E041D041C041A04190448
:100EA000180417041604150414041304120411047E
:100EB00010040E040D040C040B040A0409040804B5
:100EC00007040604050404040304020401040004E6
:100ED000FE03FD03FC03FB03FA03F903F803F70326
:100EE000F603F503F403F303F203F103F003EF0356
:100EF000EE03ED03EC03EB03EA03E903E803E70386
:100F0000E603E503E403E303E203E103E003DF03B5
:100F1000DE03DD03DC03DB03DA03D903D803D703E5
:100F2000D603D503D403D303D203D203D103D00312
:100F3000CF03CE03CD03CC03CB03CA03C903C8033D
:100F4000C703C603C503C403C303C203C203C1036B
:100F5000C003BF03BE03BD03BC03BB03BA03B90395
:100F6000B803B703B703B603B503B403B303B203BF
:100F7000B103B003AF03AF03AE03AD03AC03AB03E8
:100F8000AA03A903A803A703A703A603A503A40311
:100F9000A303A203A103A103A0039F039E039D0338
:100FA0009C039B039B039A0399039803970396035F
:100FB0009503950394039303920391039003900385
:100FC0008F038E038D038C038B038B038A038903AA
:100FD00088038703870386038503840383038203CF
:100FE0008203810380037F037E037E037D037C03F2
:100FF0007B037A037A037903780377037703760315
:101000007503740373037303720371037003700336
:101010006F036E036D036C036C036B036A03690358
:101020006903680367036603660365036403630378
:10103000630362036103600360035F035E035D0398
:101040005D035C035B035A035A03590358035703B8
:1010500057035603550355035403530352035203D6
:10106000510350034F034F034E034D034D034C03F5
:101070004B034A034A034903480348034703460313
:10108000460345034403430343034203410341032F
:1010900040033F033F033E033D033D033C033B034B
:1010A0003A033A0339033803380337033603360368
:1010B0003503340334033303320332033103300383
:1010C00030032F032E032E032D032C032C032B039D
:1010D0002A032A03290328032803270326032603B8
:1010E00025032503240323032303220321032103D0
:1010F00020031F031F031E031D031D031C031C03EA
:101100001B031A031A031903180318031703170301
:101110001603150315031403130313031203120319
:101120001103100310030F030E030E030D030D0331
:101130000C030B030B030A030A0309030803080348
:10114000070307030603050305030403040303035E
:1011500002030203010301030003FF02FF02FE0278
:10116000FE02FD02FD02FC02FB02FB02FA02FA0291
:10117000F902F802F802F702F702F602F602F502A7
:10118000F402F402F302F302F202F202F102F002BC
:10119000F002EF02EF02EE02EE02ED02ED02EC02CF
:1011A000EB02EB02EA02EA02E902E902E802E702E4
:1011B000E702E602E602E502E502E402E402E302F7
:1011C000E302E202E102E102E002E002DF02DF020A
:1011D000DE02DE02DD02DD02DC02DC02DB02DA021C
:1011E000DA02D902D902D802D802D702D702D6022F
:1011F000D602D502D502D402D402D302D302D2023F
:10120000D202D102D002D002CF02CF02CE02CE0251
:10121000CD02CD02CC02CC02CB02CB02CA02CA0262
:10122000C902C902C802C802C702C702C602C60272
:10123000C502C502C402C402C302C302C202C20282
:10124000C102C102C002C002BF02BF02BE02BE0292
:10125000BD02BD02BC02BC02BB02BB02BA02BA02A2
:10126000B902B902B802B802B702B702B602B602B2
:10127000B502B502B502B402B402B302B302B202BF
:10128000B202B102B102B002B002AF02AF02AE02CE
:10129000AE02AD02AD02AC02AC02AC02AB02AB02DC
:1012A000AA02AA02A902A902A802A802A702A702EA
:1012B000A602A602A602A502A502A402A402A302F7
:1012C000A302A202A202A102A102A002A002A00205
:1012D0009F029F029E029E029D029D029C029C0212
:1012E0009C029B029B029A029A029902990298021E
:1012F000980298029702970296029602950295022A
:101300009502940294029302930292029202910235
:1013100091029102900290028F028F028E028E0241
:101320008E028D028D028C028C028B028B028B024C
:101330008A028A0289028902890288028802870257
:101340008702860286028602850285028402840262
:10135000840283028302820282028102810281026C
:10136000800280027F027F027F027E027E027D0277
:101370007D027D027C027C027B027B027B027A0280
:101380007A0279027902790278027802770277028A
:101390007702760276027502750275027402740293
:1013A000730273027302720272027102710271029D
:1013B000700270026F026F026F026E026E026E02A6
:1013C0006D026D026C026C026C026B026B026A02AF
:1013D0006A026A02690269026902680268026702B7
:1013E00067026702660266026502650265026402C0
:1013F00064026402630263026302620262026102C7
:10140000610261026002600260025F025F025E02CE
:101410005E025E025D025D025D025C025C025C02D5
:101420005B025B025A025A025A02590259025902DD
:1014300058025802580257025702560256025602E4
:1014400055025502550254025402540253025302EB
:1014500053025202520251025102510250025002F2
:1014600050024F024F024F024E024E024E024D02F8
:101470004D024D024C024C024C024B024B024B02FD
:101480004A024A0249024902490248024802480205
:10149000470247024702460246024602450245020B
:1014A0004502440244024402430243024302420210
:1014B0004202420241024102410240024002400215
:1014C0003F023F023F023E023E023E023D023D021B
:1014D0003D023C023C023C023B023B023B023A0220
:1014E0003A023A0239023902390239023802380224
:1014F0003802370237023702360236023602350228
:10150000350235023402340234023302330233022C
:101510003202320232023102310231023102300231
:10152000300230022F022F022F022E022E022E0234
:101530002D022D022D022C022C022C022C022B0239
:101540002B022B022A022A022A022902290229023C
:101550002802280228022802270227022702260240
:101560002602260225022502250225022402240243
:101570002402230223022302220222022202220246
:101580002102210221022002200220021F021F024A
:101590001F021F021E021E021E021D021D021D024C
:1015A0001D021C021C021C021B021B021B021B024E
:1015B0001A021A021A021902190219021802180252
:1015C0001802180217021702170216021602160254
:1015D0001602150215021502140214021402140256
:1015E0001302130213021302120212021202110258
:1015F0001102110211021002100210020F020F025A
:101600000F020F020E020E020E020D020D020D025B
:101610000D020C020C020C020C020B020B020B025C
:101620000A020A020A020A0209020902090209025E
:101630000802080208020702070207020702060260
:101640000602060206020502050205020502040260
:101650000402040203020302030203020202020262
:101660000202020201020102010201020002000262
:1016700000020002FF01FF01FF01FE01FE01FE0169
:10168000FE01FD01FD01FD01FD01FC01FC01FC016C
:10169000FC01FB01FB01FB01FB01FA01FA01FA016C
:1016A000FA01F901F901F901F901F801F801F8016C
:1016B000F801F701F701F701F701F601F601F6016C
:1016C000F601F501F501F501F501F401F401F4016C
:1016D000F401F301F301F301F301F201F201F2016C
:1016E000F201F101F101F101F101F001F001F0016C
:1016F000F001EF01EF01EF01EF01EE01EE01EE016C
:10170000EE01ED01ED01ED01ED01EC01EC01EC016B
:10171000EC01EB01EB01EB01EB01EA01EA01EA016B
:10172000EA01E901E901E901E901E901E801E8016A
:10173000E801E801E701E701E701E701E601E60169
:10174000E601E601E501E501E501E501E401E40169
:10175000E401E401E401E301E301E301E301E20167
:10176000E201E201E201E101E101E101E101E10166
:10177000E001E001E001E001DF01DF01DF01DF0165
:10178000DE01DE01DE01DE01DE01DD01DD01DD0164
:10179000DD01DC01DC01DC01DC01DC01DB01DB0162
:1017A000DB01DB01DA01DA01DA01DA01D901D90161
:1017B000D901D901D901D801D801D801D801D7015F
:1017C000D701D701D701D701D601D601D601D6015D
:1017D000D501D501D501D501D501D401D401D4015C
:1017E000D401D401D301D301D301D301D201D20159
:1017F000D201D201D201D101D101D101D101D00157
:10180000D001D001D001D001CF01CF01CF01CF0154
:10181000CF01CE01CE01CE01CE01CD01CD01CD0152
:10182000CD01CD01CC01CC01CC01CC01CC01CB014F
:10183000CB01CB01CB01CB01CA01CA01CA01CA014C
:10184000C901C901C901C901C901C801C801C8014B
:10185000C801C801C701C701C701C701C701C60147
:10186000C601C601C601C601C501C501C501C50144
:10187000C401C401C401C401C401C301C301C30143
:10188000C301C301C201C201C201C201C201C1013F
:10189000C101C101C101C101C001C001C001C0013C
:1018A000C001BF01BF01BF01BF01BF01BE01BE0139
:1018B000BE01BE01BE01BD01BD01BD01BD01BD0135
:1018C000BC01BC01BC01BC01BC01BB01BB01BB0133
:1018D000BB01BB01BA01BA01BA01BA01BA01BA012E
:1018E000B901B901B901B901B901B801B801B8012B
:1018F000B801B801B701B701B701B701B701B60127
:10190000B601B601B601B601B501B501B501B50123
:10191000B501B401B401B401B401B401B401B3011F
:10192000B301B301B301B301B201B201B201B2011B
:10193000B201B101B101B101B101B101B101B00117
:10194000B001B001B001B001AF01AF01AF01AF0113
:10195000AF01AE01AE01AE01AE01AE01AE01AD010F
:10196000AD01AD01AD01AD01AC01AC01AC01AC010B
:10197000AC01AC01AB01AB01AB01AB01AB01AA0106
:10198000AA01AA01AA01AA01AA01A901A901A90102
:10199000A901A901A801A801A801A801A801A801FD
:1019A000A701A701A701A701A701A601A601A601FA
:1019B000A601A601A601A501A501A501A501A501F4
:1019C000A501A401A401A401A401A401A301A301F0
:1019D000A301A301A301A301A201A201A201A201EB
:1019E000A201A201A101A101A101A101A101A001E6
:1019F000A001A001A001A001A0019F019F019F01E2
:101A00009F019F019F019E019E019E019E019E01DB
:101A10009E019D019D019D019D019D019D019C01D6
:101A20009C019C019C019C019C019B019B019B01D1
:101A30009B019B019B019A019A019A019A019A01CB
:101A40009A019901990199019901990198019801C7
:101A500098019801980198019701970197019701C2
:101A600097019701970196019601960196019601BB
:101A700096019501950195019501950195019401B6
:101A800094019401940194019401930193019301B1
:101A900093019301930192019201920192019201AB
:101AA00092019101910191019101910191019001A6
:101AB0009001900190019001900190018F018F01A0
:101AC0008F018F018F018F018E018E018E018E019A
:101AD0008E018E018D018D018D018D018D018D0194
:101AE0008D018C018C018C018C018C018C018B018E
:101AF0008B018B018B018B018B018A018A018A0189
:101B00008A018A018A018A01890189018901890181
:101B1000890189018801880188018801880188017B
:101B20008801870187018701870187018701860175
:101B3000860186018601860186018601850185016F
:101B40008501850185018501850184018401840168
:101B50008401840184018301830183018301830162
:101B6000830183018201820182018201820182015B
:101B70008201810181018101810181018101800155
:101B80008001800180018001800180017F017F014F
:101B90007F017F017F017F017F017E017E017E0148
:101BA0007E017E017E017E017D017D017D017D0141
:101BB0007D017D017D017C017C017C017C017C013A
:101BC0007C017C017B017B017B017B017B017B0133
:101BD0007B017A017A017A017A017A017A017A012C
:101BE0007901790179017901790179017901780126
:101BF000780178017801780178017801770177011F
:101C00007701770177017701770176017601760117
:101C10007601760176017601750175017501750110
:101C20007501750175017401740174017401740109
:101C30007401740173017301730173017301730102
:101C400073017301720172017201720172017201FA
:101C500072017101710171017101710171017101F3
:101C600070017001700170017001700170017001EC
:101C70006F016F016F016F016F016F016F016E01E5
:101C80006E016E016E016E016E016E016D016D01DE
:101C90006D016D016D016D016D016D016C016C01D6
:101CA0006C016C016C016C016C016C016B016B01CE
:101CB0006B016B016B016B016B016A016A016A01C7
:101CC0006A016A016A016A016A01690169016901BF
:101CD00069016901690169016801680168016801B8
:101CE00068016801680168016701670167016701B0
:101CF00067016701670167016601660166016601A8
:101D0000660166016601660165016501650165019F
:101D10006501650165016501640164016401640197
:101D20006401640164016301630163016301630190
:101D30006301630163016201620162016201620188
:101D40006201620162016101610161016101610180
:101D50006101610161016001600160016001600178
:101D60006001600160015F015F015F015F015F0170
:101D70005F015F015F015F015E015E015E015E0167
:101D80005E015E015E015E015D015D015D015D015F
:101D90005D015D015D015D015C015C015C015C0157
:101DA0005C015C015C015C015B015B015B015B014F
:101DB0005B015B015B015B015B015A015A015A0146
:101DC0005A015A015A015A015A015901590159013E
:101DD0005901590159015901590158015801580136
:101DE000580158015801580158015801570157012D
:101DF0005701570157015701570157015601560125
:101E0000560156015601560156015601560155011B
:101E10005501550155015501550155015501540113
:101E2000540154015401540154015401540154010A
:101E30005301530153015301530153015301530102
:101E400053015201520152015201520152015201F9
:101E500052015101510151015101510151015101F1
:101E600051015101500150015001500150015001E8
:101E70005001500150014F014F014F014F014F01DF
:101E80004F014F014F014F014E014E014E014E01D6
:101E90004E014E014E014E014E014D014D014D01CD
:101EA0004D014D014D014D014D014D014C014C01C4
:101EB0004C014C014C014C014C014C014C014B01BB
:101EC0004B014B014B014B014B014B014B014B01B2
:101ED0004A014A014A014A014A014A014A014A01AA
:101EE0004A014901490149014901490149014901A1
:101EF0004901490149014801480148014801480197
:101F0000480148014801480147014701470147018D
:101F10004701470147014701470146014601460184
:101F2000460146014601460146014601460145017A
:101F30004501450145014501450145014501450171
:101F40004401440144014401440144014401440169
:101F5000440144014301430143014301430143015F
:101F60004301430143014201420142014201420156
:101F7000420142014201420142014101410141014C
:101F80004101410141014101410141014101400142
:101F90004001400140014001400140014001400139
:101FA0003F013F013F013F013F013F013F013F0131
:101FB0003F013F013E013E013E013E013E013E0127
:101FC0003E013E013E013E013D013D013D013D011D
:101FD0003D013D013D013D013D013D013C013C0113
:101FE0003C013C013C013C013C013C013C013C0109
:101FF0003B013B013B013B013B013B013B013B0101
:102000003B013B013A013A013A013A013A013A01F6
:102010003A013A013A013A013901390139013901EC
:1020200039013901390139013901390139013801E1
:1020300038013801380138013801380138013801D8
:1020400038013701370137013701370137013701CF
:1020500037013701370136013601360136013601C5
:1020600036013601360136013601360135013501BA
:1020700035013501350135013501350135013501B0
:1020800034013401340134013401340134013401A8
:10209000340134013401330133013301330133019D
:1020A0003301330133013301330132013201320193
:1020B0003201320132013201320132013201320188
:1020C0003101310131013101310131013101310180
:1020D0003101310131013001300130013001300175
:1020E000300130013001300130012F012F012F016B
:1020F0002F012F012F012F012F012F012F012F0160
:102100002E012E012E012E012E012E012E012E0157
:102110002E012E012E012D012D012D012D012D014C
:102120002D012D012D012D012D012D012C012C0141
:102130002C012C012C012C012C012C012C012C0137
:102140002C012B012B012B012B012B012B012B012E
:102150002B012B012B012B012B012A012A012A0122
:102160002A012A012A012A012A012A012A012A0117
:10217000290129012901290129012901290129010F
:102180002901290129012801280128012801280104
:1021900028012801280128012801280128012701F8
:1021A00027012701270127012701270127012701EF
:1021B00027012701260126012601260126012601E5
:1021C00026012601260126012601260125012501D9
:1021D00025012501250125012501250125012501CF
:1021E00025012401240124012401240124012401C6
:1021F00024012401240124012401230123012301BA
:1022000023012301230123012301230123012301AE
:1022100023012201220122012201220122012201A5
:102220002201220122012201220121012101210199
:10223000210121012101210121012101210121018E
:102240002101200120012001200120012001200185
:10225000200120012001200120011F011F011F0179
:102260001F011F011F011F011F011F011F011F016E
:102270001F011E011E011E011E011E011E011E0165
:102280001E011E011E011E011E011D011D011D0159
:102290001D011D011D011D011D011D011D011D014E
:1022A0001D011C011C011C011C011C011C011C0145
:1022B0001C011C011C011C011C011C011B011B0138
:1022C0001B011B011B011B011B011B011B011B012E
:1022D0001B011B011A011A011A011A011A011A0124
:1022E0001A011A011A011A011A011A011A01190117
:1022F000190119011901190119011901190119010E
:102300001901190119011901180118011801180101
:1023100018011801180118011801180118011801F5
:1023200017011701170117011701170117011701ED
:1023300017011701170117011701160116011601E0
:1023400016011601160116011601160116011601D5
:1023500016011601150115011501150115011501CB
:1023600015011501150115011501150115011401BE
:1023700014011401140114011401140114011401B5
:1023800014011401140114011301130113011301A9
:10239000130113011301130113011301130113019D
:1023A0001301120112011201120112011201120194
:1023B0001201120112011201120112011201110186
:1023C000110111011101110111011101110111017D
:1023D0001101110111011101100110011001100171
:1023E0001001100110011001100110011001100165
:1023F000100110010F010F010F010F010F010F015B
:102400000F010F010F010F010F010F010F010E014D
:102410000E010E010E010E010E010E010E010E0144
:102420000E010E010E010E010E010D010D010D0137
:102430000D010D010D010D010D010D010D010D012C
:102440000D010D010D010C010C010C010C010C0121
:102450000C010C010C010C010C010C010C010C0114
:102460000C010B010B010B010B010B010B010B010B
:102470000B010B010B010B010B010B010B010A01FD
:102480000A010A010A010A010A010A010A010A01F4
:102490000A010A010A010A010A01090109010901E7
:1024A00009010901090109010901090109010901DC
:1024B00009010901090108010801080108010801D1
:1024C00008010801080108010801080108010801C4
:1024D00008010801070107010701070107010701BA
:1024E00007010701070107010701070107010701AC
:1024F00006010601060106010601060106010601A4
:102500000601060106010601060106010601050194
:10251000050105010501050105010501050105018B
:10252000050105010501050105010401040104017E
:102530000401040104010401040104010401040173
:102540000401040104010401030103010301030167
:10255000030103010301030103010301030103015B
:102560000301030103010201020102010201020150
:102570000201020102010201020102010201020143
:102580000201020101010101010101010101010139
:10259000010101010101010101010101010101012B
:1025A0000101000100010001000100010001000122
:1025B0000001000100010001000100010001000113
:1025C000FF00FF00FF00FF00FF00FF00FF00FF0013
:1025D000FF00FF00FF00FF00FF00FF00FF00FF0003
:1025E000FE00FE00FE00FE00FE00FE00FE00FE00FB
:1025F000FE00FE00FE00FE00FE00FE00FE00FD00EC
:10260000FD00FD00FD00FD00FD00FD00FD00FD00E2
:10261000FD00FD00FD00FD00FD00FD00FD00FC00D3
:10262000FC00FC00FC00FC00FC00FC00FC00FC00CA
:10263000FC00FC00FC00FC00FC00FC00FC00FB00BB
:10264000FB00FB00FB00FB00FB00FB00FB00FB00B2
:10265000FB00FB00FB00FB00FB00FB00FB00FA00A3
:10266000FA00FA00FA00FA00FA00FA00FA00FA009A
:10267000FA00FA00FA00FA00FA00FA00FA00F9008B
:10268000F900F900F900F900F900F900F900F90082
:10269000F900F900F900F900F900F900F900F80073
:1026A000F800F800F800F800F800F800F800F8006A
:1026B000F800F800F800F800F800F800F800F7005B
:1026C000F700F700F700F700F700F700F700F70052
:1026D000F700F700F700F700F700F700F700F60043
:1026E000F600F600F600F600F600F600F600F6003A
:1026F000F600F600F600F600F600F600F600F6002A
:10270000F500F500F500F500F500F500F500F50021
:10271000F500F500F500F500F500F500F500F50011
:10272000F400F400F400F400F400F400F400F40009
:10273000F400F400F400F400F400F400F400F400F9
:10274000F400F300F300F300F300F300F300F300F0
:10275000F300F300F300F300F300F300F300F300E1
:10276000F300F300F200F200F200F200F200F200D7
:10277000F200F200F200F200F200F200F200F200C9
:10278000F200F200F200F100F100F100F100F100BE
:10279000F100F100F100F100F100F100F100F100B1
:1027A000F100F100F100F100F100F000F000F000A4
:1027B000F000F000F000F000F000F000F000F00099
:1027C000F000F000F000F000F000F000EF00EF008B
:1027D000EF00EF00EF00EF00EF00EF00EF00EF0081
:1027E000EF00EF00EF00EF00EF00EF00EF00EE0072
:1027F000EE00EE00EE00EE00EE00EE00EE00EE0069
:10280000EE00EE00EE00EE00EE00EE00EE00EE0058
:10281000EE00ED00ED00ED00ED00ED00ED00ED004F
:10282000ED00ED00ED00ED00ED00ED00ED00ED0040
:10283000ED00ED00ED00EC00EC00EC00EC00EC0035
:10284000EC00EC00EC00EC00EC00EC00EC00EC0028
:10285000EC00EC00EC00EC00EC00EB00EB00EB001B
:10286000EB00EB00EB00EB00EB00EB00EB00EB0010
:10287000EB00EB00EB00EB00EB00EB00EB00EA0001
:10288000EA00EA00EA00EA00EA00EA00EA00EA00F8
:10289000EA00EA00EA00EA00EA00EA00EA00EA00E8
:1028A000EA00E900E900E900E900E900E900E900DF
:1028B000E900E900E900E900E900E900E900E900D0
:1028C000E900E900E900E900E800E800E800E800C4
:1028D000E800E800E800E800E800E800E800E800B8
:1028E000E800E800E800E800E800E800E700E700AA
:1028F000E700E700E700E700E700E700E700E700A0
:10290000E700E700E700E700E700E700E700E7008F
:10291000E700E600E600E600E600E600E600E60086
:10292000E600E600E600E600E600E600E600E60077
:10293000E600E600E600E600E500E500E500E5006B
:10294000E500E500E500E500E500E500E500E5005F
:10295000E500E500E500E500E500E500E500E40050
:10296000E400E400E400E400E400E400E400E40047
:10297000E400E400E400E400E400E400E400E40037
:10298000E400E400E300E300E300E300E300E3002D
:10299000E300E300E300E300E300E300E300E3001F
:1029A000E300E300E300E300E300E300E200E20011
:1029B000E200E200E200E200E200E200E200E20007
:1029C000E200E200E200E200E200E200E200E200F7
:1029D000E200E100E100E100E100E100E100E100EE
:1029E000E100E100E100E100E100E100E100E100DF
:1029F000E100E100E100E100E100E000E000E000D2
:102A0000E000E000E000E000E000E000E000E000C6
:102A1000E000E000E000E000E000E000E000E000B6
:102A2000E000DF00DF00DF00DF00DF00DF00DF00AD
:102A3000DF00DF00DF00DF00DF00DF00DF00DF009E
:102A4000DF00DF00DF00DF00DF00DE00DE00DE0091
:102A5000DE00DE00DE00DE00DE00DE00DE00DE0086
:102A6000DE00DE00DE00DE00DE00DE00DE00DE0076
:102A7000DE00DD00DD00DD00DD00DD00DD00DD006D
:102A8000DD00DD00DD00DD00DD00DD00DD00DD005E
:102A9000DD00DD00DD00DD00DD00DD00DC00DC0050
:102AA000DC00DC00DC00DC00DC00DC00DC00DC0046
:102AB000DC00DC00DC00DC00DC00DC00DC00DC0036
:102AC000DC00DC00DB00DB00DB00DB00DB00DB002C
:102AD000DB00DB00DB00DB00DB00DB00DB00DB001E
:102AE000DB00DB00DB00DB00DB00DB00DB00DA000F
:102AF000DA00DA00DA00DA00DA00DA00DA00DA0006
:102B0000DA00DA00DA00DA00DA00DA00DA00DA00F5
:102B1000DA00DA00DA00DA00D900D900D900D900E9
:102B2000D900D900D900D900D900D900D900D900DD
:102B3000D900D900D900D900D900D900D900D900CD
:102B4000D900D800D800D800D800D800D800D800C4
:102B5000D800D800D800D800D800D800D800D800B5
:102B6000D800D800D800D800D800D800D800D700A6
:102B7000D700D700D700D700D700D700D700D7009D
:102B8000D700D700D700D700D700D700D700D7008D
:102B9000D700D700D700D700D700D600D600D60080
:102BA000D600D600D600D600D600D600D600D60075
:102BB000D600D600D600D600D600D600D600D60065
:102BC000D600D600D500D500D500D500D500D5005B
:102BD000D500D500D500D500D500D500D500D5004D
:102BE000D500D500D500D500D500D500D500D5003D
:102BF000D400D400D400D400D400D400D400D40035
:102C0000D400D400D400D400D400D400D400D40024
:102C1000D400D400D400D400D400D400D400D30015
:102C2000D300D300D300D300D300D300D300D3000C
:102C3000D300D300D300D300D300D300D300D300FC
:102C4000D300D300D300D300D300D200D200D200EF
:102C5000D200D200D200D200D200D200D200D200E4
:102C6000D200D200D200D200D200D200D200D200D4
:102C7000D200D200D200D200D100D100D100D100C8
:102C8000D100D100D100D100D100D100D100D100BC
:102C9000D100D100D100D100D100D100D100D100AC
:102CA000D100D100D100D000D000D000D000D000A1
:102CB000D000D000D000D000D000D000D000D00094
:102CC000D000D000D000D000D000D000D000D00084
:102CD000D000D000CF00CF00CF00CF00CF00CF007A
:102CE000CF00CF00CF00CF00CF00CF00CF00CF006C
:102CF000CF00CF00CF00CF00CF00CF00CF00CF005C
:102D0000CF00CE00CE00CE00CE00CE00CE00CE0052
:102D1000CE00CE00CE00CE00CE00CE00CE00CE0043
:102D2000CE00CE00CE00CE00CE00CE00CE00CE0033
:102D3000CE00CD00CD00CD00CD00CD00CD00CD002A
:102D4000CD00CD00CD00CD00CD00CD00CD00CD001B
:102D5000CD00CD00CD00CD00CD00CD00CD00CD000B
:102D6000CC00CC00CC00CC00CC00CC00CC00CC0003
:102D7000CC00CC00CC00CC00CC00CC00CC00CC00F3
:102D8000CC00CC00CC00CC00CC00CC00CC00CC00E3
:102D9000CC00CB00CB00CB00CB00CB00CB00CB00DA
:102DA000CB00CB00CB00CB00CB00CB00CB00CB00CB
:102DB000CB00CB00CB00CB00CB00CB00CB00CB00BB
:102DC000CB00CA00CA00CA00CA00CA00CA00CA00B2
:102DD000CA00CA00CA00CA00CA00CA00CA00CA00A3
:102DE000CA00CA00CA00CA00CA00CA00CA00CA0093
:102DF000CA00C900C900C900C900C900C900C9008A
:102E0000C900C900C900C900C900C900C900C9007A
:102E1000C900C900C900C900C900C900C900C9006A
:102E2000C900C900C800C800C800C800C800C80060
:102E3000C800C800C800C800C800C800C800C80052
:102E4000C800C800C800C800C800C800C800C80042
:102E5000C800C800C800C700C700C700C700C70037
:102E6000C700C700C700C700C700C700C700C7002A
:102E7000C700C700C700C700C700C700C700C7001A
:102E8000C700C700C700C700C600C600C600C6000E
:102E9000C600C600C600C600C600C600C600C60002
:102EA000C600C600C600C600C600C600C600C600F2
:102EB000C600C600C600C600C600C600C500C500E4
:102EC000C500C500C500C500C500C500C500C500DA
:102ED000C500C500C500C500C500C500C500C500CA
:102EE000C500C500C500C500C500C500C500C500BA
:102EF000C400C400C400C400C400C400C400C400B2
:102F0000C400C400C400C400C400C400C400C400A1
:102F1000C400C400C400C400C400C400C400C40091
:102F2000C400C400C300C300C300C300C300C30087
:102F3000C300C300C300C300C300C300C300C30079
:102F4000C300C300C300C300C300C300C300C30069
:102F5000C300C300C300C300C200C200C200C2005D
:102F6000C200C200C200C200C200C200C200C20051
:102F7000C200C200C200C200C200C200C200C20041
:102F8000C200C200C200C200C200C200C100C10033
:102F9000C100C100C100C100C100C100C100C10029
:102FA000C100C100C100C100C100C100C100C10019
:102FB000C100C100C100C100C100C100C100C10009
:102FC000C100C000C000C000C000C000C000C00000
:102FD000C000C000C000C000C000C000C000C000F1
:102FE000C000C000C000C000C000C000C000C000E1
:102FF000C000C000C000C000BF00BF00BF00BF00D5
:10300000BF00BF00BF00BF00BF00BF00BF00BF00C8
:10301000BF00BF00BF00BF00BF00BF00BF00BF00B8
:10302000BF00BF00BF00BF00BF00BF00BF00BF00A8
:10303000BE00BE00BE00BE00BE00BE00BE00BE00A0
:10304000BE00BE00BE00BE00BE00BE00BE00BE0090
:10305000BE00BE00BE00BE00BE00BE00BE00BE0080
:10306000BE00BE00BE00BE00BD00BD00BD00BD0074
:10307000BD00BD00BD00BD00BD00BD00BD00BD0068
:10308000BD00BD00BD00BD00BD00BD00BD00BD0058
:10309000BD00BD00BD00BD00BD00BD00BD00BD0048
:1030A000BC00BC00BC00BC00BC00BC00BC00BC0040
:1030B000BC00BC00BC00BC00BC00BC00BC00BC0030
:1030C000BC00BC00BC00BC00BC00BC00BC00BC0020
:1030D000BC00BC00BC00BC00BB00BB00BB00BB0014
:1030E000BB00BB00BB00BB00BB00BB00BB00BB0008
:1030F000BB00BB00BB00BB00BB00BB00BB00BB00F8
:10310000BB00BB00BB00BB00BB00BB00BB00BB00E7
:10311000BA00BA00BA00BA00BA00BA00BA00BA00DF
:10312000BA00BA00BA00BA00BA00BA00BA00BA00CF
:10313000BA00BA00BA00BA00BA00BA00BA00BA00BF
:10314000BA00BA00BA00BA00BA00B900B900B900B2
:10315000B900B900B900B900B900B900B900B900A7
:10316000B900B900B900B900B900B900B900B90097
:10317000B900B900B900B900B900B900B900B90087
:10318000B900B900B900B800B800B800B800B8007C
:10319000B800B800B800B800B800B800B800B8006F
:1031A000B800B800B800B800B800B800B800B8005F
:1031B000B800B800B800B800B800B800B800B8004F
:1031C000B700B700B700B700B700B700B700B70047
:1031D000B700B700B700B700B700B700B700B70037
:1031E000B700B700B700B700B700B700B700B70027
:1031F000B700B700B700B700B700B700B600B60019
:10320000B600B600B600B600B600B600B600B6000E
:10321000B600B600B600B600B600B600B600B600FE
:10322000B600B600B600B600B600B600B600B600EE
:10323000B600B600B600B600B500B500B500B500E2
:10324000B500B500B500B500B500B500B500B500D6
:10325000B500B500B500B500B500B500B500B500C6
:10326000B500B500B500B500B500B500B500B500B6
:10327000B500B500B500B400B400B400B400B400AB
:10328000B400B400B400B400B400B400B400B4009E
:10329000B400B400B400B400B400B400B400B4008E
:1032A000B400B400B400B400B400B400B400B4007E
:1032B000B400B400B300B300B300B300B300B30074
:1032C000B300B300B300B300B300B300B300B30066
:1032D000B300B300B300B300B300B300B300B30056
:1032E000B300B300B300B300B300B300B300B30046
:1032F000B300B200B200B200B200B200B200B2003D
:10330000B200B200B200B200B200B200B200B2002D
:10331000B200B200B200B200B200B200B200B2001D
:10332000B200B200B200B200B200B200B200B2000D
:10333000B100B100B100B100B100B100B100B10005
:10334000B100B100B100B100B100B100B100B100F5
:10335000B100B100B100B100B100B100B100B100E5
:10336000B100B100B100B100B100B100B100B100D5
:10337000B000B000B000B000B000B000B000B000CD
:10338000B000B000B000B000B000B000B000B000BD
:10339000B000B000B000B000B000B000B000B000AD
:1033A000B000B000B000B000B000B000B000B0009D
:1033B000B000AF00AF00AF00AF00AF00AF00AF0094
:1033C000AF00AF00AF00AF00AF00AF00AF00AF0085
:1033D000AF00AF00AF00AF00AF00AF00AF00AF0075
:1033E000AF00AF00AF00AF00AF00AF00AF00AF0065
:1033F000AF00AE00AE00AE00AE00AE00AE00AE005C
:10340000AE00AE00AE00AE00AE00AE00AE00AE004C
:10341000AE00AE00AE00AE00AE00AE00AE00AE003C
:10342000AE00AE00AE00AE00AE00AE00AE00AE002C
:10343000AE00AE00AD00AD00AD00AD00AD00AD0022
:10344000AD00AD00AD00AD00AD00AD00AD00AD0014
:10345000AD00AD00AD00AD00AD00AD00AD00AD0004
:10346000AD00AD00AD00AD00AD00AD00AD00AD00F4
:10347000AD00AD00AD00AD00AC00AC00AC00AC00E8
:10348000AC00AC00AC00AC00AC00AC00AC00AC00DC
:10349000AC00AC00AC00AC00AC00AC00AC00AC00CC
:1034A000AC00AC00AC00AC00AC00AC00AC00AC00BC
:1034B000AC00AC00AC00AC00AC00AB00AB00AB00AF
:1034C000AB00AB00AB00AB00AB00AB00AB00AB00A4
:1034D000AB00AB00AB00AB00AB00AB00AB00AB0094
:1034E000AB00AB00AB00AB00AB00AB00AB00AB0084
:1034F000AB00AB00AB00AB00AB00AB00AB00AB0074
:10350000AA00AA00AA00AA00AA00AA00AA00AA006B
:10351000AA00AA00AA00AA00AA00AA00AA00AA005B
:10352000AA00AA00AA00AA00AA00AA00AA00AA004B
:10353000AA00AA00AA00AA00AA00AA00AA00AA003B
:10354000AA00AA00A900A900A900A900A900A90031
:10355000A900A900A900A900A900A900A900A90023
:10356000A900A900A900A900A900A900A900A90013
:10357000A900A900A900A900A900A900A900A90003
:10358000A900A900A900A900A900A800A800A800F6
:10359000A800A800A800A800A800A800A800A800EB
:1035A000A800A800A800A800A800A800A800A800DB
:1035B000A800A800A800A800A800A800A800A800CB
:1035C000A800A800A800A800A800A800A800A800BB
:1035D000A800A700A700A700A700A700A700A700B2
:1035E000A700A700A700A700A700A700A700A700A3
:1035F000A700A700A700A700A700A700A700A70093
:10360000A700A700A700A700A700A700A700A70082
:10361000A700A700A700A700A700A600A600A60075
:10362000A600A600A600A600A600A600A600A6006A
:10363000A600A600A600A600A600A600A600A6005A
:10364000A600A600A600A600A600A600A600A6004A
:10365000A600A600A600A600A600A600A600A6003A
:10366000A600A500A500A500A500A500A500A50031
:10367000A500A500A500A500A500A500A500A50022
:10368000A500A500A500A500A500A500A500A50012
:10369000A500A500A500A500A500A500A500A50002
:1036A000A500A500A500A500A500A500A400A400F4
:1036B000A400A400A400A400A400A400A400A400EA
:1036C000A400A400A400A400A400A400A400A400DA
:1036D000A400A400A400A400A400A400A400A400CA
:1036E000A400A400A400A400A400A400A400A400BA
:1036F000A400A400A400A300A300A300A300A300AF
:10370000A300A300A300A300A300A300A300A300A1
:10371000A300A300A300A300A300A300A300A30091
:10372000A300A300A300A300A300A300A300A30081
:10373000A300A300A300A300A300A300A300A30071
:10374000A200A200A200A200A200A200A200A20069
:10375000A200A200A200A200A200A200A200A20059
:10376000A200A200A200A200A200A200A200A20049
:10377000A200A200A200A200A200A200A200A20039
:10378000A200A200A200A200A200A200A100A1002B
:10379000A100A100A100A100A100A100A100A10021
:1037A000A100A100A100A100A100A100A100A10011
:1037B000A100A100A100A100A100A100A100A10001
:1037C000A100A100A100A100A100A100A100A100F1
:1037D000A100A100A100A100A100A000A000A000E4
:1037E000A000A000A000A000A000A000A000A000D9
:1037F000A000A000A000A000A000A000A000A000C9
:10380000A000A000A000A000A000A000A000A000B8
:10381000A000A000A000A000A000A000A000A000A8
:10382000A000A000A000A0009F009F009F009F009C
:103830009F009F009F009F009F009F009F009F0090
:103840009F009F009F009F009F009F009F009F0080
:103850009F009F009F009F009F009F009F009F0070
:103860009F009F009F009F009F009F009F009F0060
:103870009F009F009F009F009E009E009E009E0054
:103880009E009E009E009E009E009E009E009E0048
:103890009E009E009E009E009E009E009E009E0038
:1038A0009E009E009E009E009E009E009E009E0028
:1038B0009E009E009E009E009E009E009E009E0018
:1038C0009E009E009E009E009D009D009D009D000C
:1038D0009D009D009D009D009D009D009D009D0000
:1038E0009D009D009D009D009D009D009D009D00F0
:1038F0009D009D009D009D009D009D009D009D00E0
:103900009D009D009D009D009D009D009D009D00CF
:103910009D009D009D009D009C009C009C009C00C3
:103920009C009C009C009C009C009C009C009C00B7
:103930009C009C009C009C009C009C009C009C00A7
:103940009C009C009C009C009C009C009C009C0097
:103950009C009C009C009C009C009C009C009C0087
:103960009C009C009C009C009C009B009B009B007A
:103970009B009B009B009B009B009B009B009B006F
:103980009B009B009B009B009B009B009B009B005F
:103990009B009B009B009B009B009B009B009B004F
:1039A0009B009B009B009B009B009B009B009B003F
:1039B0009B009B009B009B009B009B009B009A0030
:1039C0009A009A009A009A009A009A009A009A0027
:1039D0009A009A009A009A009A009A009A009A0017
:1039E0009A009A009A009A009A009A009A009A0007
:1039F0009A009A009A009A009A009A009A009A00F7
:103A00009A009A009A009A009A009A009A009A00E6
:103A10009A009900990099009900990099009900DD
:103A200099009900990099009900990099009900CE
:103A300099009900990099009900990099009900BE
:103A400099009900990099009900990099009900AE
:103A5000990099009900990099009900990099009E
:103A60009900990099009900980098009800980092
:103A70009800980098009800980098009800980086
:103A80009800980098009800980098009800980076
:103A90009800980098009800980098009800980066
:103AA0009800980098009800980098009800980056
:103AB0009800980098009800980098009800970047
:103AC000970097009700970097009700970097003E
:103AD000970097009700970097009700970097002E
:103AE000970097009700970097009700970097001E
:103AF000970097009700970097009700970097000E
:103B000097009700970097009700970097009700FD
:103B100097009700970096009600960096009600F2
:103B200096009600960096009600960096009600E5
:103B300096009600960096009600960096009600D5
:103B400096009600960096009600960096009600C5
:103B500096009600960096009600960096009600B5
:103B600096009600960096009600960096009500A6
:103B7000950095009500950095009500950095009D
:103B8000950095009500950095009500950095008D
:103B9000950095009500950095009500950095007D
:103BA000950095009500950095009500950095006D
:103BB000950095009500950095009500950095005D
:103BC0009500950095009500950094009400940050
:103BD0009400940094009400940094009400940045
:103BE0009400940094009400940094009400940035
:103BF0009400940094009400940094009400940025
:103C00009400940094009400940094009400940014
:103C10009400940094009400940094009400940004
:103C200094009400930093009300930093009300FA
:103C300093009300930093009300930093009300EC
:103C400093009300930093009300930093009300DC
:103C500093009300930093009300930093009300CC
:103C600093009300930093009300930093009300BC
:103C700093009300930093009300930093009300AC
:103C800092009200920092009200920092009200A4
:103C90009200920092009200920092009200920094
:103CA0009200920092009200920092009200920084
:103CB0009200920092009200920092009200920074
:103CC0009200920092009200920092009200920064
:103CD0009200920092009200920092009200910055
:103CE000910091009100910091009100910091004C
:103CF000910091009100910091009100910091003C
:103D0000910091009100910091009100910091002B
:103D1000910091009100910091009100910091001B
:103D2000910091009100910091009100910091000B
:103D300091009100910091009100910091009000FC
:103D400090009000900090009000900090009000F3
:103D500090009000900090009000900090009000E3
:103D600090009000900090009000900090009000D3
:103D700090009000900090009000900090009000C3
:103D800090009000900090009000900090009000B3
:103D900090009000900090009000900090008F00A4
:103DA0008F008F008F008F008F008F008F008F009B
:103DB0008F008F008F008F008F008F008F008F008B
:103DC0008F008F008F008F008F008F008F008F007B
:103DD0008F008F008F008F008F008F008F008F006B
:103DE0008F008F008F008F008F008F008F008F005B
:103DF0008F008F008F008F008F008F008F008F004B
:103E00008E008E008E008E008E008E008E008E0042
:103E10008E008E008E008E008E008E008E008E0032
:103E20008E008E008E008E008E008E008E008E0022
:103E30008E008E008E008E008E008E008E008E0012
:103E40008E008E008E008E008E008E008E008E0002
:103E50008E008E008E008E008E008E008E008E00F2
:103E60008E008E008D008D008D008D008D008D00E8
:103E70008D008D008D008D008D008D008D008D00DA
:103E80008D008D008D008D008D008D008D008D00CA
:103E90008D008D008D008D008D008D008D008D00BA
:103EA0008D008D008D008D008D008D008D008D00AA
:103EB0008D008D008D008D008D008D008D008D009A
:103EC0008D008D008D008D008C008C008C008C008E
:103ED0008C008C008C008C008C008C008C008C0082
:103EE0008C008C008C008C008C008C008C008C0072
:103EF0008C008C008C008C008C008C008C008C0062
:103F00008C008C008C008C008C008C008C008C0051
:103F10008C008C008C008C008C008C008C008C0041
:103F20008C008C008C008C008C008C008C008B0032
:103F30008B008B008B008B008B008B008B008B0029
:103F40008B008B008B008B008B008B008B008B0019
:103F50008B008B008B008B008B008B008B008B0009
:103F60008B008B008B008B008B008B008B008B00F9
:103F70008B008B008B008B008B008B008B008B00E9
:103F80008B008B008B008B008B008B008B008B00D9
:103F90008B008B008B008A008A008A008A008A00CE
:103FA0008A008A008A008A008A008A008A008A00C1
:103FB0008A008A008A008A008A008A008A008A00B1
:103FC0008A008A008A008A008A008A008A008A00A1
:103FD0008A008A008A008A008A008A008A008A0091
:103FE0008A008A008A008A008A008A008A008A0081
:103FF0008A008A008A008A008A008A008A00890072
:104000008900890089008900890089008900890068
:104010008900890089008900890089008900890058
:104020008900890089008900890089008900890048
:104030008900890089008900890089008900890038
:104040008900890089008900890089008900890028
:104050008900890089008900890089008900890018
:10406000890089008900890089008800880088000B
:104070008800880088008800880088008800880000
:1040800088008800880088008800880088008800F0
:1040900088008800880088008800880088008800E0
:1040A00088008800880088008800880088008800D0
:1040B00088008800880088008800880088008800C0
:1040C00088008800880088008800880088008800B0
:1040D00088008800880087008700870087008700A5
:1040E0008700870087008700870087008700870098
:1040F0008700870087008700870087008700870088
:104100008700870087008700870087008700870077
:104110008700870087008700870087008700870067
:104120008700870087008700870087008700870057
:104130008700870087008700870087008700870047
:10414000870086008600860086008600860086003E
:10415000860086008600860086008600860086002F
:10416000860086008600860086008600860086001F
:10417000860086008600860086008600860086000F
:1041800086008600860086008600860086008600FF
:1041900086008600860086008600860086008600EF
:1041A00086008600860086008600860086008600DF
:1041B00086008500850085008500850085008500D6
:1041C00085008500850085008500850085008500C7
:1041D00085008500850085008500850085008500B7
:1041E00085008500850085008500850085008500A7
:1041F0008500850085008500850085008500850097
:104200008500850085008500850085008500850086
:104210008500850085008500850085008500850076
:10422000850085008400840084008400840084006C
:10423000840084008400840084008400840084005E
:10424000840084008400840084008400840084004E
:10425000840084008400840084008400840084003E
:10426000840084008400840084008400840084002E
:10427000840084008400840084008400840084001E
:10428000840084008400840084008400840084000E
:104290008400840084008300830083008300830003
:1042A00083008300830083008300830083008300F6
:1042B00083008300830083008300830083008300E6
:1042C00083008300830083008300830083008300D6
:1042D00083008300830083008300830083008300C6
:1042E00083008300830083008300830083008300B6
:1042F00083008300830083008300830083008300A6
:104300008300830083008300830082008200820098
:10431000820082008200820082008200820082008D
:10432000820082008200820082008200820082007D
:10433000820082008200820082008200820082006D
:10434000820082008200820082008200820082005D
:10435000820082008200820082008200820082004D
:10436000820082008200820082008200820082003D
:10437000820082008200820082008200820082002D
:104380008200810081008100810081008100810024
:104390008100810081008100810081008100810015
:1043A0008100810081008100810081008100810005
:1043B00081008100810081008100810081008100F5
:1043C00081008100810081008100810081008100E5
:1043D00081008100810081008100810081008100D5
:1043E00081008100810081008100810081008100C5
:1043F00081008100810081008100800080008000B8
:1044000080008000800080008000800080008000AC
:10441000800080008000800080008000800080009C
:10442000800080008000800080008000800080008C
:10443000800080008000800080008000800080007C
:10444000800080008000800080008000800080006C
:10445000800080008000800080008000800080005C
:10446000800080008000800080008000800080004C
:10447000800080007F007F007F007F007F007F0042
:104480007F007F007F007F007F007F007F007F0034
:104490007F007F007F007F007F007F007F007F0024
:1044A0007F007F007F007F007F007F007F007F0014
:1044B0007F007F007F007F007F007F007F007F0004
:1044C0007F007F007F007F007F007F007F007F00F4
:1044D0007F007F007F007F007F007F007F007F00E4
:1044E0007F007F007F007F007F007F007F007F00D4
:1044F0007E007E007E007E007E007E007E007E00CC
:104500007E007E007E007E007E007E007E007E00BB
:104510007E007E007E007E007E007E007E007E00AB
:104520007E007E007E007E007E007E007E007E009B
:104530007E007E007E007E007E007E007E007E008B
:104540007E007E007E007E007E007E007E007E007B
:104550007E007E007E007E007E007E007E007E006B
:104560007E007E007E007E007E007E007E007D005C
:104570007D007D007D007D007D007D007D007D0053
:104580007D007D007D007D007D007D007D007D0043
:104590007D007D007D007D007D007D007D007D0033
:1045A0007D007D007D007D007D007D007D007D0023
:1045B0007D007D007D007D007D007D007D007D0013
:1045C0007D007D007D007D007D007D007D007D0003
:1045D0007D007D007D007D007D007D007D007D00F3
:1045E0007D007D007D007D007D007D007D007C00E4
:1045F0007C007C007C007C007C007C007C007C00DB
:104600007C007C007C007C007C007C007C007C00CA
:104610007C007C007C007C007C007C007C007C00BA
:104620007C007C007C007C007C007C007C007C00AA
:104630007C007C007C007C007C007C007C007C009A
:104640007C007C007C007C007C007C007C007C008A
:104650007C007C007C007C007C007C007C007C007A
:104660007C007C007C007C007C007C007C007C006A
:104670007B007B007B007B007B007B007B007B0062
:104680007B007B007B007B007B007B007B007B0052
:104690007B007B007B007B007B007B007B007B0042
:1046A0007B007B007B007B007B007B007B007B0032
:1046B0007B007B007B007B007B007B007B007B0022
:1046C0007B007B007B007B007B007B007B007B0012
:1046D0007B007B007B007B007B007B007B007B0002
:1046E0007B007B007B007B007B007B007B007B00F2
:1046F0007B007B007A007A007A007A007A007A00E8
:104700007A007A007A007A007A007A007A007A00D9
:104710007A007A007A007A007A007A007A007A00C9
:104720007A007A007A007A007A007A00830488009E
:10473000000014008C000000000000000030F8FFB2
:10474000FF00000000000000008E000000000000DC
:1047500000000000000000000000000000005729D9
:104760000400188304DC05000014008403690100C0
:10477000001400901F891F950000000046696E64B8
:10478000207468652034206B6E6F6273206F6E201A
:1047900000950100000074686520626F74746F6D8D
:1047A000206F6620746865202020009501000000BD
:1047B000706C6174666F726D20616E6420746967DD
:1047C0006874656E009507000000666F7572206F53
:1047D000722066697665207475726E732E0095007E
:1047E00000000049276D20676F696E6720746F2095
:1047F0006D6F7665202020009501000000746865CB
:1048000020657874727564657220746F2020202092
:1048100020009501000000766172696F7573207049
:104820006F736974696F6E73202020009507000014
:1048300000666F722061646A7573746D656E742EA4
:10484000009500000000496E206561636820706F6C
:10485000736974696F6E2C202020009501000000A0
:1048600077652077696C6C206E65656420746F20B5
:104870002020202000950100000061646A75737497
:104880002032206B6E6F62732061742020200095AF
:10489000070000007468652073616D652074696DA0
:1048A000652E0095000000004E6F7A7A6C657320CB
:1048B0006172652061742074686520200095010094
:1048C000000072696768742068656967687420779A
:1048D00068656E202020009501000000796F75202A
:1048E00063616E206A75737420736C6964652061FE
:1048F0000095070000007368656574206F6620707E
:1049000061706572009500000000626574776565EE
:104910006E20746865206E6F7A7A6C652020009531
:1049200001000000616E642074686520706C617421
:10493000666F726D2E2020200095010000004772E6
:1049400061622061207368656574206F6620202095
:104950002020009507000000706170657220746F60
:10496000206173736973742075732E0095020000C3
:1049700000506C6561736520776169740084036918
:10498000010000140083048800000014008C000063
:1049900000000000000030F8FFFF000000000000F1
:1049A00000008E0000000000000000000000000079
:1049B0000000000000000057290400188304DC05F3
:1049C000000014008CE5370000941B00000000007C
:1049D0000000000000000000009502000000506C84
:1049E000656173652077616974008EE63700009415
:1049F0001B0000D007000000000000000000000DB8
:104A0000450300188E00000000CAE4FFFFD0070035
:104A10000000000000000000002A0D3B00188E007E
:104A2000000000C9E4FFFF000000000000000000DB
:104A30000000000D45030018950000000041646A65
:104A4000757374207468652066726F6E7420747755
:104A50006F0095010000006B6E6F627320756E74BD
:104A6000696C207061706572202020009501000043
:104A7000006A75737420736C696465732062657471
:104A80007765656E200095070000006E6F7A7A6C7E
:104A90006520616E6420706C6174666F726D009544
:104AA00002000000506C65617365207761697400D5
:104AB0008E00000000CAE4FFFFD0070000000000E5
:104AC00000000000000D450300188E000000007A71
:104AD0001A0000D007000000000000000000005194
:104AE000812800188E000000007A1A0000000000E3
:104AF0000000000000000000000D450300189500B4
:104B000000000041646A75737420746865206261F6
:104B1000636B2074776F200095010000006B6E6F4F
:104B2000627320756E74696C2070617065722020EC
:104B3000200095010000006A75737420736C69642D
:104B40006573206265747765656E200095070000C7
:104B5000006E6F7A7A6C6520616E6420706C61748F
:104B6000666F726D009502000000506C65617365A0
:104B70002077616974008E000000007A1A0000D06E
:104B800007000000000000000000000D45030018B1
:104B90008EC624000000000000D0070000000000C6
:104BA0000000000000A82F2200188EC6240000007C
:104BB0000000000000000000000000000000000DE8
:104BC00045030018950000000041646A7573742065
:104BD0007468652072696768742074776F00950146
:104BE0000000006B6E6F627320756E74696C2070CC
:104BF000617065722020200095010000006A7573C5
:104C00007420736C69646573206265747765656E82
:104C1000200095070000006E6F7A7A6C6520616E47
:104C20006420706C6174666F726D00950200000004
:104C3000506C656173652077616974008EC62400CD
:104C40000000000000D0070000000000000000008D
:104C5000000D450300188E3ADBFFFF00000000D076
:104C600007000000000000000000008B7C370018E7
:104C70008E3ADBFFFF000000000000000000000093
:104C800000000000000D45030018950000000041E1
:104C9000646A75737420746865206C65667420742A
:104CA000776F200095010000006B6E6F62732075B6
:104CB0006E74696C2070617065722020200095010F
:104CC0000000006A75737420736C696465732062F8
:104CD00065747765656E200095070000006E6F7A39
:104CE0007A6C6520616E6420706C6174666F726DA1
:104CF000009502000000506C656173652077616962
:104D000074008E3ADBFFFF00000000D007000000B7
:104D1000000000000000000D450300188E00000098
:104D20000000000000D007000000000000000000AC
:104D30000045BE1B00188E000000000000000000AF
:104D400000000000000000000000000D45030018F6
:104D50009500000000436865636B207468617420EF
:104D60007061706572202020200095010000006AAB
:104D700075737420736C69646573206265747765FC
:104D8000656E200095070000006E6F7A7A6C6520D2
:104D9000616E6420706C6174666F726D00891F951E
:104DA0000000000046696E64207468652034206B42
:104DB0006E6F6273206F6E200095010000007468B2
:104DC0006520626F74746F6D206F66207468652053
:104DD0002020009501000000706C6174666F726D98
:104DE00020616E64207469676874656E00950700C1
:104DF0000000666F7572206F722066697665207498
:104E000075726E732E00950000000049276D2067B3
:104E10006F696E6720746F206D6F766520202000AB
:104E2000950100000074686520657874727564658A
:104E30007220746F20202020200095010000007651
:104E40006172696F757320706F736974696F6E73C7
:104E5000202020009507000000666F722061646AC0
:104E60007573746D656E742E009500000000496EB8
:104E7000206561636820706F736974696F6E2C20A0
:104E8000202000950100000077652077696C6C2078
:104E90006E65656420746F2020202020009501003D
:104EA000000061646A7573742032206B6E6F6273E8
:104EB00020617420202000950700000074686520A0
:104EC00073616D652074696D652E009500000000AA
:104ED0004E6F7A7A6C6573206172652061742074FC
:104EE00068652020009501000000726967687420E1
:104EF000686569676874207768656E202020009572
:104F000001000000796F752063616E206A7573740B
:104F100020736C6964652061009507000000736868
:104F2000656574206F662070617065720095000081
:104F300000006265747765656E20746865206E6F29
:104F40007A7A6C652020009501000000616E642073
:104F500074686520706C6174666F726D2E202020FD
:104F6000009501000000477261622061207368654E
:104F70006574206F66202020202000950700000027
:104F8000706170657220746F20617373697374202F
:104F900075732E009502000000506C6561736520EA
:104FA0007761697400840369010000140083048838
:104FB00000000014008C000000000000000030F829
:104FC000FFFF00000000000000008E000000000055
:104FD000000000000000000000000000000000577A
:104FE000290400188304DC05000014008CE5370058
:104FF00000941B0000000000000000000000000002
:10500000009502000000506C65617365207761694E
:1050100074008EE5370000941B0000D007000000EC
:10502000000000000000000D450300188E1206006D
:1050300000CAE4FFFFD007000000000000000000ED
:1050400000DADF3700188E11060000CAE4FFFF0007
:1050500000000000000000000000000D45030018E3
:10506000950000000041646A7573742074686520BF
:1050700066726F6E742074776F0095010000006B8C
:105080006E6F627320756E74696C207061706572EA
:105090002020200095010000006A75737420736C55
:1050A00069646573206265747765656E2000950795
:1050B0000000006E6F7A7A6C6520616E6420706CFF
:1050C0006174666F726D009502000000506C65613E
:1050D00073652077616974008E11060000C9E4FFD2
:1050E000FFD007000000000000000000000D450395
:1050F00000188E110600007A1A0000D00700000088
:105100000000000000000051812800188E120600E7
:10511000007A1A00000000000000000000000000FB
:10512000000D45030018950000000041646A757386
:105130007420746865206261636B2074776F20004F
:1051400095010000006B6E6F627320756E74696C60
:105150002070617065722020200095010000006AB7
:1051600075737420736C6964657320626574776508
:10517000656E200095070000006E6F7A7A6C6520DE
:10518000616E6420706C6174666F726D00950200D0
:105190000000506C656173652077616974008E1141
:1051A0000600007B1A0000D007000000000000008D
:1051B0000000000D450300188E2A270000000000A3
:1051C00000D00700000000000000000000CFF91F21
:1051D00000188E2A270000000000000000000000D8
:1051E000000000000000000D4503001895000000BD
:1051F0000041646A75737420746865207269676819
:10520000742074776F0095010000006B6E6F6273FD
:1052100020756E74696C20706170657220202000AA
:1052200095010000006A75737420736C696465737E
:10523000206265747765656E200095070000006E3A
:105240006F7A7A6C6520616E6420706C6174666F31
:10525000726D009502000000506C656173652077E7
:10526000616974008E2A27000000000000D007004A
:105270000000000000000000000D450300188EF83B
:10528000E4FFFF00000000D0070000000000000065
:1052900000000017F03100188EF9E4FFFF00000055
:1052A000000000000000000000000000000D4503A9
:1052B0000018950000000041646A757374207468DA
:1052C00065206C6566742074776F2000950100007E
:1052D000006B6E6F627320756E74696C2070617004
:1052E00065722020200095010000006A757374200B
:1052F000736C69646573206265747765656E200000
:1053000095070000006E6F7A7A6C6520616E6420EC
:10531000706C6174666F726D009502000000506CD5
:10532000656173652077616974008EF9E4FFFF00A1
:10533000000000D007000000000000000000000D89
:10534000450300188E1106000000000000D0070081
:105350000000000000000000000BF81800188E117B
:105360000600000000000000000000000000000037
:105370000000000D4503001895000000004368651B
:10538000636B2074686174207061706572202020E6
:10539000200095010000006A75737420736C6964C5
:1053A0006573206265747765656E2000950700005F
:1053B000006E6F7A7A6C6520616E6420706C617427
:1053C000666F726D00891F9900000000526570477A
:1053D000204275696C64009600FF860088001F02F9
:1053E0006E0088011F026E00860088000302DC0048
:1053F000860188010302DC008403690100001400B7
:1054000083048800000014008C00000000000000ED
:105410000030F8FFFF00000000000000008E0000D8
:10542000000000000000000000000000000000007C
:10543000000057290400188304DC050000140090C4
:105440001F8E1E23000028E5FFFF60EA0000000019
:105450000000000000009B176200189100009101FD
:10546000009103009104008600860087006400FF1D
:10547000FF8D006400FFFF8601860187016400FF45
:10548000FF8D006400FFFF91007F91017F91037FFA
:1054900091047F8E1F23000028E5FFFFC800000055
:1054A0000000000000000000E6C361001888010A47
:1054B000010388010401FF8E1E23000027E5FFFF82
:1054C000C8000000000000007FFEFFFF003E490012
:1054D000188C1E23000028E5FFFFC8000000000014
:1054E00000008101000086008E31E0FFFFB8E9FF77
:1054F000FF680100000000000000000000229C3254
:1055000000188E31E0FFFFB7E9FFFF68010000E3FC
:10551000FFFFFF000000001C5800001889888E3132
:10552000E0FFFFB7E9FFFFF0000000EDFFFFFF0025
:1055300000000060180000188E31E0FFFFB7E9FF9F
:10554000FFF0000000E3FFFFFF00000000F22B006F
:1055500000188E7BD1FFFFB7E9FFFFF00000009C31
:10556000FEFFFF00000000862F3000188E31E0FFA4
:10557000FF6EEDFFFFF000000030000000000000B3
:105580000012720B00188E31E0FFFF6EEDFFFFF08E
:10559000000000E3FFFFFF00000000F12B000018F7
:1055A0008E29D5FFFF6EEDFFFFF00000009CFEFF8F
:1055B000FF00000000A5232400188E30E0FFFF2527
:1055C000F1FFFFF00000003000000000000000319B
:1055D000C80800188E31E0FFFF24F1FFFFF0000043
:1055E00000E3FFFFFF00000000F12B0000188E29F0
:1055F000D5FFFF25F1FFFFF00000009CFEFFFF003C
:10560000000000A5232400188E31E0FFFFDCF4FF2A
:10561000FFF0000000300000000000000031C8086A
:1056200000188E31E0FFFFDBF4FFFFF0000000E325
:10563000FFFFFF00000000F22B0000188E29D5FFAD
:10564000FFDCF4FFFFF00000009CFEFFFF00000005
:1056500000A5232400188E31E0FFFF92F8FFFFF031
:10566000000000300000000000000031C8080018F1
:105670008E31E0FFFF93F8FFFFF0000000E3FFFF33
:10568000FF00000000F22B0000188E28D5FFFF92CB
:10569000F8FFFFF00000009CFEFFFF00000000A5E7
:1056A000232400188E31E0FFFF49FCFFFFF00000CB
:1056B00000300000000000000031C80800188E31E2
:1056C000E0FFFF49FCFFFFF0000000E3FFFFFF00E9
:1056D000000000F22B0000188E29D5FFFF4AFCFFC6
:1056E000FFF00000009CFEFFFF00000000A5232447
:1056F00000188E31E0FFFF00000000F000000030D5
:105700000000000000000031C80800188E31E0FFE2
:10571000FF00000000F0000000E3FFFFFF000000BA
:1057200000F22B0000188E28D5FFFF00000000F0CB
:105730000000009CFEFFFF00000000A523240018CD
:105740008E31E0FFFFB6030000F0000000300000E3
:10575000000000000031C80800188E31E0FFFFB7DC
:10576000030000F0000000E3FFFFFF00000000F274
:105770002B0000188E29D5FFFFB7030000F00000B2
:10578000009CFEFFFF00000000A5232400188E31BE
:10579000E0FFFF6E070000F0000000300000000096
:1057A00000000031C80800188E31E0FFFF6D0700CF
:1057B00000F0000000E3FFFFFF00000000F22B00FC
:1057C00000188E28D5FFFF6E070000F00000009C37
:1057D000FEFFFF00000000A5232400188E31E0FF2B
:1057E000FF240B0000F0000000300000000000006B
:1057F0000031C80800188E31E0FFFF250B0000F0D3
:10580000000000E3FFFFFF00000000F12B00001884
:105810008E29D5FFFF240B0000F00000009CFEFF46
:10582000FF00000000A5232400188E31E0FFFFDBFD
:105830000E0000F000000030000000000000003109
:10584000C80800188E31E0FFFFDC0E0000F00000F9
:1058500000E3FFFFFF00000000F12B0000188E297D
:10586000D5FFFFDB0E0000F00000009CFEFFFF00F4
:10587000000000A5232400188E30E0FFFF921200E4
:1058800000F0000000300000000000000031C808F7
:1058900000188E31E0FFFF92120000F0000000E3DC
:1058A000FFFFFF00000000F12B0000188E29D5FF3C
:1058B000FF92120000F00000009CFEFFFF000000BD
:1058C00000A5232400188E31E0FFFF49160000F0E8
:1058D000000000300000000000000031C80800187F
:1058E0008E31E0FFFF49160000F0000000E3FFFFEB
:1058F000FF00000000F12B0000188E29D5FFFF49A2
:10590000160000F00000009CFEFFFF00000000A554
:10591000232400188EAEEEFFFFA5F8FFFF680100FC
:1059200000300000000000000018821D00188EAE3C
:10593000EEFFFFA5F8FFFFF0000000D0FFFFFF0023
:10594000000000AE250000188EAEEEFFFFA5F8FFA8
:10595000FFF0000000E3FFFFFF00000000F12B005C
:1059600000188EAEEEFFFF5B070000F00000009C09
:10597000FEFFFF00000000862F3000188E65F2FF4A
:10598000FFA5F8FFFFF0000000300000000000005D
:105990000012720B00188E64F2FFFFA5F8FFFFF0F3
:1059A000000000E3FFFFFF00000000F12B000018E3
:1059B0008E65F2FFFFAE030000F00000009CFEFFCA
:1059C000FF00000000A5232400188E1CF6FFFFA591
:1059D000F8FFFFF000000030000000000000003180
:1059E000C80800188E1CF6FFFFA5F8FFFFF00000A6
:1059F00000E3FFFFFF00000000F12B0000188E1BEA
:105A0000F6FFFFAE030000F00000009CFEFFFF0069
:105A1000000000A5232400188ED3F9FFFFA5F8FF8E
:105A2000FFF0000000300000000000000031C80856
:105A300000188ED2F9FFFFA5F8FFFFF0000000E389
:105A4000FFFFFF00000000F12B0000188ED3F9FFCC
:105A5000FFAE030000F00000009CFEFFFF0000000E
:105A600000A5232400188E89FDFFFFA5F8FFFFF095
:105A7000000000300000000000000031C8080018DD
:105A80008E89FDFFFFA5F8FFFFF0000000E3FFFF98
:105A9000FF00000000F12B0000188E89FDFFFFAD14
:105AA000030000F00000009CFEFFFF00000000A5C6
:105AB000232400188E40010000A6F8FFFFF000002C
:105AC00000300000000000000031C80800188E40BF
:105AD000010000A5F8FFFFF0000000E4FFFFFF0059
