:200000000C94F2020C9421030C9421030C9421030C9421030C9421030C9421030C942103F0
:200020000C9421030C9421030C9421030C9421030C9421030C9421030C9421030C943C2464
:200040000C9421030C9421030C9421030C9421030C9421030C9406250C9421030C94210379
:200060000C9421030C9448600C9421030C9474600C9421030C9446420C9421030C942103C8
:200080000C9432220C9421030C9421030C9421030C9421030C9421030C9421030C94210310
:2000A0000C9421030C9421030C9421030C9421030C9421030C9421030C9421030C94210320
:2000C0000C9421030C9421030C9421030C9421030C9421030C9421030C9421030C94210300
:2000E0000C942103601A811A851A9C1AF01BF01BF01BF01BF01BF01BF01BF01BCA1AE61A96
:20010000F01BF01BF01BF01BF01BF01BF01BF01BF41AC51AF01BB91ABF1AF01BF01BF01BC2
:200120000B1BF01B151B2C1B6A1A361B411B841B2C1C5C1C611C4B1C6B1CDE1CDE1C4B1CC1
:200140008E1CDE1C921C971CAC1CB11C751C7A1C841C4B1C891CDE1C311C701CB61CDE1C93
:20016000DE1CBB1C546865205265706C696361743072004E6F205344206361726420666F74
:20018000756E640065786974206D656E75006D616B6572626F742E636F6D2F7265705344BA
:2001A00020200072657175697265642E2020536565202020202020004D616B6572426F743E
:2001C00020736372697074732069732000416E20534420636172642077697468202020205F
:2001E0002000456E61626C652053746570706572730044697361626C6520537465707065DD
:2002000072730048656174657220546573740052756E205374617274757020536372697077
:2002200074004C6F61642046696C616D656E74204C656674004C6F61642046696C616D65E1
:200240006E7420526967687400486F6D652041786573004A6F67204D6F6465004D6F6E690C
:20026000746F72204D6F646500536E616B652047616D65005574696C69746965730050727A
:2002800065686561742048656174657273005072696E742066726F6D2053440059657300A2
:2002A0004E6F0043616E63656C203F004275696C642066726F6D20534400436865636B2063
:2002C00041786573004C6F616420506C617374696300506C6174666F726D3A2020202D2DE4
:2002E0002D2F2D2D2D43004C65667420546F6F6C3A20202D2D2D2F2D2D2D4300526967680B
:200300007420546F6F6C3A202D2D2D2F2D2D2D4300202D2D250047414D45204F564552219B
:200320000020202020202020205A2B202020202020202020200020203C2D592028426163A8
:200340006B2920202020202020200020202020202020205A2D202020202020202020200042
:200360002020202020202020592D202020202020202020200020203C2D5820284261636BFD
:200380002920205A2D3E202020002020202020202020592B202020202020202020200020EB
:2003A00020202020202020582D2020202020202020202000202020202020284261636B2916
:2003C000202020592D3E2020002020202020202020582B20202020202020202020002020B6
:2003E0002020204A6F67206D6F6465202020202020200020427574746F6E20746F20436F67
:200400006E74696E7565200020205072657373207468652043656E7465722020002020205A
:2004200020202057656C636F6D652120202020202000202020546865205265706C6963614E
:20044000746F7220202000506C6174666F726D004C65667420546F6F6C005269676874203B
:20046000546F6F6C00507265686561742100202020202020202020202020202020202020B4
:200480002020004865617465727320617265206E6F74202020202000636F6E6E6563746598
:2004A0006420636F72726563746C7920002020202053554343455353212020202020202027
:2004C0002000202020204641494C21202020202020202020202000202020207365636F6E47
:2004E0006473202020202020202020005468697320746573742074616B65732074656E20CE
:200500000050726573732043656E74657220746F20517569740020202048656174657220AE
:2005200054657374204F6E202020004669726D776172652056657273696F6E20342E2000F9
:20054000202020202D2D2D2D2D2D2D2D2D2D202020202020002020546865205265706C691C
:200560006361746F7220202020002020202020202020202020202020202020202020000161
:200580000049033600FF006B00D100A000B800D500A6000A0199003F018E0074018400A9B7
:2005A000017C00DE01740013026C00480265007D025D00B2025600E7024E001C0346005168
:2005C000033D0086033200BB032200F003030000EF108013431E91258227862DF630BC4221
:2005E000E448A66011241FBECFEFD1E2DEBFCDBF15E0A0E0B2E0E6ECF4EC00E00BBF02C0F8
:2006000007900D92AC35B107D9F710E1ACE5B5E001C01D92A931B107E1F715E0C4EED5E0EE
:2006200000E006C022970109FE010BBF0E946861C03DD10780E00807A9F70E94791E0C9460
:2006400061620C940000EF92FF920F931F937B018C0120E030E040E05FE40E94210687FD08
:2006600011C0C801B70120E030E040E05FE40E94C6040E94B1069B01AC0120503040404047
:20068000504806C0C801B7010E94B1069B01AC01B901CA011F910F91FF90EF900895A0E0D9
:2006A000B0E0E5E5F3E00C943561FC01EA018081823008F438C1DB019C91923008F430C18F
:2006C000843059F4943009F02EC1918111968C911197981709F021C126C1943009F420C1DC
:2006E0009230B1F4823009F01EC1CA01AF0128E0DA010D90AD01DC010D92CD012150C1F7ED
:20070000DB0111968C9111979181892389830AC1823009F405C1C280D380DB0112966D9071
:200720007C90139724813581468157811496ED90FD900D911C911797C601861997095C01F9
:2007400097FF04C0AA24BB24A81AB90AB0E2AB16B1040CF061C0181619066CF537014801B9
:200760000A2C04C096948794779467940A94D2F781E090E0A0E0B0E00A2C04C0880F991FA3
:20078000AA1FBB1F0A94D2F70197A109B1098E219F21A023B123EE24FF248701E394009782
:2007A000A105B10519F4EE24FF248701E628F728082919293CC00097D1F1CA0CDB1C390117
:2007C0004A010A2C04C096948794779467940A94D2F781E090E0A0E0B0E00A2C04C0880FB0
:2007E000991FAA1FBB1F0A94D2F70197A109B10982239323A423B52321E030E040E050E0E0
:200800000097A105B10519F420E030E0A90126293729482959290BC06C147D0424F4EE2486
:20082000FF24870104C0630120E030E0A9018181FB019181891709F445C0882349F0D801BC
:20084000C701821B930BA40BB50B9C01AD0104C02E193F09400B510B57FD04C01982DB82D1
:20086000CA820BC081E08983DB82CA8250954095309521953F4F4F4F5F4F2C833D834E83FC
:200880005F830DC0880F991FAA1FBB1F8C839D83AE83BF838A819B8101979B838A838C811E
:2008A0009D81AE81BF819C01AD0121503040404050402F3FEFEF3E07EFEF4E07EFE35E0774
:2008C00008F30BC08983DB82CA822E0D3F1D401F511F2C833D834E835F8383E088832C81FA
:2008E0003D814E815F8157FF1DC0DA01C90181709070A070B0705695479537952795822B96
:20090000932BA42BB52B8C839D83AE83BF838A819B8101969B838A8305C0EEE7F2E003C0B0
:20092000FB0101C0FE01CF01CDB7DEB7EEE00C945161A0E2B0E0EFE9F4E00C943D6169830A
:200940007A838B839C832D833E834F83588789E0E82EF12CEC0EFD1ECE010196B7010E94DA
:20096000A3088E010F5E1F4FCE010596B8010E94A308C701B801AE01475E5F4F0E944F037B
:200980000E94D507A096E6E00C945961A0E2B0E0ECECF4E00C943D6169837A838B839C8371
:2009A0002D833E834F8358878E01075F1F4FCE010196B8010E94A30891E1E92EF12CEC0EA6
:2009C000FD1ECE010596B7010E94A3088A8991E089278A8BC801B701AE01475E5F4F0E941F
:2009E0004F030E94D507A096E6E00C945961A0E2B0E0EDEFF4E00C94316169837A838B83E6
:200A00009C832D833E834F835887CE010196BE01675F7F4F0E94A308CE010596BE016F5E99
:200A20007F4F0E94A3089985923078F089898230C0F0943019F4823041F4CBC0843019F4DB
:200A4000923079F4C6C0923051F481E02A859A89291709F480E08A87CE010996BCC082305D
:200A600051F481E02A859A89291709F480E08A8BCE014196B0C06D847E848F849888ED889B
:200A8000FE880F89188DE0E2F0E080E090E0DC01AA24BB24650120E030E0A901B301617002
:200AA000707061157105D1F02E0D3F1D401F511F15012601280E391E4A1E5B1E81E090E0C7
:200AC000A0E0B0E02E153F054007510718F080E090E0DC01820D931DA41DB51DAA0CBB1CCC
:200AE000CC1CDD1C17FF09C061E0262E312C412C512CA228B328C428D528319749F0EE0CD1
:200B0000FF1C001F111F9694879477946794C6CF6B897C89EB85FC856E0F7F1F6E5F7F4FEB
:200B20007C8F6B8F61E0EA857A89E71709F460E06A8F6B8D7C8D10C0FC01E170F070309783
:200B400029F056954795379527955068B695A795979587956F5F7F4FB7FDEECF0CC0880F36
:200B6000991FAA1FBB1F57FD8160220F331F441F551F615070408030E0E09E07E0E0AE07A0
:200B8000E0E4BE0760F36B8F7C8F6FE7E62EF12C012D112DE822F9220A231B2360E4E616B1
:200BA000F1040105110561F487FD0AC0211531054105510529F0805C9F4FAF4FBF4F807892
:200BC0008D8F9E8FAF8FB8A383E0898FCE01499602C08EE792E00E94D507A096E2E10C944A
:200BE0004D61A8E1B0E0E7EFF5E00C943D6169837A838B839C832D833E834F8358878E017E
:200C0000075F1F4FCE010196B8010E94A30881E1E82EF12CEC0EFD1ECE010596B7010E9426
:200C2000A3088985823040F08989823028F0C801B7010E940C0901C081E06896E6E00C947F
:200C40005961A8E1B0E0E7E2F6E00C943D6169837A838B839C832D833E834F8358878E011D
:200C6000075F1F4FCE010196B8010E94A30881E1E82EF12CEC0EFD1ECE010596B7010E94C6
:200C8000A3088985823040F08989823028F0C801B7010E940C0901C08FEF6896E6E00C9402
:200CA0005961A8E0B0E0E7E5F6E00C943D617B018C0183E08983D801C7018827B7FD8395EE
:200CC0009927AA27BB27282F8A83E114F1040105110519F482E0898337C08EE190E09C83C7
:200CE0008B83222389F080E0E81680E0F80680E0080780E8180769F110950095F094E094EA
:200D0000E11CF11C011D111DED82FE820F831887C801B7010E947B079C0121503040121612
:200D2000130694F4022E04C0EE0CFF1C001F111F0A94D2F7ED82FE820F8318878EE190E054
:200D4000821B930B9C838B83CE0101960E94D50704C060E070E080E09FEC2896E6E00C94E4
:200D60005961ACE0B0E0E7EBF6E00C94416169837A838B839C83CE010196BE016B5F7F4FE0
:200D80000E94A3088D81823081F1823070F1843021F48E81882369F10AC02F81388537FD79
:200DA00024C06E812F3131053CF0662311F120E030E040E050E821C08EE190E0821B930BB0
:200DC00029853A854B855C8504C056954795379527958A95D2F7662381F050954095309581
:200DE00021953F4F4F4F5F4F08C020E030E0A90104C02FEF3FEF4FEF5FE7B901CA012C9606
:200E0000E2E00C945D61A8E0B0E0E9E0F7E00C943B617B018C011A82611571058105910511
:200E200019F482E089835FC083E089838EE1C82ED12CDC82CB82ED82FE820F831887C801B3
:200E4000B7010E947B07FC013197F7FF3AC0AA27BB27AE1BBF0B21E030E040E050E00A2E22
:200E600004C0220F331F441F551F0A94D2F721503040404050402E213F214023512361E035
:200E800070E080E090E0211531054105510519F460E070E0CB0104C016950795F794E794B0
:200EA000AA95D2F7E62AF72A082B192BED82FE820F8318878EE190E08E1B9F0B9C838B8303
:200EC00012C0309781F00E2E04C0EE0CFF1C001F111F0A94D2F7ED82FE820F831887CE1A35
:200EE000DF0ADC82CB82CE0101960E94D5072896E8E00C945761AF92BF92CF92DF92EF92B7
:200F0000FF920F931F937B018C0180E0E81680E0F80681E0080780E0180758F4EFEFEE160A
:200F2000F1040105110509F090F480E090E0DC0117C0F0E0EF16F0E0FF06F0E00F07F1E03E
:200F40001F0750F480E190E0A0E0B0E009C088E090E0A0E0B0E004C088E190E0A0E0B0E0E8
:200F600020E230E040E050E0281B390B4A0B5B0B5701680104C0D694C794B794A7948A95DE
:200F8000D2F7D601C5018A579D4FFC018081281B310941095109C9011F910F91FF90EF90D7
:200FA000DF90CF90BF90AF900895EF92FF920F931F93CF93DF93FC01248135814681578107
:200FC00061818081823020F44061EFEFF0E0A3C0843009F49BC0823009F492C0211531053D
:200FE0004105510509F48FC00280F381E02D8FEFE238F8070CF05AC0C2E8DFEFCE1BDF0B0E
:20100000CA31D1056CF579018A010C2E04C016950795F794E7940A94D2F781E090E0A0E096
:20102000B0E00C2E04C0880F991FAA1FBB1F0A94D2F70197A109B10982239323A423B523D3
:2010400021E030E040E050E00097A105B10519F420E030E0A9012E293F29402B512B03C00C
:2010600020E030E0A901DA01C9018F779070A070B07080349105A105B10539F427FF09C019
:20108000205C3F4F4F4F5F4F04C0215C3F4F4F4F5F4FE1E0F0E0203080E0380780E04807B0
:2010A00080E4580728F5E0E0F0E022C0E038F1056CF5E158FF4FDA01C9018F779070A0702D
:2010C000B07080349105A105B10539F427FF09C0205C3F4F4F4F5F4F04C0215C3F4F4F4F6B
:2010E0005F4F57FF05C05695479537952795319687E056954795379527958A95D1F70BC0A9
:20110000E0E0F0E005C0E0E0F0E005C0EFEFF0E020E030E0A9018E2F879588278795942F56
:201120009F77679566276795E695E22EA92FA82BFE2FF62B622F732F8A2F9F2FCDB7DEB7BD
:20114000E6E00C945961DC01FB012C9111963C91119712968C911297482F4F7750E0982F1B
:20116000991F9927991F13966C911397862F880F892B90E0661F6627661F6183009739F53F
:20118000211531054105510511F482E029C082E89FEF9383828367E0220F331F441F551F43
:2011A0006A95D1F783E0808309C0220F331F441F551F82819381019793838283203080E065
:2011C000380780E0480780E4580778F320C08F3F910579F4211531054105510519F484E0C9
:2011E0008083089544FF03C081E0808310C010820EC08F5790409383828383E0808387E017
:20120000220F331F441F551F8A95D1F7506424833583468357830895FC01DB01908192308E
:2012200008F449C08C91823008F445C0943051F461818430B1F511962C91119730E0261B37
:20124000310941C0843021F0923041F48230B1F111968C9111978823A1F12DC06181823019
:2012600001F111968C9111976817D9F42281338112968D919C9113978217930794F02817DA
:201280003907BCF0248135814681578114968D919D910D90BC91A02D82179307A407B50721
:2012A00018F4662341F00DC0281739074A075B0728F4662331F021E030E005C020E030E0BD
:2012C00002C02FEF3FEFC901089510925C05E4E0F1E080818F718083E5E0F1E080818F7166
:2012E000808308950F931F93FC018181882359F51091030140915C05141719F1412720E08E
:2013000030E050E0812F90E001E0DA01022E02C0B595A7950A94E2F7A0FF0EC0DC01022E48
:2013200002C0B595A7950A94E2F7A0FD05C06181662311F4208301832F5F3F4F253031054E
:2013400021F710935C051F910F910895FC01DB01F8948181908111827894882321F09C9382
:2013600011961C92119708958FE180935C05089580915F0790916007009729F481E080932B
:20138000660780E00895809161079091620720915D0730915E07B9010E94CD60E091630741
:2013A000F0916407E80FF91F80916107909162070196B9010E94CD60909362078093610708
:2013C00080915F079091600701979093600780935F0780810895462FFC0162816F700E94FF
:2013E000A7420895F89480915F079091600720915D0730915E07281B390B7894C9010895A7
:2014000080936807089580916807089520915F073091600781E02115310509F080E008958E
:201420000E94B80908951F930E94B809182F0E94B809982F812F1F9108951F93DF93CF93A3
:2014400000D0CDB7DEB70E94B8098A830E94B80989830E94B809182F0E94B809982F6A8105
:201460007981812F0F900F90CF91DF911F9108951092600710925F07109262071092610741
:20148000109265071092660710926A0710926907089581E02091690730916A07263031052D
:2014A00009F080E00895EF92FF920F931F93DF93CF93CDB7DEB728970FB6F894DEBF0FBE69
:2014C000CDBF0E94B80988870E94B8098F830E94B8099F812885993009F4A4C09A3090F4F1
:2014E000953009F49FC0963030F49330F1F0943009F09FC097C0973009F497C0983008F0EF
:2015000091C093C09C3061F19D3038F49A3009F453C09B3009F08DC06CC09731D1F09F31A0
:20152000F1F19D3009F085C02FC0213019F0222331F009C09FE1E92E99E0F92E04C08BEBD5
:20154000E82E88E0F82E0E94130ABC01C701409630C08091680791E089278093680767C093
:20156000213019F0222321F005C00FE119E002C00BEB18E00E94100A682F70E06170707009
:20158000C8010E94EB1553C00E94100A682F70E06170707081E198E00E94682548C081E106
:2015A00098E061E00E9463250E94130ABC018DE49BE00E9440453BC08091A40F9091A50F25
:2015C0009A8389838B81807F81608B83CE01019661E00E94EB090E94B80921E030E0309374
:2015E0006A0720936907682F70E06170707084E016C08091A40F9091A50F9D838C838E81AE
:20160000807F81608E83CE01049661E00E94EB090E94B809682F70E06170707083E00E9499
:201620005D3005C00E94B80902C00E941D0A81E001C080E028960FB6F894DEBF0FBECDBFE3
:20164000CF91DF911F910F91FF90EF900895FC01462F828193812081318182179307A0F41C
:201660006281738184819581860F971FB9010E94CD60A681B781A80FB91F4C9382819381C0
:20168000019693838283089581E080870895682F8DE597E00E94270B08952F923F924F9292
:2016A0005F926F927F928F929F92AF92BF92CF92DF92EF92FF920F931F93DF93CF93CDB7B3
:2016C000DEB7C55AD0400FB6F894DEBF0FBECDBF0E94742A882309F180915F07909160071B
:2016E00020915D0730915E072817390709F457C50E94B42A882309F452C50E94B72A682FBE
:201700008DE597E00E94270BE7CF80915F0790916007009711F40E94C62A809168078823FE
:2017200009F043C58091690790916A078330910581F40E948B2D882341F085E797E00E941C
:20174000495F882331F00E94E72D10926A07109269078091690790916A078130910541F4AB
:201760000E948B2D882321F410926A07109269078091690790916A078230910551F48BE619
:2017800097E00E94495F882321F010926A07109269078091690790916A0784309105E1F475
:2017A0008FE797E00E94495F882391F480916707813019F0882321F005C00FE119E002C05D
:2017C0000BEB18E0C80140960E944445882321F010926A07109269078091690790916A075D
:2017E0008530910581F48FE797E00E94495F882331F48DE49BE00E944445882321F01092AD
:201800006A07109269078091690790916A0786309105D1F489E897E00E94495F882351F003
:201820008091940780FF0CC081E198E061E00E94FF220AC088E999E00E94DD48882321F09C
:2018400010926A07109269078091690790916A07009709F0AAC480915F07909160070097BC
:2018600009F4A3C481E198E00E942922809161079091620720915D0730915E07E091630724
:20188000F0916407B9010E94CD608E0F9F1FDC010C910138F1F580915F079091600781312E
:2018A000910508F482C40E94B80981E090E090936A07809369070E941D0A6B017C010E94B1
:2018C0001D0A1B012C010E941D0A3B014C010E941D0AC556DF4F688379838A839B83CB59FE
:2018E000D0401FE0A12EB12CAC0EBD1EC501B701A60192018101740163010E94F727C501FF
:20190000C556DF4F488159816A817B81CB59D04074C00B3809F074C080915F07909160071D
:201920008931910508F441C40E94B80981E090E090936A07809369070E941D0A4B015C0199
:201940000E941D0A8B019C01CC55DF4F2883C45AD040CB55DF4F3883C55AD0400E941D0A6C
:201960001B012C010E941D0AC556DF4F688379838A839B83CB59D0400E941D0A6B017C0114
:201980000E941D0AC156DF4F688379838A839B83CF59D04000D000D0B3E26B2E712C6C0E0A
:2019A0007D1EEDB7FEB7C182D282E382F482C301B501A401CC55DF4F2881C45AD040CB555C
:2019C000DF4F3881C55AD04072016101C556DF4F88809980AA80BB80CB59D0400E94C3278D
:2019E0000F900F900F900F90C301C156DF4F488159816A817B81CF59D0400E946C2ED5C3CC
:201A00000E3809F082C080915F07909160078A31910508F4CAC30E94B80981E090E0909315
:201A20006A07809369070E941D0A4B015C010E941D0A8B019C01CC55DF4F2883C45AD04026
:201A4000CB55DF4F3883C55AD0400E941D0A1B012C010E941D0AC556DF4F688379838A8336
:201A60009B83CB59D0400E941D0A6B017C010E941D0AC156DF4F688379838A839B83CF591A
:201A8000D0400E94100ACD55DF4F8883C35AD04000D000D0A7E36A2E712C6C0E7D1EADB71A
:201AA000BEB71196CD92DD92ED92FC921497C301B501A401CC55DF4F2881C45AD040CB551F
:201AC000DF4F3881C55AD04072016101C556DF4F88809980AA80BB80CB59D0400E94C3278C
:201AE0000F900F900F900F90C301C156DF4F488159816A817B81CF59D040CD55DF4F2881A6
:201B0000C35AD0400E94342F50C3063879F480915F07909160078230910508F446C30E94E7
:201B2000B8090E94B809809367073FC3093839F580915F07909160078230910508F435C354
:201B40000E94B8090E94B809A82EAA1CAA24AA1C00E010E0C82EDD24C601002E02C09595E7
:201B600087950A94E2F780FF04C0802F6A2D0E945D300F5F1F4F0530110571F716C3023878
:201B800021F580915F07909160078D30910508F40CC30E94B8090E941D0A3B014C010E94BB
:201BA0001D0A1B012C010E941D0A6B017C01FBE4AF2EB12CAC0EBD1EC501B401A301920123
:201BC00081010E94F727C50148C00C3809F048C080915F07909160078531910508F4E5C2C2
:201BE0000E94B8090E941D0A6B017C010E941D0A1B012C010E941D0A4B015C010E941D0A83
:201C0000C556DF4F688379838A839B83CB59D0400E941D0A00D000D0EFE56E2E712C6C0E45
:201C20007D1EEDB7FEB76183728383839483C301B701A6019201810175016401C556DF4F5E
:201C400088809980AA80BB80CB59D0400E94C3270F900F900F900F90C3010E94EC2DA5C2DC
:201C60000538E9F480915F07909160078530910508F49BC282E090E090936A0780936907BE
:201C80000E94B8090E941D0A28EE33E040E050E00E94AE60AB01BC018BE697E0EDC00439B4
:201CA00009F043C080915F07909160078530910508F47BC20E94B8090E94B8098093930732
:201CC0000E94130A8C010E94B809809394070115110581F0B80180E090E020E432E44FE038
:201CE00050E00E94AE60AB01BC0189E897E00E942C5F0EC08E010B5F1F4FC8010E94285F5F
:201D0000A9E8B7E0F8018AE001900D928150E1F788E999E0609193070E94DA4886E090E050
:201D200090936A078093690740C2053909F047C080915F07909160078630910508F435C20E
:201D40000E94B8090E94B809C82E0E94B809882E0E94B809A82E0E94B809082FC0FC04C05B
:201D600088ED9AE00E94D8538092DA0AA092DB0A41E0C1FE40E088ED9AE06DE577E00E9460
:201D80007657002329F088ED9AE0602F0E941454E091AC09FF27E7FDF095EE0FFF1FEE559F
:201DA000F64F80819181FAE0883D9F0709F4FDC188E999E068ED7AE00E942747F6C1802FBC
:201DC0008358823090F580915F07909160078830910508F4EAC10E94B8090E94100AA82E08
:201DE0000E941D0A6B017C010E94130A23E030E030936A0720936907BC0180E090E020E477
:201E000032E44FE050E00E94AE60AB01BC0185E797E00E942C5F81E0043809F080E06A2D97
:201E2000A70196010E94EC2FC0C1073841F580915F07909160078630910508F4B6C184E08E
:201E400090E090936A07809369070E94B8090E94B809809367070E94130A0E94130ABC0179
:201E600080E090E020E432E44FE050E00E94AE60AB01BC018FE797E00E942C5F96C10D384A
:201E800099F480915F07909160078630910508F48CC185E090E090936A07809369070E9493
:201EA000B8090E94B809D7CF0F3809F047C080915F07909160078230910508F476C10E94F5
:201EC000B8090E94100A5EE0A52EB12C00E010E0882E992443E7642E712C6C0E7D1E6E0177
:201EE0000894C11CD11CC401002E02C0959587950A94E2F780FF18C0C3010E94172EC30144
:201F0000B8010E941928FC0180819181A281B38189839A83AB83BC83F894C601B50144E0FB
:201F200050E00E943C6278940F5F1F4F84E090E0A80EB91E05301105B1F637C1003909F0CC
:201F40003FC080915F07909160078230910508F42CC10E94B8090E94100AC82E37E8A32E4D
:201F6000B12CAC0EBD1EC5010E94172E2EE0622E712C00E010E0DD248A2CAB2CC601002EB4
:201F800002C0959587950A94E2F780FF0CC0F894882D9A2DB8010E942128B30144E050E0C3
:201FA0000E94266278940F5F1F4FA4E0B0E06A0E7B1E0530110511F7CE0189579F4F4DCEDF
:201FC0000139A1F480915F07909160078230910508F4EBC00E94B8090E94100A082F0E944C
:201FE000100A682F802F0E946F30DFC0023959F580915F07909160078230910508F4D5C040
:202000000E94B8090E94100AC82E0E94100AA82E0E94100ACC55DF4F8883C45AD0400E9433
:20202000100A082F0E94100A8C2DCC55DF4F6881C45AD040402F0E94A6288C2D6A2D402FD6
:202040000E944528B2C0033909F580915F07909160078230910508F4A8C00E94B8090E9415
:20206000130A082F0E94130ACC55DF4F8883C45AD0400E94100A802F90E0CC55DF4F6881B2
:20208000C45AD04070E00E94D5258FC0083819F580915F07909160078430910508F485C0FF
:2020A000809161079091620700915F07109160070396B9010E94CD608E0F9F1FFC018081A3
:2020C00090E004960817190708F46FC00E94B8090E94530A6AC0063999F480915F0790919C
:2020E00060078230910508F460C00E94B8090E94100A082F0E94100A802F0E94864655C0D1
:202100000739C9F480915F07909160078230910508F44BC00E94B8090E94100A882311F4A5
:2021200084E006C0813019F40E94A9263EC082E00E948A263AC0083991F480915F0790913C
:202140006007009791F10E94B8090E94100A0E94A31481E198E060E00E94FF2226C0093982
:2021600079F480915F07909160070097F1F00E94B8090E941D0A8DE597E00E94E81D15C0EA
:202180000A3999F480915F0790916007009769F00E94B8090E94B8090E94901906C00E9407
:2021A000B42A882309F4B1CAB8CACB55DF4F0FB6F894DEBF0FBECDBFCF91DF911F910F91E7
:2021C000FF90EF90DF90CF90BF90AF909F908F907F906F905F904F903F902F90089580E0E0
:2021E00092E090935E0780935D071092600710925F0710926207109261078DE595E090933E
:2022000064078093630710926507109266078BE697E00E94285F85E797E00E94285F8FE726
:2022200097E00E94285F89E897E00E94285F0895462FFC0162816F700E9485420895FC0119
:2022400062816F700E949A420895DF93CF9300D000D000D0CDB7DEB78091AE0F9091AF0F97
:202260009A8389838B81807F8B83CE0101960E941F11882379F48091AC0F9091AD0F9D8303
:202280008C838E81807F84608E83CE0104960E941F1101C081E026960FB6F894DEBF0FBE58
:2022A000CDBFCF91DF9108950F931F93DF93CF93CDB7DEB72C970FB6F894DEBF0FBECDBFDA
:2022C0008C018091AE0F9091AF0F9A8389838B81807F8B83CE0101960E941F11882391F519
:2022E0008091AE0F9091AF0F9D838C838E81807F81608E83CE01049661E00E94EB098091B1
:20230000AC0F9091AD0F98878F838985807F84608987CE0107960E941F11882321F0C80130
:202320000E94AD110FC08091AE0F9091AF0F9B878A878C85807F81608C87CE010A9660E0DB
:202340000E94EB092C960FB6F894DEBF0FBECDBFCF91DF911F910F9108950F931F93DF935B
:20236000CF93CDB7DEB72C970FB6F894DEBF0FBECDBF8C018091AE0F9091AF0F9A83898375
:202380008B81807F8B83CE01019660E00E94EB098091AE0F9091AF0F9D838C838E81807FFE
:2023A0008E83CE01049661E00E941811F80110828091AC0F9091AD0F98878F838985807F25
:2023C00084608987CE0107960E941F11882319F0C8010E9454118091AE0F9091AF0F9B8778
:2023E0008A878C85807F81608C87CE010A9660E00E94EB092C960FB6F894DEBF0FBECDBF7A
:20240000CF91DF911F910F9108950F931F93DF93CF93CDB7DEB72C970FB6F894DEBF0FBE40
:20242000CDBF8C018091AE0F9091AF0F9A8389838B81807F8B83CE01019660E00E94EB0958
:202440008091AE0F9091AF0F9D838C838E81807F8E83CE01049660E00E94181181E0F801B3
:2024600080838091AC0F9091AD0F98878F838985807F84608987CE0107960E941F11882395
:2024800019F0C8010E9454118091AE0F9091AF0F9B878A878C85807F81608C87CE010A9610
:2024A00060E00E94EB092C960FB6F894DEBF0FBECDBFCF91DF911F910F9108950F931F932C
:2024C000DF93CF93CDB7DEB72C970FB6F894DEBF0FBECDBF8C018091AE0F9091AF0F9A83AE
:2024E00089838B81807F81608B83CE01019660E00E94EB098091AE0F9091AF0F9D838C83BE
:202500008E81807F81608E83CE01049661E00E9418118091AC0F9091AD0F98878F8389855E
:20252000807F84608987CE01079660E00E94EB098091AC0F9091AD0F9B878A878C85807F7A
:2025400084608C87CE010A9660E00E941811C8010E940512F8011182128213822C960FB64C
:20256000F894DEBF0FBECDBFCF91DF911F910F910895CF93DF93EC018B81882329F485E022
:202580000E948A2681E08B83DF91CF9108950F931F93DF93CF9300D00F92CDB7DEB78C01CE
:2025A000FC018281853128F0C8010E94B91280E024C08091AE0F9091AF0F9A8389838B81F1
:2025C000807F8B83CE0101960E941F11882331F0F801118282818F5F82830EC0F80181819F
:2025E000863028F0C8010E945411F8011182F80181818F5F8183128281E00F900F900F90F2
:20260000CF91DF911F910F910895CF92DF92EF92FF920F931F93CF93DF93EC018B0188816F
:20262000882309F463C07E01DC2ECF2CCE0160E00E94A559982F9077903709F057C0803740
:20264000C9F4C8010E94C55981E0E82EF12C0CC08D2D9C2D6E2D0E94A559682FC8010E9414
:20266000055A0894E11CF11C288130E0E216F3067CF30CC08137D1F18237C1F1843741F49B
:202680000E94380AC80161E80E94055A81E02FC08637A1F4CE0161E00E94A559E82ECE010C
:2026A00062E00E94A559682FEE2029F481E198E070E00E945C22C80161E816C08737B1F4E1
:2026C000CE0161E00E94A559E82EC80161E80E94055AEE2039F481E198E00E943924682F76
:2026E000C80102C0C80160E00E94055A80E0DF91CF911F910F91FF90EF90DF90CF9008954C
:2027000085E997E00E94BD590895DF93CF9300D0CDB7DEB7BC0181E0898382E38A83CE0157
:20272000019642E050E00E943C620F900F90CF91DF910895CF93DF93EC0140E050E060EE66
:2027400070E40E942744CE01029646E656E666EA7EE30E942744CE01049640E050E060E191
:2027600072E40E942744DF91CF9108950F931F93CF93DF93EB018B01085E1F4F009719F471
:20278000CB0167E002C0CB0168E30E944662C80162E30E944662CE010A960E949A13CE011E
:2027A00040960E949A13CE014A960E948513CE01069664EF71E00E945C62CE01029665E0F0
:2027C00070E00E945C62CE01049664EF71E00E945C62CE0108966CE271E00E945C62DF9100
:2027E000CF911F910F910895CF93DF93EC0140EA56E861E070E00E945462CE01049649E1E7
:2028000050E060E070E00E945462CE01089643EE5FE060E070E00E945462BE01605F7F4F8F
:202820008FE795E040E550E00E943C62DF91CF910895DF92EF92FF920F931F93DF93CF9300
:2028400000D00F92CDB7DEB78C01DE011196E3EAF3E083E001900D928150E1F77E010894E4
:20286000E11CF11CC701B80143E050E00E943C62DD24DA94D9821B821A82B8016D5F7F4FE4
:20288000C70143E050E00E943C621982DB82DA82B8016A5F7F4FC70143E050E00E943C62DE
:2028A0000F900F900F90CF91DF911F910F91FF90EF90DF900895EF92FF920F931F93CF9339
:2028C000DF937B018C01EA01CA01B7010E945C62CE010496B8010E945C62DF91CF911F91AD
:2028E0000F91FF90EF900895EF92FF920F931F93CF93DF93EC012BE7E22EF12C24EF022FE3
:2029000021E0122FC801B701AE010E945B149AE5E92E90E1F92EAE014C5F5F4FC801B7017D
:202920000E945B148FE1E82EF12CAE01485F5F4FC801B7010E945B14DF91CF911F910F912D
:20294000FF90EF900895DF93CF93CDB7DEB76D970FB6F894DEBF0FBECDBFDE011596EEE933
:20296000F3E085E001900D928150E1F781EC93E29A83898384E193ED9C838B8380E092E057
:2029800062E270E044E150E00E943C62CE01059666E070E045E050E00E943C6282E090E0A7
:2029A0006CE00E94466284E090E06FE90E9446628CE090E06BE10E944662DE011A96EAE838
:2029C000F3E084E101900D928150E1F782E490E061E00E94AA43882341F085EE9BE2A0E0F4
:2029E000B0E08A879B87AC87BD87CE010A966EE070E044E150E00E943C6284E790E00E947E
:202A0000F413CE01019664E470E044E050E00E943C6280E090E060E071E00E94B61381E0F0
:202A200090E06CE171E00E94B61380E491E00E9419148AE491E00E9474146D960FB6F8941C
:202A4000DEBF0FBECDBFCF91DF91089582E490E061E00E9446620E94A31408955F926F92CA
:202A60007F928F929F92AF92BF92CF92DF92EF92FF920F931F93DF93CF93CDB7DEB72F9776
:202A80000FB6F894DEBF0FBECDBF3C01562E2F8338874987EA86FB860C87AD86BE86CF869D
:202AA0008091A80F9091A90F9A8389832B81207F22602B839D838C838E81807F85608E839E
:202AC000C301BE01635F7F4FAE014F5F5F4F9E012C5F3F4F0E94055F8AEA93E0F301968722
:202AE0008587578690E1C92ED12CC60CD71CA301435F5F4F8AE0E82EF12CE80CF91CC60162
:202B0000B30100E211EA27E030E00E941045D301AC5ABF4FFE01379683E001900D928150FE
:202B2000E1F7F301E95AFF4F5082A401465E5F4FC301885A9F4FB6010A851B852C850E94A2
:202B40005943F301EE59FF4F918280822F960FB6F894DEBF0FBECDBFCF91DF911F910F910F
:202B6000FF90EF90DF90CF90BF90AF909F908F907F906F905F9008950F931F93CF93DF93DB
:202B8000EC018C010C5A1F4FC80160E00E94EB09C80161E00E941811CE0140960E94624486
:202BA000CE010E946C5ECE01885A9F4F0E942F43DF91CF911F910F910895CF93DF93EC01A9
:202BC00040960E948845CE01885A9F4F0E940D43DF91CF910895885A9F4F662319F00E94AE
:202BE000FF4208950E942A430895882321F080918000806803C0809180008F73809380002D
:202C00000895882321F08091A000806803C08091A0008F738093A00008950F931F93DF9336
:202C2000CF9300D000D000D0CDB7DEB7062F1FB7F894FC018281882309F5862F81508E3F16
:202C4000A0F080E00E9401168091AE0F9091AF0F9A8389838B81807F83608B8361E00F3F6A
:202C600009F060E0CE01019622C070E07093A9006093A80081E00E94011624C0813011F587
:202C8000862F81508E3FB0F080E00E94F5158091A20F9091A30F9D838C838E81807F85607E
:202CA0008E8361E00F3F09F060E0CE0104960E94EB0908C070E0709389006093880081E0BC
:202CC0000E94F5151FBF26960FB6F894DEBF0FBECDBFCF91DF911F910F910895CF93DF93D6
:202CE000EC010E94030A91E089270E94000ACE0161E80E94055ADF91CF910895FC0183A1C4
:202D000094A1009741F023A134A181E02430310519F480E0089580E00895CF92DF92EF92D8
:202D2000FF920F931F93CF93DF93EC018B0188818823D1F17E01DC2ECF2CCE0160E00E94B6
:202D4000A55987FF31C00E94772A882321F0CE010E947A2A04C00E94742A882329F0C80159
:202D600061E80E94055A1EC0F894E8800E94F209FF248E159F0588F0C0E0D0E008C08D2DE6
:202D80009C2D6C2F0E94A5590E94470B2196CE15DF05ACF3C80161E802C0C80162E80E9495
:202DA000055A789481E001C080E0DF91CF911F910F91FF90EF90DF90CF900895CF93DF93B9
:202DC000EB0161E00E94AA598A31910540F4CE0161E80E94055ACE0160E070E007C0CE018E
:202DE00061E80E94055ACE0163E971E00E94085ADF91CF9108959F92AF92BF92CF92DF9217
:202E0000EF92FF920F931F93DF93CF93CDB7DEB765970FB6F894DEBF0FBECDBF6B01F89424
:202E20008E010F5F1F4FC8010E94172EC60161E80E94055AC80160E070E00E941928FC012D
:202E40004081518162817381C6010E941E5AC80161E070E00E941928FC0140815181628177
:202E60007381C6010E941E5AC80162E070E00E941928FC014081518162817381C6010E946F
:202E80001E5A02E010E060E08DE1A82EB12C0A9D70010B9DF00C1A9DF00C112481E198E009
:202EA000E80EF91E962E990C990CC7010E94265C882311F022E001C020E0C7012D8B0E947A
:202EC000425C2D89622F6929682B015010409FEF0F3F1907E1F6C6010E94055A78946596A5
:202EE0000FB6F894DEBF0FBECDBFCF91DF911F910F91FF90EF90DF90CF90BF90AF909F90D2
:202F000008959F92AF92BF92CF92DF92EF92FF920F931F93DF93CF93CDB7DEB765970FB66B
:202F2000F894DEBF0FBECDBF8B01F8947E010894E11CF11CC7010E94172EC80161E80E946F
:202F4000055AC70160E070E00E941928FC014081518162817381C8010E941E5AC70161E084
:202F600070E00E941928FC014081518162817381C8010E941E5AC70162E070E00E94192897
:202F8000FC014081518162817381C8010E941E5AC70163E070E00E941928FC014081518119
:202FA00062817381C8010E941E5AC70164E070E00E941928FC014081518162817381C801E8
:202FC0000E941E5A24E0C22ED12C60E09DE1A92EB12CCA9C7001CB9CF00CDA9CF00C112493
:202FE00081E198E0E80EF91E962E990C990CC7010E94265C882311F022E001C020E0C701B9
:203000002D8B0E94425C2D89622F6929682B0894C108D1089FEFC9169FEFD906D1F6C801A4
:2030200070E00E94085A789465960FB6F894DEBF0FBECDBFCF91DF911F910F91FF90EF90C0
:20304000DF90CF90BF90AF909F9008950F931F93CF93DF93EB018C010D5F1F4FCB0161E8B8
:203060000E94055AC8010E94932B682FCE010E94055ADF91CF911F910F910895CF92DF9230
:20308000EF92FF920F931F93DF93CF93CDB7DEB76F970FB6F894DEBF0FBECDBF7C018B0187
:2030A000CB0161E80E94055AC70161E00E94A559882349F00E94D62BBC01009721F0C8019C
:2030C0000E94055A2AC07E010894E11CF11CC7016FE140E050E00E947B29BC0189818823C0
:2030E00029F06115710511F48E3289F3C8010E94055A7E010894E11CF11C30E2C32ED12C9B
:20310000CC0EDD1EF70161917F01662331F0C8010E94055AEC14FD04A9F7C80160E00E94B0
:20312000055A6F960FB6F894DEBF0FBECDBFCF91DF911F910F91FF90EF90DF90CF9008954B
:203140008F929F92AF92BF92CF92DF92EF92FF920F931F93DF93CF93CDB7DEB7A82EE92E79
:203160006B018DB69EB661E00E94AA598C018A2D9E2D63E00E94A559482FA82EBB248DB704
:203180009EB78A199B090FB6F8949EBF0FBE8DBFEDB6FEB60894E11CF11CC701B80150E01E
:2031A0000E942662C60161E80E94055A00E010E008C0F70161917F01C6010E94055A0F5F9C
:2031C0001F4F0A151B05ACF30FB6F8949EBE0FBE8DBECF91DF911F910F91FF90EF90DF9041
:2031E000CF90BF90AF909F908F9008952F923F924F925F926F927F928F929F92AF92BF929D
:20320000CF92DF92EF92FF920F931F93DF93CF930F92CDB7DEB7C82EB92E4B012DB63EB6E8
:2032200061E00E94AA59A82E792E8C2D9B2D63E00E94A559D82E482E55248DB79EB784199C
:2032400095090FB6F8949EBF0FBE8DBF0DB71EB70F5F1F4F602E1983C8016A2D772D4D2DEC
:2032600050E00E942662E02EF12E00E010E00BC0602F6C5F8C2D9B2D0E94A559F7018193A5
:203280007F010F5F1F4F0415150594F3862D99816A2D772D4D2D50E00E943C62C40161E818
:2032A0000E94055AC4016D2D0E94055A0FB6F8943EBE0FBE2DBE0F90CF91DF911F910F91E9
:2032C000FF90EF90DF90CF90BF90AF909F908F907F906F905F904F903F902F9008950F938D
:2032E0001F93CF93DF93EB0161E00E94A559082F80FF02C00E94E72D01FF02C00E94380AA7
:2033000081E080931008CE0161E80E94055ACE0160E00E94055ADF91CF911F910F9108953B
:2033200010920F0810920E0808950F931F93CF93DF938091CF07882379F40FEC17E0C2E2C2
:20334000D0E0CE0160E00E94AA43F80181938F012196C234D105A9F78091CF07882369F470
:20336000AFECB7E080E090E0FC01EC59FE4FE491ED9301968E309105B9F78FEC97E0DF91CA
:20338000CF911F910F9108958FEE97E0089580910E0890910F0808958FEE97E00E945F2B33
:2033A0009C01009731F482E090E090930F0880930E08C9010895CF92DF92EF92FF920F9392
:2033C0001F93CF93DF936C017B01CB0161E80E94055A0FEE17E0C1E0D0E008C0C6016C2FF9
:2033E0000E94A559F80181938F012196F601808190E0C817D90794F310920D080E94CC19ED
:20340000682FC7010E94055ADF91CF911F910F91FF90EF90DF90CF90089580910E0890916B
:203420000F088130910571F484E090E090930F0880930E0885EC97E040E452E46FE070E0B1
:203440000E942C5F81E08093100808952F923F924F925F927F928F929F92AF92BF92CF925C
:20346000DF92EF92FF920F931F93DF93CF93CDB7DEB72C970FB6F894DEBF0FBECDBF8C01F1
:203480007C876B87FC018081882309F4A9C1702E812EC80161E00E94A559982EC80162E05F
:2034A0000E94A559E82FF0E0E632F10508F098C1EE58FF4FEE0FFF1F0590F491E02D0994B3
:2034C0008B859C8561E80E94055A8B859C8563E971E083C18B859C8561E80E94055A0FE0F5
:2034E00012E0F801E1908F018B859C856E2D0E94055AEE2009F476C1F2E00E321F0789F719
:2035000071C181E08093100830C08B859C8561E80E94055A892D813019F0992031F009C06F
:203520000FE1E02E09E0F02E04C01BEBE12E18E0F12EC701409676C0992D913019F0992079
:2035400031F009C0BFE1CB2EB9E0DB2E04C0ABEBCA2EA8E0DA2E872D982D62E00E94AA5904
:20356000BC01C60140960E9440458B859C8561E8C8C0C8016B857C850E94A01833C1C801F7
:203580006B857C850E94F6182DC18B859C850E946E1628C1E92DE13019F0992031F009C089
:2035A000FFE1AF2EF9E0BF2E04C0EBEBAE2EE8E0BE2E872D982D62E00E94A559682F70E01C
:2035C00061707070C5010E94EB15CFCF802F912F63E00E94A559682F70E06170707081E1E8
:2035E00098E00E946825FEC08B859C8561E80E94055AF92DF13019F0992031F009C07FE198
:20360000472E79E0572E04C06BEB462E68E0562EC201409632C08B859C8561E80E94055AF7
:203620008DE49BE00E945E45D5C08B859C8561E80E94055A892D813019F0992031F009C036
:203640005FE1252E59E0352E04C04BEB242E48E0342EC101409607C08B859C8561E80E94EA
:20366000055A8DE49BE00E945A45B4C08B859C8561E80E94055A8DE49BE00E944445682F21
:203680003EC08B859C8561E80E94055A992D913019F0992031F009C0EFE1F9E0FA83E983EC
:2036A00004C08BEB98E09A83898389819A8140960E942D46882311F000E801C000E08DE479
:2036C0009BE00E942D46882311F080E401C080E0082B992D913019F0992031F009C0EFE1F3
:2036E000F9E0FC83EB8304C08BEB98E09C838B838B819C8140960E944445602F682B8B85C9
:203700009C850E94055A6EC08B859C8561E80E94055A992D913019F0992031F009C0EFE1DB
:20372000F9E0FE83ED8304C08BEB98E09E838D838D819E8140960E946645BC018B859C859E
:203740000E94085A992D913019F0992031F009C0EFE1F9E0F887EF8304C08BEB98E09887C7
:203760008F838F81988540960E946A45BC018B859C850E94085A992D913019F0992031F087
:2037800009C0EFE1F9E0FA87E98704C08BEB98E09A87898789859A8540960E946E45BC01CE
:2037A0008B859C850E94085A8DE49BE00E946645BC018B859C850E94085A8DE49BE00E941B
:2037C0006A45BC018B859C850E94085A8DE49BE00E946E45BC018B859C850E94085A02C053
:2037E00080E001C081E02C960FB6F894DEBF0FBECDBFCF91DF911F910F91FF90EF90DF90A1
:20380000CF90BF90AF909F908F907F905F904F903F902F900895EF92FF920F931F93CF939D
:20382000DF938C01EB01FC018081882309F4C6C0C80160E00E94A55987FDC0C0E82FF0E0DD
:20384000EA31F10508F0BAC0E856FF4FEE0FFF1F0590F491E02D0994C801BE010E94DE165C
:20386000AFC0CE0161E80E94055A8FEEE82E87E0F82E8701CE01F70161917F010E94055ADE
:20388000F8018081882309F49BC0FEE0EF16F8E0FF0679F795C080910E0890910F080197AF
:2038A0008230910530F481E198E060E070E00E945C2281E080931008CE0161E80E94055A6D
:2038C0007FC0CE0161E80E94055A0E94F209AC0160E070E017C0C801BE010E94FB1670C074
:2038E000C801BE010E9481176BC0C801BE010E94261866C0CE0161E80E94055A0E94082B5F
:20390000AB01BC01CE0157C0C801BE010E94DB1957C0C801BE010E943E1852C0CE010E9420
:203920006E164EC0C801BE010E94261A49C0CE0161E80E94055AF8940E948B2D882321F4C3
:203940000E94060A882311F460E001C061E0CE010E94055A789434C0C801BE010E94A01811
:203960002FC0C801BE010E94F6182AC0C801BE010E946F1925C0CE0161E80E94055ACE01B7
:2039800040E050E0BA010E941E5ACE0140E050E0BA010E941E5ACE0140E050E0BA010E9492
:2039A0001E5ACE0140E050E0BA010E941E5ACE0140E050E0BA010E941E5A02C080E001C0C4
:2039C00081E0DF91CF911F910F91FF90EF9008950F931F93DF93CF93CDB7DEB72A970FB6F4
:2039E000F894DEBF0FBECDBF83EF9FE00E947E16882309F0BBC08091C507882309F4B4C006
:203A000085EC97E00E94495F882309F0ADC08E010F5F1F4FC8010E94285FA5ECB7E0F801E5
:203A20008AE001900D928150E1F78FEF99E6A8E181509040A040E1F700C0000001E08091B2
:203A40001008882381F0002371F41092100880E00E944C1E8BEB97E00E946C5F1092CF07B2
:203A60001092EF077CC08091F00F9091F10F009709F18091F00F9091F10F84309105D1F074
:203A80008091BB07882349F48BEB97E040E25EE460E070E00E942C5F0DC08BEB97E00E9401
:203AA000495F882339F08DEC9FE00E94425984E08093EF0F8091EF0F882361F08091EF0FC6
:203AC00081E198E060E070E00E945C228DEC9FE00E9450598091F00F9091F10F843091059E
:203AE00099F58BEB97E00E946C5F83EF9FE00E94C559002321F083EF9FE069E81BC08DEC63
:203B00009FE063EF7FE00E9405138823A9F48DEC9FE063EF7FE00E948D16882369F48DEC04
:203B20009FE063EF7FE00E940B1C882329F483EF9FE065E80E94055A8DEC9FE00E94505942
:203B400089EC9FE00E94CF5F80910E0890910F088230910559F40E94742A882339F41092F3
:203B60000F0810920E0802C000E069CF2A960FB6F894DEBF0FBECDBFCF91DF911F910F9175
:203B80000895CF93DF93FC0182819381009721F481E0818780E019C08481958120813181E4
:203BA000B9010E94CD60C681D781C80FD91F848195810196B9010E94CD60958384838281B1
:203BC00093810197938382838881DF91CF910895DF92EF92FF920F931F93DF93CF93CDB779
:203BE000DEB76F970FB6F894DEBF0FBECDBF7C0180910E0890910F0882309105F9F4DD24D1
:203C00008E010F5F1F4FC7010E94C11DF801ED0DF11D8083D394FE01ED0DF11D80818823D3
:203C200091F7C80168E172E00E94EE610097E9F08FEE97E0B8010E94F76117C000E0C70111
:203C40000E94C11DE02FF0E0E151F84F80830F5FE02FF0E0E251F84F8081882381F781E03D
:203C600090E090930F0880930E086F960FB6F894DEBF0FBECDBFCF91DF911F910F91FF9076
:203C8000EF90DF9008958BEB97E00E94285F85EC97E00E94285F0895DF93CF930F92CDB7DC
:203CA000DEB7682FF89484B78F7082FD03C0662359F001C061E088E10FB6F89480936000CF
:203CC000109260000FBE14BE69830E94D72A0E94E72D0E94380A0E947B430E94655E81E1F3
:203CE00098E069810E94FF2278940F90CF91DF91089581E198E00E94942D81E00E944C1EDD
:203D000078940E94E81C0E944D0B81E198E00E949222F7CFCF93DF93EC010E9475428A81DC
:203D2000807F8A83CE0103960E9475428D81807F8D83CE0106960E9475428885807F8887BA
:203D4000CE0109960E9475428B85807F8B87CE010C960E9475428E85807F8E87CE010F9616
:203D60000E9475428989807F898BDF91CF9108952F923F924F925F926F927F928F929F9290
:203D8000AF92BF92CF92DF92EF92FF920F931F93DF93CF93CDB7DEB7CC50D1400FB6F894EE
:203DA000DEBF0FBECDBF3C0100E010E0C301800F911F0E948A1E035E1F4F01391105B1F7EC
:203DC000C3018B569F4F0E94285FC30181569F4F0E94285F8091AE0F9091AF0F282F898365
:203DE0009A834B81407F43604B83E82E8C839D830E81007F04600E838091A80F9091A90FC1
:203E0000A82E8F8398875985507F53605987C30186559F4F60E03A81F32EB884C52E812CD6
:203E200071E0972E0E942E158091A20F9091A30F282F8A879B874C85407F45604C87E82E4A
:203E40008D879E870F85007F06600F878091A80F9091A90FA82E888B998B5A89507F546006
:203E60005A8BC301825F9E4F61E03B85F32EB988C52E5CE1852E51E0952E0E942E1514E7B1
:203E8000A12E11E0B12EA60CB71C8091A40F9091A50F482F8B8B9C8B6D89607F64606D8B20
:203EA000082F8E8B9F8B288D207F2360288FC82E898F9A8F3B8D307F32603B8FC5015C8945
:203EC000152FD52EE32E0E9440498091A40F9091A50F9D8F8C8F2E8D207F25602E8F98A3A8
:203EE0008F8F89A1807F866089A3B3016E587E4FB5EA8B2EB1E09B2E860C971CA3EB4A2E25
:203F0000A2E05A2E460C571CF7EC2F2EF2E03F2E260C371CC30189579E4FA5019E01245E76
:203F20003F4F8E01015E1F4F7401620151010E94B046C4010E94D055F301EF54FD4F8DE356
:203F400095E09183808387EB94E0F20191838083C3018B549D4F0E941C55C30182549D4FBD
:203F60000E941255F301EB53FD4F8FEF94E0918380838DEE94E0F10191838083F301E45E83
:203F8000FC4F1082C301825E9C4F0E94285FF301E553FD4F10828301085D1C4FC8016FE016
:203FA00040E00E94B45DA301465C5C4F80EB93E0FA0191838083C301845C9C4FB80100E520
:203FC00013EC20E030E0E0E1EE2EE1E0FE2E0E941045F301E058FC4F81E080838091AA0F6C
:203FE0009091AB0F9BA38AA32CA1207F2CA39EA38DA32FA1207F21602FA399A788A72AA5CF
:20400000207F22602AA72091B40F3091B50F3CA72BA74DA5407F41604DA73FA72EA728A92E
:20402000207F28AB9AAB89AB8BA9807F83608BABBCE78B2E912C8C0E9D1EC401BE016E5D8C
:204040007F4FAE014B5D5F4F9E01285D3F4F8E01055D1F4FAEE2EA2EF12CEC0EFD1EF1E3CE
:20406000CF2ED12CCC0EDD1EE2E0AE2EB12C0E94BB5BD301F4018DE101900D928150E1F72E
:204080008091AA0F9091AB0F9DAB8CAB2EA9207F24602EAB98AF8FAB29AD207F256029AFD6
:2040A0009BAF8AAF2CAD207F26602CAF2091B40F3091B50F3EAF2DAF4FAD407F43604FAF86
:2040C000DE01A05CBF4F11963C932E93FE01EE5BFF4F2081207F22602083FE01ED5BFF4F30
:2040E000918380838281807F8760828319E9812E912C8C0E9D1EC401BE016C5C7F4FAE012F
:20410000495C5F4F9E01265C3F4F8E01035C1F4F7D016F01E2E0AE2EB12C0E94BB5BD3014C
:204120005D96F4018DE101900D928150E1F7BE016A5B7F4F8091B20F9091B30FFB01918339
:2041400080832281207F2283AE01475B5F4FFA01918380832281207F216022832CE4A22E1C
:20416000B12CAC0EBD1EF501918380832281207F22602283DE01A15BBF4F2091B40F309139
:20418000B50F11963C932E9312960C911297007F076012960C93129702E5E02EF12CEC0E54
:2041A000FD1EF701318320832281207F2660228315E5C12ED12CCC0EDD1EF601918380835F
:2041C0008281807F83608283F6EB8F2E912C8C0E9D1EC40195018D01E2E0AE2EB12C0E943F
:2041E000BB5BD301DA96F4018DE101900D928150E1F78E01085A1F4F8091A00F9091A10F39
:20420000F801918380832281207F226022833BE5E32EF12CEC0EFD1EF70191838083228110
:20422000207F236022832EE5C22ED12CCC0EDD1EF601918380838281807F8460828381E682
:20424000A82EB12CAC0EBD1EC5010E947542F5018281807F8283B4E68B2E912C8C0E9D1E95
:20426000C4010E947542F4018281807F8283FE01E959FF4F8091A00F9091A10F91838083ED
:204280008281807F85608283A3ED4A2E512C4C0E5D1EC201B801A7019601850174016F01B2
:2042A000E2E0AE2EB12C0E94BB5BD301A95ABF4FF2018DE101900D928150E1F78E010659BE
:2042C0001F4F8091A00F9091A10FF801918380832281207F266022832DE6E22EF12CEC0E28
:2042E000FD1EF701918380838281807F8760828390E7C92ED12CCC0EDD1E8091AC0F909179
:20430000AD0FF601918380838281807F8260828383E7A82EB12CAC0EBD1EC5010E94754219
:20432000F5018281807F8283B6E78B2E912C8C0E9D1EC4010E947542F4018281807F8283FE
:20434000FE01E758FF4F8091B00F9091B10F918380838281807F86608283A0EF4A2E512C98
:204360004C0E5D1EC201B801A7019601850174016F01E2E0AE2EB12C0E94BB5BD301AC5837
:20438000BF4FF2018DE101900D928150E1F7C45FDE4F0FB6F894DEBF0FBECDBFCF91DF916E
:2043A0001F910F91FF90EF90DF90CF90BF90AF909F908F907F906F905F904F903F902F908B
:2043C00008956FB7F8948F569F4FFC0120813181428153816FBFB901CA0108950F931F9330
:2043E000CF93DF93EC01FC01E755FF4F8081882329F0CE0189579E4F0E940C47FE01EF56DB
:20440000FF4F80819181A281B38180589F4FAF4FBF4F80839183A283B3830E94030A882346
:2044200099F40E9481308E010F571C4FC8010E942511882349F0C8010E94C712882321F4B3
:20444000CB57DC4F81E08883DF91CF911F910F91089581569F4F40E059EE64EA75E30E9472
:204460002C5F08951F920F920FB60F920BB60F9211242F933F934F935F936F937F938F9327
:204480009F93AF93BF93EF93FF9381E198E00E94EE21FF91EF91BF91AF919F918F917F91B7
:2044A0006F915F914F913F912F910F900BBE0F900FBE0F901F9018950F931F93DF93CF93A5
:2044C00000D00F92CDB7DEB78B0161157105A1F41092990B1092980B8091A20F9091A30F25
:2044E0009A8389838B81807F87608B83CE01019660E00E94EB090CC08091970B90E08617CB
:20450000970731F082E090E09093990B8093980B0093970B0F900F900F90CF91DF911F91FB
:204520000F910895EF92FF920F931F93CF93DF93EC01FC01E755FF4F80818823C9F08E019C
:204540000B561F4FC8010E94495F882389F0E7E8EE2EE1E0FE2EEC0EFD1EC7010E94CE47E9
:20456000C7010E941247AB01BC01C8010E942C5FFE01E058FC4F8081882329F0CE01845C23
:204580009C4F0E9488458E0101561F4FC8010E94495F8823C1F0C8010E946F5FCE0186541C
:2045A0009F4F60E070E00E944045CE01825E9E4F60E070E00E944045CE01845C9C4F60E029
:2045C00070E00E944045FE01EB57FC4F8081882329F0CE0160E070E00E945C22CE018655EA
:2045E0009F4F0E94DD15CE01825F9E4F0E94DD15DF91CF911F910F91FF90EF900895BF92EC
:20460000CF92DF92EF92FF920F931F93DF93CF93CDB7DEB72F970FB6F894DEBF0FBECDBF68
:204620008C01B62E60E070E00E945C2282E090E060E00E94AA43E82E8EE29CE00E948E2C5A
:204640008E2D8095881F8827881F0E94692EEE24FF24ADE1CA2ED12CEC9CC001ED9C900D2D
:20466000FC9C900D1124800F911F6E2D0E94A45C0894E11CF11C85E0E816F10469F789EC81
:204680009FE061E00E94EF5F8DEC9FE00E945059C80186559F4F0E94BC15C801825F9E4F8B
:2046A0000E94BC1521E024BD25BD17BC18BC10926E001092900089E0809391001092920099
:2046C00080E098E0909399008093980082E0809371001092B00097E09093B10020937000F5
:2046E0001092200180932101109229011092280110922B0110922A011092730093E09093E5
:20470000800083E180938100109289001092880010928B0010928A0010926F009093A0009F
:204720008093A1001092A9001092A8001092AB001092AA00109272000E943246F801E75534
:20474000FF4F80838823F9F0F7E8EF2EF1E0FF2EE00EF11EC7010E946347B8016F547D4F21
:20476000C7010E942747B8016C587E4FC7010E948E46C7010E941247AB01BC01C8018B5603
:204780009F4F0E942C5F8091B40F9091B50F9A8389838B81807F84608B83CE01019661E078
:2047A0000E941811C801885D9C4F0E94AF5DC801845C9C4F0E946244C8018F579C4F0E94CF
:2047C0005E12F801EB57FC4F1082BB2009F441C08091A20F9091A30F9D838C838E81807FA6
:2047E00087608E83CE01049661E00E9418118091A40F9091A50F98878F838985807F816094
:204800008987CE01079661E00E9418118091A40F9091A50F9B878A878C85807F8C87CE0152
:204820000A9661E00E9418118091AC0F9091AD0F9E878D878F85807F81608F87CE010D966E
:2048400061E00E9418110E9429280E94E6260E94F0282F960FB6F894DEBF0FBECDBFCF9185
:20486000DF911F910F91FF90EF90DF90CF90BF9008958091970B08951F920F920FB60F92A8
:204880000BB60F9211242F933F934F935F936F937F938F939F93AF93BF93EF93FF93DF9397
:2048A000CF93CDB7DEB72997DEBFCDBF80919A0B90919B0B1816190614F4019747C0809112
:2048C000980B9091990B8130910559F580919C0B90919D0B019690939D0B80939C0B82E0DC
:2048E00090E09093990B8093980B82E190E090939B0B80939A0B8091A20F9091A30F9A83C5
:2049000089838B81807F87608B83CE01019660E00E94EB0980E061E00E94A64681E061E07E
:204920005BC08230910581F58091970B90E020919C0B30919D0B281739076CF083E090E00C
:204940009093990B8093980B80E590E090939B0B80939A0B43C081E090E09093990B8093D6
:20496000980B82E190E090939B0B80939A0B8091A20F9091A30F9D838C838E81807F876087
:204980008E83CE0104961FC08330910539F510929D0B10929C0B81E090E09093990B809309
:2049A000980B82E190E090939B0B80939A0B8091A20F9091A30F98878F838985807F876046
:2049C0008987CE01079661E00E94EB0980E060E00E94A64681E060E00E94A6462996DEBFCB
:2049E000CDBFCF91DF91FF91EF91BF91AF919F918F917F916F915F914F913F912F910F905C
:204A00000BBE0F900FBE0F901F9018951F920F920FB60F920BB60F9211242F933F934F93A1
:204A20005F936F937F938F939F93AF93BF93EF93FF930E943127FF91EF91BF91AF919F91AA
:204A40008F917F916F915F914F913F912F910F900BBE0F900FBE0F901F901895882321F03B
:204A600080912001806203C0809120018F7C8093200108950F931F93DF93CF9300D00F92B8
:204A8000CDB7DEB7062F1FB7F89480E00E942E258091B40F9091B50F9A8389838B81807F24
:204AA00084608B8361E0002309F460E0CE0101960E94EB091FBF0F900F900F90CF91DF91DC
:204AC0001F910F910895FC01E058FC4F608308951F93DF93CF9300D000D0CDB7DEB71FB7D4
:204AE000F89480589C4FFC01108280E06C830E942E258091B40F9091B50F9A8389838B81A6
:204B0000807F84608B83CE0101966C810E94EB091FBF0F900F900F900F90CF91DF911F91E1
:204B2000089581E198E00E94B81E0895FC019B01828193816081718186179707B8F44281BC
:204B4000538184819581840F951F0E94CD60880F991FA681B781A80FB91F11963C932E93DC
:204B600082819381019693838283089581E080870895CF93DF939C01EB0180910B0C909124
:204B80000C0C4091090C50910A0C4817590751F089E09CE0B9010E94962583E19CE0BE0185
:204BA0000E949625DF91CF9108950F931F93CF93DF93EC018B018091AB0B882321F0CE0138
:204BC0000E94B925A2C081E08093AB0B8EE99BE060E00E94EB098EE99BE061E00E94181103
:204BE0009E0140E050E060E072E18AE790E00E94F460DA01C901B695A79597958795019750
:204C0000A109B1098093B00B9093B10BA093B20BB093B30B8F3F9105A105B10509F008F4DD
:204C200044C0DA01C901F4E0B695A79597958795FA95D1F70197A109B1098F3F9105A105CB
:204C4000B105A9F1A0F1DA01C901E7E0B695A79597958795EA95D1F70197A109B1098F3F27
:204C60009105A105B10529F120F1DA01C90179E0B695A795979587957A95D1F70197A10931
:204C8000B1098F3F9105A105B105A9F0A0F0DA01C9016BE0B695A795979587956A95D1F7EB
:204CA0000197A109B10925E007C021E005C022E003C023E001C024E0285F25BD87BD88BDE7
:204CC00082E080936E00BE0180E090E0660F771F881F991F980140E050E00E94AE6028EE49
:204CE00033E040E050E00E9416612093AC0B3093AD0B4093AE0B5093AF0B1092B40B109227
:204D0000B50B1092B60B1092B70BDF91CF911F910F9108950F931F93CF93DF9300E010E057
:204D2000C82FD0E00EC08EEE91E06CE271E00E94D52588EB91E06CE271E00E94D5250F5F49
:204D40001F4F0C171D077CF3DF91CF911F910F91089580E793E06CEB70E00E94D52580E0F5
:204D600090E06CEB70E00E94D52580EE96E06CEB70E00E94D52580E090E06CEB70E00E9440
:204D8000D52588EB97E06CEB70E00E94D52580E090E06CEB70E00E94D5258DE298E06CEB9B
:204DA00070E00E94D52589EA98E06CEB70E00E94D52580E090E06CEB70E00E94D52580EC5A
:204DC0009DE06DE471E00E94D525089580EC9DE060E271E00E94D52580E090E06CEB70E0EC
:204DE0000E94D52583E591E16CEB70E00E94D52580E090E06CEB70E00E94D5258BE592E104
:204E000061EB71E00E94D5250895CF93DF93FC0182819381009729F481E0818720E030E0A7
:204E20001CC08481958120813181B9010E94CD60880F991FC681D781C80FD91F84819581C7
:204E40000196B9010E94CD60958384838281938101979383828328813981C901DF91CF914C
:204E60000895CF93DF938091AC0B9091AD0BA091AE0BB091AF0B0097A105B10511F1609155
:204E8000B80B81E068276093B80B8EE99BE00E94EB098091AC0B9091AD0BA091AE0BB09155
:204EA000AF0B0097A105B10551F10197A109B1098093AC0B9093AD0BA093AE0BB093AF0B79
:204EC0001EC010926E0018BC17BC8EE99BE060E00E94EB091092AB0B80910B0C90910C0CBC
:204EE000009769F089E09CE00E940527EC0183E19CE00E940527BC01CE010E94D525DF91DC
:204F0000CF9108958091AC0F9091AD0F90939F0B80939E0B8091A00B807F85608093A00B04
:204F200081EA9BE00E94285F84E190E090930A0C8093090C10920C0C10920B0C10920E0CFD
:204F400010920D0C29EB3BE03093100C20930F0C1092110C1092120C9093140C8093130CC6
:204F60001092160C1092150C1092180C1092170C81EE9BE090931A0C8093190C10921B0CEB
:204F800010921C0C08958F929F92AF92BF92CF92DF92EF92FF920F931F93DF93CF93CDB736
:204FA000DEB7FC0140835183628373830483158326833783C086D186E286F38684869586C8
:204FC000A686B7868F859889A989BA89808B918BA28BB38BCF91DF911F910F91FF90EF90FE
:204FE000DF90CF90BF90AF909F908F900895CF92DF92EF92FF920F931F93FC01408351839E
:20500000628373830483158326833783C086D186E286F3861486158616861786108A118A12
:20502000128A138A1F910F91FF90EF90DF90CF900895660F771F660F771F680F791FCB017D
:205040000895660F771F660F771F680F791FCB010895DF93CF9300D000D0CDB7DEB70E94F6
:205060004F3181E089831A8282E08B831C8284ECBE016F5F7F4F44E00E9410310F900F9089
:205080000F900F90CF91DF910895DF93CF9300D000D0CDB7DEB795E099836C83882349F470
:2050A00081E08B83842F809590911D0C89234A7A09C0813011F583E08B83842F8095909125
:2050C0001D0C8923842B8A8384ECBE016F5F7F4F42E00E94103185E08A95F1F7000084EC93
:2050E000BE016D5F7F4F42E00E94103185E08A95F1F700008A8180931D0C0F900F900F90C2
:205100000F90CF91DF910895DF93CF9300D0CDB7DEB795E09983262F209590911D0C882336
:2051200021F092236575962B01C092239A8384ECBE016F5F7F4F42E00E9410318A8180938D
:205140001D0C0F900F90CF91DF910895DF93CF9300D000D0CDB7DEB795E099831A821C8223
:205160001B826C83882349F482E08B83842F809590911D0C89234A7A09C0813019F584E0DD
:205180008B83842F809590911D0C8923842B8A8384ECBE016F5F7F4F42E00E94103185E052
:2051A0008A95F1F7000084ECBE016D5F7F4F42E00E94103185E08A95F1F700008A81809390
:2051C0001D0C07C081E0662309F480E0642F0E9484280F900F900F900F90CF91DF910895CE
:2051E0001F9381E060E04CE00E94452810E08FEF90E7A2E081509040A040E1F700C00000A1
:2052000081E0612F4CE00E94A6281F5F143679F71F9108950F9385EF9EE368E97FE345EC01
:2052200050E42CE831E400E00E94793D90931F0C80931E0C009779F485EF9EE368E97FE3A2
:2052400045EC50E42CE831E40FEF0E94793D90931F0C80931E0C81E020911E0C30911F0CB7
:205260002115310509F480E00F91089580911E0C90911F0C0E94A5369C019093210C809324
:20528000200C81E02115310509F480E008950F931F93DF93CF93CDB7DEB7AB970FB6F89447
:2052A000DEBF0FBECDBF8091200C9091210C63E272E08E010F5F1F4FA8010E94FC3B8091D8
:2052C000200C9091210CB8010E94E83A9C019093230C8093220C81E02115310509F480E07D
:2052E000AB960FB6F894DEBF0FBECDBFCF91DF911F910F9108958F929F92BF92CF92DF92F4
:20530000EF92FF920F931F93DF93CF93CDB7DEB7AB970FB6F894DEBF0FBECDBF7C014A01E9
:2053200085E0B82E6E010894C11CD11C062F10E0015010408091220C9091230CB6010E949F
:205340002B3B8823E1F0D701F60180E090E08017910734F42191222319F02D930196F7CF58
:20536000F701E80FF91F1082009731F08114910441F0F401808305C0BA94E1F602C0F701E5
:20538000108280E090E0AB960FB6F894DEBF0FBECDBFCF91DF911F910F91FF90EF90DF9086
:2053A000CF90BF909F908F9008950F931F93CF93DF938C01EB010EC0CE01B8010E94EE616C
:2053C000009741F48091220C9091230C0E94873C81E009C08091220C9091230CBE010E94F3
:2053E0002B3B882349F7DF91CF911F910F910895EF92FF920F931F93DF93CF93CDB7DEB74C
:20540000AB970FB6F894DEBF0FBECDBF7B018E010F5F1F4FB8010E94D529882361F08091B6
:20542000200C9091210CB8010E944A38F7019183808381E001C080E0AB960FB6F894DEBF55
:205440000FBECDBFCF91DF911F910F91FF90EF9008950F931F93DF93CF93CDB7DEB7AB97A5
:205460000FB6F894DEBF0FBECDBF8E010F5F1F4FB8010E94D529882349F08091200C9091DF
:20548000210CB8010E94F73C81E001C080E0AB960FB6F894DEBF0FBECDBFCF91DF911F91C7
:2054A0000F910895DF93CF93CDB7DEB7AB970FB6F894DEBF0FBECDBFBC018091220C90911C
:2054C000230CAE014F5F5F4F0E94943C91E0882309F490E0892FAB960FB6F894DEBF0FBEE3
:2054E000CDBFCF91DF9108958091270C08958091260C0895CF93DF93EC018091240C9091CF
:20550000250C0097E1F0BE016E5F7F4F488150E00E94A43928818091280C9091290CA091AB
:205520002A0CB0912B0C820F911DA11DB11D8093280C9093290CA0932A0CB0932B0CDF9100
:20554000CF9108958091240C9091250C6CE27CE041E050E00E94953821E0181619060CF007
:2055600020E020932D0C089580912D0C0895DF93CF930F92CDB7DEB780912C0C89830E9436
:20558000A22A89810F90CF91DF9108951092270C8091240C9091250C009721F00E948238BD
:2055A0000E94D93E1092250C1092240C08958091270C882311F00E94C62A8091260C882380
:2055C00011F00E94082B8091220C9091230C009731F00E94253B1092230C1092220C8091FA
:2055E000200C9091210C009731F00E9444381092210C1092200C80911E0C90911F0C0097A0
:2056000031F00E944B3E10921F0C10921E0C08958091260C882381F08091240C9091250C16
:20562000009721F00E9482380E94D93E1092250C1092240C1092260C0E94D72A6091280C6C
:205640007091290C80912A0C90912B0C08950E940840882371F40E94A33E882329F40E94F1
:20566000D72A21E030E029C00E94D72A22E030E024C00E940A29882329F40E94D72A23E053
:2056800030E01BC00E943629882329F40E94D72A24E030E012C00E944729882329F40E9451
:2056A000D72A25E030E009C00E94BF3E882319F026E030E002C020E030E0C9010895CF9307
:2056C000DF93EC010E94D72A0E94272B9C01009719F086309105D9F41092280C1092290CD1
:2056E00010922A0C10922B0C1092250C1092240CCE0164E27CE00E94F829882331F0809143
:20570000240C9091250C009731F427E030E0C901DF91CF91089581E08093270C0E94A22AE8
:2057200020E030E0F4CFEF92FF920F931F93CF93DF938C010E94D72A0E94272BEC010097B4
:2057400069F51092280C1092290C10922A0C10922B0C1092250C1092240CC8010E94292A2A
:20576000C8010E94522A882389F0C80164E27CE00E94F829882369F08091240C9091250C59
:20578000009751F081E08093260C08C0C7E0D0E005C0C3E0D0E002C0C8E0D0E0CE01DF91FB
:2057A000CF911F910F91FF90EF9008950E94D72A0E94272B9C01009719F08630910541F439
:2057C0008091220C9091230C0E94873C20E030E0C9010895CF92DF92EF92FF920F931F9326
:2057E000DF93CF93CDB7DEB72F970FB6F894DEBF0FBECDBF8C01EE24FF246801CE0CDF1CAF
:20580000C6010E947542F6018281807F828383E090E0E80EF91E9FE0E916F10471F780919E
:20582000B00F9091B10FF801908B87878189807F8560818B85E0828B8091AA0F9091AB0F95
:205840009A838983D801FE01319683E001900D928150E1F7F8018281807F83608283809150
:20586000AA0F9091AB0F9D838C83D8011396FE01349683E001900D928150E1F7F8018581DF
:20588000807F876085838091B20F9091B30F98878F83D8011696FE01379683E001900D9250
:2058A0008150E1F7F8018085807F836080878091A00F9091A10F9B878A87D8011996FE010D
:2058C0003A9683E001900D928150E1F7F8018385807F856083878091B00F9091B10F9E87F7
:2058E0008D87D8011C96FE013D9683E001900D928150E1F7F8018685807F866086872F9640
:205900000FB6F894DEBF0FBECDBFCF91DF911F910F91FF90EF90DF90CF900895FF920F9374
:205920001F93CF93DF938C01FF2412C08F2D90E0EC01CC0FDD1FC80FD91FC00FD11FCE0112
:2059400061E00E941811CE0161E00E94EB09F394F8018289F81650F3015F1F4FC80161E0E1
:205960000E941811C80161E00E94EB09DF91CF911F910F91FF9008951F93CF93DF93EC01FD
:2059800085E18A95F1F70000CE010F9661E00E94EB0985E18A95F1F7000010E00DC0212FD5
:2059A00030E0C901880F991F820F931F8C0F9D1F61E00E94EB091F5F8A89181780F385E1B4
:2059C0008A95F1F70000DF91CF911F910895AF92BF92CF92DF92EF92FF920F931F93DF9367
:2059E000CF9300D00F92CDB7DEB7B62E29833A834B8378E0C72ED12C60E8A62E8E010F5F3D
:205A00001F4F5FE0E52EF12CE80EF91E8A2D8B2161E009F460E0C8010E94EB09C70161E053
:205A20000E94EB0985E18A95F1F70000C70160E00E94EB09A6940894C108D108C114D104A3
:205A400029F7C80161E00E94EB09C80160E00E941811C70161E00E94EB09C8010E941F1178
:205A6000C82EC70160E00E94EB09C80161E00E94181181E0C11080E00F900F900F90CF91EE
:205A8000DF911F910F91FF90EF90DF90CF90BF90AF900895EF92FF920F931F93DF93CF9305
:205AA00000D00F92CDB7DEB78C01F62E29833A834B83EE240DC02E2D30E0C901880F991F11
:205AC000820F931F800F911F60E00E94EB09E394F8018289E81678F3F5E1FA95F1F700003D
:205AE000C8010F9660E00E94EB09C8016F2D29813A814B810E94E72C0F900F900F90CF91DA
:205B0000DF911F910F91FF90EF9008958EE29CE00E94EA2B08958091410C882319F48091B3
:205B2000D10C089581E008958F929F92AF92BF92CF92DF92EF92FF920F931F93DF93CF93FD
:205B4000CDB7DEB76B970FB6F894DEBF0FBECDBF5C011092410C9AE4E92E9CE0F92E00E07F
:205B600010E08DE1882E912C6E010894C11CD11C089DB001099D700D189D700D11246A0D28
:205B80007B1DC6010E944C5AD701F6018BE101900D928150E1F70F5F1F4F8BE190E0E80E9C
:205BA000F91E0530110521F76B960FB6F894DEBF0FBECDBFCF91DF911F910F91FF90EF90F5
:205BC000DF90CF90BF90AF909F908F9008951092410C1092D10C0895EF92FF920F931F930D
:205BE000CF93DF938C01C0E0D0E02BE1E22EF12CC801BE010E941928FC01CE9DC001CF9DBB
:205C0000900DDE9D900D11244081518162817381865B934F0E94C25A2196C530D10541F7F5
:205C2000DF91CF911F910F91FF90EF9008958F929F92AF92BF92CF92DF92EF92FF920F932F
:205C40001F93CF93DF93EC0140914C0C50914D0C60914E0C70914F0C0091670C1091680CAE
:205C60002091690C30916A0CC090820CD090830CE090840CF090850C80909D0C90909E0C66
:205C8000A0909F0CB090A00C8091B80C9091B90CA091BA0CB091BB0C00D000D0EDB7FEB78A
:205CA00081839283A383B483CE010E94C3270F900F900F900F90CE01DF91CF911F910F91A8
:205CC000FF90EF90DF90CF90BF90AF909F908F9008958093D20C08952F923F924F925F927D
:205CE0006F927F928F929F92AF92BF92CF92DF92EF92FF920F931F93CF93DF931C012A015A
:205D00003B01CC24DD248824992454018BE190E0C89EE001C99ED00DD89ED00D1124C65B88
:205D2000D34FC101B6010E941928FC014081518162817381CE0120E00E94685AEE88FF884E
:205D4000088D198DF2E0CF16D10469F48091D20C882349F461E0E114F1040105110509F404
:205D600060E0CE0107C0E114F1040105110521F0CE0161E00E94C85A8E149F04A006B106C0
:205D800014F4470158010894C11CD11C85E0C816D10409F0BBCFC501B401A30192010E9405
:205DA000AE6020E830E040E050E00E9416612093420C3093430C4093440C5093450C209337
:205DC000460C3093470C4093480C5093490CCA01B90122E030E040E050E00E941661509517
:205DE0004095309521953F4F4F4F5F4F20935C0C30935D0C40935E0C50935F0C2093770C71
:205E00003093780C4093790C50937A0C2093920C3093930C4093940C5093950C2093AD0C64
:205E20003093AE0C4093AF0C5093B00C2093C80C3093C90C4093CA0C5093CB0C81E08093C2
:205E4000410CDF91CF911F910F91FF90EF90DF90CF90BF90AF909F908F907F906F905F9020
:205E60004F903F902F9008956F927F928F929F92AF92BF92CF92DF92EF92FF920F931F93EA
:205E8000CF93DF935C016A017B01C0E0D0E03BE1832E912C622E7724C89D8001C99D100D7C
:205EA000D89D100D1124065B134FC501BE010E941928FC01408151816281738193010C2EBB
:205EC00002C0359527950A94E2F721703070C8010E94685AF80186899789A08DB18DC23020
:205EE000D10561F42091D20C222341F461E00097A105B10509F460E0C80106C00097A10531
:205F0000B10521F0C80161E00E94C85A2196C530D10509F0C1CFC701B60120E830E040E02A
:205F200050E00E9416612093420C3093430C4093440C5093450C2093460C3093470C4093C0
:205F4000480C5093490CCA01B90122E030E040E050E00E94166150954095309521953F4FF2
:205F60004F4F5F4F20935C0C30935D0C40935E0C50935F0C2093770C3093780C4093790C2E
:205F800050937A0C2093920C3093930C4093940C5093950C2093AD0C3093AE0C4093AF0C77
:205FA0005093B00C2093C80C3093C90C4093CA0C5093CB0C81E08093410CDF91CF911F917F
:205FC0000F91FF90EF90DF90CF90BF90AF909F908F907F906F9008959F92AF92BF92CF929A
:205FE000DF92EF92FF920F931F93CF93DF93982E162FCA01B9012FEF3FEF4FEF5FE72093E3
:20600000460C3093470C4093480C5093490C57E096958795779567955A95D1F76093420C3B
:206020007093430C8093440C9093450C22E030E040E050E00E941661CC24DD247601C21A78
:20604000D30AE40AF50AC0E0D0E04BE1A42EB12C012F10E0CA9DC001CB9D900DDA9D900DEA
:206060001124865B934FFC01C28AD38AE48AF58A98010C2E02C0359527950A94E2F720FFE4
:2060800004C0692D0E94AE5A05C0FC01168A178A108E118E2196C530D105E1F681E08093EF
:2060A000D10CDF91CF911F910F91FF90EF90DF90CF90BF90AF909F900895853078F4482F15
:2060C00050E02BE130E0429FC001439F900D529F900D1124865B934F0E94C85A08958530B7
:2060E00078F4482F50E02BE130E0429FC001439F900D529F900D1124865B934F0E94CE5A00
:2061000008950F931F93CF93DF938091410C8823D9F18091460C9091470CA091480CB0914A
:20612000490C9C01AD0121503040404050402093460C3093470C4093480C5093490C0097BD
:20614000A105B10519F41092410C1BC0C0E0D0E00BE110E0C09FC001C19F900DD09F900DB7
:2061600011244091420C5091430C6091440C7091450C865B934F0E94D45A2196C530D105F3
:2061800049F78091410C2DC08091D10C882341F11092D10CC0E0D0E00BE110E0C09FC001DE
:2061A000C19F900DD09F900D11244091420C5091430C6091440C7091450C865B934F0E945A
:2061C000455B882319F48091D10C01C081E08093D10C2196C530D10509F78091D10C01C036
:2061E00080E0DF91CF911F910F910895CF93DF93CAE4DCE0CE010E94485ACE014B960E94DF
:20620000485ACE01C6960E94485A8BE99CE00E94485A86EB9CE00E94485ADF91CF9108959B
:2062200094EA9093BC009091BC0097FFFCCF9091B900987F983069F58093BB0084E880935F
:20624000BC008091BC0087FFFCCF8091B900887F883109F5862F972FFC0180E090E050E064
:2062600034E80FC021912093BB003093BC002091BC0027FFFCCF2091B900287F283269F46E
:2062800001968417950774F384E98093BC0080E0089581E0089582E0089583E008951092F1
:2062A000B90080E28093B8000895DF93CF9300D0CDB7DEB7FC01009769F16230710550F167
:2062C000A081B181660F771F80E090E02681378140855185620F731F841F951FED91FC9131
:2062E000AE014F5F5F4F22E030E00995882391F029813A812115310579F08FEF273F38075A
:2063000049F0C90140968730910520F08FEF283F380710F020E030E0C9010F900F90CF91AB
:20632000DF9108954F925F926F927F928F929F92AF92BF92CF92DF92EF92FF920F931F9350
:20634000DF93CF9300D0CDB7DEB75C018B01009709F449C06230710508F445C0DC01169668
:206360004D905D906D907C9019974E010894811C911C000F111F6801EE24FF24C40CD51CC7
:20638000E61CF71CD501ED91FC910190F081E02DC701B601A40122E030E00995882319F16F
:2063A00009811A8101151105E1F0C801409688309105C8F0BFEF083F1B0710F000E010E02F
:2063C0001A821982D501ED91FC910480F581E02DC701B601A40122E030E00995011511059E
:2063E00041F681E001C080E00F900F90CF91DF911F910F91FF90EF90DF90CF90BF90AF901C
:206400009F908F907F906F905F904F9008952F923F924F925F926F927F928F929F92AF92AC
:20642000BF92CF92DF92EF92FF920F931F93DF93CF93CDB7DEB72E970FB6F894DEBF0FBE66
:20644000CDBF6C017A876987009709F4A4C0DC01ED91FC911197208131813C872B878481FD
:2064600095819C838B8316968D919D910D90BC91A02D8D839E83AF83B887F601028D138D62
:20648000428453846484758476946794579447945E864D86138E128E642E752EEE24FF2451
:2064A0001E010894211C311C4CC00230110528F02D853E850217130710F002E010E0480168
:2064C000880C991CAA24BB248D819E81AF81B885880E991EAA1EBB1EC501B401A10122E01F
:2064E00030E0AB85BC85FD010995882309F453C089819A81009701F56114710421F4F6011C
:20650000138F028F25C0E114F10429F42FEF3FEF3A83298302C0FA82E982C501B401A101E1
:2065200022E030E0AB81BC81FD010995882379F108946108710878010894410851080F5F8C
:206540001F4F4114510409F0B0CF61147104F9F4E985FA85E230F10500F1FA82E982BF0147
:20656000660F771F80E090E02D813E814F815885620F731F841F951FAE014F5F5F4F22E0BF
:2065800030E0AB81BC81FD010995882331F4C601B7010E949231EE24FF24C7012E960FB6AC
:2065A000F894DEBF0FBECDBFCF91DF911F910F91FF90EF90DF90CF90BF90AF909F908F9081
:2065C0007F906F905F904F903F902F90089580E190E00895CF93DF93EC010097C1F06230AB
:2065E0007105A8F06250704080E090E02889398940E050E00E94AE609B01AC018A899B8968
:20660000AC89BD89280F391F4A1F5B1F03C020E030E0A901B901CA01DF91CF910895FC0121
:2066200081914AE0282F30E05191C9019695982F88279795879535952795822B850F4150CA
:2066400089F70895EF92FF920F931F93DF93CF93CDB7DEB760970FB6F894DEBF0FBECDBF8C
:206660008C0162307105D8F00E94EA32AE014F5F5F4F20E1DA011D922A95E9F7D801ED9173
:20668000FC91119750962D913C9151970680F781E02D07EE12E3EE24FF24099501C080E083
:2066A00060960FB6F894DEBF0FBECDBFCF91DF911F910F91FF90EF9008958F929F92AF923F
:2066C000BF92CF92DF92EF92FF920F931F93DF93CF93CDB7DEB72D970FB6F894DEBF0FBEC5
:2066E000CDBF8C014A015B016901D901ED90FC90119712968D919C911397809613969C935A
:206700008E931297F8018081853E11F0882329F4D60114961C921497D0C0F80183858F30FF
:2067200009F04AC0D90114968C911497882319F09585891779F08BE2D7011D928A95E9F740
:20674000F8018585D60114968C93F70187A290A6A1A6B2A6D8012C9130E02F733070215047
:2067600030404DE050E0249FC001259F900D349F900D1124DE011196E2EBF3E02DE00190FE
:206780000D922150E1F7DE011196E80EF91E9C01235F3F4F8F31910508F08FC04D91F8015D
:2067A000E40FF11D4081F70141937F0101968217930709F482C0EECFD7018C91882341F034
:2067C000C8010E940F33F6019481981709F458C08BE2D7011D928A95E9F7F70187A290A6F2
:2067E000A1A6B2A6B801D701C80140E0FC015191CF015032A1F05C93F801248523FF0BC040
:206800009C0121503040F9012081213420F02B3510F4505E5C934F5F1196483039F7D70124
:206820008C91853011F485EE8C93F8018085803219F1D701A40FB11D8EE28C93242F2C5F6F
:206840004F5FDB0118968C9118978032A9F0D701A40FB11D8C93F801948594FF08C0FB0108
:206860009085913420F09B3510F4805E8C934F5F6F5F7F4F421729F7F701E40FF11D10820F
:20688000D8011B968C911B97F70180A35A968D919C915B9792A381A35C968D919D910D9023
:2068A000BC91A02D83A394A3A5A3B6A381E0D60115968C93159780E001C081E02D960FB608
:2068C000F894DEBF0FBECDBFCF91DF911F910F91FF90EF90DF90CF90BF90AF909F908F905E
:2068E00008952F923F924F925F926F927F928F929F92AF92BF92CF92DF92EF92FF920F931B
:206900001F93DF93CF93CDB7DEB7A0970FB6F894DEBF0FBECDBF8B01009709F418C16115EB
:20692000710509F414C1DC01ED91FC9124803580FB0187A090A4A1A4B2A46B01DB010D90F7
