:100000000C94DB0B0C940A0C0C940A0C0C940A0C48
:100010000C940A0C0C940A0C0C940A0C0C940A0C08
:100020000C940A0C0C940A0C0C940A0C0C940A0CF8
:100030000C940A0C0C940A0C0C940A0C0C941A30B4
:100040000C940A0C0C940A0C0C940A0C0C940A0CD8
:100050000C940A0C0C9408310C940A0C0C940A0CA5
:100060000C940A0C0C94107F0C940A0C0C943C7F9A
:100070000C940A0C0C943C500C940A0C0C940A0C32
:100080000C94E32C0C940A0C0C940A0C0C940A0C9F
:100090000C940A0C0C940A0C0C940A0C0C940A0C88
:1000A0000C940A0C0C940A0C0C940A0C0C940A0C78
:1000B0000C940A0C0C940A0C0C940A0C0C940A0C68
:1000C0000C940A0C0C940A0C0C940A0C0C940A0C58
:1000D0000C940A0C0C940A0C0C940A0C0C940A0C48
:1000E0000C940A0C4E246F2473248A24DE25DE250A
:1000F000DE25DE25DE25DE25DE25DE25B824D4241A
:10010000DE25DE25DE25DE25DE25DE25DE25DE25D7
:10011000E224B324DE25A724AD24DE25DE25DE255A
:10012000F924DE2503251A25582424252F25722598
:100130001A264F26542639265E26D126D126392660
:100140008126D12685268A269F26A42668266D2606
:10015000772639267C26D1261F266326A926D12676
:10016000D126AE26546865205265706C696361744F
:1001700030720083048800000014008C000000002E
:100180000000000030F8FFFF000000000000000049
:100190008E000000000000000000000000000000D1
:1001A000000000000057290400188304DC0500004B
:1001B00014008403690100001400901F891F95003A
:1001C00000000046696E64207468652034206B6E00
:1001D0006F6273206F6E20009501000000746865E7
:1001E00020626F74746F6D206F66207468652020C4
:1001F00020009501000000706C6174666F726D20C4
:10020000616E64207475726E20746F009507000033
:10021000007469676874656E20636F6D706C6574D7
:10022000656C792E00950000000049276D20676FEE
:10023000696E6720746F206D6F76652020200095B1
:1002400001000000746865206578747275646572D9
:1002500020746F202020202000950100000076618E
:1002600072696F757320706F736974696F6E732034
:100270002020009507000000666F722061646A7597
:1002800073746D656E742E2E2E009500000000496B
:100290006E206561636820706F736974696F6E2C7E
:1002A00020202000950100000077652077696C6CA4
:1002B000206E65656420746F202020202000950149
:1002C00000000061646A7573742074776F206B6E30
:1002D0006F627320617420009507000000746865E8
:1002E0002073616D652074696D652E2E2E0095005A
:1002F0000000004E6F7A7A6C657320617265206130
:100300007420746865202000950100000072696700
:10031000687420686569676874207768656E202056
:1003200020009501000000796F752063616E206ADE
:1003300075737420736C6964652061009507000013
:10034000007368656574206F662070617065722E39
:100350002E2E0095000000006265747765656E20A2
:10036000746865206E6F7A7A6C65202000950100B4
:100370000000616E642074686520706C6174666F43
:10038000726D2E20202000950100000047726162EE
:100390002061207368656574206F6620202020200E
:1003A000009507000000706170657220746F206115
:1003B00073736973742075732E00950200000050EA
:1003C0006C6561736520776169740083048800003F
:1003D0000014008C0000000000000000000000007D
:1003E00000000000000000008E000000000000007F
:1003F00000D007000000000000000000000D4503D1
:10040000001884036901000014008CA531000094D9
:100410001B0000D007000000000000000000009555
:1004200002000000506C656173652077616974009B
:100430008E0000000000000000D007000000000057
:1004400000000000001D471C00188E00000000CABC
:10045000E4FFFFD00700000000000000000000C023
:100460008C0D00188E00000000C9E4FFFF000000A2
:100470000000000000000000000D4503001895007A
:1004800000000041646A75737420746865206672A8
:100490006F6E742074776F0095010000006B6E6FB3
:1004A000627320756E74696C2070617065722020B3
:1004B000200095010000006A75737420736C6964F4
:1004C0006573206265747765656E2000950700008E
:1004D000006E6F7A7A6C6520616E6420706C617456
:1004E000666F726D009502000000506C6561736567
:1004F0002077616974008E00000000CAE4FFFFD01D
:1005000007000000000000000000000D4503001877
:100510008EEF220000CAE4FFFFD0070000000000B9
:10052000000000000020651100188EF0220000C9B4
:10053000E4FFFF0000000000000000000000000DCC
:1005400045030018950000000041646A757374202B
:100550007468652072696768742074776F0095010C
:100560000000006B6E6F627320756E74696C207092
:10057000617065722020200095010000006A75738B
:100580007420736C69646573206265747765656E49
:10059000200095070000006E6F7A7A6C6520616E0E
:1005A0006420706C6174666F726D009502000000CB
:1005B000506C656173652077616974008EEF22006D
:1005C00000CAE4FFFFD007000000000000000000A8
:1005D000000D450300188EF6DBFFFFCAE4FFFFD0D5
:1005E0000700000000000000000000E05623001893
:1005F0008EF6DBFFFFC9E4FFFF00000000000000F3
:1006000000000000000D45030018950000000041A7
:10061000646A75737420746865206C6566742074F0
:10062000776F200095010000006B6E6F627320757C
:100630006E74696C207061706572202020009501D5
:100640000000006A75737420736C696465732062BE
:1006500065747765656E200095070000006E6F7AFF
:100660007A6C6520616E6420706C6174666F726D67
:10067000009502000000506C656173652077616928
:1006800074008EF7DBFFFFCAE4FFFFD00700000015
:10069000000000000000000D450300188E0000005F
:1006A000007A1A0000D007000000000000000000DF
:1006B000008A322000188E000000007A1A00000024
:1006C00000000000000000000000000D45030018BD
:1006D000950000000041646A757374207468652099
:1006E0006261636B2074776F200095010000006BDE
:1006F0006E6F627320756E74696C207061706572C4
:100700002020200095010000006A75737420736C2E
:1007100069646573206265747765656E200095076E
:100720000000006E6F7A7A6C6520616E6420706CD8
:100730006174666F726D009502000000506C656117
:1007400073652077616974008E000000007A1A00DA
:1007500000D007000000000000000000000D45036D
:1007600000188EEF2200007A1A0000D00700000067
:100770000000000000000020651100188EEF22002C
:10078000007A1A00000000000000000000000000D5
:10079000000D45030018950000000041646A757360
:1007A00074207468652072696768742074776F00BC
:1007B00095010000006B6E6F627320756E74696C3A
:1007C0002070617065722020200095010000006A91
:1007D00075737420736C69646573206265747765E2
:1007E000656E200095070000006E6F7A7A6C6520B8
:1007F000616E6420706C6174666F726D00950200AA
:100800000000506C656173652077616974008EF03B
:100810002200007A1A0000D007000000000000004B
:100820000000000D450300188E54DCFFFF7A1A000B
:1008300000D0070000000000000000000000282396
:1008400000188E54DCFFFF7A1A0000000000000040
:10085000000000000000000D450300189500000096
:100860000041646A75737420746865206C656674F1
:100870002074776F200095010000006B6E6F62732B
:1008800020756E74696C2070617065722020200084
:1008900095010000006A75737420736C6964657358
:1008A000206265747765656E200095070000006E14
:1008B0006F7A7A6C6520616E6420706C6174666F0B
:1008C000726D008E55DCFFFF7A1A0000D007000021
:1008D00000000000000000000D450300188E00001D
:1008E000000000000000D007000000000000000031
:1008F0000000911E1600188E00000000000000008D
:100900000000000000000000000000000D45030092
:10091000189500000000436865636B20746861747B
:100920002070617065722020202000950100000079
:100930006A75737420736C6964657320626577747B
:1009400065656E200095070000006E6F7A7A6C6511
:1009500020616E6420706C6174666F726D2E008908
:100960001F4B00A3074E6F20534420636172642025
:10097000666F756E640065786974206D656E7500CC
:100980004C454420436F6C6F722020202020005380
:100990006F756E6400546F6F6C20436F756E7420BA
:1009A00000526573746F72652044656661756C747E
:1009B000730047656E6572616C2053657474696E6F
:1009C000677300507265686561742053657474695B
:1009D0006E67730053746F7020426C696E6B696E42
:1009E000672100426C696E6B204C454473202020C7
:1009F00020202020004C6576656C204275696C646F
:100A000020506C61746500456E61626C65205374A2
:100A100065707065727320200044697361626C6553
:100A20002053746570706572730052756E20537434
:100A30006172747570205363726970740046696CDA
:100A4000616D656E74204F7074696F6E7300486FCE
:100A50006D652041786573004A6F67204D6F64654E
:100A6000004D6F6E69746F72204D6F646500557430
:100A7000696C6974696573005072656865617400BA
:100A80005072696E742066726F6D20534400556E0B
:100A90005061757365005061757365005965730029
:100AA0004E6F005175697420746869732070726F9D
:100AB000636573733F0043616E63656C207468699E
:100AC00073207072696E743F00596573004E6F0039
:100AD00044656661756C742076616C7565733F0062
:100AE00052657365742053657474696E67732074FE
:100AF0006F2000506C6174666F726D202020202082
:100B0000202020004C65667420546F6F6C202020DC
:100B10002020202020202020005269676874205463
:100B20006F6F6C2020202020202020202000507279
:100B300065686561742053657474696E67732020FD
:100B400020200020202020202020202020202020C5
:100B50002020202020202000457874727564657262
:100B60003A2020202D2D2D2F2D2D2D4300506C614E
:100B700074666F726D3A2020202D2D2D2F2D2D2D76
:100B800043004C2045787472756465723A202D2DAF
:100B90002D2F2D2D2D4300522045787472756465DC
:100BA000723A202D2D2D2F2D2D2D4300202D2D255A
:100BB0000047414D45204F5645522100202020201E
:100BC000202020205A2B20202020202020202020E0
:100BD0000020203C2D5920284261636B29202020D1
:100BE00020202020200020202020202020205A2DDE
:100BF0002020202020202020202000202020202015
:100C0000202020592D2020202020202020202000BE
:100C100020203C2D5820284261636B2920205A2D2A
:100C20003E202020002020202020202020592B2082
:100C300020202020202020202000202020202020D4
:100C40002020582D2020202020202020202000207F
:100C50002020202020284261636B29202020592D4C
:100C60003E2020002020202020202020582B202043
:100C700020202020202020200020202020204A6F1B
:100C800067206D6F64652020202020202000556E95
:100C90004C6F6164004C6F61640059657321004EB4
:100CA0006F0066726F6D20746865206E6F7A7A6C63
:100CB000653F0044696420706C61737469632065EA
:100CC00078747275646520004C65742773207472A3
:100CD0007920616761696E2E004D792068656967CA
:100CE000687420697320676F6F64210068656967A5
:100CF000687420636865636B206F75743F00446F90
:100D00006573206D79206E6F7A7A6C650059657312
:100D100021004E6F00746F20747279206120707210
:100D2000696E743F2020202000486F772764206977
:100D30007420676F3F2052656164792000477265B7
:100D4000617421202049276C6C2073746F702020FF
:100D50002072756E6E696E67206D79206578747289
:100D6000756465722E5072657373204D20746F2008
:100D7000636F6E74696E75652E2020202020202000
:100D80002020202020202020202020202000576507
:100D9000276C6C206B65657020676F696E672E200D
:100DA0002020496620796F75277265206861766911
:100DB0006E672020202074726F75626C652C206332
:100DC0006865636B206F757420206D616B6572625E
:100DD0006F742E636F6D2F68656C70202020004F3C
:100DE0004B212049276C6C206B656570206D792044
:100DF0002020206D6F746F722072756E6E696E6741
:100E00002E20596F7520206D6179206E65656420F4
:100E1000746F20707573682020202068617264658B
:100E2000722E2E2E20202020202020202020200066
:100E30005768656E206D792066696C616D656E74AA
:100E40002069732072656C65617365642C202020B5
:100E50002020202020202020507265737320274DF1
:100E60002720746F20657869742E20202020202090
:100E70002020202020202020202020202020202072
:100E8000005768656E2066696C616D656E742069D7
:100E90007320202020657874727564696E67206FF6
:100EA0007574206F66207468656E6F7A7A6C652C35
:100EB00020507265737320274D27202020746F20E7
:100EC00065786974202020202020202020202020E8
:100ED00020005768656E2066696C616D656E7420D0
:100EE000697320202020657874727564696E6720AC
:100EF0006F7574206F66207468656E6F7A7A6C65A2
:100F00002C20507265737320274D27202020746F8A
:100F10002073746F7020657874727564696E672EC3
:100F20002020007468726F75676820746865206798
:100F30007265792020202072696E6720756E746951
:100F40006C20796F75206665656C20746865206D0E
:100F50006F746F722074756767696E6720202074E4
:100F6000686520706C617374696320696E2E2E2E23
:100F700020202000477265617421204E6F77207712
:100F800065276C6C202020206C6F6164207468657C
:100F900020206C65667420202020202065787472E3
:100FA000756465722E2050757368202020202020E3
:100FB00066696C616D656E7420646F776E2E2E2E7F
:100FC00020202020004F4B2049276D20726561644E
:100FD000792120202020202020506F702074686507
:100FE000206775696465207475626520206F666688
:100FF00020616E642070756C6C20202020202020E1
:101000002066696C616D656E742067656E746C79BD
:101010002E2E2E2020004F4B2049276D2072656117
:1010200064792120202020202020506F70207468B7
:1010300065206775696465207475626520206F6638
:101040006620616E64207075736820746865202066
:10105000202066696C616D656E7420646F776E2EFA
:101060002E2E20202020004F4B2049276D20726516
:101070006164792120202020202020466972737429
:10108000207765276C6C206C6F61642074686572D2
:10109000696768742065787472756465722E2020A3
:1010A000202020507573682066696C616D656E74D0
:1010B00020696E2E2E2E200049276D2068656174F0
:1010C000696E67207570206D7920202065787472B4
:1010D00075646572212020202020202020202020DF
:1010E000506C6561736520776169742E2020202023
:1010F00020202020202020202020202020202020F0
:1011000020202020202020200048656174696E671F
:101110002050726F67726573733A20202020202060
:1011200020202020202020202020202020202020BF
:1011300020202020202020202020202020202020AF
:10114000202020202020202020202020202020209F
:101150002020202020202020200054686973206D4A
:10116000696768742074616B652061202020666562
:1011700077206D696E757465732E202020202020E5
:101180002020416E64207761746368206F75742C31
:101190002074686520206E6F7A7A6C652077696CA0
:1011A0006C2067657420484F542100706F70732065
:1011B0006F757420696E2066726F6E742E202049E0
:1011C000276D2068656174696E67207570206D7980
:1011D00020202065787472756465722020736F20FA
:1011E00077652063616E206C6F6164207468652090
:1011F00066696C616D656E742E2E2E00677569646C
:1012000065207475626520206F75742E204E6F778F
:10121000666565642066696C616D656E74206672D2
:101220006F6D2020746865206261636B2074687242
:101230006F756768207468657475626520756E7473
:10124000696C2069742E2E2E202020005072657348
:101250007320646F776E206F6E2074686520202085
:10126000677265792072696E6720617420746F708F
:10127000206F662074686520657874727564657285
:1012800020616E642020202070756C6C207468656D
:1012900020626C61636B2E2E2E2020200067756902
:1012A0006465207475626573206F75742E204E6FAF
:1012B00077666565642066696C616D656E7420662D
:1012C000726F6D2020746865206261636B207468A2
:1012D000726F7567682074686574756265732075D0
:1012E0006E74696C2069742E2E2E2020200050729E
:1012F00065737320646F776E206F6E20746865204D
:101300002020677265792072696E6773206174208E
:10131000746F70206F667468652065787472756488
:1013200065727320616E6420202070756C6C20746F
:10133000686520626C61636B2E2E2E202020004D8C
:1013400079206578747275646572732061726520A6
:101350002020206E6F742068656174696E67207547
:10136000702E2020202020436865636B206D79203B
:101370002020202020202020202020636F6E6E65FA
:101380006374696F6E7321202020202020202000AC
:101390005765276C6C20676F20746F207468652018
:1013A0006D61696E6D656E752E20496620796F7569
:1013B000206E65656420202068656C7020676F2052
:1013C000746F3A2020202020202020206D616B6542
:1013D00072626F742E636F6D2F68656C70202020B1
:1013E00000417765736F6D6521202020202020202B
:1013F00020202020205765276C6C20676F20746F99
:1014000020746865205344202063617264204D6518
:101410006E7520616E6420796F7520202063616E87
:101420002073656C6563742061207072696E74212D
:1014300020005765276C6C206B65657020676F69AD
:101440006E6720202020616E64206C6F61642073C1
:101450006F6D6520202020202020706C61737469DE
:10146000632120466F722068656C7020676F746F0F
:10147000206D616B6572626F742E636F6D2F68658E
:101480006C70005765276C6C2074727920616761FD
:10149000696E2120202020202020202020202020B4
:1014A000202020202020202020202020202020203C
:1014B000202020202020202020202020202020202C
:1014C000202020202020202020202020202020201C
:1014D00020202000416161682C20746861742066BE
:1014E00065656C73202020206D75636820626574CB
:1014F0007465722E20202020202020204C65742727
:101500007320676F206F6E20616E64206C6F616462
:10151000736F6D6520706C61737469632120202086
:101520002020202000706C6174666F726D20736FD4
:101530002069742773202020206E69636520616E06
:1015400064206C6576656C2E204974277370726F09
:101550006261626C79206120626974206F66662026
:101560002066726F6D207368697070696E672E2EC9
:101570002E20202020004F7572206E657874207315
:10158000746570732077696C6C20676574206D6575
:101590002073657420757020746F20202020707275
:1015A000696E74212046697273742C207765276CEC
:1015B0006C20726573746F7265206D792062756935
:1015C0006C642E2E2E20004120736F6C69642027DE
:1015D0004D27206D65616E7320202049276D20778F
:1015E0006F726B696E6720616E642077696C6C75D1
:1015F0007064617465206D792073746174757320F3
:101600002020207768656E2049276D2066696E6905
:10161000736865642E2E2E004120626C696E6B69C2
:101620006E6720274D27206D65616E7349276D20F9
:1016300077616974696E6720616E642077696C6C8C
:10164000636F6E74696E7565207768656E20796F5B
:101650007520202070726573732074686520627530
:1016600074746F6E2E2E2E200057656C636F6D653F
:101670002120202020202020202020202049276DEC
:1016800020746865205265706C696361746F722E96
:101690002050726573732074686520726564204DF4
:1016A00020746F20206765742073746172746564A0
:1016B000212020202020202020004578747275648D
:1016C000657200506C6174666F726D004C65667473
:1016D00020546F6F6C00526967687420546F6F6C90
:1016E0000053746F702050726568656174210053F7
:1016F0007461727420507265686561742100466976
:10170000726D776172652056657273696F6E2035F0
:101710002E2000202020202D2D2D2D2D2D2D2D2D66
:101720002D20202020202000202054686520526594
:10173000706C696361746F7220202020002020206B
:101740002020202020202020202020202020202099
:101750002000010049033600FF006B00D100A0000B
:10176000B800D500A6000A0199003F018E0074015F
:101770008400A9017C00DE01740013026C004802A1
:1017800065007D025D00B2025600E7024E001C03B8
:10179000460051033D0086033200BB032200F003E4
:1017A0000300221BDF1C632893318C33FB3A6B3E12
:1017B000B2505C596E7F11241FBECFEFD1E2DEBF65
:1017C000CDBF18E0A0E0B2E0E6E5F2E001E00BBF3B
:1017D00002C007900D92AE33B107D9F713E1AEE323
:1017E000B8E001C01D92A23FB107E1F717E1C6EBD7
:1017F000D7E100E006C022970109FE010BBF0E945D
:101800003080C23AD10780E00807A9F70E94A128DA
:101810000C9429810C940000EF92FF920F931F9378
:101820007B018C0120E030E040E05FE40E940A0F81
:1018300087FD11C0C801B70120E030E040E05FE45F
:101840000E94AF0D0E949A0F9B01AC0120503040C6
:101850004040504806C0C801B7010E949A0F9B0142
:10186000AC01B901CA011F910F91FF90EF9008954B
:10187000A0E0B0E0EEE3FCE00C94FD7FFC01EA01A7
:101880008081823008F438C1DB019C91923008F4E9
:1018900030C1843059F4943009F02EC191811196F1
:1018A0008C911197981709F021C126C1943009F441
:1018B00020C19230B1F4823009F01EC1CA01AF01DB
:1018C00028E0DA010D90AD01DC010D92CD0121502F
:1018D000C1F7DB0111968C9111979181892389833E
:1018E0000AC1823009F405C1C280D380DB0112969F
:1018F0006D907C9013972481358146815781149691
:10190000ED90FD900D911C911797C60186199709CE
:101910005C0197FF04C0AA24BB24A81AB90AB0E24C
:10192000AB16B1040CF061C0181619066CF537013E
:1019300048010A2C04C096948794779467940A947B
:10194000D2F781E090E0A0E0B0E00A2C04C0880F5C
:10195000991FAA1FBB1F0A94D2F70197A109B109C9
:101960008E219F21A023B123EE24FF248701E3943D
:101970000097A105B10519F4EE24FF248701E6289C
:10198000F728082919293CC00097D1F1CA0CDB1CA3
:1019900039014A010A2C04C096948794779467947D
:1019A0000A94D2F781E090E0A0E0B0E00A2C04C0F5
:1019B000880F991FAA1FBB1F0A94D2F70197A1098C
:1019C000B10982239323A423B52321E030E040E032
:1019D00050E00097A105B10519F420E030E0A9011D
:1019E00026293729482959290BC06C147D0424F471
:1019F000EE24FF24870104C0630120E030E0A90148
:101A00008181FB019181891709F445C0882349F040
:101A1000D801C701821B930BA40BB50B9C01AD0130
:101A200004C02E193F09400B510B57FD04C0198209
:101A3000DB82CA820BC081E08983DB82CA82509537
:101A40004095309521953F4F4F4F5F4F2C833D83FD
:101A50004E835F830DC0880F991FAA1FBB1F8C8305
:101A60009D83AE83BF838A819B8101979B838A83F9
:101A70008C819D81AE81BF819C01AD0121503040A0
:101A8000404050402F3FEFEF3E07EFEF4E07EFE3B0
:101A90005E0708F30BC08983DB82CA822E0D3F1DCF
:101AA000401F511F2C833D834E835F8383E08883D7
:101AB0002C813D814E815F8157FF1DC0DA01C90134
:101AC00081709070A070B0705695479537952795A6
:101AD000822B932BA42BB52B8C839D83AE83BF834A
:101AE0008A819B8101969B838A8305C0ECEDF4E09B
:101AF00003C0FB0101C0FE01CF01CDB7DEB7EEE0B0
:101B00000C941980A0E2B0E0E8E8FDE00C940580B8
:101B100069837A838B839C832D833E834F8358878D
:101B200089E0E82EF12CEC0EFD1ECE010196B701E6
:101B30000E948C118E010F5E1F4FCE010596B801D9
:101B40000E948C11C701B801AE01475E5F4F0E9431
:101B5000380C0E94BE10A096E6E00C942180A0E212
:101B6000B0E0E5EBFDE00C94058069837A838B831C
:101B70009C832D833E834F8358878E01075F1F4FC1
:101B8000CE010196B8010E948C1191E1E92EF12C51
:101B9000EC0EFD1ECE010596B7010E948C118A89BC
:101BA00091E089278A8BC801B701AE01475E5F4F7C
:101BB0000E94380C0E94BE10A096E6E00C94218092
:101BC000A0E2B0E0E6EEFDE00C94F97F69837A8351
:101BD0008B839C832D833E834F835887CE01019650
:101BE000BE01675F7F4F0E948C11CE010596BE013A
:101BF0006F5E7F4F0E948C119985923078F08989B1
:101C00008230C0F0943019F4823041F4CBC084307B
:101C100019F4923079F4C6C0923051F481E02A85EB
:101C20009A89291709F480E08A87CE010996BCC0F9
:101C3000823051F481E02A859A89291709F480E0DD
:101C40008A8BCE014196B0C06D847E848F84988843
:101C5000ED88FE880F89188DE0E2F0E080E090E0EA
:101C6000DC01AA24BB24650120E030E0A901B30116
:101C70006170707061157105D1F02E0D3F1D401F10
:101C8000511F15012601280E391E4A1E5B1E81E0D8
:101C900090E0A0E0B0E02E153F054007510718F096
:101CA00080E090E0DC01820D931DA41DB51DAA0CFF
:101CB000BB1CCC1CDD1C17FF09C061E0262E312C9B
:101CC000412C512CA228B328C428D528319749F09B
:101CD000EE0CFF1C001F111F969487947794679455
:101CE000C6CF6B897C89EB85FC856E0F7F1F6E5F8D
:101CF0007F4F7C8F6B8F61E0EA857A89E71709F463
:101D000060E06A8F6B8D7C8D10C0FC01E170F0701B
:101D1000309729F056954795379527955068B69591
:101D2000A795979587956F5F7F4FB7FDEECF0CC056
:101D3000880F991FAA1FBB1F57FD8160220F331FF9
:101D4000441F551F615070408030E0E09E07E0E086
:101D5000AE07E0E4BE0760F36B8F7C8F6FE7E62E83
:101D6000F12C012D112DE822F9220A231B2360E416
:101D7000E616F1040105110561F487FD0AC021157D
:101D800031054105510529F0805C9F4FAF4FBF4F92
:101D900080788D8F9E8FAF8FB8A383E0898FCE011F
:101DA000499602C08CED94E00E94BE10A096E2E13C
:101DB0000C941580A8E1B0E0E0EEFEE00C94058004
:101DC00069837A838B839C832D833E834F835887DB
:101DD0008E01075F1F4FCE010196B8010E948C1142
:101DE00081E1E82EF12CEC0EFD1ECE010596B70127
:101DF0000E948C118985823040F08989823028F0D8
:101E0000C801B7010E94F51101C081E06896E6E0C3
:101E10000C942180A8E1B0E0E0E1FFE00C940580A3
:101E200069837A838B839C832D833E834F8358877A
:101E30008E01075F1F4FCE010196B8010E948C11E1
:101E400081E1E82EF12CEC0EFD1ECE010596B701C6
:101E50000E948C118985823040F08989823028F077
:101E6000C801B7010E94F51101C08FEF6896E6E046
:101E70000C942180A8E0B0E0E0E4FFE00C94058041
:101E80007B018C0183E08983D801C7018827B7FDD6
:101E900083959927AA27BB27282F8A83E114F10469
:101EA0000105110519F482E0898337C08EE190E0C5
:101EB0009C838B83222389F080E0E81680E0F8067B
:101EC00080E0080780E8180769F110950095F09404
:101ED000E094E11CF11C011D111DED82FE820F83B7
:101EE0001887C801B7010E9464109C01215030403E
:101EF0001216130694F4022E04C0EE0CFF1C001FF1
:101F0000111F0A94D2F7ED82FE820F8318878EE1AB
:101F100090E0821B930B9C838B83CE0101960E94E1
:101F2000BE1004C060E070E080E09FEC2896E6E020
:101F30000C942180ACE0B0E0E0EAFFE00C94098072
:101F400069837A838B839C83CE010196BE016B5F8C
:101F50007F4F0E948C118D81823081F1823070F12F
:101F6000843021F48E81882369F10AC02F8138855D
:101F700037FD24C06E812F3131053CF0662311F10D
:101F800020E030E040E050E821C08EE190E0821B8C
:101F9000930B29853A854B855C8504C056954795FA
:101FA000379527958A95D2F7662381F0509540950D
:101FB000309521953F4F4F4F5F4F08C020E030E0F4
:101FC000A90104C02FEF3FEF4FEF5FE7B901CA014E
:101FD0002C96E2E00C942580A8E0B0E0E2EFFFE070
:101FE0000C9403807B018C011A82611571058105B7
:101FF000910519F482E089835FC083E089838EE1D3
:10200000C82ED12CDC82CB82ED82FE820F83188712
:10201000C801B7010E946410FC013197F7FF3AC074
:10202000AA27BB27AE1BBF0B21E030E040E050E009
:102030000A2E04C0220F331F441F551F0A94D2F7E3
:1020400021503040404050402E213F214023512319
:1020500061E070E080E090E0211531054105510517
:1020600019F460E070E0CB0104C016950795F79471
:10207000E794AA95D2F7E62AF72A082B192BED82C6
:10208000FE820F8318878EE190E08E1B9F0B9C834E
:102090008B8312C0309781F00E2E04C0EE0CFF1C13
:1020A000001F111F0A94D2F7ED82FE820F8318875A
:1020B000CE1ADF0ADC82CB82CE0101960E94BE10CE
:1020C0002896E8E00C941F80AF92BF92CF92DF92E7
:1020D000EF92FF920F931F937B018C0180E0E81633
:1020E00080E0F80681E0080780E0180758F4EFEF79
:1020F000EE16F1040105110509F090F480E090E07E
:10210000DC0117C0F0E0EF16F0E0FF06F0E00F078B
:10211000F1E01F0750F480E190E0A0E0B0E009C0DA
:1021200088E090E0A0E0B0E004C088E190E0A0E0AA
:10213000B0E020E230E040E050E0281B390B4A0BD1
:102140005B0B5701680104C0D694C794B794A79459
:102150008A95D2F7D601C5018C519B4FFC01808135
:10216000281B310941095109C9011F910F91FF90A5
:10217000EF90DF90CF90BF90AF900895EF92FF92D5
:102180000F931F93CF93DF93FC0124813581468108
:10219000578161818081823020F44061EFEFF0E06F
:1021A000A3C0843009F49BC0823009F492C0211589
:1021B00031054105510509F48FC00280F381E02DFE
:1021C0008FEFE238F8070CF05AC0C2E8DFEFCE1B01
:1021D000DF0BCA31D1056CF579018A010C2E04C0E0
:1021E00016950795F794E7940A94D2F781E090E06A
:1021F000A0E0B0E00C2E04C0880F991FAA1FBB1FDF
:102200000A94D2F70197A109B10982239323A42349
:10221000B52321E030E040E050E00097A105B10592
:1022200019F420E030E0A9012E293F29402B512B41
:1022300003C020E030E0A901DA01C9018F77907076
:10224000A070B07080349105A105B10539F427FF65
:1022500009C0205C3F4F4F4F5F4F04C0215C3F4F90
:102260004F4F5F4FE1E0F0E0203080E0380780E042
:10227000480780E4580728F5E0E0F0E022C0E038A5
:10228000F1056CF5E158FF4FDA01C9018F779070C5
:10229000A070B07080349105A105B10539F427FF15
:1022A00009C0205C3F4F4F4F5F4F04C0215C3F4F40
:1022B0004F4F5F4F57FF05C0569547953795279568
:1022C000319687E056954795379527958A95D1F7AA
:1022D0000BC0E0E0F0E005C0E0E0F0E005C0EFEFAB
:1022E000F0E020E030E0A9018E2F879588278795C0
:1022F000942F9F77679566276795E695E22EA92F1D
:10230000A82BFE2FF62B622F732F8A2F9F2FCDB76E
:10231000DEB7E6E00C942180DC01FB012C911196E4
:102320003C91119712968C911297482F4F7750E05D
:10233000982F991F9927991F13966C911397862FA1
:10234000880F892B90E0661F6627661F61830097C0
:1023500039F5211531054105510511F482E029C0F7
:1023600082E89FEF9383828367E0220F331F441F2D
:10237000551F6A95D1F783E0808309C0220F331F70
:10238000441F551F8281938101979383828320305C
:1023900080E0380780E0480780E4580778F320C0E1
:1023A0008F3F910579F4211531054105510519F447
:1023B00084E08083089544FF03C081E0808310C0DF
:1023C00010820EC08F5790409383828383E0808376
:1023D00087E0220F331F441F551F8A95D1F75064A1
:1023E00024833583468357830895FC01DB01908164
:1023F000923008F449C08C91823008F445C0943082
:1024000051F461818430B1F511962C91119730E02F
:10241000261B310941C0843021F0923041F48230D2
:10242000B1F111968C9111978823A1F12DC0618192
:10243000823001F111968C9111976817D9F422819D
:10244000338112968D919C9113978217930794F084
:1024500028173907BCF024813581468157811496AD
:102460008D919D910D90BC91A02D82179307A4078B
:10247000B50718F4662341F00DC0281739074A073D
:102480005B0728F4662331F021E030E005C020E04E
:1024900030E002C02FEF3FEFC901089510924008CD
:1024A000E4E0F1E080818F718083E5E0F1E08081FC
:1024B0008F71808308956F927F928F929F92AF92D7
:1024C000BF92CF92DF92EF92FF920F931F93DF9311
:1024D000CF93CDB7DEB7A8970FB6F894DEBF0FBE87
:1024E000CDBF8C01FC018181882309F0CDC08281A0
:1024F000882309F4BAC0C80102960E94117E88237D
:1025000009F4C2C0B2C080913E088823E9F4C80132
:102510000C9640E856E968E970E00E94F47D81E09D
:1025200080933E0811C07E010894E11CF11CC70194
:102530000E94F07DD8011C96F7018AE001900D926F
:102540008150E1F710923E083CE0E32EF12CE00EC2
:10255000F11EC7010E94117E882399F085E0F801E1
:10256000808381E081838E01055F1F4FC8010E9437
:10257000F07DD701F8018AE001900D928150E1F7DA
:1025800083C0A1FC10C080913F088823F1F4C801EA
:10259000469640E856E968E970E00E94F47D81E0E3
:1025A00080933F0812C025E1E22EF12CEC0EFD1EB7
:1025B000C7010E94F07DD8015696F7018AE001908C
:1025C0000D928150E1F710923F0896E1E92EF12C2F
:1025D000E00EF11EC7010E94117E882399F086E06B
:1025E000F801808381E081838E01015E1F4FC80165
:1025F0000E94F07DD701F8018AE001900D92815090
:10260000E1F742C060904008D61461F16D24EE24D9
:10261000FF247724CC24C39493010E2C02C035955B
:1026200027950A94E2F720FF16C095010E2C02C0F0
:10263000359527950A94E2F720FD0DC0F8018181B8
:10264000882349F4E082C182C40140E452E460E09E
:1026500070E00E94F47D0894E11CF11CF5E0EF1697
:10266000F104D1F6D09240080FC082E0882E912C60
:10267000800E911EC4010E94377ED0900301AD2CC4
:10268000BB24D0FE40CF4FCFA8960FB6F894DEBF44
:102690000FBECDBFCF91DF911F910F91FF90EF90B3
:1026A000DF90CF90BF90AF909F908F907F906F9072
:1026B0000895FC01DB01F894818190811182789466
:1026C000882321F09C9311961C92119708958FE115
:1026D0008093400808958091430A9091440A00979E
:1026E00029F481E080934A0A80E008958091450AA8
:1026F0009091460A2091410A3091420AB9010E9404
:10270000957FE091470AF091480AE80FF91F809100
:10271000450A9091460A0196B9010E94957F9093CF
:10272000460A8093450A8091430A9091440A019792
:102730009093440A8093430A80810895462FFC01B8
:1027400062816F700E949D500895F8948091430AB1
:102750009091440A2091410A3091420A281B390B7A
:102760007894C901089580934C0A089581E080937C
:102770004D0A089580914C0A08952091430A3091A2
:10278000440A81E02115310509F080E008950E9496
:102790006B1308951F930E946B13182F0E946B13E5
:1027A000982F812F1F9108951F93DF93CF9300D00F
:1027B000CDB7DEB70E946B138A830E946B138983A7
:1027C0000E946B13182F0E946B13982F6A817981D6
:1027D000812F0F900F90CF91DF911F91089510924C
:1027E000440A1092430A1092460A1092450A109227
:1027F000490A10924A0A10924F0A10924E0A0895FE
:1028000081E020914E0A30914F0A2630310509F0BF
:1028100080E00895EF92FF920F931F93DF93CF9381
:10282000CDB7DEB728970FB6F894DEBF0FBECDBF89
:102830000E946B1388870E946B138F830E946B1317
:102840009F812885993009F4A4C09A3090F495307E
:1028500009F49FC0963030F49330F1F0943009F0D1
:102860009FC097C0973009F497C0983008F091C086
:1028700093C09C3061F19D3038F49A3009F453C014
:102880009B3009F08DC06CC09731D1F09F31F1F1D0
:102890009D3009F085C02FC0213019F0222331F07E
:1028A00009C091E1E92E9CE0F92E04C081E9E82EEF
:1028B0008BE0F82E0E94CA13BC01C701409630C0BD
:1028C00080914C0A91E0892780934C0A67C021309F
:1028D00019F0222321F005C001E11CE002C001E94A
:1028E0001BE00E94C713682F70E061707070C80110
:1028F0000E94A11F53C00E94C713682F70E061702F
:10290000707087EE9AE00E946A3148C087EE9AE0C4
:1029100061E00E9465310E94CA13BC0183EF9EE012
:102920000E94AD533BC08091791390917A139A83A2
:1029300089838B81807F81608B83CE01019661E0EA
:102940000E949E130E946B1321E030E030934F0AE7
:1029500020934E0A682F70E06170707084E016C09A
:102960008091791390917A139D838C838E81807FDF
:1029700081608E83CE01049661E00E949E130E94C6
:102980006B13682F70E06170707083E00E94D23D1D
:1029900005C00E946B1302C00E94D41381E001C0E5
:1029A00080E028960FB6F894DEBF0FBECDBFCF9162
:1029B000DF911F910F91FF90EF900895FC01462F3A
:1029C000828193812081318182179307A0F46281F3
:1029D000738184819581860F971FB9010E94957F2D
:1029E000A681B781A80FB91F4C938281938101966C
:1029F00093838283089581E080870895682F81E41E
:102A00009AE00E94DE1408952F923F924F925F92B7
:102A10006F927F928F929F92AF92BF92CF92DF92EE
:102A2000EF92FF920F931F93DF93CF93CDB7DEB753
:102A3000CF5AD0400FB6F894DEBF0FBECDBF0E9474
:102A4000DC37882309F18091430A9091440A209150
:102A5000410A3091420A2817390709F4CDC50E946E
:102A60002938882309F4C8C50E942C38682F81E4CE
:102A70009AE00E94DE14E7CF8091430A9091440AC5
:102A8000009711F40E943B380E94CA3E882309F146
:102A90008091430A9091440A2091410A3091420A60
:102AA0002817390709F4AEC50E94D03E882309F4DF
:102AB000A9C50E94DE3E682F81E49AE00E94DE14E0
:102AC000E7CF8091430A9091440A009711F40E9445
:102AD000473F80914C0A882309F09AC580914D0A9E
:102AE000882309F095C580914E0A90914F0A833052
:102AF000910581F40E94003B882341F08AE59AE029
:102B00000E94117E882331F00E945C3B10924F0A94
:102B100010924E0A80914E0A90914F0A8130910591
:102B200041F40E94003B882321F410924F0A109236
:102B30004E0A80914E0A90914F0A8230910551F4CD
:102B400080E59AE00E94117E882321F010924F0ABE
:102B500010924E0A80914E0A90914F0A843091054E
:102B6000E1F484E69AE00E94117E882391F480913A
:102B70004B0A813019F0882321F005C001E11CE0E7
:102B800002C001E91BE0C80140960E944754882317
:102B900021F010924F0A10924E0A80914E0A9091A5
:102BA0004F0A8530910581F484E69AE00E94117EF7
:102BB000882331F483EF9EE00E944754882321F05C
:102BC00010924F0A10924E0A80914E0A90914F0A2D
:102BD0008630910561F58EE69AE00E94117E882389
:102BE00051F08091790A81FF1EC087EE9AE060E083
:102BF0000E94BA2E1CC084EC9CE00E945459882389
:102C0000B1F08091790A82FF04C084EC9CE00E94BC
:102C1000985787EE9AE060E070E040E050E00E9454
:102C2000432D0E94DD3510924F0A10924E0A80917A
:102C30004E0A90914F0A009709F0EAC48091430A26
:102C40009091440A009709F4E3C487EE9AE00E9449
:102C5000DA2C8091450A9091460A2091410A3091E0
:102C6000420AE091470AF091480AB9010E94957F13
:102C70008E0F9F1FDC010C910138F1F58091430A02
:102C80009091440A8131910508F4C2C40E946B13EB
:102C900081E090E090934F0A80934E0A0E94D413F3
:102CA0006B017C010E94D4131B012C010E94D413E0
:102CB0003B014C010E94D413CB55DF4F68837983CD
:102CC0008A839B83C55AD04019E1A12EB12CAC0E4A
:102CD000BD1EC501B701A601920181017401630106
:102CE0000E940234C501CB55DF4F488159816A816A
:102CF0007B81C55AD04074C00B3809F074C08091F4
:102D0000430A9091440A8931910508F481C40E94D4
:102D10006B1381E090E090934F0A80934E0A0E94DB
:102D2000D4134B015C010E94D4138B019C01C2554A
:102D3000DF4F2883CE5AD040C155DF4F3883CF5A5A
:102D4000D0400E94D4131B012C010E94D413CB55F8
:102D5000DF4F688379838A839B83C55AD0400E9462
:102D6000D4136B017C010E94D413C755DF4F6883D5
:102D700079838A839B83C95AD04000D000D0BDE2BA
:102D80006B2E712C6C0E7D1EEDB7FEB7C182D28208
:102D9000E382F482C301B501A401C255DF4F28814B
:102DA000CE5AD040C155DF4F3881CF5AD040720142
:102DB0006101CB55DF4F88809980AA80BB80C55ABE
:102DC000D0400E94CE330F900F900F900F90C30110
:102DD000C755DF4F488159816A817B81C95AD040EC
:102DE0000E94E13B15C40E3809F082C08091430A6D
:102DF0009091440A8A31910508F40AC40E946B1329
:102E000081E090E090934F0A80934E0A0E94D41381
:102E10004B015C010E94D4138B019C01C255DF4F12
:102E20002883CE5AD040C155DF4F3883CF5AD04087
:102E30000E94D4131B012C010E94D413CB55DF4FE9
:102E4000688379838A839B83C55AD0400E94D413B8
:102E50006B017C010E94D413C755DF4F68837983CF
:102E60008A839B83C95AD0400E94C713C355DF4F42
:102E70008883CD5AD04000D000D0A1E46A2E712CB6
:102E80006C0E7D1EADB7BEB71196CD92DD92ED9260
:102E9000FC921497C301B501A401C255DF4F2881EC
:102EA000CE5AD040C155DF4F3881CF5AD040720141
:102EB0006101CB55DF4F88809980AA80BB80C55ABD
:102EC000D0400E94CE330F900F900F900F90C3010F
:102ED000C755DF4F488159816A817B81C95AD040EB
:102EE000C355DF4F2881CD5AD0400E94A93C90C3E2
:102EF000063879F48091430A9091440A8230910512
:102F000008F486C30E946B130E946B1380934B0AD4
:102F10007FC3093839F58091430A9091440A823081
:102F2000910508F475C30E946B130E946B13A82EC1
:102F3000AA1CAA24AA1C00E010E0C82EDD24C601A9
:102F4000002E02C0959587950A94E2F780FF04C091
:102F5000802F6A2D0E94D23D0F5F1F4F0530110553
:102F600071F756C3023821F58091430A9091440AC3
:102F70008D30910508F44CC30E946B130E94D4134A
:102F80003B014C010E94D4131B012C010E94D4135D
:102F90006B017C01F5E5AF2EB12CAC0EBD1EC50159
:102FA000B401A301920181010E940234C50148C00D
:102FB0000C3809F048C08091430A9091440A853149
:102FC000910508F425C30E946B130E94D4136B0172
:102FD0007C010E94D4131B012C010E94D4134B01CD
:102FE0005C010E94D413CB55DF4F688379838A83B9
:102FF0009B83C55AD0400E94D41300D000D0E9E68C
:103000006E2E712C6C0E7D1EEDB7FEB76183728340
:1030100083839483C301B701A601920181017501E5
:103020006401CB55DF4F88809980AA80BB80C55A48
:10303000D0400E94CE330F900F900F900F90C3019D
:103040000E94613BE5C20538E9F48091430A909102
:10305000440A8530910508F4DBC282E090E0909349
:103060004F0A80934E0A0E946B130E94D41328EEDD
:1030700033E040E050E00E94767FAB01BC0180E588
:103080009AE01CC10439B9F58091430A9091440A31
:103090008530910508F4BCC20E946B130E946B132B
:1030A0008093780A0E94CA138C010E946B1380934C
:1030B000790A0115110581F0B80180E090E020E463
:1030C00032E44FE050E00E94767FAB01BC018EE617
:1030D0009AE00E94F47D80C08E010B5F1F4FC801F3
:1030E0000E94F07DAEE6BAE0F8018AE001900D9210
:1030F0008150E1F771C0053909F083C08091430A1E
:103100009091440A8630910508F482C20E946B13A4
:103110000E946B13C82E0E946B13882E0E946B13A3
:10312000A82E0E946B13082FC0FC04C082E79EE00B
:103130000E949A728092740EA092750E41E0C1FEB8
:1031400040E082E79EE061E47AE00E943076E09120
:10315000120DFF27E7FDF095EE0FFF1FEC5FF24F1A
:1031600020813181FEE022373F0731F084EC9CE082
:1031700062E77EE00E94F356002341F0C2FC06C0E5
:1031800082E79EE0602F41E00E94DE72C2FE40C2F4
:10319000002389F0602F70E080E090E020E432E4CA
:1031A0004FE050E00E94767FAB01BC018EE69AE0D2
:1031B0000E94F47D0EC08E01015F1F4FC8010E9466
:1031C000F07DAEE6BAE0F8018AE001900D92815000
:1031D000E1F781E08093780A87EE9AE069E170E098
:1031E0004FE050E00E94432D84EC9CE06091780A0F
:1031F0000E944F5986E090E090934F0A80934E0AC8
:1032000007C2802F8358823090F58091430A9091B5
:10321000440A8830910508F4FBC10E946B130E9498
:10322000C713A82E0E94D4136B017C010E94CA13FD
:1032300023E030E030934F0A20934E0ABC0180E037
:1032400090E020E432E44FE050E00E94767FAB0152
:10325000BC018AE59AE00E94F47D81E0043809F01F
:1032600080E06A2DA70196010E94613DD1C1073817
:1032700041F58091430A9091440A8630910508F403
:10328000C7C184E090E090934F0A80934E0A0E9459
:103290006B130E946B1380934B0A0E94CA130E9407
:1032A000CA13BC0180E090E020E432E44FE050E03B
:1032B0000E94767FAB01BC0184E69AE00E94F47D17
:1032C000A7C10D3899F48091430A9091440A863041
:1032D000910508F49DC185E090E090934F0A80939A
:1032E0004E0A0E946B130E946B13D7CF0F3809F060
:1032F00047C08091430A9091440A8230910508F4B6
:1033000087C10E946B130E94C7135EE0A52EB12CEB
:1033100000E010E0882E99244DE7642E712C6C0E8D
:103320007D1E6E010894C11CD11CC401002E02C078
:10333000959587950A94E2F780FF18C0C3010E9413
:103340008C3BC301B8010E942434FC01808191812F
:10335000A281B38189839A83AB83BC83F894C6012D
:10336000B50144E050E00E94048178940F5F1F4F44
:1033700084E090E0A80EB91E05301105B1F648C1F1
:10338000003909F03FC08091430A9091440A82308D
:10339000910508F43DC10E946B130E94C713C82E0B
:1033A00031E9A32EB12CAC0EBD1EC5010E948C3B91
:1033B0002EE0622E712C00E010E0DD248A2CAB2C74
:1033C000C601002E02C0959587950A94E2F780FF0A
:1033D0000CC0F894882D9A2DB8010E942C34B301AA
:1033E00044E050E00E94EE8078940F5F1F4FA4E00D
:1033F000B0E06A0E7B1E0530110511F7CE018F5625
:103400009F4F1ECE0139C9F48091430A9091440A1E
:103410008230910508F4FCC00E946B130E94C71310
:10342000C82E0E94C713082F8C2D602F0E94E43DE8
:103430008C2D602F0E94E43DEBC0023989F580910C
:10344000430A9091440A8230910508F4E1C00E9439
:103450006B130E94C713082F0E94C713C155DF4F7B
:103460008883CF5AD0400E94C713C255DF4F88834C
:10347000CE5AD0400E94C713C82E0E94C7138C2D6D
:103480000E946836802FC155DF4F6881CF5AD040E7
:10349000C255DF4F4881CE5AD0400E94CC35B8C0CB
:1034A000033909F58091430A9091440A82309105CD
:1034B00008F4AEC00E946B130E94CA13082F0E942A
:1034C000CA13C155DF4F8883CF5AD0400E94C7131B
:1034D000802F90E0C155DF4F6881CF5AD04070E017
:1034E0000E94D73195C0083819F58091430A909110
:1034F000440A8430910508F48BC08091450A90916C
:10350000460A0091430A1091440A0396B9010E94A9
:10351000957F8E0F9F1FFC01808190E00496081715
:10352000190708F475C00E946B130E940A1470C03A
:10353000063999F48091430A9091440A82309105AA
:1035400008F466C00E946B130E94C713082F0E94E4
:10355000C713802F0E9437565BC00739C9F480918A
:10356000430A9091440A8230910508F451C00E94A8
:103570006B130E94C713882311F484E006C08130C6
:1035800019F40E94B33244C082E00E94943240C0D9
:10359000083991F48091430A9091440A0097C1F14F
:1035A0000E946B130E94C7130E94FF1D87EE9AE0D2
:1035B00060E00E94BA2E2CC0093979F48091430A48
:1035C0009091440A009721F10E946B130E94D4133A
:1035D00081E49AE00E94FB271BC00A39C9F480915C
:1035E000430A9091440A009799F00E946B130E943D
:1035F0006B130E946B230CC00E942938882309F4A6
:103600003BCA42CA0E94D03E882309F45ACA61CA02
:10361000C155DF4F0FB6F894DEBF0FBECDBFCF91BF
:10362000DF911F910F91FF90EF90DF90CF90BF90AF
:10363000AF909F908F907F906F905F904F903F9052
:103640002F90089580E092E09093420A8093410A7F
:103650001092440A1092430A1092460A1092450AA8
:1036600081E498E09093480A8093470A1092490AAF
:1036700010924A0A80E59AE00E94F07D8AE59AE07D
:103680000E94F07D84E69AE00E94F07D8EE69AE04A
:103690000E94F07D0895462FFC0162816F700E94A8
:1036A0007B500895FC0162816F700E9490500895D4
:1036B000DF93CF9300D000D000D0CDB7DEB780919C
:1036C0008313909184139A8389838B81807F8B836A
:1036D000CE0101960E94521B882379F480918113B8
:1036E000909182139D838C838E81807F84608E83F2
:1036F000CE0104960E94521B01C081E026960FB6AF
:10370000F894DEBF0FBECDBFCF91DF9108950F9328
:103710001F93DF93CF93CDB7DEB72C970FB6F894F6
:10372000DEBF0FBECDBF8C018091831390918413B7
:103730009A8389838B81807F8B83CE0101960E943F
:10374000521B882391F580918313909184139D835C
:103750008C838E81807F81608E83CE01049661E0B0
:103760000E949E13809181139091821398878F837A
:103770008985807F84608987CE0107960E94521BCD
:10378000882321F0C8010E94E01B0FC080918313A1
:10379000909184139B878A878C85807F81608C873A
:1037A000CE010A9660E00E949E132C960FB6F89404
:1037B000DEBF0FBECDBFCF91DF911F910F91089556
:1037C0000F931F93DF93CF93CDB7DEB72C970FB630
:1037D000F894DEBF0FBECDBF8C0180918313909112
:1037E00084139A8389838B81807F8B83CE0101969A
:1037F00060E00E949E1380918313909184139D83B7
:103800008C838E81807F8E83CE01049661E00E943E
:103810004B1BF8011082809181139091821398873D
:103820008F838985807F84608987CE0107960E9477
:10383000521B882319F0C8010E94871B80918313B3
:10384000909184139B878A878C85807F81608C8789
:10385000CE010A9660E00E949E132C960FB6F89453
:10386000DEBF0FBECDBFCF91DF911F910F910895A5
:103870000F931F93DF93CF93CDB7DEB72C970FB67F
:10388000F894DEBF0FBECDBF8C0180918313909161
:1038900084139A8389838B81807F81608B83CE019F
:1038A000019660E00E949E1380918313909184138F
:1038B0009D838C838E81807F81608E83CE01049670
:1038C00061E00E944B1B8091811390918213988735
:1038D0008F838985807F84608987CE01079660E029
:1038E0000E949E1380918113909182139B878A87F7
:1038F0008C85807F84608C87CE010A9660E00E9470
:103900004B1BC8010E94E01BF80111821282138236
:103910002C960FB6F894DEBF0FBECDBFCF91DF91CE
:103920001F910F910895CF93DF93EC018B81882332
:1039300029F485E00E94943281E08B83DF91CF915E
:1039400008950F931F93DF93CF9300D00F92CDB7BD
:10395000DEB78C01FC018281853128F0C8010E940C
:10396000931C80E024C080918313909184139A83E8
:1039700089838B81807F8B83CE0101960E94521BAD
:10398000882331F0F801118282818F5F82830EC01B
:10399000F8018181863028F0C8010E94871BF80158
:1039A0001182F80181818F5F8183128281E00F9003
:1039B0000F900F90CF91DF911F910F9108958AE79B
:1039C0009AE00E947E780895DF93CF9300D0CDB720
:1039D000DEB7BC0181E0898382E38A83CE01019650
:1039E00042E050E00E9404810F900F90CF91DF9150
:1039F0000895CF93DF93EC0140E050E060EE70E477
:103A00000E943D52CE01029646E656E666EA7EE305
:103A10000E943D52CE01049640E050E060E172E425
:103A20000E943D52DF91CF9108950F931F93CF9342
:103A3000DF93EB018B01085E1F4F009719F4CB0158
:103A400067E002C0CB0168E30E940E81C80162E317
:103A50000E940E81CE010A960E94F91CCE0140966A
:103A60000E94F91CCE014A960E94E41CCE010696E3
:103A700064EF71E00E942481CE01029665E070E05F
:103A80000E942481CE01049664EF71E00E9424819B
:103A9000CE0108966CE271E00E942481DF91CF9103
:103AA0001F910F910895CF93DF93EC0140EA56E800
:103AB00061E070E00E941C81CE01049649E150E073
:103AC00060E070E00E941C81CE01089643EE5FE04A
:103AD00060E070E00E941C81BE01605F7F4F82E564
:103AE00097E140E550E00E940481DF91CF91089575
:103AF0000F931F93DF93CF9300D00F92CDB7DEB714
:103B00008C0160E00E940E81C801029660E00E9474
:103B10000E818FEF89831B821A82B8016C5F7F4F01
:103B2000CE01019643E050E00E9404810F900F9077
:103B30000F90CF91DF911F910F9108950F931F93D5
:103B4000DF93CF9300D000D0CDB7DEB7082F162F6C
:103B500080E491E067E04C830E940E8109831A8320
:103B60004C814B83CE01019664E471E043E050E068
:103B70000E9404810F900F900F900F90CF91DF91D2
:103B80001F910F910895EF92FF920F931F93CF9380
:103B9000DF937B018C01EA01CA01B7010E942481F5
:103BA000CE010496B8010E942481DF91CF911F912C
:103BB0000F91FF90EF900895AC016BE770E084EFF8
:103BC00091E00E94C31D0895CF93DF93EC016CED4B
:103BD00070E00E942481CE0102966CED70E00E949C
:103BE0002481CE01049664E670E00E942481CE0117
:103BF000069665E00E940E81DF91CF910895DF93D4
:103C0000CF93CDB7DEB76D970FB6F894DEBF0FBE7A
:103C1000CDBFDE011596E0E1F6E085E001900D9262
:103C20008150E1F781EC93E29A83898384E193EDFB
:103C30009C838B8380E092E062E270E044E150E09C
:103C40000E940481CE01059666E070E045E050E0F8
:103C50000E94048184E090E06FE90E940E818CE074
:103C600090E06BE10E940E81DE011A96ECEFF5E028
:103C700084E101900D928150E1F782E490E061E0EF
:103C80000E949F51882341F085EE9BE2A0E0B0E0C6
:103C90008A879B87AC87BD87CE010A966EE070E06D
:103CA00044E150E00E94048184E790E00E94531DAB
:103CB00088E591E00E94E41DCE01019664E470E085
:103CC00044E050E00E94048180E090E060E071E018
:103CD0000E94151D81E090E06CE171E00E94151DCD
:103CE00080E491E00E94781D8AE491E00E94DC1D4E
:103CF00086E591E060E00E940E816D960FB6F89423
:103D0000DEBF0FBECDBFCF91DF9108951F93DF932C
:103D1000CF93CDB7DEB764970FB6F894DEBF0FBE72
:103D2000CDBF182F833008F011E082E490E0612FBE
:103D30000E940E81DE011196E8EEF5E084E101902B
:103D40000D928150E1F7113041F485EE9BE2A0E045
:103D5000B0E089839A83AB83BC83CE0101966EE089
:103D600070E044E150E00E94048164960FB6F8943C
:103D7000DEBF0FBECDBFCF91DF911F91089582E4CA
:103D800090E061E00E949F5191E0813009F090E065
:103D9000892F089580E491E00E94781D8AE491E0E3
:103DA0000E94DC1D88E591E00E94E41D089582E0F8
:103DB00090E06CE00E940E8182E490E061E00E945D
:103DC0000E810E94FF1D08956F927F928F929F92A5
:103DD000AF92BF92CF92DF92EF92FF920F931F9319
:103DE000DF93CF93CDB7DEB72F970FB6F894DEBF32
:103DF0000FBECDBF3C01D62E2F8338874987EA8678
:103E0000FB860C87AD86BE86CF8680917D13909110
:103E10007E139A8389832B81207F22602B839D834D
:103E20008C838E81807F85608E83C301BE01635F3A
:103E30007F4FAE014F5F5F4F9E012C5F3F4F0E944F
:103E4000CD7D89E196E0F30196878587D78690E15D
:103E5000A92EB12CA60CB71CA301435F5F4F8AE0CB
:103E6000E82EF12CE80CF91CC501B30100E211EABF
:103E700027E030E0CC24C3940E946D53D301A059B5
:103E8000BF4FFE01379683E001900D928150E1F71C
:103E9000F301ED58FF4FD082A401465E5F4FC3018E
:103EA0008C589F4FB5010A851B852C850E944F5168
:103EB000F301E258FF4F918280822F960FB6F8945B
:103EC000DEBF0FBECDBFCF91DF911F910F91FF904D
:103ED000EF90DF90CF90BF90AF909F908F907F90AA
:103EE0006F9008950F931F93CF93DF93EC018C0194
:103EF00000591F4FC80160E00E949E13C80161E095
:103F00000E944B1BCE0140960E947852CE010E9427
:103F1000327DCE018C589F4F0E942551DF91CF9169
:103F20001F910F910895CF93DF93EC0140960E946B
:103F3000CF54CE018C589F4F0E940351DF91CF91F7
:103F400008958C589F4F662319F00E94F5500895EC
:103F50000E9420510895882321F08091800080687C
:103F600003C0809180008F73809380000895882320
:103F700021F08091A000806803C08091A0008F7321
:103F80008093A00008950F931F93DF93CF9300D0E9
:103F900000D000D0CDB7DEB7062F1FB7F894FC01D4
:103FA0008281882309F5862F81508E3FA0F080E022
:103FB0000E94B71F80918313909184139A83898301
:103FC0008B81807F83608B8361E00F3F09F060E02D
:103FD000CE01019622C070E07093A9006093A80002
:103FE00081E00E94B71F24C0813011F5862F8150D7
:103FF0008E3FB0F080E00E94AB1F809177139091CC
:1040000078139D838C838E81807F85608E8361E0B1
:104010000F3F09F060E0CE0104960E949E1308C095
:1040200070E0709389006093880081E00E94AB1F6C
:104030001FBF26960FB6F894DEBF0FBECDBFCF913F
:10404000DF911F910F910895CF93DF93EC010E94B0
:10405000BA1391E089270E94B313CE0161E80E9450
:10406000C678DF91CF910895FC0183A194A10097B8
:1040700041F023A134A181E02430310519F480E01E
:10408000089580E00895CF92DF92EF92FF920F9310
:104090001F93CF93DF93EC018B018881882399F1E3
:1040A0007E01DC2ECF2CCE0160E00E94667887FF77
:1040B0002AC00E94DF37882321F0CE010E94E23718
:1040C00008C00E94DC37882321F40E94CA3E88235E
:1040D00021F1C80161E80E94C67813C08D2D9C2D86
:1040E0006C2F0E9466780E94FE142196CE15DF0583
:1040F000ACF3C80161E802C0C80162E80E94C6785A
:10410000789481E001C080E0DF91CF911F910F9101
:10411000FF90EF90DF90CF900895F894E8800E9490
:10412000A513FF248E159F0538F3C0E0D0E0DECF45
:104130000895CF93DF93EB0161E00E946B788A31A1
:10414000910540F4CE0161E80E94C678CE0160E09E
:1041500070E007C0CE0161E80E94C678CE0164EF2E
:1041600071E00E94C978DF91CF9108959F92AF923C
:10417000BF92CF92DF92EF92FF920F931F93DF9344
:10418000CF93CDB7DEB765970FB6F894DEBF0FBEFD
:10419000CDBF6B01F8948E010F5F1F4FC8010E94C5
:1041A0008C3BC60161E80E94C678C80160E070E0FF
:1041B0000E942434FC014081518162817381C601D7
:1041C0000E94DF78C80161E070E00E942434FC01A5
:1041D0004081518162817381C6010E94DF78C801EC
:1041E00062E070E00E942434FC01408151816281D0
:1041F0007381C6010E94DF7802E010E060E08DE18B
:10420000A82EB12C0A9D70010B9DF00C1A9DF00C8C
:10421000112487EE9AE0E80EF91E962E990C990C5F
:10422000C7010E94E77A882311F022E001C020E054
:10423000C7012D8B0E94037B2D89622F6929682B72
:10424000015010409FEF0F3F1907E1F6C6010E9491
:10425000C678789465960FB6F894DEBF0FBECDBFD2
:10426000CF91DF911F910F91FF90EF90DF90CF9052
:10427000BF90AF909F9008959F92AF92BF92CF92C0
:10428000DF92EF92FF920F931F93DF93CF93CDB7FF
:10429000DEB765970FB6F894DEBF0FBECDBF8B01BA
:1042A000F8947E010894E11CF11CC7010E948C3B2C
:1042B000C80161E80E94C678C70160E070E00E9412
:1042C0002434FC014081518162817381C8010E94C4
:1042D000DF78C70161E070E00E942434FC01408176
:1042E000518162817381C8010E94DF78C70162E059
:1042F00070E00E942434FC0140815181628173810D
:10430000C8010E94DF78C70163E070E00E94243496
:10431000FC014081518162817381C8010E94DF7874
:10432000C70164E070E00E942434FC0140815181A7
:1043300062817381C8010E94DF7824E0C22ED12CF3
:1043400060E09DE1A92EB12CCA9C7001CB9CF00CC1
:10435000DA9CF00C112487EE9AE0E80EF91E962EF6
:10436000990C990CC7010E94E77A882311F022E08A
:1043700001C020E0C7012D8B0E94037B2D89622F95
:104380006929682B0894C108D1089FEFC9169FEFCF
:10439000D906D1F6C80170E00E94C9787894659674
:1043A0000FB6F894DEBF0FBECDBFCF91DF911F9146
:1043B0000F91FF90EF90DF90CF90BF90AF909F90C4
:1043C00008950F931F93CF93DF93EB018C010D5F43
:1043D0001F4FCB0161E80E94C678C8010E940839CE
:1043E000682FCE010E94C678DF91CF911F910F9167
:1043F00008956F927F928F929F92AF92BF92CF92C9
:10440000DF92EF92FF920F931F93DF93CF930F9260
:10441000CDB7DEB77C018B01CDB6DEB68DB69EB6CC
:10442000ADB6BEB6CB0161E80E94C678C70161E0B7
:104430000E946678882379F00E944B39BC0100976E
:1044400051F0C8010E94C678C80160E00E94C67899
:104450003C2D292D37C08DB79EB74F970FB6F894D6
:104460009EBF0FBE8DBFEDB6FEB60894E11CF11CD9
:10447000C7016FE140E050E00E94E336BC01F70164
:104480008081882329F06115710511F48E3281F342
:10449000C8010E94C67820E0E22FF0E02F3161F0E1
:1044A000EE0DFF1D6081662339F0C80129830E944B
:1044B000C67829812F5FF0CFC80160E00E94C678DE
:1044C0003A2D2B2D832F922F0FB6F8949EBF0FBE3F
:1044D0008DBF0FB6F894DEBE0FBECDBE0F90CF914C
:1044E000DF911F910F91FF90EF90DF90CF90BF90E1
:1044F000AF909F908F907F906F9008958F929F9232
:10450000AF92BF92CF92DF92EF92FF920F931F93E1
:10451000DF93CF93CDB7DEB7A82EE92E6B018DB612
:104520009EB661E00E946B788C018A2D9E2D63E01F
:104530000E946678482FA82EBB248DB79EB78A1993
:104540009B090FB6F8949EBF0FBE8DBFEDB6FEB6A9
:104550000894E11CF11CC701B80150E00E94EE80F4
:10456000C60161E80E94C67800E010E008C0F701CB
:1045700061917F01C6010E94C6780F5F1F4F0A1527
:104580001B05ACF30FB6F8949EBE0FBE8DBECF9147
:10459000DF911F910F91FF90EF90DF90CF90BF9030
:1045A000AF909F908F9008952F923F924F925F927D
:1045B0006F927F928F929F92AF92BF92CF92DF9233
:1045C000EF92FF920F931F93DF93CF930F92CDB78C
:1045D000DEB7C82EB92E4B012DB63EB661E00E9463
:1045E0006B78A82E792E8C2D9B2D63E00E94667827
:1045F000D82E482E55248DB79EB7841995090FB62D
:10460000F8949EBF0FBE8DBF0DB71EB70F5F1F4F33
:10461000602E1983C8016A2D772D4D2D50E00E9420
:10462000EE80E02EF12E00E010E00BC0602F6C5FFA
:104630008C2D9B2D0E946678F70181937F010F5F7F
:104640001F4F0415150594F3862D99816A2D772D3A
:104650004D2D50E00E940481C40161E80E94C6789B
:10466000C4016D2D0E94C6780FB6F8943EBE0FBEF1
:104670002DBE0F90CF91DF911F910F91FF90EF9082
:10468000DF90CF90BF90AF909F908F907F906F9072
:104690005F904F903F902F9008950F931F93CF936B
:1046A000DF93EB0161E00E946678082F80FF02C073
:1046B0000E945C3B01FF02C00E94EF13CE0161E843
:1046C0000E94C678CE0160E00E94C678DF91CF914B
:1046D0001F910F9108951092E40A1092E30A089531
:1046E0000F931F93CF93DF938091B40A882379F4BB
:1046F00004EB1AE0C2E2D0E0CE0160E00E949F51DC
:10470000F80181938F012196C233D105A9F78091D9
:10471000B40A882369F4A4EBBAE080E090E0FC01DD
:10472000EC59FE4FE491ED9301968E309105B9F767
:1047300084EB9AE0DF91CF911F910F91089584EC63
:104740009AE008958091E30A9091E40A089584EC38
:104750009AE00E94D4389C01009731F482E090E006
:104760009093E40A8093E30AC9010895CF92DF92FF
:10477000EF92FF920F931F93CF93DF936C017B0116
:10478000CB0161E80E94C67804EC1AE0C1E0D0E0F9
:1047900008C0C6016C2F0E946678F80181938F01D2
:1047A0002196F601808190E0C817D90794F3109202
:1047B000E20A0E94A723682FC7010E94C678DF91F2
:1047C000CF911F910F91FF90EF90DF90CF900895C0
:1047D0000E94153F882331F085E090E09093E40A31
:1047E0008093E30A0E94EF130E945C3B87EE9AE0FD
:1047F0000E94093B08958091E30A9091E40A813078
:10480000910571F484E090E09093E40A8093E30AC8
:104810008AEA9AE040E452E46FE070E00E94F47D9E
:1048200081E08093E50A08952F923F924F925F9224
:104830007F928F929F92AF92BF92CF92DF92EF9230
:10484000FF920F931F93DF93CF93CDB7DEB72C97D3
:104850000FB6F894DEBF0FBECDBF8C017C876B878F
:10486000FC018081882309F4A9C1702E812EC80122
:1048700061E00E946678982EC80162E00E94667826
:10488000E82FF0E0E632F10508F098C1EE58FF4F4E
:10489000EE0FFF1F0590F491E02D09948B859C8508
:1048A00061E80E94C6788B859C8564EF71E083C1C6
:1048B0008B859C8561E80E94C6780FE012E0F801C4
:1048C000E1908F018B859C856E2D0E94C678EE202D
:1048D00009F476C1F2E00E321F0789F771C181E059
:1048E0008093E50A30C08B859C8561E80E94C6787C
:1048F000892D813019F0992031F009C011E1E12EA4
:104900001CE0F12E04C0B1E9EB2EBBE0FB2EC70189
:10491000409676C0992D913019F0992031F009C058
:10492000A1E1CA2EACE0DA2E04C0F1E9CF2EFBE003
:10493000DF2E872D982D62E00E946B78BC01C601A6
:1049400040960E94AD538B859C8561E8C8C0C80124
:104950006B857C850E947E2233C1C8016B857C8576
:104960000E94D4222DC18B859C850E94242028C1C1
:10497000E92DE13019F0992031F009C0E1E1AE2EC6
:10498000ECE0BE2E04C071E9A72E7BE0B72E872D88
:10499000982D62E00E946678682F70E061707070F8
:1049A000C5010E94A11FCFCF802F912F63E00E94ED
:1049B0006678682F70E06170707087EE9AE00E94F0
:1049C0006A31FEC08B859C8561E80E94C678F92D0E
:1049D000F13019F0992031F009C061E1462E6CE008
:1049E000562E04C051E9452E5BE0552EC20140967B
:1049F00032C08B859C8561E80E94C67883EF9EE07B
:104A00000E946954D5C08B859C8561E80E94C67858
:104A1000892D813019F0992031F009C041E1242E0F
:104A20004CE0342E04C031E9232E3BE0332EC1018B
:104A3000409607C08B859C8561E80E94C67883EF0D
:104A40009EE00E946354B4C08B859C8561E80E94FF
:104A5000C67883EF9EE00E944754682F3EC08B8546
:104A60009C8561E80E94C678992D913019F09920B3
:104A700031F009C0E1E1FCE0FA83E98304C081E997
:104A80009BE09A83898389819A8140960E94DE55B2
:104A9000882311F000E801C000E083EF9EE00E944F
:104AA000DE55882311F080E401C080E0082B992DA9
:104AB000913019F0992031F009C0E1E1FCE0FC836C
:104AC000EB8304C081E99BE09C838B838B819C8179
:104AD00040960E944754602F682B8B859C850E94CE
:104AE000C6786EC08B859C8561E80E94C678992D3A
:104AF000913019F0992031F009C0E1E1FCE0FE832A
:104B0000ED8304C081E99BE09E838D838D819E812E
:104B100040960E946E54BC018B859C850E94C9788A
:104B2000992D913019F0992031F009C0E1E1FCE0B4
:104B3000F887EF8304C081E99BE098878F838F819A
:104B4000988540960E947254BC018B859C850E947A
:104B5000C978992D913019F0992031F009C0E1E11F
:104B6000FCE0FA87E98704C081E99BE09A8789879E
:104B700089859A8540960E947654BC018B859C85D8
:104B80000E94C97883EF9EE00E946E54BC018B8521
:104B90009C850E94C97883EF9EE00E947254BC01FC
:104BA0008B859C850E94C97883EF9EE00E94765495
:104BB000BC018B859C850E94C97802C080E001C041
:104BC00081E02C960FB6F894DEBF0FBECDBFCF911B
:104BD000DF911F910F91FF90EF90DF90CF90BF90EA
:104BE000AF909F908F907F905F904F903F902F90CD
:104BF0000895EF92FF920F931F93CF93DF938C0151
:104C0000EB01FC018081882309F4CBC0C80160E07E
:104C10000E94667887FDC5C0E82FF0E0EA31F10513
:104C200008F0BFC0E856FF4FEE0FFF1F0590F4914C
:104C3000E02D0994C801BE010E949920B4C0CE01A4
:104C400061E80E94C67804ECE02E0AE0F02E8701AD
:104C5000CE01F70161917F010E94C678F801808141
:104C6000882309F4A0C0F3EEEF16FAE0FF0679F707
:104C70009AC08091E30A9091E40A9C01215030404F
:104C80002230310518F08530910531F487EE9AE035
:104C900064E070E00E940D2D81E08093E50ACE0172
:104CA00061E80E94C6787FC0CE0161E80E94C678A4
:104CB0000E94A513AC0160E070E017C0C801BE01FE
:104CC0000E94B62070C0C801BE010E943C216BC08A
:104CD000C801BE010E94E12166C0CE0161E80E94C8
:104CE000C6780E947D38AB01BC01CE0157C0C80117
:104CF000BE010E94B62357C0C801BE010E94F9211F
:104D000052C0CE010E9424204EC0C801BE010E94A4
:104D1000142449C0CE0161E80E94C678F8940E942C
:104D2000003B882321F40E94BD13882311F460E026
:104D300001C061E0CE010E94C678789434C0C801F9
:104D4000BE010E947E222FC0C801BE010E94D42253
:104D50002AC0C801BE010E944D2325C0CE0161E8D2
:104D60000E94C678CE0140E050E0BA010E94DF7890
:104D7000CE0140E050E0BA010E94DF78CE0140E071
:104D800050E0BA010E94DF78CE0140E050E0BA0165
:104D90000E94DF78CE0140E050E0BA010E94DF7847
:104DA00002C080E001C081E0DF91CF911F910F919F
:104DB000FF90EF9008950F931F93DF93CF93CDB79C
:104DC000DEB72A970FB6F894DEBF0FBECDBF8CECCE
:104DD00093E10E943420882309F0DBC08091AA0A65
:104DE000882309F4D4C08AEA9AE00E94117E8823BD
:104DF00009F0CDC08E010F5F1F4FC8010E94F07DEA
:104E0000AAEABAE0F8018AE001900D928150E1F738
:104E10008FEF99E6A8E181509040A040E1F700C0F3
:104E2000000001E08091E50A882399F0002389F4CD
:104E30001092E50A8091E60A0E946C281092E60A18
:104E400080EA9AE00E94347E1092B40A1092C40A5A
:104E500099C08091C9139091CA13009709F180916C
:104E6000C9139091CA1384309105D1F08091A00AA2
:104E7000882349F480EA9AE040E25EE460E070E072
:104E80000E94F47D0DC080EA9AE00E94117E882382
:104E900039F086EA93E10E94037884E08093C81396
:104EA0008091C813882399F08091C813843029F425
:104EB00087EE9AE060E070E004C087EE9AE063E07D
:104EC00070E00E940D2D86EA93E10E941178809196
:104ED000C9139091CA1384309105D1F580EA9AE004
:104EE0000E94347E8CEC93E10E948678002361F06E
:104EF0008CEC93E169E80E94C67887EE9AE066E060
:104F000070E00E940D2D1CC08091E30A9091E40A8C
:104F10008630910581F086EA93E16CEC73E10E94A2
:104F20004320882369F486EA93E16CEC73E10E94E4
:104F3000F925882329F48CEC93E165E80E94C67872
:104F400086EA93E10E94117882EA93E10E94977EBB
:104F50008091E30A9091E40A8230910541F40E9425
:104F6000DC37882321F41092E40A1092E30A80913E
:104F7000E30A9091E40A8530910559F40E94CA3EF3
:104F8000882339F41092E40A1092E30A02C000E088
:104F900049CF2A960FB6F894DEBF0FBECDBFCF9192
:104FA000DF911F910F910895CF93DF93FC018281D0
:104FB0009381009721F481E0818780E019C084818A
:104FC000958120813181B9010E94957FC681D78169
:104FD000C80FD91F848195810196B9010E94957FE0
:104FE00095838483828193810197938382838881CF
:104FF000DF91CF910895DF92EF92FF920F931F936D
:10500000DF93CF93CDB7DEB76F970FB6F894DEBFBF
:105010000FBECDBF7C018091E30A9091E40A8130FC
:10502000910591F1823091051CF4009739F13DC052
:105030008230910521F085309105B9F525C0DD2438
:105040008E010F5F1F4FC7010E94D427F801ED0D9D
:10505000F11D8083D394FE01ED0DF11D8081882325
:1050600091F7C80168E172E00E94B6800097E9F00C
:1050700084EC9AE0B8010E94BF8017C081E090E004
:105080009093E40A8093E30A00E0C7010E94D427CA
:10509000E02FF0E0EC53F54F80830F5FE02FF0E05E
:1050A000ED53F54F8081882381F76F960FB6F89402
:1050B000DEBF0FBECDBFCF91DF911F910F91FF904B
:1050C000EF90DF90089580EA9AE00E94F07D8AEAEE
:1050D0009AE00E94F07D0895DF93CF930F92CDB7B1
:1050E000DEB7682FF89484B76623A1F088E10FB685
:1050F000F89480936000109260000FBE14BE89E2A5
:1051000028E130E00FB6F894A895209360000FBE18
:105110008093600069830E944C380E94CD3E0E94BB
:105120005C3B0E94EF130E9471510E942B7D87EE21
:105130009AE069810E94BA2E78940F90CF91DF9106
:10514000089587EE9AE00E94093B81E00E946C2856
:1051500078940E94DB260E94041587EE9AE00E9454
:10516000852DA895F6CFCF93DF93EC010E946B506D
:105170008A81807F8A83CE0103960E946B508D8145
:10518000807F8D83CE0106960E946B508885807F3C
:105190008887CE0109960E946B508B85807F8B8714
:1051A000CE010C960E946B508E85807F8E87CE013B
:1051B0000F960E946B508989807F898BDF91CF91F8
:1051C0000895CF93DF93EC0183E597E0998388837B
:1051D000FE01EA5AFF4F1082CE01865A9F4F0E946D
:1051E000F07DCE018C599F4F0E94E2731C82DF91AB
:1051F000CF910895CF93DF93EC0102960E94F07D4A
:10520000CE010C960E94F07DCE0146960E94F07D64
:10521000DF91CF910895CF93DF93EC0127ED37E035
:10522000FC0121933193CF010E944D72CE010A9669
:105230000E94E273CE0149960E94F07DDF91CF91EA
:105240000895CF93DF93EC018BEE97E099838883E9
:10525000CE0105960E948D74CE010E960E940B29F8
:10526000CE01C6960E943972CE01CE960E9443723C
:10527000DF91CF9108952F923F924F925F926F925C
:105280007F928F929F92AF92BF92CF92DF92EF92D6
:10529000FF920F931F93DF93CF93CDB7DEB7CE501E
:1052A000D1400FB6F894DEBF0FBECDBF3C0100E089
:1052B00010E0C301800F911F0E94B328035E1F4FAF
:1052C00001391105B1F7C3018B569F4F0E94F07D44
:1052D000C30181569F4F0E94F07D8091831390916E
:1052E0008413282F89839A834B81407F43604B83AB
:1052F000E82E8C839D830E81007F04600E83809155
:105300007D1390917E13A82E8F8398875985507FA7
:1053100053605987C30186559F4F60E03A81F32E51
:10532000B884C52E812C71E0972E0E94E41E8091D6
:10533000771390917813282F8A879B874C85407F1D
:1053400045604C87E82E8D879E870F85007F06601D
:105350000F8780917D1390917E13A82E888B998B57
:105360005A89507F54605A8BC301865D9E4F61E01D
:105370003B85F32EB988C52E5CE1852E51E0952E34
:105380000E94E41E1AEAA12E11E0B12EA60CB71C51
:10539000C5010E94FA28BAEC8B2EB1E09B2E860C38
:1053A000971C8091791390917A13482F8B8B9C8B4B
:1053B0006D89607F64606D8B082F8E8B9F8B288D2D
:1053C000207F2360288FC82E898F9A8F3B8D307F56
:1053D00032603B8FC4015C89152FD52EE32E0E94CD
:1053E000B8598091791390917A139D8F8C8F2E8D5F
:1053F000207F25602E8F98A38F8F89A1807F866064
:1054000089A3C30185579C4FC35FDE4F998388836F
:10541000CD50D140A6E34A2EA2E05A2E460C571C8E
:10542000F3E32F2EF3E03F2E260C371CC3018352EB
:105430009E4FB501A4019E01245E3F4F8E01015E87
:105440001F4F72016101C35FDE4FA880B980CD504C
:10545000D1400E946B56C2010E946E74F301EF5C52
:10546000FC4F8DE198E09183808387E197E0F10123
:1054700091838083C3018B5C9C4F0E94E273C301C4
:105480008C5B9C4F0E942129C35FDE4F88819981EC
:10549000CD50D1400E94E128830108501C4FC80123
:1054A0006FE040E00E947A7CA301465F5B4F8FE192
:1054B00096E0FA0191838083C301845F9B4FB8011A
:1054C00000E513EC20E030E0E0E1EE2EE1E0FE2E1E
:1054D000CC240E946D53F301E459FB4F81E080839B
:1054E00080917F13909180139BA38AA32CA1207F8E
:1054F0002CA39EA38DA32FA1207F21602FA399A76A
:1055000088A72AA5207F22602AA72091891330919D
:105510008A133CA72BA74DA5407F41604DA73FA70D
:105520002EA728A9207F28AB9AAB89AB8BA9807FB7
:1055300083608BABBCE78B2E912C8C0E9D1EC4011F
:10554000BE016E5D7F4FAE014B5D5F4F9E01285DDA
:105550003F4F8E01055D1F4FAEE2EA2EF12CEC0E9F
:10556000FD1EF1E3CF2ED12CCC0EDD1EE2E0AE2EDF
:10557000B12C0E947C7AD301F4018DE101900D924F
:105580008150E1F780917F13909180139DAB8CAB9C
:105590002EA9207F24602EAB98AF8FAB29AD207F42
:1055A000256029AF9BAF8AAF2CAD207F26602CAF42
:1055B0002091891330918A133EAF2DAF4FAD407FBC
:1055C00043604FAFDE01A05CBF4F11963C932E931A
:1055D000FE01EE5BFF4F2081207F22602083FE01D1
:1055E000ED5BFF4F918380838281807F8760828320
:1055F00019E9812E912C8C0E9D1EC401BE016C5C9C
:105600007F4FAE01495C5F4F9E01265C3F4F8E018C
:10561000035C1F4F7D016F01E2E0AE2EB12C0E94B2
:105620007C7AD3015D96F4018DE101900D92815059
:10563000E1F7BE016A5B7F4F8091871390918813D9
:10564000FB01918380832281207F2283AE01475B0F
:105650005F4FFA01918380832281207F2160228322
:105660002CE4A22EB12CAC0EBD1EF50191838083DB
:105670002281207F22602283DE01A15BBF4F209127
:10568000891330918A1311963C932E9312960C91A4
:105690001297007F076012960C93129702E5E02E96
:1056A000F12CEC0EFD1EF701318320832281207F37
:1056B0002660228315E5C12ED12CCC0EDD1EF6010D
:1056C000918380838281807F83608283F6EB8F2E3B
:1056D000912C8C0E9D1EC40195018D01E2E0AE2E31
:1056E000B12C0E947C7AD301DA96F4018DE101900D
:1056F0000D928150E1F78E01085A1F4F809175136A
:1057000090917613F801918380832281207F22601B
:1057100022833BE5E32EF12CEC0EFD1EF701918375
:1057200080832281207F236022832EE5C22ED12C0C
:10573000CC0EDD1EF601918380838281807F8460A0
:10574000828381E6A82EB12CAC0EBD1EC5010E943D
:105750006B50F5018281807F8283B4E68B2E912C81
:105760008C0E9D1EC4010E946B50F4018281807FCB
:105770008283FE01E959FF4F809175139091761352
:10578000918380838281807F85608283A3ED4A2E0E
:10579000512C4C0E5D1EC201B801A7019601850176
:1057A00074016F01E2E0AE2EB12C0E947C7AD3012D
:1057B000A95ABF4FF2018DE101900D928150E1F79E
:1057C0008E0106591F4F8091751390917613F80141
:1057D000918380832281207F266022832DE6E22E22
:1057E000F12CEC0EFD1EF701918380838281807F76
:1057F0008760828390E7C92ED12CCC0EDD1E80916C
:10580000811390918213F601918380838281807F3E
:105810008260828383E7A82EB12CAC0EBD1EC50129
:105820000E946B50F5018281807F8283B6E78B2EC8
:10583000912C8C0E9D1EC4010E946B50F40182813C
:10584000807F8283FE01E758FF4F809185139091FE
:105850008613918380838281807F86608283A0EF1C
:105860004A2E512C4C0E5D1EC201B801A7019601B3
:10587000850174016F01E2E0AE2EB12C0E947C7AAA
:10588000D301AC58BF4FF2018DE101900D928150D0
:10589000E1F7C25FDE4F0FB6F894DEBF0FBECDBF9B
:1058A000CF91DF911F910F91FF90EF90DF90CF90FC
:1058B000BF90AF909F908F907F906F905F904F9030
:1058C0003F902F9008956FB7F8948F569F4FFC012B
:1058D00020813181428153816FBFB901CA0108958E
:1058E0000F931F93CF93DF93EC01FC01EF56FF4F13
:1058F00080819181A281B38180589F4FAF4FBF4F6C
:1059000080839183A283B3830E94BA138823D1F446
:105910000E94F63D8E0103591B4FC8010E94581B7F
:10592000882381F0C8010E94A11C882359F4FE013C
:10593000EF58FB4F81E08083CD58DB4F83E090E050
:1059400099838883DF91CF911F910F910895CF9311
:10595000DF93EC01FC01ED58FB4F718360836130F4
:105960007105E1F4845F9B4F0E94DE558823D9F4D2
:105970000E94BF1E8823B9F0CE0186549F4F0E941B
:10598000DE558823A1F0CE01865C9E4F0E94DE5535
:10599000882369F008C081E080935C0FCF58DB4F0B
:1059A00081E0888304C080915C0F8823A1F3DF919C
:1059B000CF91089581569F4F40E05CE866E877E418
:1059C0000E94F47D08951F920F920FB60F920BB6AE
:1059D0000F9211242F933F934F935F936F937F9375
:1059E0008F939F93AF93BF93EF93FF9387EE9AE0CC
:1059F0000E94702CFF91EF91BF91AF919F918F9179
:105A00007F916F915F914F913F912F910F900BBEBE
:105A10000F900FBE0F901F9018950F931F93DF9359
:105A2000CF9300D00F92CDB7DEB78B016115710512
:105A3000A1F41092620F1092610F809177139091F0
:105A400078139A8389838B81807F87608B83CE01D3
:105A5000019660E00E949E130CC080915E0F90E062
:105A60008617970731F082E090E09093620F809361
:105A7000610F00935E0F0F900F900F90CF91DF9109
:105A80001F910F9108954115510531F41092640F43
:105A90001092630F81E008C06115710541F4109206
:105AA000640F1092630F80E00E9457560895609330
:105AB0005F0F4093600F81E090E09093640F8093BC
:105AC000630F0895CF93DF93EC0169E170E04FE03D
:105AD00050E00E94432DCE0183529E4F6FEF0E94F3
