:100000000C94D5150C9404160C9404160C94041638
:100010000C9404160C9404160C9404160C940416F8
:100020000C9404160C9404160C9404160C940416E8
:100030000C9404160C9404160C9404160C94643A54
:100040000C9404160C9404160C9404160C940416C8
:100050000C9404160C94523B0C9404160C94041645
:100060000C9404160C94FA8D0C9404160C94268EA1
:100070000C9404160C94815B0C9404160C940416D6
:100080000C940F370C9404160C9404160C9404165C
:100090000C9404160C9404160C9404160C94041678
:1000A0000C9404160C9404160C9404160C94041668
:1000B0000C9404160C9404160C9404160C94041658
:1000C0000C9404160C9404160C9404160C94041648
:1000D0000C9404160C9404160C9404160C94041638
:1000E0000C940416792E9A2E9E2EB52E09300930C6
:1000F000093009300930093009300930E32EFF2E6C
:100100000930093009300930093009300930093027
:100110000D2FDE2E0930D22ED82E093009300930AD
:10012000242F09302E2F452F832E4F2F5A2F9D2FEE
:1001300045307A307F3064308930FC30FC306430B8
:10014000AC30FC30B030B530CA30CF30933098305E
:10015000A2306430A730FC304A308E30D430FC30CE
:10016000FC30D930546865205265706C69636174E5
:1001700030720083048800000014008C000000002E
:100180000000000030F8FFFF000000000000000049
:100190008E000000000000000000000000000000D1
:1001A000000000000057290400188304DC0500004B
:1001B00014008403690100001400901F891F95003A
:1001C00000000046696E64207468652034206B6E00
:1001D0006F6273206F6E20009501000000746865E7
:1001E00020626F74746F6D206F66207468652020C4
:1001F00020009501000000706C6174666F726D20C4
:10020000616E64207475726E20746F009507000033
:10021000007469676874656E20636F6D706C6574D7
:10022000656C792E00950000000049276D20676FEE
:10023000696E6720746F206D6F76652020200095B1
:1002400001000000746865206578747275646572D9
:1002500020746F202020202000950100000076618E
:1002600072696F757320706F736974696F6E732034
:100270002020009507000000666F722061646A7597
:1002800073746D656E742E2E2E009500000000496B
:100290006E206561636820706F736974696F6E2C7E
:1002A00020202000950100000077652077696C6CA4
:1002B000206E65656420746F202020202000950149
:1002C00000000061646A7573742074776F206B6E30
:1002D0006F627320617420009507000000746865E8
:1002E0002073616D652074696D652E2E2E0095005A
:1002F0000000004E6F7A7A6C657320617265206130
:100300007420746865202000950100000072696700
:10031000687420686569676874207768656E202056
:1003200020009501000000796F752063616E206ADE
:1003300075737420736C6964652061009507000013
:10034000007368656574206F662070617065722E39
:100350002E2E0095000000006265747765656E20A2
:10036000746865206E6F7A7A6C65202000950100B4
:100370000000616E642074686520706C6174666F43
:10038000726D2E20202000950100000047726162EE
:100390002061207368656574206F6620202020200E
:1003A000009507000000706170657220746F206115
:1003B00073736973742075732E00950200000050EA
:1003C0006C6561736520776169740083048800003F
:1003D0000014008C0000000000000000000000007D
:1003E00000000000000000008E000000000000007F
:1003F00000D007000000000000000000000D4503D1
:10040000001884036901000014008CA531000094D9
:100410001B0000D007000000000000000000009555
:1004200002000000506C656173652077616974009B
:100430008E0000000000000000D007000000000057
:1004400000000000001D471C00188E00000000CABC
:10045000E4FFFFD00700000000000000000000C023
:100460008C0D00188E00000000C9E4FFFF000000A2
:100470000000000000000000000D4503001895007A
:1004800000000041646A75737420746865206672A8
:100490006F6E742074776F0095010000006B6E6FB3
:1004A000627320756E74696C2070617065722020B3
:1004B000200095010000006A75737420736C6964F4
:1004C0006573206265747765656E2000950700008E
:1004D000006E6F7A7A6C6520616E6420706C617456
:1004E000666F726D009502000000506C6561736567
:1004F0002077616974008E00000000CAE4FFFFD01D
:1005000007000000000000000000000D4503001877
:100510008EEF220000CAE4FFFFD0070000000000B9
:10052000000000000020651100188EF0220000C9B4
:10053000E4FFFF0000000000000000000000000DCC
:1005400045030018950000000041646A757374202B
:100550007468652072696768742074776F0095010C
:100560000000006B6E6F627320756E74696C207092
:10057000617065722020200095010000006A75738B
:100580007420736C69646573206265747765656E49
:10059000200095070000006E6F7A7A6C6520616E0E
:1005A0006420706C6174666F726D009502000000CB
:1005B000506C656173652077616974008EEF22006D
:1005C00000CAE4FFFFD007000000000000000000A8
:1005D000000D450300188EF6DBFFFFCAE4FFFFD0D5
:1005E0000700000000000000000000E05623001893
:1005F0008EF6DBFFFFC9E4FFFF00000000000000F3
:1006000000000000000D45030018950000000041A7
:10061000646A75737420746865206C6566742074F0
:10062000776F200095010000006B6E6F627320757C
:100630006E74696C207061706572202020009501D5
:100640000000006A75737420736C696465732062BE
:1006500065747765656E200095070000006E6F7AFF
:100660007A6C6520616E6420706C6174666F726D67
:10067000009502000000506C656173652077616928
:1006800074008EF7DBFFFFCAE4FFFFD00700000015
:10069000000000000000000D450300188E0000005F
:1006A000007A1A0000D007000000000000000000DF
:1006B000008A322000188E000000007A1A00000024
:1006C00000000000000000000000000D45030018BD
:1006D000950000000041646A757374207468652099
:1006E0006261636B2074776F200095010000006BDE
:1006F0006E6F627320756E74696C207061706572C4
:100700002020200095010000006A75737420736C2E
:1007100069646573206265747765656E200095076E
:100720000000006E6F7A7A6C6520616E6420706CD8
:100730006174666F726D009502000000506C656117
:1007400073652077616974008E000000007A1A00DA
:1007500000D007000000000000000000000D45036D
:1007600000188EEF2200007A1A0000D00700000067
:100770000000000000000020651100188EEF22002C
:10078000007A1A00000000000000000000000000D5
:10079000000D45030018950000000041646A757360
:1007A00074207468652072696768742074776F00BC
:1007B00095010000006B6E6F627320756E74696C3A
:1007C0002070617065722020200095010000006A91
:1007D00075737420736C69646573206265747765E2
:1007E000656E200095070000006E6F7A7A6C6520B8
:1007F000616E6420706C6174666F726D00950200AA
:100800000000506C656173652077616974008EF03B
:100810002200007A1A0000D007000000000000004B
:100820000000000D450300188E54DCFFFF7A1A000B
:1008300000D0070000000000000000000000282396
:1008400000188E54DCFFFF7A1A0000000000000040
:10085000000000000000000D450300189500000096
:100860000041646A75737420746865206C656674F1
:100870002074776F200095010000006B6E6F62732B
:1008800020756E74696C2070617065722020200084
:1008900095010000006A75737420736C6964657358
:1008A000206265747765656E200095070000006E14
:1008B0006F7A7A6C6520616E6420706C6174666F0B
:1008C000726D008E55DCFFFF7A1A0000D007000021
:1008D00000000000000000000D450300188E00001D
:1008E000000000000000D007000000000000000031
:1008F0000000911E1600188E00000000000000008D
:100900000000000000000000000000000D45030092
:10091000189500000000436865636B20746861747B
:100920002070617065722020202000950100000079
:100930006A75737420736C6964657320626577747B
:1009400065656E200095070000006E6F7A7A6C6511
:1009500020616E6420706C6174666F726D2E008908
:100960001F860088000302DC00860188010302DC88
:1009700000860088001F02640088011F0264008452
:100980000369010000140083048800000014008C37
:100990000000000000000000B8F7FFFF00000000AA
:1009A000000000008E000000000000000088FFFF33
:1009B000FF00000000000000005729040018830415
:1009C000DC0500001400901F8E1F23000028E5FFA7
:1009D000FF1801000000000000000000006F592116
:1009E0000018910000910100910300910400910012
:1009F0007F91017F91037F91047F860086008700AD
:100A00006400FFFF8D006400FFFF860186018701FF
:100A10006400FFFF8D006400FFFF8E1E230000288E
:100A2000E5FFFF500000000000000000000000B4DF
:100A30005300001888010A010388010401FF8E1E7B
:100A400023000027E5FFFF5000000000000000A089
:100A5000FFFFFF804F1200188C1E23000028E5FFC7
:100A6000FF50000000000000006000000086008EC3
:100A700031E0FFFFB8E9FFFFF000000000000000D8
:100A800000000000229C3200188E31E0FFFFB7E921
:100A9000FFFFF0000000E3FFFFFF000000001C5814
:100AA00000001889888E31E0FFFFB7E9FFFF78006A
:100AB0000000EDFFFFFF0000000060180000188E2E
:100AC00031E0FFFFB7E9FFFF78000000E3FFFFFF21
:100AD00000000000F22B0000188E7BD1FFFFB7E969
:100AE000FFFF780000009BFEFFFF00000000862F44
:100AF0003000188E31E0FFFF6EEDFFFF7800000040
:100B0000310000000000000012720B00188E31E06E
:100B1000FFFF6EEDFFFF78000000E3FFFFFF000026
:100B20000000F12B0000188E29D5FFFF6EEDFFFFAE
:100B3000780000009CFEFFFF00000000A5232400B9
:100B4000188E31E0FFFF25F1FFFF78000000300034
:100B500000000000000031C80800188E31E0FFFFDF
:100B600024F1FFFF78000000E3FFFFFF000000001A
:100B7000F12B0000188E29D5FFFF25F1FFFF78002B
:100B800000009CFEFFFF00000000A5232400188E3B
:100B900030E0FFFFDCF4FFFF7800000030000000D1
:100BA0000000000031C80800188E31E0FFFFDBF4C0
:100BB000FFFF78000000E3FFFFFF00000000F22BC2
:100BC0000000188E29D5FFFFDCF4FFFF780000003D
:100BD0009CFEFFFF00000000A5232400188E31E0DA
:100BE000FFFF92F8FFFF78000000300000000000D7
:100BF000000031C80800188E31E0FFFF93F8FFFFB6
:100C000078000000E3FFFFFF00000000F22B00006F
:100C1000188E29D5FFFF92F8FFFF780000009CFE98
:100C2000FFFF00000000A5232400188E31E0FFFF25
:100C300049FCFFFF780000003000000000000000C9
:100C400031C80800188E30E0FFFF49FCFFFF780034
:100C50000000E3FFFFFF00000000F22B0000188EF1
:100C600029D5FFFF4AFCFFFF780000009CFEFFFF34
:100C700000000000A5232400188E31E0FFFF0000D3
:100C8000000078000000300000000000000031C8C3
:100C90000800188E31E0FFFF00000000780000001F
:100CA000E3FFFFFF00000000F22B0000188E29D5A3
:100CB000FFFF00000000780000009CFEFFFF000026
:100CC0000000A5232400188E31E0FFFFB6030000CA
:100CD00078000000300000000000000031C808006B
:100CE000188E31E0FFFFB703000078000000E3FF3B
:100CF000FFFF00000000F22B0000188E28D5FFFF38
:100D0000B7030000780000009CFEFFFF0000000019
:100D1000A5232400188E31E0FFFF6E070000780045
:100D20000000300000000000000031C80800188EEC
:100D300031E0FFFF6D07000078000000E3FFFFFFD8
:100D400000000000F22B0000188E29D5FFFF6E076F
:100D50000000780000009CFEFFFF00000000A523BB
:100D60002400188E31E0FFFF240B00007800000003
:100D7000300000000000000031C80800188E31E08B
:100D8000FFFF250B000078000000E3FFFFFF0000DD
:100D90000000F12B0000188E28D5FFFF240B000067
:100DA000780000009CFEFFFF00000000A523240047
:100DB000188E31E0FFFFDB0E0000780000003000ED
:100DC00000000000000031C80800188E31E0FFFF6D
:100DD000DC0E000078000000E3FFFFFF00000000D1
:100DE000F12B0000188E29D5FFFFDB0E00007800E4
:100DF00000009CFEFFFF00000000A5232400188EC9
:100E000031E0FFFF92120000780000003000000087
:100E10000000000031C80800188E31E0FFFF921278
:100E2000000078000000E3FFFFFF00000000F12B4E
:100E30000000188E29D5FFFF9212000078000000F4
:100E40009CFEFFFF00000000A5232400188E30E068
:100E5000FFFF49160000780000003000000000008D
:100E6000000031C80800188E31E0FFFF491600006D
:100E700078000000E3FFFFFF00000000F12B0000FE
:100E8000188E29D5FFFF49160000780000009CFE4F
:100E9000FFFF00000000A5232400188EAEEEFFFF28
:100EA000A5F8FFFFF0000000300000000000000087
:100EB00018821D00188EAEEEFFFFA5F8FFFF780028
:100EC0000000D0FFFFFF00000000AE250000188EDC
:100ED000AEEEFFFFA5F8FFFF78000000E3FFFFFF85
:100EE00000000000F12B0000188EAEEEFFFF5B0744
:100EF0000000780000009CFEFFFF00000000862F2D
:100F00003000188E65F2FFFFA5F8FFFF78000000A3
:100F1000300000000000000012720B00188E65F215
:100F2000FFFFA6F8FFFF78000000E3FFFFFF0000CF
:100F30000000F12B0000188E65F2FFFFAD030000EA
:100F4000780000009CFEFFFF00000000A5232400A5
:100F5000188E1BF6FFFFA5F8FFFF78000000300099
:100F600000000000000031C80800188E1CF6FFFFCA
:100F7000A5F8FFFF78000000E3FFFFFF000000007E
:100F8000F12B0000188E1CF6FFFFAE030000780066
:100F900000009CFEFFFF00000000A5232400188E27
:100FA000D2F9FFFFA5F8FFFF780000003000000035
:100FB0000000000031C80800188ED2F9FFFFA5F824
:100FC000FFFF78000000E3FFFFFF00000000F12BAF
:100FD0000000188ED3F9FFFFAE0300007800000078
:100FE0009CFEFFFF00000000A5232400188E89FD51
:100FF000FFFFA5F8FFFF78000000300000000000B0
:10100000000031C80800188E89FDFFFFA5F8FFFF1A
:1010100078000000E3FFFFFF00000000F12B00005C
:10102000188E8AFDFFFFAD030000780000009CFED3
:10103000FFFF00000000A5232400188E40010000DF
:10104000A6F8FFFF7800000030000000000000005C
:1010500031C80800188E40010000A5F8FFFF780095
:101060000000E3FFFFFF00000000F12B0000188EDE
:1010700040010000AD030000780000009CFEFFFF6F
:1010800000000000A5232400188EF7040000A5F836
:10109000FFFF78000000300000000000000031C8B1
:1010A0000800188EF7040000A6F8FFFF7800000083
:1010B000E3FFFFFF00000000F12B0000188EF70493
:1010C0000000AD030000780000009CFEFFFF000060
:1010D0000000A5232400188EAD080000A5F8FFFF2E
:1010E00078000000300000000000000031C8080057
:1010F000188EAE080000A5F8FFFF78000000E3FF9F
:10110000FFFF00000000F12B0000188EAE08000069
:10111000AE030000780000009CFEFFFF000000000E
:10112000A5232400188E640C0000A5F8FFFF7800AA
:101130000000300000000000000031C80800188ED8
:10114000650C0000A5F8FFFF78000000E3FFFFFF3B
:1011500000000000F12B0000188E640C0000AE03AC
:101160000000780000009CFEFFFF00000000A523A7
:101170002400188E1C100000A5F8FFFF7800000066
:10118000300000000000000031C80800188E1B105D
:101190000000A5F8FFFF78000000E3FFFFFF00005C
:1011A0000000F12B0000188E1B100000AD030000A2
:1011B000780000009CFEFFFF00000000A523240033
:1011C000188ED2130000A6F8FFFF78000000300050
:1011D00000000000000031C80800188ED213000083
:1011E000A5F8FFFF78000000E3FFFFFF000000000C
:1011F000F12B0000188ED3130000AD03000078001F
:1012000000009CFEFFFF00000000A5232400188EB4
:1012100089170000A5F8FFFF7800000030000000EB
:101220000000000031C80800188E88170000A6F8DA
:10123000FFFF78000000E3FFFFFF00000000F12B3C
:101240000000188E89170000AD0300007800000030
:101250009CFEFFFF00000000A5232400188E401B09
:101260000000A5F8FFFF780000003000000000003B
:10127000000031C80800188E401B0000A5F8FFFFD1
:1012800078000000E3FFFFFF00000000F12B0000EA
:10129000188E401B0000AE030000780000009CFE8A
:1012A000FFFF00000000A5232400188E3F1B000054
:1012B000AD030000780000003000000000000000D6
:1012C000D9920000188908860189188C401B0000FB
:1012D000AD03000078000000000000006000000086
:1012E0008E54ECFFFFF0E9FFFFF00000000000006B
:1012F0000000000000A3602800188E53ECFFFFEFF1
:10130000E9FFFFF00000000000000043000000972C
:10131000CD00001889908E54ECFFFFF0E9FFFF78B4
:1013200000000000000000EDFFFFFF601800001843
:101330008E54ECFFFFF0E9FFFF7800000000000092
:1013400000E3FFFFFFF22B0000188E5BF7FFFFEFBB
:10135000E9FFFF78000000000000009CFEFFFFA5F1
:10136000232400188E54ECFFFF9DEDFFFF78000052
:10137000000000000030000000EFC50800188E5388
:10138000ECFFFF9DEDFFFF7800000000000000E390
:10139000FFFFFFF12B0000188E5CF7FFFF9DEDFFB4
:1013A000FF78000000000000009CFEFFFFA5232442
:1013B00000188E54ECFFFF4BF1FFFF780000000097
:1013C00000000030000000EFC50800188E53ECFF4D
:1013D000FF4AF1FFFF7800000000000000E3FFFF7C
:1013E000FFF12B0000188E5CF7FFFF4BF1FFFF7839
:1013F000000000000000009CFEFFFFA52324001851
:101400008E53ECFFFFF7F4FFFF78000000000000B0
:101410000030000000EFC50800188E54ECFFFFF804
:10142000F4FFFF7800000000000000E3FFFFFFF280
:101430002B0000188E5CF7FFFFF8F4FFFF78000028
:1014400000000000009CFEFFFFA5232400188E531F
:10145000ECFFFFA5F8FFFF7800000000000000305F
:10146000000000EFC50800188E54ECFFFFA5F8FF40
:10147000FF7800000000000000E3FFFFFFF22B00F8
:1014800000188E5BF7FFFFA6F8FFFF780000000052
:101490000000009CFEFFFFA5232400188E54ECFFE3
:1014A000FF52FCFFFF780000000000000030000049
:1014B00000EFC50800188E53ECFFFF53FCFFFF78C8
:1014C00000000000000000E3FFFFFFF22B00001807
:1014D0008E5CF7FFFF52FCFFFF7800000000000069
:1014E000009CFEFFFFA5232400188E54ECFFFF0094
:1014F000000000780000000000000030000000EF55
:10150000C50800188E53ECFFFF00000000780000B3
:101510000000000000E3FFFFFFF22B0000188E5CCC
:10152000F7FFFF0000000078000000000000009CB2
:10153000FEFFFFA5232400188E53ECFFFFAE03002F
:1015400000780000000000000030000000EFC50837
:1015500000188E54ECFFFFAD03000078000000007F
:10156000000000E3FFFFFFF22B0000188E5CF7FF86
:10157000FFAE03000078000000000000009CFEFFAA
:10158000FFA5232400188E53ECFFFF5A07000078B4
:101590000000000000000030000000EFC508001847
:1015A0008E54ECFFFF5B0700007800000000000095
:1015B00000E3FFFFFFF22B0000188E5BF7FFFF5BDD
:1015C00007000078000000000000009CFEFFFFA55F
:1015D000232400188E54ECFFFF080B000078000055
:1015E000000000000030000000EFC50800188E5316
:1015F000ECFFFF080B00007800000000000000E393
:10160000FFFFFFF12B0000188E5CF7FFFF090B00B6
:101610000078000000000000009CFEFFFFA52324CE
:1016200000188E54ECFFFFB50E000078000000009B
:1016300000000030000000EFC50800188E53ECFFDA
:10164000FFB60E00007800000000000000E4FFFF7D
:10165000FFF12B0000188E5CF7FFFFB50E0000783D
:10166000000000000000009BFEFFFFA523240018DF
:101670008E53ECFFFF6312000078000000000000B2
:101680000030000000EFC50800188E54ECFFFF6327
:101690001200007800000000000000E4FFFFFFF1EE
:1016A0002B0000188E5CF7FFFF631200007800002B
:1016B00000000000009BFEFFFFA5232400188E53AE
:1016C000ECFFFF1116000078000000000000003061
:1016D000000000EFC50800188E54ECFFFF10160044
:1016E000007800000000000000E4FFFFFFF12B0085
:1016F00000188E5BF7FFFF10160000780000000056
:101700000000009BFEFFFFA5232400188E0AFBFFAC
:10171000FF9EEDFFFFF00000000000000031000020
:1017200000BEA41E00188E09FBFFFF9DEDFFFF7891
:1017300000000000000000CFFFFFFFAE25000018F2
:101740008E09FBFFFF9DEDFFFF7800000000000009
:1017500000E3FFFFFFF12B0000188E09FBFFFFA540
:10176000F8FFFF78000000000000009CFEFFFFA5CE
:10177000232400188EB6FEFFFF9DEDFFFF780000CA
:10178000000000000030000000EFC50800188EB710
:10179000FEFFFF9DEDFFFF7800000000000000E469
:1017A000FFFFFFF12B0000188EB6FEFFFFA5F8FF2C
:1017B000FF78000000000000009BFEFFFFA523242F
:1017C00000188E640200009DEDFFFF78000000000D
:1017D00000000030000000EFC50800188E64020011
:1017E000009DEDFFFF7800000000000000E4FFFF17
:1017F000FFF12B0000188E64020000A5F8FFFF78AF
:10180000000000000000009BFEFFFFA5232400183D
:101810008E110600009DEDFFFF7800000000000023
:101820000030000000EFC50800188E120600009D71
:10183000EDFFFF7800000000000000E4FFFFFFF173
:101840002B0000188E11060000A5F8FFFF7800009D
:1018500000000000009BFEFFFFA5232400188EBFA0
:101860000900009DEDFFFF7800000000000000313E
:10187000000000EFC50800188EBE0900009DEDFFB6
:10188000FF7800000000000000E3FFFFFFF12B00E5
:1018900000188EBF090000A6F8FFFF7800000000C6
:1018A0000000009BFEFFFFA5232400188E6C0D0096
:1018B000009DEDFFFF7800000000000000310000F7
:1018C00000EFC50800188E6C0D00009DEDFFFF783D
:1018D00000000000000000E3FFFFFFF12B000018F4
:1018E0008E6C0D0000A5F8FFFF78000000000000DE
:1018F000009BFEFFFFA5232400188E1A1100009DF7
:10190000EDFFFF780000000000000031000000EF54
:10191000C50800188E191100009DEDFFFF7800002A
:101920000000000000E3FFFFFFF12B0000188E1AFB
:10193000110000A5F8FFFF78000000000000009BE8
:10194000FEFFFFA5232400188EC71400009DEDFFA5
:10195000FF780000000000000031000000EFC50823
:1019600000188EC71400009DEDFFFF7800000000F6
:10197000000000E3FFFFFFF12B0000188EC71400EA
:1019800000A5F8FFFF78000000000000009CFEFFAB
:10199000FFA5232400188E741800009DEDFFFF782A
:1019A0000000000000000030000000EFC508001833
:1019B0008E741800009DEDFFFF780000000000000D
:1019C00000E3FFFFFFF12B0000188E75180000A642
:1019D000F8FFFF78000000000000009CFEFFFFA55C
:1019E000232400188E211C00009DEDFFFF780000CD
:1019F000000000000030000000EFC50800188E2233
:101A00001C00009DEDFFFF7800000000000000E3D7
:101A1000FFFFFFF12B0000188E221C0000A5F8FF2D
:101A2000FF78000000000000009CFEFFFFA52324BB
:101A300000188ECF1F00009DEDFFFF780000000012
:101A400000000030000000EFC50800188ECF1F0016
:101A5000009DEDFFFF7800000000000000E3FFFFA5
:101A6000FFF12B0000188ECF1F0000A5F8FFFF78B4
:101A7000000000000000009CFEFFFFA523240018CA
:101A80008E7C2300009DEDFFFF7800000000000029
:101A90000030000000EFC50800188E7D2300009D77
:101AA000EDFFFF7800000000000000E3FFFFFFF102
:101AB0002B0000188E7C230000A5F8FFFF780000A3
:101AC00000000000009CFEFFFFA5232400188E2AC2
:101AD0002700009DEDFFFF780000000000000030AF
:101AE000000000EFC50800188E2A2700009DEDFFBA
:101AF000FF7800000000000000E3FFFFFFF12B0073
:101B000000188E2A270000A6F8FFFF7800000000CA
:101B10000000009CFEFFFFA52324001889108E2AD8
:101B2000270000A5F8FFFFB8F1000000000000004A
:101B300000000036F864001888010A0102880104D8
:101B400001FF891F860088000302000086018801CA
:101B500003020000860088001F02000088011F02A7
:101B60000000891F4B00A30703124E6F205344202F
:101B70006361726420666F756E64006578697420B5
:101B80006D656E750048656C702054657874202012
:101B90000048656174204C454473004C4544204323
:101BA0006F6C6F72202020202000536F756E6400D0
:101BB000546F6F6C20436F756E74200043616C69C5
:101BC0006272617465204E6F7A7A6C65730052653B
:101BD00073746F72652044656661756C7473004739
:101BE000656E6572616C2053657474696E6773000D
:101BF000507265686561742053657474696E6773AB
:101C00000053746F7020426C696E6B696E672100BF
:101C1000426C696E6B204C454473202020202020AC
:101C200020004C6576656C204275696C6420506CB0
:101C300061746500456E61626C65205374657070F7
:101C400065727320200044697361626C652053746F
:101C50006570706572730052756E20537461727492
:101C60007570205363726970740046696C616D65AC
:101C70006E74204F7074696F6E7300486F6D6520CD
:101C800041786573004A6F67204D6F6465004D6F42
:101C90006E69746F72204D6F6465005574696C696C
:101CA000746965730050726568656174005072698B
:101CB0006E742066726F6D20534400556E506175CE
:101CC000736500506175736500596573004E6F0050
:101CD0005175697420746869732070726F636573DD
:101CE000733F0043616E63656C2074686973207094
:101CF00072696E743F00596573004E6F00446566EB
:101D000061756C742076616C7565733F0052657304
:101D100065742053657474696E677320746F200056
:101D2000506C6174666F726D20202020202020206E
:101D3000004C65667420546F6F6C2020202020209A
:101D4000202020202000526967687420546F6F6C37
:101D5000202020202020202020200050726568654F
:101D600061742053657474696E67732020202000AD
:101D70002020202020202020202020202020202063
:101D8000202020200045787472756465723A202006
:101D9000202D2D2D2F2D2D2D4300506C6174666F3D
:101DA000726D3A2020202D2D2D2F2D2D2D43004CEE
:101DB0002045787472756465723A202D2D2D2F2D73
:101DC0002D2D4300522045787472756465723A2057
:101DD0002D2D2D2F2D2D2D4300202D2D250047415C
:101DE0004D45204F56455221002020202020202004
:101DF000205A2B20202020202020202020002020BE
:101E00003C2D5920284261636B292020202020206E
:101E100020200020202020202020205A2D2020209B
:101E200020202020202020002020202020202020D2
:101E3000592D202020202020202020200020203C60
:101E40002D5820284261636B2920205A2D3E2020E6
:101E500020002020202020202020592B202020205E
:101E6000202020202020002020202020202020585A
:101E70002D20202020202020202020002020202075
:101E80002020284261636B29202020592D3E2020EC
:101E9000002020202020202020582B20202020201F
:101EA00020202020200020202020204A6F67206D45
:101EB0006F64652020202020202000556E4C6F612B
:101EC00064004C6F61640059657321004E6F0066B9
:101ED000726F6D20746865206E6F7A7A6C653F0052
:101EE00044696420706C61737469632065787472EE
:101EF00075646520004C65742773207472792061C5
:101F00006761696E2E004D79206865696768742085
:101F1000697320676F6F6421006865696768742062
:101F2000636865636B206F75743F00446F65732051
:101F30006D79206E6F7A7A6C650059657321004E59
:101F40006F00746F207472792061207072696E74F2
:101F50003F2020202000486F772764206974206785
:101F60006F3F20526561647920005765276C6C20B3
:101F70006B65657020676F696E672E2020204C6549
:101F800074732074727920746865206C656674209F
:101F9000202065787472756465722E2050757368A0
:101FA00020202020202066696C616D656E7420649D
:101FB0006F776E2E2E2E20202020004772656174D0
:101FC00021202049276C6C2073746F7020202072B0
:101FD000756E6E696E67206D7920657874727564B0
:101FE00065722E5072657373204D20746F20636F7D
:101FF0006E74696E75652E20202020202020202000
:102000002020202020202020202020005765276C21
:102010006C206B65657020676F696E672E202020CD
:10202000496620796F7527726520686176696E67E9
:102030002020202074726F75626C652C20636865A7
:10204000636B206F757420206D616B6572626F74B5
:102050002E636F6D2F68656C70202020004F4B2120
:102060002049276C6C206B656570206D79202020DD
:10207000206D6F746F722072756E6E696E672E20A0
:10208000596F7520206D6179206E65656420746FCD
:102090002070757368202020206861726465722E3C
:1020A0002E2E2020202020202020202020005768B5
:1020B000656E206D792066696C616D656E7420694E
:1020C000732072656C65617365642C20202020206C
:1020D000202020202020507265737320274D272058
:1020E000746F20657869742E202020202020202005
:1020F00020202020202020202020202020200057C9
:1021000068656E2066696C616D656E742069732008
:10211000202020657874727564696E67206F75740D
:10212000206F66207468656E6F7A7A6C652C20501B
:102130007265737320274D27202020746F206578E7
:102140006974202020202020202020202020200012
:102150005768656E2066696C616D656E7420697381
:1021600020202020657874727564696E67206F7511
:1021700074206F66207468656E6F7A7A6C652C20A7
:10218000507265737320274D27202020746F2073B1
:10219000746F7020657874727564696E672E202084
:1021A000007468726F75676820746865206772656F
:1021B000792020202072696E6720756E74696C200A
:1021C000796F75206665656C20746865206D6F7425
:1021D0006F722074756767696E6720202074686568
:1021E00020706C617374696320696E2E2E2E20201E
:1021F0002000477265617421204E6F772077652734
:102200006C6C202020206C6F616420746865206CE9
:102210006566742020202020202065787472756403
:1022200065722E205075736820202020202066695A
:102230006C616D656E7420646F776E2E2E2E20207B
:102240002020004F4B2049276D2072656164792161
:1022500020202020202020506F7020746865206787
:1022600075696465207475626520206F66662061FB
:102270006E642070756C6C20202020202020206649
:10228000696C616D656E742067656E746C792E2E55
:102290002E2020004F4B2049276D20726561647904
:1022A0002120202020202020506F7020746865207D
:1022B0006775696465207475626520206F666620A5
:1022C000616E64207075736820746865202020201A
:1022D00066696C616D656E7420646F776E2E2E2E4C
:1022E00020202020004F4B2049276D20726561641B
:1022F00079212020202020202046697273742077C5
:1023000065276C6C206C6F61642074686572696706
:1023100068742065787472756465722E20202020A0
:1023200020507573682066696C616D656E742069F4
:102330006E2E2E2E200049276D2068656174696E0F
:1023400067207570206D792020206578747275641F
:102350006572212020202020202020202020506C69
:102360006561736520776169742E2020202020200C
:10237000202020202020202020202020202020205D
:102380002020202020200048656174696E6720505D
:10239000726F67726573733A2020202020202020FE
:1023A000202020202020202020202020202020202D
:1023B000202020202020202020202020202020201D
:1023C000202020202020202020202020202020200D
:1023D000202020202020200054686973206D696728
:1023E00068742074616B6520612020206665772009
:1023F0006D696E757465732E2020202020202020AA
:10240000416E64207761746368206F75742C20744A
:10241000686520206E6F7A7A6C652077696C6C2015
:1024200067657420484F542100706F7073206F757A
:102430007420696E2066726F6E742E202049276D9D
:102440002068656174696E67207570206D79202041
:1024500020657874727564657220736F20776520CB
:1024600063616E20206C6F6164207468652066690A
:102470006C616D656E742E2E2E0067756964652023
:1024800074756265206F75742E20204E6F776665B7
:1024900065642066696C616D656E742066726F6D2F
:1024A0002020746865206261636B207468726F75A8
:1024B0006768207468657475626520756E74696CF0
:1024C0002069742E2E2E20202000507265737320F8
:1024D000646F776E206F6E207468652020206772AD
:1024E00065792072696E6720617420746F70206F47
:1024F0006620746865206578747275646572206101
:102500006E642020202070756C6C207468652062D9
:102510006C61636B2E2E2E20202000677569646528
:10252000207475626573206F75742E204E6F776608
:102530006565642066696C616D656E742066726F96
:102540006D2020746865206261636B207468726F0F
:1025500075676820746865747562657320756E743C
:10256000696C2069742E2E2E202020005072657315
:102570007320646F776E206F6E2074686520202052
:10258000677265792072696E677320617420746F59
:1025900070206F6674686520657874727564657202
:1025A0007320616E6420202070756C6C20746865E7
:1025B00020626C61636B2E2E2E202020004D79202E
:1025C000657874727564657273206172652020206D
:1025D000206E6F742068656174696E672075702E57
:1025E0002020202020436865636B206D7920202007
:1025F000202020202020202020636F6E6E656374D1
:10260000696F6E7321202020202020202000592077
:1026100041786973204C696E650058204178697370
:10262000204C696E6500446F6E65210053656C65D2
:1026300063742062657374206C696E65732E004745
:102640007265617421202049277665207361766563
:1026500064202074686573652073657474696E679F
:102660007320616E64202049276C6C20757365208F
:102670007468656D20746F202020206D616B65206B
:102680006E696365207072696E747321202020006A
:102690006C696E65206F6E65206973206578747251
:1026A000612020206C6F6E672E20546865205920B1
:1026B00061786973207365746973206C6566742032
:1026C0006F6E2074686520706C617465616E642043
:1026D0005820617869732069732072696768742E65
:1026E000004C6F6F6B20666F7220746865206265A6
:1026F00073742020206D617463686564206C696E5A
:102700006520696E2065616368617869732073650F
:10271000742E204C696E657320617265206E756D34
:10272000626572656420312D313320616E642E2E16
:102730002E0049276D20676F696E6720746F2070C7
:1027400072696E7420206120736572696573206FF1
:1027500066206C696E657320736F77652063616EA8
:102760002066696E64206D792020202020206E6F05
:102770007A7A6C6520616C69676E6D656E742E2067
:102780002020005765276C6C20676F20746F2074C1
:102790006865206D61696E6D656E752E20496620D5
:1027A000796F75206E65656420202068656C7020E7
:1027B000676F20746F3A2020202020202020206D79
:1027C000616B6572626F742E636F6D2F68656C70DC
:1027D00020202000417765736F6D65212020202027
:1027E00020202020202020205765276C6C20676F38
:1027F00020746F20746865205344202063617264E4
:10280000204D656E7520616E6420796F75202020E3
:1028100063616E2073656C656374206120707269FA
:102820006E742120005765276C6C206B65657020E5
:10283000676F696E6720202020616E64206C6F6175
:102840006420736F6D6520202020202020706C6133
:10285000737469632120466F722068656C7020670D
:102860006F746F206D616B6572626F742E636F6D34
:102870002F68656C70005765276C6C207472792026
:10288000616761696E2120202020202020202020E7
:102890002020202020202020202020202020202038
:1028A0002020202020202020202020202020202028
:1028B0002020202020202020202020202020202018
:1028C00020202020202000416161682C2074686154
:1028D00074206665656C73202020206D7563682008
:1028E0006265747465722E20202020202020204CE8
:1028F0006574277320676F206F6E20616E64206C93
:102900006F6164736F6D6520706C617374696321AE
:102910002020202020202000706C6174666F726D72
:1029200020736F2069742773202020206E696365EF
:1029300020616E64206C6576656C2E204974277367
:1029400070726F6261626C79206120626974206FBD
:102950006666202066726F6D207368697070696E9C
:10296000672E2E2E20202020004F7572206E657855
:10297000742073746570732077696C6C206765745C
:10298000206D652073657420757020746F20202081
:10299000207072696E74212046697273742C2077DE
:1029A00065276C6C20726573746F7265206D792079
:1029B0006275696C642E2E2E20004120736F6C6945
:1029C0006420274D27206D65616E732020204927E4
:1029D0006D20776F726B696E6720616E6420776916
:1029E0006C6C757064617465206D792073746174AA
:1029F0007573202020207768656E2049276D20663A
:102A0000696E69736865642E2E2E004120626C69C0
:102A10006E6B696E6720274D27206D65616E734967
:102A2000276D2077616974696E6720616E64207715
:102A3000696C6C636F6E74696E7565207768656E1E
:102A400020796F752020207072657373207468651B
:102A500020627574746F6E2E2E2E200057656C6385
:102A60006F6D652120202020202020202020202084
:102A700049276D20746865205265706C69636174C4
:102A80006F722E20507265737320746865207265B2
:102A900064204D20746F2020676574207374617208
:102AA0007465642120202020202020200045787497
:102AB000727564657200506C6174666F726D004C63
:102AC00065667420546F6F6C005269676874205497
:102AD0006F6F6C0053746F7020507265686561741D
:102AE00021005374617274205072656865617421AD
:102AF000004669726D776172652056657273696F01
:102B00006E20352E2000202020202D2D2D2D2D2D26
:102B10002D2D2D2D202020202020002020546865E0
:102B2000205265706C696361746F722020202000F0
:102B30002020202020202020202020202020202095
:102B40002020202000010049033600FF006B00D147
:102B500000A000B800D500A6000A0199003F018E30
:102B60000074018400A9017C00DE01740013026C72
:102B700000480265007D025D00B2025600E7024E89
:102B8000001C03460051033D0086033200BB0322B4
:102B900000F0030300001E25DB268E32EA3BEB3DEE
:102BA0005E45AB49F75BBB64588E11241FBECFEF67
:102BB000D1E2DEBFCDBF18E0A0E0B2E0EAE2F0E291
:102BC00001E00BBF02C007900D92AA39B107D9F7F7
:102BD00014E1AAE9B8E001C01D92A33AB107E1F7F8
:102BE0001BE2CAEADBE200E006C022970109FE010F
:102BF0000BBF0E941A8FC639D10780E00807A9F7DA
:102C00000E94CC320C9413900C940000EF92FF922F
:102C10000F931F937B018C0120E030E040E05FE4E4
:102C20000E94041987FD11C0C801B70120E030E0FF
:102C300040E05FE40E94A9170E9494199B01AC0137
:102C4000205030404040504806C0C801B7010E94A3
:102C500094199B01AC01B901CA011F910F91FF901A
:102C6000EF900895A0E0B0E0E8E3F6E10C94E78E81
:102C7000FC01EA018081823008F438C1DB019C91BB
:102C8000923008F430C1843059F4943009F02EC1E8
:102C9000918111968C911197981709F021C126C145
:102CA000943009F420C19230B1F4823009F01EC191
:102CB000CA01AF0128E0DA010D90AD01DC010D92EF
:102CC000CD012150C1F7DB0111968C9111979181B3
:102CD000892389830AC1823009F405C1C280D38067
:102CE000DB0112966D907C9013972481358146818B
:102CF00057811496ED90FD900D911C911797C60188
:102D0000861997095C0197FF04C0AA24BB24A81A5E
:102D1000B90AB0E2AB16B1040CF061C0181619067E
:102D20006CF5370148010A2C04C096948794779477
:102D300067940A94D2F781E090E0A0E0B0E00A2C1A
:102D400004C0880F991FAA1FBB1F0A94D2F70197CE
:102D5000A109B1098E219F21A023B123EE24FF24D4
:102D60008701E3940097A105B10519F4EE24FF242F
:102D70008701E628F728082919293CC00097D1F1D6
:102D8000CA0CDB1C39014A010A2C04C096948794B2
:102D9000779467940A94D2F781E090E0A0E0B0E0E5
:102DA0000A2C04C0880F991FAA1FBB1F0A94D2F7D0
:102DB0000197A109B10982239323A423B52321E01C
:102DC00030E040E050E00097A105B10519F420E0A3
:102DD00030E0A90126293729482959290BC06C144C
:102DE0007D0424F4EE24FF24870104C0630120E065
:102DF00030E0A9018181FB019181891709F445C067
:102E0000882349F0D801C701821B930BA40BB50B93
:102E10009C01AD0104C02E193F09400B510B57FD19
:102E200004C01982DB82CA820BC081E08983DB8205
:102E3000CA8250954095309521953F4F4F4F5F4F37
:102E40002C833D834E835F830DC0880F991FAA1F7B
:102E5000BB1F8C839D83AE83BF838A819B81019737
:102E60009B838A838C819D81AE81BF819C01AD0152
:102E700021503040404050402F3FEFEF3E07EFEFF2
:102E80004E07EFE35E0708F30BC08983DB82CA823B
:102E90002E0D3F1D401F511F2C833D834E835F83AA
:102EA00083E088832C813D814E815F8157FF1DC067
:102EB000DA01C90181709070A070B0705695479585
:102EC00037952795822B932BA42BB52B8C839D8331
:102ED000AE83BF838A819B8101969B838A8305C0D1
:102EE000ECEDF4E003C0FB0101C0FE01CF01CDB762
:102EF000DEB7EEE00C94038FA0E2B0E0E2E8F7E189
:102F00000C94EF8E69837A838B839C832D833E831D
:102F10004F83588789E0E82EF12CEC0EFD1ECE0180
:102F20000196B7010E94861B8E010F5E1F4FCE01D6
:102F30000596B8010E94861BC701B801AE01475E25
:102F40005F4F0E9432160E94B81AA096E6E00C94D9
:102F50000B8FA0E2B0E0EFEAF7E10C94EF8E69830B
:102F60007A838B839C832D833E834F8358878E0186
:102F7000075F1F4FCE010196B8010E94861B91E1A9
:102F8000E92EF12CEC0EFD1ECE010596B7010E9434
:102F9000861B8A8991E089278A8BC801B701AE0117
:102FA000475E5F4F0E9432160E94B81AA096E6E074
:102FB0000C940B8FA0E2B0E0E0EEF7E10C94E38E0E
:102FC00069837A838B839C832D833E834F835887C9
:102FD000CE010196BE01675F7F4F0E94861BCE0126
:102FE0000596BE016F5E7F4F0E94861B99859230C9
:102FF00078F089898230C0F0943019F4823041F43D
:10300000CBC0843019F4923079F4C6C0923051F4B8
:1030100081E02A859A89291709F480E08A87CE0100
:103020000996BCC0823051F481E02A859A8929171B
:1030300009F480E08A8BCE014196B0C06D847E8415
:103040008F849888ED88FE880F89188DE0E2F0E083
:1030500080E090E0DC01AA24BB24650120E030E0A0
:10306000A901B3016170707061157105D1F02E0D69
:103070003F1D401F511F15012601280E391E4A1EF3
:103080005B1E81E090E0A0E0B0E02E153F05400718
:10309000510718F080E090E0DC01820D931DA41D23
:1030A000B51DAA0CBB1CCC1CDD1C17FF09C061E0C0
:1030B000262E312C412C512CA228B328C428D528E7
:1030C000319749F0EE0CFF1C001F111F9694879456
:1030D00077946794C6CF6B897C89EB85FC856E0FEE
:1030E0007F1F6E5F7F4F7C8F6B8F61E0EA857A89EF
:1030F000E71709F460E06A8F6B8D7C8D10C0FC01CE
:10310000E170F070309729F05695479537952795DF
:103110005068B695A795979587956F5F7F4FB7FDD8
:10312000EECF0CC0880F991FAA1FBB1F57FD8160EF
:10313000220F331F441F551F615070408030E0E064
:103140009E07E0E0AE07E0E4BE0760F36B8F7C8F84
:103150006FE7E62EF12C012D112DE822F9220A232A
:103160001B2360E4E616F1040105110561F487FDF7
:103170000AC0211531054105510529F0805C9F4F9A
:10318000AF4FBF4F80788D8F9E8FAF8FB8A383E0F6
:10319000898FCE01499602C08CED94E00E94B81A46
:1031A000A096E2E10C94FF8EA8E1B0E0EAEDF8E130
:1031B0000C94EF8E69837A838B839C832D833E836B
:1031C0004F8358878E01075F1F4FCE010196B801CC
:1031D0000E94861B81E1E82EF12CEC0EFD1ECE0133
:1031E0000596B7010E94861B8985823040F0898947
:1031F000823028F0C801B7010E94EF1B01C081E0B6
:103200006896E6E00C940B8FA8E1B0E0EAE0F9E103
:103210000C94EF8E69837A838B839C832D833E830A
:103220004F8358878E01075F1F4FCE010196B8016B
:103230000E94861B81E1E82EF12CEC0EFD1ECE01D2
:103240000596B7010E94861B8985823040F08989E6
:10325000823028F0C801B7010E94EF1B01C08FEF38
:103260006896E6E00C940B8FA8E0B0E0EAE3F9E1A1
:103270000C94EF8E7B018C0183E08983D801C70118
:103280008827B7FD83959927AA27BB27282F8A83EC
:10329000E114F1040105110519F482E0898337C0B6
:1032A0008EE190E09C838B83222389F080E0E816F6
:1032B00080E0F80680E0080780E8180769F11095BB
:1032C0000095F094E094E11CF11C011D111DED82AC
:1032D000FE820F831887C801B7010E945E1A9C0105
:1032E000215030401216130694F4022E04C0EE0C46
:1032F000FF1C001F111F0A94D2F7ED82FE820F837C
:1033000018878EE190E0821B930B9C838B83CE0108
:1033100001960E94B81A04C060E070E080E09FEC63
:103320002896E6E00C940B8FACE0B0E0EAE9F9E116
:103330000C94F38E69837A838B839C83CE010196F0
:10334000BE016B5F7F4F0E94861B8D81823081F1B1
:10335000823070F1843021F48E81882369F10AC0B3
:103360002F81388537FD24C06E812F3131053CF027
:10337000662311F120E030E040E050E821C08EE10A
:1033800090E0821B930B29853A854B855C8504C0B0
:1033900056954795379527958A95D2F7662381F0FC
:1033A00050954095309521953F4F4F4F5F4F08C046
:1033B00020E030E0A90104C02FEF3FEF4FEF5FE7BF
:1033C000B901CA012C96E2E00C940F8FA8E0B0E09E
:1033D000ECEEF9E10C94ED8E7B018C011A82611503
:1033E00071058105910519F482E089835FC083E04E
:1033F00089838EE1C82ED12CDC82CB82ED82FE82C5
:103400000F831887C801B7010E945E1AFC0131972B
:10341000F7FF3AC0AA27BB27AE1BBF0B21E030E065
:1034200040E050E00A2E04C0220F331F441F551FF6
:103430000A94D2F721503040404050402E213F2185
:103440004023512361E070E080E090E021153105D8
:103450004105510519F460E070E0CB0104C01695F8
:103460000795F794E794AA95D2F7E62AF72A082B4E
:10347000192BED82FE820F8318878EE190E08E1B60
:103480009F0B9C838B8312C0309781F00E2E04C05B
:10349000EE0CFF1C001F111F0A94D2F7ED82FE8272
:1034A0000F831887CE1ADF0ADC82CB82CE01019609
:1034B0000E94B81A2896E8E00C94098FAF92BF9248
:1034C000CF92DF92EF92FF920F931F937B018C01BB
:1034D00080E0E81680E0F80681E0080780E0180741
:1034E00058F4EFEFEE16F1040105110509F090F420
:1034F00080E090E0DC0117C0F0E0EF16F0E0FF069E
:10350000F0E00F07F1E01F0750F480E190E0A0E049
:10351000B0E009C088E090E0A0E0B0E004C088E13D
:1035200090E0A0E0B0E020E230E040E050E0281B76
:10353000390B4A0B5B0B5701680104C0D694C79442
:10354000B794A7948A95D2F7D601C5018C519B4FA9
:10355000FC018081281B310941095109C9011F91D2
:103560000F91FF90EF90DF90CF90BF90AF900895B4
:10357000EF92FF920F931F93CF93DF93FC0124816F
:1035800035814681578161818081823020F440619C
:10359000EFEFF0E0A3C0843009F49BC0823009F45F
:1035A00092C0211531054105510509F48FC00280F3
:1035B000F381E02D8FEFE238F8070CF05AC0C2E833
:1035C000DFEFCE1BDF0BCA31D1056CF579018A0123
:1035D0000C2E04C016950795F794E7940A94D2F739
:1035E00081E090E0A0E0B0E00C2E04C0880F991FAD
:1035F000AA1FBB1F0A94D2F70197A109B109822320
:103600009323A423B52321E030E040E050E000976D
:10361000A105B10519F420E030E0A9012E293F29C8
:10362000402B512B03C020E030E0A901DA01C90191
:103630008F779070A070B07080349105A105B105AE
:1036400039F427FF09C0205C3F4F4F4F5F4F04C044
:10365000215C3F4F4F4F5F4FE1E0F0E0203080E0D2
:10366000380780E0480780E4580728F5E0E0F0E0FC
:1036700022C0E038F1056CF5E158FF4FDA01C901CD
:103680008F779070A070B07080349105A105B1055E
:1036900039F427FF09C0205C3F4F4F4F5F4F04C0F4
:1036A000215C3F4F4F4F5F4F57FF05C056954795E1
:1036B00037952795319687E0569547953795279505
:1036C0008A95D1F70BC0E0E0F0E005C0E0E0F0E063
:1036D00005C0EFEFF0E020E030E0A9018E2F8795E4
:1036E00088278795942F9F77679566276795E69536
:1036F000E22EA92FA82BFE2FF62B622F732F8A2FD5
:103700009F2FCDB7DEB7E6E00C940B8FDC01FB01F9
:103710002C9111963C91119712968C911297482FEB
:103720004F7750E0982F991F9927991F13966C9106
:103730001397862F880F892B90E0661F6627661FD8
:103740006183009739F5211531054105510511F4C3
:1037500082E029C082E89FEF9383828367E0220F93
:10376000331F441F551F6A95D1F783E0808309C03A
:10377000220F331F441F551F82819381019793832A
:103780008283203080E0380780E0480780E45807D3
:1037900078F320C08F3F910579F42115310541055B
:1037A000510519F484E08083089544FF03C081E04B
:1037B000808310C010820EC08F5790409383828305
:1037C00083E0808387E0220F331F441F551F8A95B3
:1037D000D1F7506424833583468357830895FC01D1
:1037E000DB019081923008F449C08C91823008F45A
:1037F00045C0943051F461818430B1F511962C911B
:10380000119730E0261B310941C0843021F09230FD
:1038100041F48230B1F111968C9111978823A1F176
:103820002DC06181823001F111968C91119768173A
:10383000D9F42281338112968D919C91139782172E
:10384000930794F028173907BCF02481358146810D
:10385000578114968D919D910D90BC91A02D82174A
:103860009307A407B50718F4662341F00DC0281785
:1038700039074A075B0728F4662331F021E030E07E
:1038800005C020E030E002C02FEF3FEFC9010895EE
:1038900010929C08E4E0F1E080818F718083E5E084
:1038A000F1E080818F71808308956F927F928F9273
:1038B0009F92AF92BF92CF92DF92EF92FF920F93BF
:1038C0001F93DF93CF93CDB7DEB7A8970FB6F894C9
:1038D000DEBF0FBECDBF8C01FC018181882309F0C2
:1038E000CDC08281882309F4BAC0C80102960E9423
:1038F000FB8C882309F4C2C0B2C080919A08882347
:10390000E9F4C8010C9640E856E968E970E00E94C5
:10391000DE8C81E080939A0811C07E010894E11C3E
:10392000F11CC7010E94DA8CD8011C96F7018AE0CD
:1039300001900D928150E1F710929A083CE0E32E3D
:10394000F12CE00EF11EC7010E94FB8C882399F038
:1039500085E0F801808381E081838E01055F1F4F40
:10396000C8010E94DA8CD701F8018AE001900D921B
:103970008150E1F783C0A1FC10C080919B0888238F
:10398000F1F4C801469640E856E968E970E00E9403
:10399000DE8C81E080939B0812C025E1E22EF12CA1
:1039A000EC0EFD1EC7010E94DA8CD8015696F70175
:1039B0008AE001900D928150E1F710929B0896E108
:1039C000E92EF12CE00EF11EC7010E94FB8C88232A
:1039D00099F086E0F801808381E081838E01015EA9
:1039E0001F4FC8010E94DA8CD701F8018AE00190CC
:1039F0000D928150E1F742C060909C08D61461F1AD
:103A00006D24EE24FF247724CC24C39493010E2C40
:103A100002C0359527950A94E2F720FF16C095015C
:103A20000E2C02C0359527950A94E2F720FD0DC0B3
:103A3000F8018181882349F4E082C182C40140E415
:103A400052E460E070E00E94DE8C0894E11CF11CFE
:103A5000F5E0EF16F104D1F6D0929C080FC082E099
:103A6000882E912C800E911EC4010E94218DD09031
:103A70000301AD2CBB24D0FE40CF4FCFA8960FB68C
:103A8000F894DEBF0FBECDBFCF91DF911F910F9194
:103A9000FF90EF90DF90CF90BF90AF909F908F906E
:103AA0007F906F900895FC01DB01F89481819081F3
:103AB00011827894882321F09C9311961C9211977F
:103AC00008958FE180939C08089580919F0A9091BA
:103AD000A00A009729F481E08093A60A80E0089567
:103AE0008091A10A9091A20A20919D0A30919E0A8C
:103AF000B9010E947F8EE091A30AF091A40AE80F19
:103B0000F91F8091A10A9091A20A0196B9010E9421
:103B10007F8E9093A20A8093A10A80919F0A909130
:103B2000A00A01979093A00A80939F0A808108952C
:103B3000462FFC0162816F700E94E25B0895F89449
:103B400080919F0A9091A00A20919D0A30919E0A2F
:103B5000281B390B7894C90108958093A80A089509
:103B600081E08093A90A08958091A80A0895209180
:103B70009F0A3091A00A81E02115310509F080E00B
:103B800008950E94651D08951F930E94651D182FBA
:103B90000E94651D982F812F1F9108951F93DF9319
:103BA000CF9300D0CDB7DEB70E94651D8A830E94F7
:103BB000651D89830E94651D182F0E94651D982F21
:103BC0006A817981812F0F900F90CF91DF911F91A2
:103BD00008951092A00A10929F0A1092A20A1092C1
:103BE000A10A1092A50A1092A60A1092AB0A10928E
:103BF000AA0A089581E02091AA0A3091AB0A2630E2
:103C0000310509F080E00895EF92FF920F931F9322
:103C1000DF93CF93CDB7DEB728970FB6F894DEBF0A
:103C20000FBECDBF0E94651D88870E94651D8F83D2
:103C30000E94651D9F812885993009F4A4C09A309F
:103C400090F4953009F49FC0963030F49330F1F041
:103C5000943009F09FC097C0973009F497C098300E
:103C600008F091C093C09C3061F19D3038F49A30D7
:103C700009F453C09B3009F08DC06CC09731D1F06E
:103C80009F31F1F19D3009F085C02FC0213019F02E
:103C9000222331F009C09DE6E92E9CE0F92E04C0F4
:103CA0008DEEE82E8BE0F82E0E94C41DBC01C701EA
:103CB000409630C08091A80A91E089278093A80A95
:103CC00067C0213019F0222321F005C00DE61CE069
:103CD00002C00DEE1BE00E94C11D682F70E06170F4
:103CE0007070C8010E94D02953C00E94C11D682F66
:103CF00070E06170707083E49BE00E94B43B48C048
:103D000083E49BE061E00E94AF3B0E94C41DBC01C4
:103D100089E79FE00E94F45E3BC080912A14909155
:103D20002B149A8389838B81807F81608B83CE0162
:103D3000019661E00E94981D0E94651D21E030E01F
:103D40003093AB0A2093AA0A682F70E061707070FC
:103D500084E016C080912A1490912B149D838C834B
:103D60008E81807F81608E83CE01049661E00E9407
:103D7000981D0E94651D682F70E06170707083E06F
:103D80000E94124905C00E94651D02C00E94CE1DFE
:103D900081E001C080E028960FB6F894DEBF0FBE28
:103DA000CDBFCF91DF911F910F91FF90EF900895BC
:103DB000FC01462F828193812081318182179307F4
:103DC000A0F46281738184819581860F971FB90168
:103DD0000E947F8EA681B781A80FB91F4C93828164
:103DE0009381019693838283089581E0808708956B
:103DF000682F8DE99AE00E94D81E08952F923F9275
:103E00004F925F926F927F928F929F92AF92BF92EA
:103E1000CF92DF92EF92FF920F931F93DF93CF9396
:103E2000CDB7DEB7CF5AD0400FB6F894DEBF0FBE85
:103E3000CDBF0E943F42882309F180919F0A909153
:103E4000A00A20919D0A30919E0A2817390709F48B
:103E5000CFC50E948C42882309F4CAC50E948F42B4
:103E6000682F8DE99AE00E94D81EE7CF80919F0AC3
:103E70009091A00A009711F40E949E420E940A4A63
:103E8000882309F180919F0A9091A00A20919D0AB0
:103E900030919E0A2817390709F4B0C50E94104ACC
:103EA000882309F4ABC50E941E4A682F8DE99AE069
:103EB0000E94D81EE7CF80919F0A9091A00A009798
:103EC00011F40E948C4A8091A80A882309F09CC5AD
:103ED0008091A90A882309F097C58091AA0A909138
:103EE000AB0A8330910581F40E946345882341F039
:103EF00086EB9AE00E94FB8C882331F00E94DF451C
:103F00001092AB0A1092AA0A8091AA0A9091AB0A69
:103F10008130910541F40E946345882321F4109279
:103F2000AB0A1092AA0A8091AA0A9091AB0A823039
:103F3000910551F48CEA9AE00E94FB8C882321F0D1
:103F40001092AB0A1092AA0A8091AA0A9091AB0A29
:103F500084309105E1F480EC9AE00E94FB8C882388
:103F600091F48091A70A813019F0882321F005C0CF
:103F70000DE61CE002C00DEE1BE0C80140960E9459
:103F80008E5F882321F01092AB0A1092AA0A8091CA
:103F9000AA0A9091AB0A8530910581F480EC9AE0F1
:103FA0000E94FB8C882331F489E79FE00E948E5F9A
:103FB000882321F01092AB0A1092AA0A8091AA0AD3
:103FC0009091AB0A8630910561F58AEC9AE00E94E7
:103FD000FB8C882351F08091D50A81FF1EC083E4B9
:103FE0009BE060E00E94ED381CC080E29DE00E94F2
:103FF000B3648823B1F08091D50A82FF04C080E2C7
:104000009DE00E94DF6283E49BE060E070E040E0BE
:1040100050E00E946F370E943F401092AB0A10920E
:10402000AA0A8091AA0A9091AB0A009709F0ECC401
:1040300080919F0A9091A00A009709F4E5C483E457
:104040009BE00E9406378091A10A9091A20A2091DC
:104050009D0A30919E0AE091A30AF091A40AB90149
:104060000E947F8E8E0F9F1FDC010C910138F1F5AD
:1040700080919F0A9091A00A8131910508F4C4C4EF
:104080000E94651D81E090E09093AB0A8093AA0A9C
:104090000E94CE1D6B017C010E94CE1D1B012C01D4
:1040A0000E94CE1D3B014C010E94CE1DCB55DF4F1F
:1040B000688379838A839B83C55AD04019E1A12EF6
:1040C000B12CAC0EBD1EC501B701A6019201810144
:1040D000740163010E94613EC501CB55DF4F4881E9
:1040E00059816A817B81C55AD04074C00B3809F070
:1040F00074C080919F0A9091A00A8931910508F4BB
:1041000083C40E94651D81E090E09093AB0A809388
:10411000AA0A0E94CE1D4B015C010E94CE1D8B019C
:104120009C01C255DF4F2883CE5AD040C155DF4F86
:104130003883CF5AD0400E94CE1D1B012C010E9413
:10414000CE1DCB55DF4F688379838A839B83C55A05
:10415000D0400E94CE1D6B017C010E94CE1DC75530
:10416000DF4F688379838A839B83C95AD04000D00C
:1041700000D0BDE26B2E712C6C0E7D1EEDB7FEB72C
:10418000C182D282E382F482C301B501A401C25587
:10419000DF4F2881CE5AD040C155DF4F3881CF5AEA
:1041A000D04072016101CB55DF4F88809980AA8091
:1041B000BB80C55AD0400E942D3E0F900F900F90AB
:1041C0000F90C301C755DF4F488159816A817B81B8
:1041D000C95AD0400E94DC4617C40E3809F082C08C
:1041E00080919F0A9091A00A8A31910508F40CC42D
:1041F0000E94651D81E090E09093AB0A8093AA0A2B
:104200000E94CE1D4B015C010E94CE1D8B019C01C2
:10421000C255DF4F2883CE5AD040C155DF4F388377
:10422000CF5AD0400E94CE1D1B012C010E94CE1DF2
:10423000CB55DF4F688379838A839B83C55AD040EF
:104240000E94CE1D6B017C010E94CE1DC755DF4F21
:10425000688379838A839B83C95AD0400E94C11D99
:10426000C355DF4F8883CD5AD04000D000D0A1E4A1
:104270006A2E712C6C0E7D1EADB7BEB71196CD9215
:10428000DD92ED92FC921497C301B501A401C255D1
:10429000DF4F2881CE5AD040C155DF4F3881CF5AE9
:1042A000D04072016101CB55DF4F88809980AA8090
:1042B000BB80C55AD0400E942D3E0F900F900F90AA
:1042C0000F90C301C755DF4F488159816A817B81B7
:1042D000C95AD040C355DF4F2881CD5AD0400E94E3
:1042E000A44792C3063889F480919F0A9091A00A4E
:1042F0008230910508F488C30E94651D0E94651DE7
:104300008093A70A0E9466467FC3093839F58091D9
:104310009F0A9091A00A8230910508F475C30E940B
:10432000651D0E94651DA82EAA1CAA24AA1C00E0D7
:1043300010E0C82EDD24C601002E02C09595879599
:104340000A94E2F780FF04C0802F6A2D0E94124970
:104350000F5F1F4F0530110571F756C3023821F565
:1043600080919F0A9091A00A8D30910508F44CC36A
:104370000E94651D0E94CE1D3B014C010E94CE1D76
:104380001B012C010E94CE1D6B017C01F5E5AF2EB7
:10439000B12CAC0EBD1EC501B401A3019201810177
:1043A0000E94613EC50148C00C3809F048C08091A8
:1043B0009F0A9091A00A8531910508F425C30E94B7
:1043C000651D0E94CE1D6B017C010E94CE1D1B014C
:1043D0002C010E94CE1D4B015C010E94CE1DCB55CD
:1043E000DF4F688379838A839B83C55AD0400E94BC
:1043F000CE1D00D000D0E9E66E2E712C6C0E7D1E15
:10440000EDB7FEB76183728383839483C301B701E1
:10441000A6019201810175016401CB55DF4F8880AF
:104420009980AA80BB80C55AD0400E942D3E0F9033
:104430000F900F900F90C3010E94E645E5C205382A
:10444000E9F480919F0A9091A00A8530910508F4C3
:10445000DBC282E090E09093AB0A8093AA0A0E94AC
:10446000651D0E94CE1D28EE33E040E050E00E9422
:10447000608EAB01BC018CEA9AE01CC10439B9F52D
:1044800080919F0A9091A00A8530910508F4BCC2E2
:104490000E94651D0E94651D8093D40A0E94C41D60
:1044A0008C010E94651D8093D50A0115110581F0CC
:1044B000B80180E090E020E432E44FE050E00E9458
:1044C000608EAB01BC018AEC9AE00E94DE8C80C059
:1044D0008E010B5F1F4FC8010E94DA8CAAECBAE074
:1044E000F8018AE001900D928150E1F771C0053921
:1044F00009F083C080919F0A9091A00A86309105AF
:1045000008F482C20E94651D0E94651DC82E0E948B
:10451000651D882E0E94651DA82E0E94651D082F0E
:10452000C0FC04C088EF9EE00E945B818092FA0E7E
:10453000A092FB0E41E0C1FE40E088EF9EE06DE9F5
:104540007AE00E941A85E0916E0DFF27E7FDF09555
:10455000EE0FFF1FE05AF24F20813181FEE0283F2D
:104560003F0731F080E29DE068EF7EE00E943A6212
:10457000002341F0C2FC06C088EF9EE0602F41E0BE
:104580000E949F81C2FE40C2002389F0602F70E02C
:1045900080E090E020E432E44FE050E00E94608E42
:1045A000AB01BC018AEC9AE00E94DE8C0EC08E0149
:1045B000015F1F4FC8010E94DA8CAAECBAE0F80133
:1045C0008AE001900D928150E1F781E08093D40A56
:1045D00083E49BE069E170E04FE050E00E946F37B8
:1045E00080E29DE06091D40A0E94AE6486E090E093
:1045F0009093AB0A8093AA0A07C2802F8358823017
:1046000090F580919F0A9091A00A8830910508F456
:10461000FBC10E94651D0E94C11DA82E0E94CE1DD7
:104620006B017C010E94C41D23E030E03093AB0A93
:104630002093AA0ABC0180E090E020E432E44FE03D
:1046400050E00E94608EAB01BC0186EB9AE00E94B4
:10465000DE8C81E0043809F080E06A2DA701960124
:104660000E94A148D1C1073841F580919F0A9091DD
:10467000A00A8630910508F4C7C184E090E09093C9
:10468000AB0A8093AA0A0E94651D0E94651D809353
:10469000A70A0E94C41D0E94C41DBC0180E090E0D6
:1046A00020E432E44FE050E00E94608EAB01BC0198
:1046B00080EC9AE00E94DE8CA7C10D3899F48091BD
:1046C0009F0A9091A00A8630910508F49DC185E06B
:1046D00090E09093AB0A8093AA0A0E94651D0E9405
:1046E000651DD7CF0F3809F047C080919F0A909180
:1046F000A00A8230910508F487C10E94651D0E94BE
:10470000C11D5EE0A52EB12C00E010E0882E99249A
:104710004DE7642E712C6C0E7D1E6E010894C11C39
:10472000D11CC401002E02C0959587950A94E2F72A
:1047300080FF18C0C3010E941146C301B8010E9446
:10474000833EFC0180819181A281B38189839A8318
:10475000AB83BC83F894C601B50144E050E00E94ED
:10476000EE8F78940F5F1F4F84E090E0A80EB91E83
:1047700005301105B1F648C1003909F03FC08091FC
:104780009F0A9091A00A8230910508F43DC10E94D1
:10479000651D0E94C11DC82E31E9A32EB12CAC0E9F
:1047A000BD1EC5010E9411462EE0622E712C00E054
:1047B00010E0DD248A2CAB2CC601002E02C095959A
:1047C00087950A94E2F780FF0CC0F894882D9A2D03
:1047D000B8010E948B3EB30144E050E00E94D88FA4
:1047E00078940F5F1F4FA4E0B0E06A0E7B1E053087
:1047F000110511F7CE018F569F4F1ECE0139C9F416
:1048000080919F0A9091A00A8230910508F4FCC023
:104810000E94651D0E94C11DC82E0E94C11D082F47
:104820008C2D602F0E9424498C2D602F0E942449DA
:10483000EBC0023989F580919F0A9091A00A8230DD
:10484000910508F4E1C00E94651D0E94C11D082F5A
:104850000E94C11DC155DF4F8883CF5AD0400E94AE
:10486000C11DC255DF4F8883CE5AD0400E94C11D62
:10487000C82E0E94C11D8C2D0E94CB40802FC15597
:10488000DF4F6881CF5AD040C255DF4F4881CE5AA2
:10489000D0400E942D40B8C0033909F580919F0A8D
:1048A0009091A00A8230910508F4AEC00E94651D67
:1048B0000E94C41D082F0E94C41DC155DF4F88836C
:1048C000CF5AD0400E94C11D802F90E0C155DF4FCC
:1048D0006881CF5AD04070E00E94313C95C00838C2
:1048E00019F580919F0A9091A00A8430910508F4EF
:1048F0008BC08091A10A9091A20A00919F0A109109
:10490000A00A0396B9010E947F8E8E0F9F1FFC01A3
:10491000808190E004960817190708F475C00E947A
:10492000651D0E94041E70C0063999F480919F0A8B
:104930009091A00A8230910508F466C00E94651D1E
:104940000E94C11D082F0E94C11D802F0E947E6100
:104950005BC00739C9F480919F0A9091A00A823008
:10496000910508F451C00E94651D0E94C11D882355
:1049700011F484E006C0813019F40E940F3D44C058
:1049800082E00E94F03C40C0083991F480919F0A77
:104990009091A00A0097C1F10E94651D0E94C11D5F
:1049A0000E94FB2783E49BE060E00E94ED382CC06E
:1049B000093979F480919F0A9091A00A009721F11A
:1049C0000E94651D0E94CE1D8DE99AE00E9426324C
:1049D0001BC00A39C9F480919F0A9091A00A0097E0
:1049E00099F00E94651D0E94651D0E949A2D0CC0C1
:1049F0000E948C42882309F439CA40CA0E94104A96
:104A0000882309F458CA5FCAC155DF4F0FB6F8941E
:104A1000DEBF0FBECDBFCF91DF911F910F91FF90F1
:104A2000EF90DF90CF90BF90AF909F908F907F904E
:104A30006F905F904F903F902F90089580E092E0AC
:104A400090939E0A80939D0A1092A00A10929F0A4A
:104A50001092A20A1092A10A8DE998E09093A40AFC
:104A60008093A30A1092A50A1092A60A8CEA9AE0F3
:104A70000E94DA8C86EB9AE00E94DA8C80EC9AE055
:104A80000E94DA8C8AEC9AE00E94DA8C0895462F14
:104A9000FC0162816F700E94C05B0895FC0162811D
:104AA0006F700E94D55B0895DF93CF9300D000D044
:104AB00000D0CDB7DEB780913414909135149A832D
:104AC00089838B81807F8B83CE0101960E944E2546
:104AD000882379F480913214909133149D838C83D0
:104AE0008E81807F84608E83CE0104960E944E2545
:104AF00001C081E026960FB6F894DEBF0FBECDBF91
:104B0000CF91DF9108950F931F93DF93CF93CDB78C
:104B1000DEB72C970FB6F894DEBF0FBECDBF8C0169
:104B200080913414909135149A8389838B81807F8E
:104B30008B83CE0101960E944E25882391F58091AA
:104B40003414909135149D838C838E81807F816095
:104B50008E83CE01049661E00E94981D80913214EC
:104B60009091331498878F838985807F84608987AB
:104B7000CE0107960E944E25882321F0C8010E948D
:104B8000DC250FC080913414909135149B878A875F
:104B90008C85807F81608C87CE010A9660E00E94C0
:104BA000981D2C960FB6F894DEBF0FBECDBFCF91E7
:104BB000DF911F910F9108950F931F93DF93CF9370
:104BC000CDB7DEB72C970FB6F894DEBF0FBECDBFC2
:104BD0008C0180913414909135149A8389838B8150
:104BE000807F8B83CE01019660E00E94981D8091AA
:104BF0003414909135149D838C838E81807F8E83B5
:104C0000CE01049661E00E944725F8011082809150
:104C100032149091331498878F838985807F8460C4
:104C20008987CE0107960E944E25882319F0C80176
:104C30000E94832580913414909135149B878A8734
:104C40008C85807F81608C87CE010A9660E00E940F
:104C5000981D2C960FB6F894DEBF0FBECDBFCF9136
:104C6000DF911F910F9108950F931F93DF93CF93BF
:104C7000CDB7DEB72C970FB6F894DEBF0FBECDBF11
:104C80008C0180913414909135149A8389838B819F
:104C9000807F81608B83CE01019660E00E94981D29
:104CA00080913414909135149D838C838E81807F04
:104CB00081608E83CE01049661E00E944725809139
:104CC00032149091331498878F838985807F846014
:104CD0008987CE01079660E00E94981D809132146A
:104CE000909133149B878A878C85807F84608C8722
:104CF000CE010A9660E00E944725C8010E94DC258B
:104D0000F8011182128213822C960FB6F894DEBF3E
:104D10000FBECDBFCF91DF911F910F910895CF931B
:104D2000DF93EC018B81882329F485E00E94F03C1D
:104D300081E08B83DF91CF9108950F931F93DF93D1
:104D4000CF9300D00F92CDB7DEB78C01FC018281EA
:104D5000853128F0C8010E948F2680E024C0809110
:104D60003414909135149A8389838B81807F8B834F
:104D7000CE0101960E944E25882331F0F801118260
:104D800082818F5F82830EC0F8018181863028F096
:104D9000C8010E948325F8011182F80181818F5F8B
:104DA0008183128281E00F900F900F90CF91DF915D
:104DB0001F910F91089586ED9AE00E9468870895EB
:104DC000DF93CF9300D0CDB7DEB7BC0181E08983FC
:104DD00082E38A83CE01019642E050E00E94EE8F8A
:104DE0000F900F90CF91DF910895CF93DF93EC0157
:104DF00040E050E060EE70E40E94835DCE010296D8
:104E000046E656E666EA7EE30E94835DCE0104969E
:104E100040E050E060E172E40E94835DDF91CF9159
:104E200008950F931F93CF93DF93EB018B01085EDF
:104E30001F4F009719F4CB0167E002C0CB0168E374
:104E40000E94F88FC80162E30E94F88FCE010A9693
:104E50000E94F526CE0140960E94F526CE014A9684
:104E60000E94E026CE01069664EF71E00E940E904B
:104E7000CE01029665E070E00E940E90CE0104968D
:104E800064EF71E00E940E90CE0108966CE271E032
:104E90000E940E90DF91CF911F910F910895CF93B3
:104EA000DF93EC0140EA56E861E070E00E94069072
:104EB000CE01049649E150E060E070E00E94069067
:104EC000CE01089643EE5FE060E070E00E9406903D
:104ED000BE01605F7F4F85E49BE240E550E00E94A9
:104EE000EE8FDF91CF9108950F931F93DF93CF93B0
:104EF00000D00F92CDB7DEB78C0160E00E94F88F32
:104F0000C801029661E00E94F88F8FEF89831B82AF
:104F10001A82B8016C5F7F4FCE01019643E050E0EA
:104F20000E94EE8F0F900F900F90CF91DF911F9105
:104F30000F9108950F931F93DF93CF9300D000D06C
:104F4000CDB7DEB7082F162F80E491E067E04C83E1
:104F50000E94F88F09831A834C814B83CE010196FE
:104F600064E471E043E050E00E94EE8F0F900F90F8
:104F70000F900F90CF91DF911F910F910895EF92B5
:104F8000FF920F931F93CF93DF937B018C01EA0174
:104F9000CA01B7010E940E90CE010496B8010E948A
:104FA0000E90DF91CF911F910F91FF90EF90089598
:104FB000AC016BE770E084EF91E00E94BF27089599
:104FC000CF93DF93EC016CED70E00E940E90CE0168
:104FD00002966CED70E00E940E90CE01049664E69D
:104FE00070E00E940E90CE01069665E00E94F88F58
:104FF000DF91CF910895DF93CF93CDB7DEB76D9753
:105000000FB6F894DEBF0FBECDBFDE011596E0E10E
:10501000F6E085E001900D928150E1F781EC93E29A
:105020009A83898384E193ED9C838B8380E092E073
:1050300062E270E044E150E00E94EE8FCE010596FE
:1050400066E070E045E050E00E94EE8F84E090E082
:105050006FE90E94F88F8CE090E06BE10E94F88F7E
:10506000DE011A96ECEFF5E084E101900D9281509B
:10507000E1F782E490E061E00E94E55C882341F082
:1050800085EE9BE2A0E0B0E08A879B87AC87BD8776
:10509000CE010A966EE070E044E150E00E94EE8F8F
:1050A00080E691E061E00E94F88F84E790E00E9442
:1050B0004F2788E591E00E94E027CE01019664E445
:1050C00070E044E050E00E94EE8F80E090E060E00D
:1050D00071E00E94112781E090E06CE171E00E9494
:1050E000112780E491E00E9474278AE491E00E94F5
:1050F000D82786E591E060E00E94F88F6D960FB6A4
:10510000F894DEBF0FBECDBFCF91DF9108951F93FE
:10511000DF93CF93CDB7DEB764970FB6F894DEBFB9
:105120000FBECDBF182F833008F011E082E490E06D
:10513000612F0E94F88FDE011196E8EEF5E084E120
:1051400001900D928150E1F7113041F485EE9BE220
:10515000A0E0B0E089839A83AB83BC83CE01019643
:105160006EE070E044E150E00E94EE8F64960FB66E
:10517000F894DEBF0FBECDBFCF91DF911F91089590
:1051800082E490E061E00E94E55C91E0813009F00A
:1051900090E0892F089580E491E00E9474278AE4CA
:1051A00091E00E94D82788E591E00E94E02780E600
:1051B00091E061E00E94F88F0895DF93CF93CDB71F
:1051C000DEB72C970FB6F894DEBF0FBECDBF1982A5
:1051D0001A821B821C821D821E821F8218861986DB
:1051E0001A861B861C86CE01019662E671E04CE0B1
:1051F00050E00E94EE8F2C960FB6F894DEBF0FBEE3
:10520000CDBFCF91DF91089582E090E06CE00E94E5
:10521000F88F82E490E061E00E94F88F0E94DD2820
:105220000E94FB2708956F927F928F929F92AF9278
:10523000BF92CF92DF92EF92FF920F931F93DF9373
:10524000CF93CDB7DEB72F970FB6F894DEBF0FBE62
:10525000CDBF3C01D62E2F8338874987EA86FB864F
:105260000C87AD86BE86CF8680912E1490912F1428
:105270009A8389832B81207F22602B839D838C835B
:105280008E81807F85608E83C301BE01635F7F4F07
:10529000AE014F5F5F4F9E012C5F3F4F0E94B78C66
:1052A00089E196E0F30196878587D78690E1A92E5C
:1052B000B12CA60CB71CA301435F5F4F8AE0E82E18
:1052C000F12CE80CF91CC501B30100E211EA27E05A
:1052D00030E0CC24C3940E94B45ED301A059BF4FE8
:1052E000FE01379683E001900D928150E1F7F301C2
:1052F000ED58FF4FD082A401465E5F4FC3018C582A
:105300009F4FB5010A851B852C850E94945CF30193
:10531000E258FF4F918280822F960FB6F894DEBF3D
:105320000FBECDBFCF91DF911F910F91FF90EF90F6
:10533000DF90CF90BF90AF909F908F907F906F90B5
:1053400008950F931F93CF93DF93EC018C010059C5
:105350001F4FC80160E00E94981DC80161E00E94D3
:105360004725CE0140960E94BE5DCE010E941C8C56
:10537000CE018C589F4F0E946A5CDF91CF911F91A4
:105380000F910895CF93DF93EC0140960E94166031
:10539000CE018C589F4F0E94485CDF91CF910895B9
:1053A0008C589F4F662319F00E943A5C08950E9422
:1053B000655C0895882321F080918000806803C097
:1053C000809180008F73809380000895882321F05E
:1053D0008091A000806803C08091A0008F738093AB
:1053E000A00008950F931F93DF93CF9300D000D0B8
:1053F00000D0CDB7DEB7062F1FB7F894FC0182812D
:10540000882309F5862F81508E3FA0F080E00E940E
:10541000E62980913414909135149A8389838B8185
:10542000807F83608B8361E00F3F09F060E0CE01F5
:10543000019622C070E07093A9006093A80081E0FB
:105440000E94E62924C0813011F5862F81508E3FBD
:10545000B0F080E00E94DA298091281490912914FC
:105460009D838C838E81807F85608E8361E00F3F7A
:1054700009F060E0CE0104960E94981D08C070E01B
:10548000709389006093880081E00E94DA291FBF31
:1054900026960FB6F894DEBF0FBECDBFCF91DF9139
:1054A0001F910F910895CF93DF93EC010E94B41DDB
:1054B00091E089270E94AD1DCE0161E80E94B0876E
:1054C000DF91CF910895FC0183A194A1009741F051
:1054D00023A134A181E02430310519F480E008953E
:1054E00080E00895CF92DF92EF92FF920F931F9387
:1054F000CF93DF93EC018B018881882399F17E01A2
:10550000DC2ECF2CCE0160E00E94508787FF2AC09E
:105510000E944242882321F0CE010E94454208C0E9
:105520000E943F42882321F40E940A4A882321F1E5
:10553000C80161E80E94B08713C08D2D9C2D6C2F8F
:105540000E9450870E94F81E2196CE15DF05ACF30D
:10555000C80161E802C0C80162E80E94B08778947F
:1055600081E001C080E0DF91CF911F910F91FF900A
:10557000EF90DF90CF900895F894E8800E949F1DEF
:10558000FF248E159F0538F3C0E0D0E0DECF0895EC
:10559000CF93DF93EB0161E00E9455878A3191053B
:1055A00040F4CE0161E80E94B087CE0160E070E077
:1055B00007C0CE0161E80E94B087CE0166EF71E0BE
:1055C0000E94B387DF91CF9108959F92AF92BF92CF
:1055D000CF92DF92EF92FF920F931F93DF93CF93BF
:1055E000CDB7DEB765970FB6F894DEBF0FBECDBF5F
:1055F0006B01F8948E010F5F1F4FC8010E94114686
:10560000C60161E80E94B087C80160E070E00E94B6
:10561000833EFC014081518162817381C6010E94F9
:10562000C987C80161E070E00E94833EFC014081AF
:10563000518162817381C6010E94C987C80162E0FD
:1056400070E00E94833EFC01408151816281738140
:10565000C6010E94C98702E010E060E08DE1A82E3B
:10566000B12C0A9D70010B9DF00C1A9DF00C1124B9
:1056700083E49BE0E80EF91E962E990C990CC70165
:105680000E94D189882311F022E001C020E0C701E7
:105690002D8B0E94ED892D89622F6929682B01507D
:1056A00010409FEF0F3F1907E1F6C6010E94B08737
:1056B000789465960FB6F894DEBF0FBECDBFCF913C
:1056C000DF911F910F91FF90EF90DF90CF90BF90EF
:1056D000AF909F9008959F92AF92BF92CF92DF922A
:1056E000EF92FF920F931F93DF93CF93CDB7DEB767
:1056F00065970FB6F894DEBF0FBECDBF8B01F8944F
:105700007E010894E11CF11CC7010E941146C801EA
:1057100061E80E94B087C70160E070E00E94833EAC
:10572000FC014081518162817381C8010E94C98757
:10573000C70161E070E00E94833EFC01408151811D
:1057400062817381C8010E94C987C70162E070E06D
:105750000E94833EFC014081518162817381C801B6
:105760000E94C987C70163E070E00E94833EFC018C
:105770004081518162817381C8010E94C987C7013C
:1057800064E070E00E94833EFC01408151816281AF
:105790007381C8010E94C98724E0C22ED12C60E029
:1057A0009DE1A92EB12CCA9C7001CB9CF00CDA9C17
:1057B000F00C112483E49BE0E80EF91E962E990C60
:1057C000990CC7010E94D189882311F022E001C001
:1057D00020E0C7012D8B0E94ED892D89622F692958
:1057E000682B0894C108D1089FEFC9169FEFD9060E
:1057F000D1F6C80170E00E94B387789465960FB621
:10580000F894DEBF0FBECDBFCF91DF911F910F91F6
:10581000FF90EF90DF90CF90BF90AF909F90089552
:105820000F931F93CF93DF93EB018C010D5F1F4FFD
:10583000CB0161E80E94B087C8010E946B43682FCA
:10584000CE010E94B087DF91CF911F910F910895F3
:105850006F927F928F929F92AF92BF92CF92DF9280
:10586000EF92FF920F931F93DF93CF930F92CDB7D9
:10587000DEB77C018B01CDB6DEB68DB69EB6ADB679
:10588000BEB6CB0161E80E94B087C70161E00E940B
:105890005087882379F00E94AE43BC01009751F0F5
:1058A000C8010E94B087C80160E00E94B0873C2D0B
:1058B000292D37C08DB79EB74F970FB6F8949EBF6E
:1058C0000FBE8DBFEDB6FEB60894E11CF11CC701FA
:1058D0006FE140E050E00E944641BC01F701808149
:1058E000882329F06115710511F48E3281F3C80106
:1058F0000E94B08720E0E22FF0E02F3161F0EE0D42
:10590000FF1D6081662339F0C80129830E94B0879A
:1059100029812F5FF0CFC80160E00E94B0873A2D47
:105920002B2D832F922F0FB6F8949EBF0FBE8DBFE5
:105930000FB6F894DEBE0FBECDBE0F90CF91DF91B3
:105940001F910F91FF90EF90DF90CF90BF90AF909D
:105950009F908F907F906F9008958F929F92AF92BB
:10596000BF92CF92DF92EF92FF920F931F93DF933C
:10597000CF93CDB7DEB7A82EE92E6B018DB69EB6BC
:1059800061E00E9455878C018A2D9E2D63E00E9464
:105990005087482FA82EBB248DB79EB78A199B0924
:1059A0000FB6F8949EBF0FBE8DBFEDB6FEB608943D
:1059B000E11CF11CC701B80150E00E94D88FC6015C
:1059C00061E80E94B08700E010E008C0F701619133
:1059D0007F01C6010E94B0870F5F1F4F0A151B058C
:1059E000ACF30FB6F8949EBE0FBE8DBECF91DF9183
:1059F0001F910F91FF90EF90DF90CF90BF90AF90ED
:105A00009F908F9008952F923F924F925F926F9246
:105A10007F928F929F92AF92BF92CF92DF92EF923E
:105A2000FF920F931F93DF93CF930F92CDB7DEB703
:105A3000C82EB92E4B012DB63EB661E00E945587A7
:105A4000A82E792E8C2D9B2D63E00E945087D82E96
:105A5000482E55248DB79EB7841995090FB6F89432
:105A60009EBF0FBE8DBF0DB71EB70F5F1F4F602EBD
:105A70001983C8016A2D772D4D2D50E00E94D88FD3
:105A8000E02EF12E00E010E00BC0602F6C5F8C2D3B
:105A90009B2D0E945087F70181937F010F5F1F4F5D
:105AA0000415150594F3862D99816A2D772D4D2DBA
:105AB00050E00E94EE8FC40161E80E94B087C401EB
:105AC0006D2D0E94B0870FB6F8943EBE0FBE2DBE5E
:105AD0000F90CF91DF911F910F91FF90EF90DF908A
