:100000000C94B00B0C94DF0B0C94DF0B0C94DF0BF7
:100010000C94DF0B0C94DF0B0C94DF0B0C94DF0BB8
:100020000C94DF0B0C94DF0B0C94DF0B0C94DF0BA8
:100030000C94DF0B0C94DF0B0C94DF0B0C94BB2F98
:100040000C94DF0B0C94DF0B0C94DF0B0C94DF0B88
:100050000C94DF0B0C94A9300C94DF0B0C94DF0B89
:100060000C94DF0B0C94FE7C0C94DF0B0C942A7D1B
:100070000C94DF0B0C94D64F0C94DF0B0C94DF0B1D
:100080000C94AA2C0C94DF0B0C94DF0B0C94DF0B5C
:100090000C94DF0B0C94DF0B0C94DF0B0C94DF0B38
:1000A0000C94DF0B0C94DF0B0C94DF0B0C94DF0B28
:1000B0000C94DF0B0C94DF0B0C94DF0B0C94DF0B18
:1000C0000C94DF0B0C94DF0B0C94DF0B0C94DF0B08
:1000D0000C94DF0B0C94DF0B0C94DF0B0C94DF0BF8
:1000E0000C94DF0B262447244B246224B625B62526
:1000F000B625B625B625B625B625B6259024AC245A
:10010000B625B625B625B625B625B625B625B62517
:10011000BA248B24B6257F248524B625B625B6259A
:10012000D124B625DB24F2243024FC2407254A25DB
:10013000F2252A262F2611263926AC26AC26112692
:100140005C26AC26602665267A267F26432648262E
:10015000522611265726AC26F7253E268426AC26A5
:10016000AC268926546865205265706C6963617499
:1001700030720083048800000014008C000000002E
:100180000000000030F8FFFF000000000000000049
:100190008E000000000000000000000000000000D1
:1001A000000000000057290400188304DC0500004B
:1001B00014008403690100001400901F891F95003A
:1001C00000000046696E64207468652034206B6E00
:1001D0006F6273206F6E20009501000000746865E7
:1001E00020626F74746F6D206F66207468652020C4
:1001F00020009501000000706C6174666F726D20C4
:10020000616E64207475726E20746F009507000033
:10021000007469676874656E20636F6D706C6574D7
:10022000656C792E00950000000049276D20676FEE
:10023000696E6720746F206D6F76652020200095B1
:1002400001000000746865206578747275646572D9
:1002500020746F202020202000950100000076618E
:1002600072696F757320706F736974696F6E732034
:100270002020009507000000666F722061646A7597
:1002800073746D656E742E2E2E009500000000496B
:100290006E206561636820706F736974696F6E2C7E
:1002A00020202000950100000077652077696C6CA4
:1002B000206E65656420746F202020202000950149
:1002C00000000061646A7573742074776F206B6E30
:1002D0006F627320617420009507000000746865E8
:1002E0002073616D652074696D652E2E2E0095005A
:1002F0000000004E6F7A7A6C657320617265206130
:100300007420746865202000950100000072696700
:10031000687420686569676874207768656E202056
:1003200020009501000000796F752063616E206ADE
:1003300075737420736C6964652061009507000013
:10034000007368656574206F662070617065722E39
:100350002E2E0095000000006265747765656E20A2
:10036000746865206E6F7A7A6C65202000950100B4
:100370000000616E642074686520706C6174666F43
:10038000726D2E20202000950100000047726162EE
:100390002061207368656574206F6620202020200E
:1003A000009507000000706170657220746F206115
:1003B00073736973742075732E00830488000000C2
:1003C00014008C000000000000000000000000008D
:1003D000000000000000009502000000506C656104
:1003E00073652077616974008E00000000000000D2
:1003F00000D007000000000000000000000D4503D1
:10040000001884036901000014008CA531000094D9
:100410001B0000D007000000000000000000009555
:1004200002000000506C656173652077616974009B
:100430008E0000000000000000D007000000000057
:1004400000000000001D471C00188E00000000CABC
:10045000E4FFFFD00700000000000000000000C023
:100460008C0D00188E00000000CAE4FFFF000000A1
:100470000000000000000000000D4503001895007A
:1004800000000041646A75737420746865206672A8
:100490006F6E742074776F0095010000006B6E6FB3
:1004A000627320756E74696C2070617065722020B3
:1004B000200095010000006A75737420736C6964F4
:1004C0006573206265747765656E2000950700008E
:1004D000006E6F7A7A6C6520616E6420706C617456
:1004E000666F726D009502000000506C6561736567
:1004F0002077616974008E00000000C9E4FFFFD01E
:1005000007000000000000000000000D4503001877
:100510008EEF220000CAE4FFFFD0070000000000B9
:10052000000000000020651100188EF0220000CAB3
:10053000E4FFFF0000000000000000000000000DCC
:1005400045030018950000000041646A757374202B
:100550007468652072696768742074776F0095010C
:100560000000006B6E6F627320756E74696C207092
:10057000617065722020200095010000006A75738B
:100580007420736C69646573206265747765656E49
:10059000200095070000006E6F7A7A6C6520616E0E
:1005A0006420706C6174666F726D009502000000CB
:1005B000506C656173652077616974008EEF22006D
:1005C00000C9E4FFFFD007000000000000000000A9
:1005D000000D450300188EF6DBFFFFCAE4FFFFD0D5
:1005E0000700000000000000000000E05623001893
:1005F0008EF7DBFFFFCAE4FFFF00000000000000F1
:1006000000000000000D45030018950000000041A7
:10061000646A75737420746865206C6566742074F0
:10062000776F200095010000006B6E6F627320757C
:100630006E74696C207061706572202020009501D5
:100640000000006A75737420736C696465732062BE
:1006500065747765656E200095070000006E6F7AFF
:100660007A6C6520616E6420706C6174666F726D67
:10067000009502000000506C656173652077616928
:1006800074008EF6DBFFFFC9E4FFFFD00700000017
:10069000000000000000000D450300188E0000005F
:1006A000007A1A0000D007000000000000000000DF
:1006B000008A322000188E000000007B1A00000023
:1006C00000000000000000000000000D45030018BD
:1006D000950000000041646A757374207468652099
:1006E0006261636B2074776F200095010000006BDE
:1006F0006E6F627320756E74696C207061706572C4
:100700002020200095010000006A75737420736C2E
:1007100069646573206265747765656E200095076E
:100720000000006E6F7A7A6C6520616E6420706CD8
:100730006174666F726D009502000000506C656117
:1007400073652077616974008E000000007A1A00DA
:1007500000D007000000000000000000000D45036D
:1007600000188EEF2200007A1A0000D00700000067
:100770000000000000000020651100188EEF22002C
:10078000007A1A00000000000000000000000000D5
:10079000000D45030018950000000041646A757360
:1007A00074207468652072696768742074776F00BC
:1007B00095010000006B6E6F627320756E74696C3A
:1007C0002070617065722020200095010000006A91
:1007D00075737420736C69646573206265747765E2
:1007E000656E200095070000006E6F7A7A6C6520B8
:1007F000616E6420706C6174666F726D00950200AA
:100800000000506C656173652077616974008EF03B
:100810002200007A1A0000D007000000000000004B
:100820000000000D450300188E54DCFFFF7A1A000B
:1008300000D0070000000000000000000000282396
:1008400000188E55DCFFFF7A1A000000000000003F
:10085000000000000000000D450300189500000096
:100860000041646A75737420746865206C656674F1
:100870002074776F200095010000006B6E6F62732B
:1008800020756E74696C2070617065722020200084
:1008900095010000006A75737420736C6964657358
:1008A000206265747765656E200095070000006E14
:1008B0006F7A7A6C6520616E6420706C6174666F0B
:1008C000726D008E54DCFFFF7A1A0000D007000022
:1008D00000000000000000000D450300188E00001D
:1008E000000000000000D007000000000000000031
:1008F0000000911E1600188E00000000000000008D
:100900000000000000000000000000000D45030092
:1009100018891F4B0055074E6F20534420636172A6
:100920006420666F756E640065786974206D656E0D
:1009300075004C454420436F6C6F722020202020AE
:1009400000536F756E6400546F6F6C20436F756E4B
:10095000742000526573746F72652044656661751A
:100960006C74730047656E6572616C2053657474B6
:10097000696E6773005072656865617420536574B1
:1009800074696E67730053746F7020426C696E6B8C
:10099000696E672100426C696E6B204C4544732080
:1009A000202020202020004C6576656C204275694F
:1009B0006C6420506C61746500456E61626C6520EA
:1009C00053746570706572732020004469736162AE
:1009D0006C652053746570706572730052756E207B
:1009E0005374617274757020536372697074004639
:1009F000696C616D656E74204F7074696F6E730001
:100A0000486F6D652041786573004A6F67204D6FB0
:100A10006465004D6F6E69746F72204D6F64650080
:100A20005574696C697469657300507265686561B5
:100A300074005072696E742066726F6D20534400AA
:100A4000556E506175736500506175736500596529
:100A500073004E6F0051756974207468697320705B
:100A6000726F636573733F0043616E63656C2074DE
:100A7000686973207072696E743F00596573004E27
:100A80006F0044656661756C742076616C75657382
:100A90003F0052657365742053657474696E6773A3
:100AA00020746F2000506C6174666F726D2020207E
:100AB0002020202020004C65667420546F6F6C202D
:100AC00020202020202020202020005269676874E8
:100AD00020546F6F6C202020202020202020200018
:100AE000507265686561742053657474696E6773CC
:100AF0002020202000202020202020202020202016
:100B00002020202020202020200045787472756449
:100B100065723A2020202D2D2D2F2D2D2D43005094
:100B20006C6174666F726D3A2020202D2D2D2F2D53
:100B30002D2D43004C2045787472756465723A20FF
:100B40002D2D2D2F2D2D2D4300522045787472759B
:100B50006465723A202D2D2D2F2D2D2D4300202D33
:100B60002D250047414D45204F564552210020205C
:100B70002020202020205A2B202020202020202030
:100B800020200020203C2D5920284261636B292021
:100B90002020202020202000202020202020202075
:100BA0005A2D20202020202020202020002020201E
:100BB0002020202020592D202020202020202020EF
:100BC000200020203C2D5820284261636B292020E2
:100BD0005A2D3E2020200020202020202020205997
:100BE0002B2020202020202020202000202020201A
:100BF00020202020582D20202020202020202020B0
:100C000000202020202020284261636B2920202002
:100C1000592D3E2020002020202020202020582B4D
:100C200020202020202020202020002020202020E4
:100C30004A6F67206D6F64652020202020202000EF
:100C4000556E4C6F6164004C6F616400596573218F
:100C5000004E6F0066726F6D20746865206E6F7A4B
:100C60007A6C653F0044696420706C6173746963D9
:100C7000206578747275646520004C657427732054
:100C800074727920616761696E2E004D7920686504
:100C90006967687420697320676F6F6421006865F5
:100CA000696768742100436865636B206D79206E05
:100CB0006F7A7A6C650059657321004E6F00746F0E
:100CC000207472792061207072696E743F20202038
:100CD0002000486F77276420697420676F3F205297
:100CE000656164792000477265617421202049277D
:100CF0006C6C2073746F7020202072756E6E696E3C
:100D000067206D792065787472756465722E5072F3
:100D1000657373204D20746F20636F6E74696E75F8
:100D2000652E202020202020202020202020202070
:100D3000202020202020005765276C6C206B6565E3
:100D40007020676F696E672E202020496620796FBA
:100D50007527726520686176696E6720202020748F
:100D6000726F75626C652C20636865636B206F75AC
:100D70007420206D616B6572626F742E636F6D2FCE
:100D800068656C70202020004F4B212049276C6C37
:100D9000206B656570206D79202020206D6F746F49
:100DA000722072756E6E696E672E20596F752020E5
:100DB0006D6179206E65656420746F20707573684D
:100DC000202020206861726465722E2E2E20202043
:100DD0002020202020202020005768656E206D797B
:100DE0002066696C616D656E742069732072656C34
:100DF00065617365642C2020202020202020202085
:100E000020507265737320274D2720746F206578FA
:100E100069742E2020202020202020202020202027
:100E2000202020202020202020005768656E20668A
:100E3000696C616D656E742069732020202065786F
:100E400074727564696E67206F7574206F662074A4
:100E500068656E6F7A7A6C652C20507265737320AA
:100E6000274D27202020746F20657869742020206A
:100E700020202020202020202020005768656E2080
:100E800066696C616D656E74206973202020206531
:100E90007874727564696E67206F7574206F662050
:100EA0007468656E6F7A7A6C652C20507265737306
:100EB00020274D27202020746F2073746F702065C9
:100EC0007874727564696E672E2020007468726F82
:100ED0007567682074686520677265792020202016
:100EE00072696E6720756E74696C20796F75206603
:100EF00065656C20746865206D6F746F7220747501
:100F00006767696E6720202074686520706C617364
:100F100074696320696E2E2E2E2020200047726592
:100F2000617421204E6F77207765276C6C2020201C
:100F3000206C6F61642074686520206C6566742085
:100F4000202020202065787472756465722E2050F0
:100F500075736820202020202066696C616D656EA5
:100F60007420646F776E2E2E2E20202020004F4B91
:100F70002049276D2072656164792120202020207E
:100F80002020506F70207468652067756964652043
:100F90007475626520206F666620616E64207075CE
:100FA0006C6C202020202020202066696C616D65FB
:100FB0006E742067656E746C792E2E2E2020004F83
:100FC0004B2049276D207265616479212020202003
:100FD000202020506F7020746865206775696465F3
:100FE000207475626520206F666620616E642070D3
:100FF000757368207468652020202066696C616DB7
:10100000656E7420646F776E2E2E2E2020202000B7
:101010004F4B2049276D2072656164792120202083
:10102000202020204669727374207765276C6C201D
:101030006C6F616420746865726967687420657894
:101040007472756465722E2020202020507573689C
:101050002066696C616D656E7420696E2E2E2E207F
:101060000049276D2068656174696E67207570207E
:101070006D79202020657874727564657221202056
:10108000202020202020202020506C6561736520C6
:10109000776169742E20202020202020202020200D
:1010A0002020202020202020202020202020202040
:1010B000200048656174696E672050726F677265C1
:1010C00073733A2020202020202020202020202060
:1010D0002020202020202020202020202020202010
:1010E0002020202020202020202020202020202000
:1010F00020202020202020202020202020202020F0
:1011000020200054686973206D69676874207461D9
:101110006B652061202020666577206D696E75748F
:1011200065732E2020202020202020416E6420770F
:1011300061746368206F75742C2074686520206E5C
:101140006F7A7A6C652077696C6C206765742048CB
:101150004F542100706F7073206F757420696E207A
:1011600066726F6E742E202049276D206865617449
:10117000696E67207570206D792020206578747203
:10118000756465722020736F2077652063616E201F
:101190006C6F6164207468652066696C616D656E52
:1011A000742E2E2E00677569646520747562652043
:1011B000206F75742E204E6F7766656564206669B2
:1011C0006C616D656E742066726F6D202074686549
:1011D000206261636B207468726F75676820746841
:1011E000657475626520756E74696C2069742E2E45
:1011F0002E20202000507265737320646F776E205C
:101200006F6E20746865202020677265792072698E
:101210006E6720617420746F70206F66207468653B
:1012200020657874727564657220616E6420202078
:101230002070756C6C2074686520626C61636B2E25
:101240002E2E202020006775696465207475626504
:1012500073206F75742E204E6F7766656564206607
:10126000696C616D656E742066726F6D20207468A4
:1012700065206261636B207468726F7567682074A3
:101280006865747562657320756E74696C20697425
:101290002E2E2E20202000507265737320646F77ED
:1012A0006E206F6E2074686520202067726579203B
:1012B00072696E677320617420746F70206F66743A
:1012C00068652065787472756465727320616E64F8
:1012D00020202070756C6C2074686520626C6163DE
:1012E0006B2E2E2E202020004D792065787472758B
:1012F0006465727320617265202020206E6F7420F7
:1013000068656174696E672075702E20202020202A
:10131000436865636B206D792020202020202020E9
:1013200020202020636F6E6E656374696F6E732179
:101330002020202020202020005765276C6C20676B
:101340006F20746F20746865206D61696E6D656EC5
:10135000752E20496620796F75206E6565642020A2
:101360002068656C7020676F20746F3A2020202001
:1013700020202020206D616B6572626F742E636F78
:101380006D2F68656C7020202000417765736F6D4C
:10139000652120202020202020202020202057658B
:1013A000276C6C20676F20746F207468652053442D
:1013B000202063617264204D656E7520616E64202B
:1013C000796F7520202063616E2073656C6563748E
:1013D0002061207072696E742120005765276C6C43
:1013E000206B65657020676F696E67202020206123
:1013F0006E64206C6F616420736F6D652020202007
:10140000202020706C61737469632120466F722004
:1014100068656C7020676F746F206D616B657262B8
:101420006F742E636F6D2F68656C70005765276C45
:101430006C2074727920616761696E212020202000
:10144000202020202020202020202020202020209C
:10145000202020202020202020202020202020208C
:10146000202020202020202020202020202020207C
:1014700020202020202020202020202000416161E9
:10148000682C2074686174206665656C7320202068
:10149000206D756368206265747465722E2020204B
:1014A00020202020204C6574277320676F206F6EEA
:1014B00020616E64206C6F6164736F6D6520706C69
:1014C0006173746963212020202020202000706C2B
:1014D0006174666F726D20736F20697427732020AA
:1014E00020206E69636520616E64206C6576656C92
:1014F0002E204974277370726F6261626C7920616B
:1015000020626974206F6666202066726F6D20739A
:1015100068697070696E672E2E2E20202020004F83
:101520007572206E657874207374657073207769A6
:101530006C6C20676574206D652073657420757010
:1015400020746F202020207072696E7421204669FB
:101550007273742C207765276C6C20726573746FBE
:101560007265206D79206275696C642E2E2E2000C4
:101570004120736F6C696420274D27206D65616E73
:101580007320202049276D20776F726B696E67206A
:10159000616E642077696C6C757064617465206D30
:1015A0007920737461747573202020207768656ECC
:1015B0002049276D2066696E69736865642E2E2E3A
:1015C000004120626C696E6B696E6720274D272091
:1015D0006D65616E7349276D2077616974696E6707
:1015E00020616E642077696C6C636F6E74696E75D0
:1015F00065207768656E20796F7520202070726590
:1016000073732074686520627574746F6E2E2E2E4D
:10161000200057656C636F6D6521202020202020FD
:1016200020202020202049276D20746865205265E5
:10163000706C696361746F722E20507265737320D1
:1016400074686520726564204D20746F2020676582
:10165000742073746172746564212020202020201E
:10166000202000457874727564657200506C617456
:10167000666F726D004C65667420546F6F6C00521B
:101680006967687420546F6F6C0053746F702050DA
:1016900072656865617421005374617274205072C0
:1016A000656865617421004669726D7761726520B5
:1016B00056657273696F6E20342E20002020202022
:1016C0002D2D2D2D2D2D2D2D2D2D20202020202098
:1016D000002020546865205265706C696361746FE6
:1016E00072202020200020202020202020202020C8
:1016F0002020202020202020202000010049033627
:1017000000FF006B00D100A000B800D500A6000AC1
:101710000199003F018E0074018400A9017C00DE64
:1017200001740013026C00480265007D025D00B286
:10173000025600E7024E001C03460051033D00869E
:10174000033200BB032200F003030000F71AB41CAD
:10175000412834312D339C3A0C3E4C50A3575C7DCC
:1017600011241FBECFEFD1E2DEBFCDBF17E0A0E056
:10177000B2E0E2E3FEEF00E00BBF02C007900D9283
:10178000AC35B107D9F712E1ACE5B7E001C01D9265
:10179000AB3BB107E1F717E1C0E6D7E100E006C0D7
:1017A00022970109FE010BBF0E941E7ECC34D10797
:1017B00080E00807A9F70E9474280C94177F0C9406
:1017C0000000EF92FF920F931F937B018C0120E0AA
:1017D00030E040E05FE40E94DF0E87FD11C0C801E9
:1017E000B70120E030E040E05FE40E94840D0E94F9
:1017F0006F0F9B01AC01205030404040504806C064
:10180000C801B7010E946F0F9B01AC01B901CA0169
:101810001F910F91FF90EF900895A0E0B0E0E3E1F9
:10182000FCE00C94EB7DFC01EA018081823008F43D
:1018300038C1DB019C91923008F430C1843059F4F6
:10184000943009F02EC1918111968C9111979817BF
:1018500009F021C126C1943009F420C19230B1F4BD
:10186000823009F01EC1CA01AF0128E0DA010D90F3
:10187000AD01DC010D92CD012150C1F7DB011196C4
:101880008C9111979181892389830AC1823009F44F
:1018900005C1C280D380DB0112966D907C901397B6
:1018A00024813581468157811496ED90FD900D91EC
:1018B0001C911797C601861997095C0197FF04C010
:1018C000AA24BB24A81AB90AB0E2AB16B1040CF0E2
:1018D00061C0181619066CF5370148010A2C04C0BE
:1018E00096948794779467940A94D2F781E090E075
:1018F000A0E0B0E00A2C04C0880F991FAA1FBB1FEC
:101900000A94D2F70197A109B1098E219F21A02342
:10191000B123EE24FF248701E3940097A105B105CC
:1019200019F4EE24FF248701E628F728082919294D
:101930003CC00097D1F1CA0CDB1C39014A010A2CCA
:1019400004C096948794779467940A94D2F781E0C0
:1019500090E0A0E0B0E00A2C04C0880F991FAA1FF5
:10196000BB1F0A94D2F70197A109B10982239323DF
:10197000A423B52321E030E040E050E00097A1052A
:10198000B10519F420E030E0A901262937294829BA
:1019900059290BC06C147D0424F4EE24FF24870124
:1019A00004C0630120E030E0A9018181FB01918145
:1019B000891709F445C0882349F0D801C701821B63
:1019C000930BA40BB50B9C01AD0104C02E193F096C
:1019D000400B510B57FD04C01982DB82CA820BC039
:1019E00081E08983DB82CA825095409530952195AC
:1019F0003F4F4F4F5F4F2C833D834E835F830DC01E
:101A0000880F991FAA1FBB1F8C839D83AE83BF8342
:101A10008A819B8101979B838A838C819D81AE8182
:101A2000BF819C01AD0121503040404050402F3FCC
:101A3000EFEF3E07EFEF4E07EFE35E0708F30BC053
:101A40008983DB82CA822E0D3F1D401F511F2C83CC
:101A50003D834E835F8383E088832C813D814E816B
:101A60005F8157FF1DC0DA01C90181709070A070BD
:101A7000B0705695479537952795822B932BA42BBD
:101A8000B52B8C839D83AE83BF838A819B81019616
:101A90009B838A8305C0EBEFF3E003C0FB0101C029
:101AA000FE01CF01CDB7DEB7EEE00C94077EA0E2D9
:101AB000B0E0EDE5FDE00C94F37D69837A838B83E0
:101AC0009C832D833E834F83588789E0E82EF12C39
:101AD000EC0EFD1ECE010196B7010E9461118E0130
:101AE0000F5E1F4FCE010596B8010E946111C7011C
:101AF000B801AE01475E5F4F0E940D0C0E9493102B
:101B0000A096E6E00C940F7EA0E2B0E0EAE8FDE0EB
:101B10000C94F37D69837A838B839C832D833E832E
:101B20004F8358878E01075F1F4FCE010196B80182
:101B30000E94611191E1E92EF12CEC0EFD1ECE0107
:101B40000596B7010E9461118A8991E089278A8BE5
:101B5000C801B701AE01475E5F4F0E940D0C0E94A5
:101B60009310A096E6E00C940F7EA0E2B0E0EBEBC1
:101B7000FDE00C94E77D69837A838B839C832D83BE
:101B80003E834F835887CE010196BE01675F7F4F2A
:101B90000E946111CE010596BE016F5E7F4F0E94CB
:101BA00061119985923078F089898230C0F0943043
:101BB00019F4823041F4CBC0843019F4923079F4B6
:101BC000C6C0923051F481E02A859A89291709F418
:101BD00080E08A87CE010996BCC0823051F481E052
:101BE0002A859A89291709F480E08A8BCE014196CB
:101BF000B0C06D847E848F849888ED88FE880F89BC
:101C0000188DE0E2F0E080E090E0DC01AA24BB2443
:101C1000650120E030E0A901B301617070706115C9
:101C20007105D1F02E0D3F1D401F511F15012601DA
:101C3000280E391E4A1E5B1E81E090E0A0E0B0E055
:101C40002E153F054007510718F080E090E0DC01B9
:101C5000820D931DA41DB51DAA0CBB1CCC1CDD1C44
:101C600017FF09C061E0262E312C412C512CA228EF
:101C7000B328C428D528319749F0EE0CFF1C001F6B
:101C8000111F9694879477946794C6CF6B897C894B
:101C9000EB85FC856E0F7F1F6E5F7F4F7C8F6B8F98
:101CA00061E0EA857A89E71709F460E06A8F6B8D55
:101CB0007C8D10C0FC01E170F070309729F05695D2
:101CC0004795379527955068B695A7959795879529
:101CD0006F5F7F4FB7FDEECF0CC0880F991FAA1F13
:101CE000BB1F57FD8160220F331F441F551F6150DA
:101CF00070408030E0E09E07E0E0AE07E0E4BE0721
:101D000060F36B8F7C8F6FE7E62EF12C012D112D88
:101D1000E822F9220A231B2360E4E616F1040105F8
:101D2000110561F487FD0AC02115310541055105F2
:101D300029F0805C9F4FAF4FBF4F80788D8F9E8F73
:101D4000AF8FB8A383E0898FCE01499602C08BEF95
:101D500093E00E949310A096E2E10C94037EA8E128
:101D6000B0E0E5EBFEE00C94F37D69837A838B832E
:101D70009C832D833E834F8358878E01075F1F4FBF
:101D8000CE010196B8010E94611181E1E82EF12C8B
:101D9000EC0EFD1ECE010596B7010E9461118985EA
:101DA000823040F08989823028F0C801B7010E9452
:101DB000CA1101C081E06896E6E00C940F7EA8E1AC
:101DC000B0E0E5EEFEE00C94F37D69837A838B83CB
:101DD0009C832D833E834F8358878E01075F1F4F5F
:101DE000CE010196B8010E94611181E1E82EF12C2B
:101DF000EC0EFD1ECE010596B7010E94611189858A
:101E0000823040F08989823028F0C801B7010E94F1
:101E1000CA1101C08FEF6896E6E00C940F7EA8E02F
:101E2000B0E0E5E1FFE00C94F37D7B018C0183E001
:101E30008983D801C7018827B7FD83959927AA27E9
:101E4000BB27282F8A83E114F1040105110519F439
:101E500082E0898337C08EE190E09C838B832223CC
:101E600089F080E0E81680E0F80680E0080780E866
:101E7000180769F110950095F094E094E11CF11CAD
:101E8000011D111DED82FE820F831887C801B70165
:101E90000E9439109C01215030401216130694F410
:101EA000022E04C0EE0CFF1C001F111F0A94D2F773
:101EB000ED82FE820F8318878EE190E0821B930BE8
:101EC0009C838B83CE0101960E94931004C060E036
:101ED00070E080E09FEC2896E6E00C940F7EACE08A
:101EE000B0E0E5E7FFE00C94F77D69837A838B83AC
:101EF0009C83CE010196BE016B5F7F4F0E946111F2
:101F00008D81823081F1823070F1843021F48E81B4
:101F1000882369F10AC02F81388537FD24C06E817E
:101F20002F3131053CF0662311F120E030E040E034
:101F300050E821C08EE190E0821B930B29853A8501
:101F40004B855C8504C056954795379527958A95AE
:101F5000D2F7662381F050954095309521953F4FFB
:101F60004F4F5F4F08C020E030E0A90104C02FEFC1
:101F70003FEF4FEF5FE7B901CA012C96E2E00C9406
:101F8000137EA8E0B0E0E7ECFFE00C94F17D7B016C
:101F90008C011A82611571058105910519F482E0A1
:101FA00089835FC083E089838EE1C82ED12CDC82D7
:101FB000CB82ED82FE820F831887C801B7010E9491
:101FC0003910FC013197F7FF3AC0AA27BB27AE1B97
:101FD000BF0B21E030E040E050E00A2E04C0220FA9
:101FE000331F441F551F0A94D2F721503040404000
:101FF00050402E213F214023512361E070E080E0DA
:1020000090E0211531054105510519F460E070E0BB
:10201000CB0104C016950795F794E794AA95D2F7DB
:10202000E62AF72A082B192BED82FE820F831887E8
:102030008EE190E08E1B9F0B9C838B8312C03097A8
:1020400081F00E2E04C0EE0CFF1C001F111F0A941D
:10205000D2F7ED82FE820F831887CE1ADF0ADC8268
:10206000CB82CE0101960E9493102896E8E00C9452
:102070000D7EAF92BF92CF92DF92EF92FF920F93BD
:102080001F937B018C0180E0E81680E0F80681E078
:10209000080780E0180758F4EFEFEE16F104010589
:1020A000110509F090F480E090E0DC0117C0F0E049
:1020B000EF16F0E0FF06F0E00F07F1E01F0750F425
:1020C00080E190E0A0E0B0E009C088E090E0A0E00E
:1020D000B0E004C088E190E0A0E0B0E020E230E0B1
:1020E00040E050E0281B390B4A0B5B0B570168019D
:1020F00004C0D694C794B794A7948A95D2F7D60112
:10210000C5018D5F9B4FFC018081281B310941096E
:102110005109C9011F910F91FF90EF90DF90CF906F
:10212000BF90AF900895EF92FF920F931F93CF93BC
:10213000DF93FC0124813581468157816181808153
:10214000823020F44061EFEFF0E0A3C0843009F466
:102150009BC0823009F492C021153105410551051B
:1021600009F48FC00280F381E02D8FEFE238F80789
:102170000CF05AC0C2E8DFEFCE1BDF0BCA31D1052D
:102180006CF579018A010C2E04C016950795F79419
:10219000E7940A94D2F781E090E0A0E0B0E00C2E42
:1021A00004C0880F991FAA1FBB1F0A94D2F701977A
:1021B000A109B10982239323A423B52321E030E0B0
:1021C00040E050E00097A105B10519F420E030E0AF
:1021D000A9012E293F29402B512B03C020E030E0DC
:1021E000A901DA01C9018F779070A070B0708034B6
:1021F0009105A105B10539F427FF09C0205C3F4FC7
:102200004F4F5F4F04C0215C3F4F4F4F5F4FE1E0A6
:10221000F0E0203080E0380780E0480780E458078D
:1022200028F5E0E0F0E022C0E038F1056CF5E15877
:10223000FF4FDA01C9018F779070A070B0708034C1
:102240009105A105B10539F427FF09C0205C3F4F76
:102250004F4F5F4F04C0215C3F4F4F4F5F4F57FFC1
:1022600005C05695479537952795319687E0569541
:102270004795379527958A95D1F70BC0E0E0F0E0B8
:1022800005C0E0E0F0E005C0EFEFF0E020E030E076
:10229000A9018E2F879588278795942F9F7767951B
:1022A00066276795E695E22EA92FA82BFE2FF62B21
:1022B000622F732F8A2F9F2FCDB7DEB7E6E00C94E5
:1022C0000F7EDC01FB012C9111963C911197129627
:1022D0008C911297482F4F7750E0982F991F99278C
:1022E000991F13966C911397862F880F892B90E076
:1022F000661F6627661F6183009739F52115310532
:102300004105510511F482E029C082E89FEF9383D3
:10231000828367E0220F331F441F551F6A95D1F750
:1023200083E0808309C0220F331F441F551F828121
:102330009381019793838283203080E0380780E087
:10234000480780E4580778F320C08F3F910579F45F
:10235000211531054105510519F484E08083089564
:1023600044FF03C081E0808310C010820EC08F57ED
:1023700090409383828383E0808387E0220F331F22
:10238000441F551F8A95D1F75064248335834683B3
:1023900057830895FC01DB019081923008F449C015
:1023A0008C91823008F445C0943051F461818430BE
:1023B000B1F511962C91119730E0261B310941C0DF
:1023C000843021F0923041F48230B1F111968C9139
:1023D00011978823A1F12DC06181823001F11196FE
:1023E0008C9111976817D9F42281338112968D91BF
:1023F0009C9113978217930794F028173907BCF024
:10240000248135814681578114968D919D910D903F
:10241000BC91A02D82179307A407B50718F4662373
:1024200041F00DC0281739074A075B0728F46623D7
:1024300031F021E030E005C020E030E002C02FEFB5
:102440003FEFC901089510925E07E4E0F1E080815A
:102450008F718083E5E0F1E080818F718083089542
:102460006F927F928F929F92AF92BF92CF92DF92A4
:10247000EF92FF920F931F93DF93CF93CDB7DEB709
:10248000A8970FB6F894DEBF0FBECDBF8C01FC013C
:102490008181882309F0CDC08281882309F4BAC0E4
:1024A000C80102960E94FF7B882309F4C2C0B2C013
:1024B00080915C078823E9F4C8010C9640E856E94E
:1024C00068E970E00E94E27B81E080935C0711C0C4
:1024D0007E010894E11CF11CC7010E94DE7BD8013B
:1024E0001C96F7018AE001900D928150E1F710925D
:1024F0005C073CE0E32EF12CE00EF11EC7010E94C8
:10250000FF7B882399F085E0F801808381E0818357
:102510008E01055F1F4FC8010E94DE7BD701F801C5
:102520008AE001900D928150E1F783C0A1FC10C0B8
:1025300080915D078823F1F4C801469640E856E98A
:1025400068E970E00E94E27B81E080935D0712C041
:1025500025E1E22EF12CEC0EFD1EC7010E94DE7B70
:10256000D8015696F7018AE001900D928150E1F76B
:1025700010925D0796E1E92EF12CE00EF11EC701E5
:102580000E94FF7B882399F086E0F801808381E038
:1025900081838E01015E1F4FC8010E94DE7BD7013F
:1025A000F8018AE001900D928150E1F742C06090FD
:1025B0005E07D61461F16D24EE24FF247724CC2429
:1025C000C39493010E2C02C0359527950A94E2F727
:1025D00020FF16C095010E2C02C0359527950A9450
:1025E000E2F720FD0DC0F8018181882349F4E082E3
:1025F000C182C40140E452E460E070E00E94E27BEA
:102600000894E11CF11CF5E0EF16F104D1F6D0922C
:102610005E070FC082E0882E912C800E911EC401AF
:102620000E94257CD0900301AD2CBB24D0FE40CF6E
:102630004FCFA8960FB6F894DEBF0FBECDBFCF9197
:10264000DF911F910F91FF90EF90DF90CF90BF909F
:10265000AF909F908F907F906F900895FC01DB0169
:10266000F8948181908111827894882321F09C9341
:1026700011961C92119708958FE180935E0708953B
:102680008091610990916209009729F481E080931B
:10269000680980E008958091630990916409209110
:1026A0005F0930916009B9010E94837DE09165095D
:1026B000F0916609E80FF91F809163099091640910
:1026C0000196B9010E94837D909364098093630908
:1026D00080916109909162090197909362098093BA
:1026E000610980810895462FFC0162816F700E940C
:1026F00037500895F8948091610990916209209172
:102700005F0930916009281B390B7894C90108953D
:1027100080936A09089581E080936B090895809100
:102720006A090895209161093091620981E02115BB
:10273000310509F080E008950E94401308951F9329
:102740000E944013182F0E944013982F812F1F9131
:1027500008951F93DF93CF9300D0CDB7DEB70E94CB
:1027600040138A830E94401389830E944013182FCC
:102770000E944013982F6A817981812F0F900F90CA
:10278000CF91DF911F910895109262091092610913
:1027900010926409109263091092670910926809F7
:1027A00010926D0910926C09089581E020916C09D6
:1027B00030916D092630310509F080E00895EF92DF
:1027C000FF920F931F93DF93CF93CDB7DEB7289778
:1027D0000FB6F894DEBF0FBECDBF0E9440138887AE
:1027E0000E9440138F830E9440139F812885993057
:1027F00009F4A4C09A3090F4953009F49FC0963043
:1028000030F49330F1F0943009F09FC097C09730C6
:1028100009F497C0983008F091C093C09C3061F1E2
:102820009D3038F49A3009F453C09B3009F08DC0C4
:102830006CC09731D1F09F31F1F19D3009F085C026
:102840002FC0213019F0222331F009C095E1E92E83
:102850009BE0F92E04C08FEAE82E8AE0F82E0E9451
:102860009F13BC01C701409630C080916A0991E076
:10287000892780936A0967C0213019F0222321F04B
:1028800005C005E11BE002C00FEA1AE00E949C139C
:10289000682F70E061707070C8010E94791F53C08A
:1028A0000E949C13682F70E06170707085E09AE060
:1028B0000E940B3148C085E09AE061E00E94063139
:1028C0000E949F13BC0187ED9DE00E94F6523BC021
:1028D00080914212909143129A8389838B81807FE9
:1028E00081608B83CE01019661E00E9473130E9488
:1028F000401321E030E030936D0920936C09682F7C
:1029000070E06170707084E016C080914212909106
:1029100043129D838C838E81807F81608E83CE0164
:10292000049661E00E9473130E944013682F70E0C8
:102930006170707083E00E94733D05C00E94401377
:1029400002C00E94A91381E001C080E028960FB662
:10295000F894DEBF0FBECDBFCF91DF911F910F91D5
:10296000FF90EF900895FC01462F82819381208192
:10297000318182179307A0F46281738184819581EC
:10298000860F971FB9010E94837DA681B781A80F8A
:10299000B91F4C938281938101969383828308951A
:1029A00081E080870895682F8FE599E00E94B31435
:1029B00008952F923F924F925F926F927F928F92E3
:1029C0009F92AF92BF92CF92DF92EF92FF920F93BE
:1029D0001F93DF93CF93CDB7DEB7CF5AD0400FB65A
:1029E000F894DEBF0FBECDBF0E947D37882309F16A
:1029F000809161099091620920915F09309160098D
:102A00002817390709F4CDC50E94CA37882309F46D
:102A1000C8C50E94CD37682F8FE599E00E94B31496
:102A2000E7CF8091610990916209009711F40E94AB
:102A3000DC370E946B3E882309F1809161099091F7
:102A4000620920915F09309160092817390709F45C
:102A5000AEC50E94713E882309F4A9C50E947F3E3D
:102A6000682F8FE599E00E94B314E7CF8091610948
:102A700090916209009711F40E94E13E80916A09E9
:102A8000882309F09AC580916B09882309F095C5C0
:102A900080916C0990916D098330910581F40E94B9
:102AA000A13A882341F088E799E00E94FF7B8823C0
:102AB00031F00E94FD3A10926D0910926C098091DC
:102AC0006C0990916D098130910541F40E94A13A01
:102AD000882321F410926D0910926C0980916C0981
:102AE00090916D098230910551F48EE699E00E9433
:102AF000FF7B882321F010926D0910926C09809160
:102B00006C0990916D0984309105E1F482E899E0B7
:102B10000E94FF7B882391F480916909813019F02C
:102B2000882321F005C005E11BE002C00FEA1AE08E
:102B3000C80140960E94FA52882321F010926D0934
:102B400010926C0980916C0990916D098530910506
:102B500081F482E899E00E94FF7B882331F487EDBD
:102B60009DE00E94FA52882321F010926D09109284
:102B70006C0980916C0990916D098630910561F521
:102B80008CE899E00E94FF7B882351F0809197099F
:102B900081FF1EC085E09AE060E00E945B2E1CC0B1
:102BA0008EEA9BE00E949B578823B1F080919709A1
:102BB00082FF04C08EEA9BE00E94DF5585E09AE028
:102BC00060E070E040E050E00E940A2D0E947E35F7
:102BD00010926D0910926C0980916C0990916D09A9
:102BE000009709F0EAC48091610990916209009709
:102BF00009F4E3C485E09AE00E94A12C8091630966
:102C00009091640920915F0930916009E091650914
:102C1000F0916609B9010E94837D8E0F9F1FDC0130
:102C20000C910138F1F5809161099091620981312F
:102C3000910508F4C2C40E94401381E090E0909393
:102C40006D0980936C090E94A9136B017C010E949D
:102C5000A9131B012C010E94A9133B014C010E94E6
:102C6000A913CB55DF4F688379838A839B83C55A29
:102C7000D04019E1A12EB12CAC0EBD1EC501B7018B
:102C8000A60192018101740163010E94A333C50171
:102C9000CB55DF4F488159816A817B81C55AD0402D
:102CA00074C00B3809F074C0809161099091620979
:102CB0008931910508F481C40E94401381E090E0BD
:102CC00090936D0980936C090E94A9134B015C01DC
:102CD0000E94A9138B019C01C255DF4F2883CE5A55
:102CE000D040C155DF4F3883CF5AD0400E94A9133E
:102CF0001B012C010E94A913CB55DF4F68837983F8
:102D00008A839B83C55AD0400E94A9136B017C0122
:102D10000E94A913C755DF4F688379838A839B83F9
:102D2000C95AD04000D000D0BDE26B2E712C6C0E81
:102D30007D1EEDB7FEB7C182D282E382F482C30169
:102D4000B501A401C255DF4F2881CE5AD040C155EC
:102D5000DF4F3881CF5AD04072016101CB55DF4F30
:102D600088809980AA80BB80C55AD0400E946F336A
:102D70000F900F900F900F90C301C755DF4F488100
:102D800059816A817B81C95AD0400E94823B15C417
:102D90000E3809F082C080916109909162098A31F0
:102DA000910508F40AC40E94401381E090E09093DA
:102DB0006D0980936C090E94A9134B015C010E946C
:102DC000A9138B019C01C255DF4F2883CE5AD040F6
:102DD000C155DF4F3883CF5AD0400E94A9131B0141
:102DE0002C010E94A913CB55DF4F688379838A8316
:102DF0009B83C55AD0400E94A9136B017C010E949D
:102E0000A913C755DF4F688379838A839B83C95A87
:102E1000D0400E949C13C355DF4F8883CD5AD040C9
:102E200000D000D0A1E46A2E712C6C0E7D1EADB7CF
:102E3000BEB71196CD92DD92ED92FC921497C3012C
:102E4000B501A401C255DF4F2881CE5AD040C155EB
:102E5000DF4F3881CF5AD04072016101CB55DF4F2F
:102E600088809980AA80BB80C55AD0400E946F3369
:102E70000F900F900F900F90C301C755DF4F4881FF
:102E800059816A817B81C95AD040C355DF4F28815F
:102E9000CD5AD0400E944A3C90C3063879F48091C4
:102EA0006109909162098230910508F486C30E94FD
:102EB00040130E944013809369097FC3093839F594
:102EC00080916109909162098230910508F475C37F
:102ED0000E9440130E944013A82EAA1CAA24AA1CD8
:102EE00000E010E0C82EDD24C601002E02C095953A
:102EF00087950A94E2F780FF04C0802F6A2D0E9414
:102F0000733D0F5F1F4F0530110571F756C302382F
:102F100021F580916109909162098D30910508F445
:102F20004CC30E9440130E94A9133B014C010E9414
:102F3000A9131B012C010E94A9136B017C01F5E56B
:102F4000AF2EB12CAC0EBD1EC501B401A301920180
:102F500081010E94A333C50148C00C3809F048C064
:102F600080916109909162098531910508F425C32A
:102F70000E9440130E94A9136B017C010E94A913B7
:102F80001B012C010E94A9134B015C010E94A91393
:102F9000CB55DF4F688379838A839B83C55AD040A2
:102FA0000E94A91300D000D0E9E66E2E712C6C0EA1
:102FB0007D1EEDB7FEB76183728383839483C30163
:102FC000B701A6019201810175016401CB55DF4F64
:102FD00088809980AA80BB80C55AD0400E946F33F8
:102FE0000F900F900F900F90C3010E94023BE5C21B
:102FF0000538E9F480916109909162098530910565
:1030000008F4DBC282E090E090936D0980936C0934
:103010000E9440130E94A91328EE33E040E050E0E4
:103020000E94647DAB01BC018EE699E021C10439A8
:10303000B9F580916109909162098530910508F494
:10304000BCC20E9440130E944013809396090E94C4
:103050009F138C010E94401380939709011511055D
:1030600081F0B80180E090E020E432E44FE050E0ED
:103070000E94647DAB01BC018CE899E00E94E27B78
:1030800085C08E010B5F1F4FC8010E94DE7BACE83C
:10309000B9E0F8018AE001900D928150E1F776C025
:1030A000053909F088C080916109909162098630E4
:1030B000910508F482C20E9440130E944013C82E5A
:1030C0000E944013882E0E944013A82E0E94401395
:1030D000082FC0FC04C086E59DE00E948C708092A1
:1030E000580DA092590D41E0C1FE40E086E59DE0FB
:1030F0006FE579E00E942274E091FC0BFF27E7FD69
:10310000F095EE0FFF1FE251F44F20813181FDE079
:1031100026353F0731F08EEA9BE066E57DE00E94B0
:103120003955002339F0C2FC05C086E59DE0602FCB
:1031300041E004C086E59DE061E040E00E94D0707F
:10314000C2FE3BC2002389F0602F70E080E090E077
:1031500020E432E44FE050E00E94647DAB01BC010A
:103160008CE899E00E94E27B0EC08E01015F1F4F48
:10317000C8010E94DE7BACE8B9E0F8018AE001906A
:103180000D928150E1F781E08093960985E09AE005
:1031900069E170E04FE050E00E940A2D8EEA9BE06A
:1031A000609196090E94965786E090E090936D0991
:1031B00080936C0902C2802F8358823090F58091F1
:1031C0006109909162098830910508F4F6C10E9466
:1031D00040130E949C13A82E0E94A9136B017C012E
:1031E0000E949F1323E030E030936D0920936C0917
:1031F000BC0180E090E020E432E44FE050E00E9427
:10320000647DAB01BC0188E799E00E94E27B81E02C
:10321000043809F080E06A2DA70196010E94023D62
:10322000CCC1073841F580916109909162098630DF
:10323000910508F4C2C184E090E090936D098093F9
:103240006C090E9440130E944013809369090E94F8
:103250009F130E949F13BC0180E090E020E432E4C1
:103260004FE050E00E94647DAB01BC0182E899E030
:103270000E94E27BA2C10D3899F48091610990917E
:1032800062098630910508F498C185E090E090933A
:103290006D0980936C090E9440130E944013D7CFA0
:1032A0000F3809F047C0809161099091620982301E
:1032B000910508F482C10E9440130E949C135EE0B5
:1032C000A52EB12C00E010E0882E99244DE7642E45
:1032D000712C6C0E7D1E6E010894C11CD11CC401A2
:1032E000002E02C0959587950A94E2F780FF18C0DA
:1032F000C3010E942D3BC301B8010E94C533FC01EC
:1033000080819181A281B38189839A83AB83BC83BD
:10331000F894C601B50144E050E00E94F27E789432
:103320000F5F1F4F84E090E0A80EB91E0530110515
:10333000B1F643C1003909F03FC080916109909115
:1033400062098230910508F438C10E9440130E943E
:103350009C13C82E31E9A32EB12CAC0EBD1EC501A5
:103360000E942D3B2EE0622E712C00E010E0DD2447
:103370008A2CAB2CC601002E02C0959587950A9425
:10338000E2F780FF0CC0F894882D9A2DB8010E94B6
:10339000CD33B30144E050E00E94DC7E78940F5FAF
:1033A0001F4FA4E0B0E06A0E7B1E0530110511F737
:1033B000CE018F569F4F19CE0139A1F4809161093A
:1033C000909162098230910508F4F7C00E94401381
:1033D0000E949C13082F0E949C13682F802F0E942C
:1033E000853DEBC0023989F58091610990916209B0
:1033F0008230910508F4E1C00E9440130E949C13A2
:10340000082F0E949C13C155DF4F8883CF5AD040AC
:103410000E949C13C255DF4F8883CE5AD0400E9431
:103420009C13C82E0E949C138C2D0E940936802F5D
:10343000C155DF4F6881CF5AD040C255DF4F488118
:10344000CE5AD0400E946D35B8C0033909F580913D
:103450006109909162098230910508F4AEC00E9422
:1034600040130E949F13082F0E949F13C155DF4FE6
:103470008883CF5AD0400E949C13802F90E0C15582
:10348000DF4F6881CF5AD04070E00E94783195C0FC
:10349000083819F58091610990916209843091058D
:1034A00008F48BC0809163099091640900916109CF
:1034B000109162090396B9010E94837D8E0F9F1FB0
:1034C000FC01808190E004960817190708F475C084
:1034D0000E9440130E94DF1370C0063999F4809156
:1034E0006109909162098230910508F466C00E94DA
:1034F00040130E949C13082F0E949C13802F0E944F
:103500007D545BC00739C9F48091610990916209CB
:103510008230910508F451C00E9440130E949C1310
:10352000882311F484E006C0813019F40E945432DB
:1035300044C082E00E94353240C0083991F4809145
:103540006109909162090097C1F10E9440130E94A5
:103550009C130E94D41D85E09AE060E00E945B2EDF
:103560002CC0093979F48091610990916209009722
:1035700021F10E9440130E94A9138FE599E00E9457
:10358000D9271BC00A39C9F4809161099091620959
:10359000009799F00E9440130E9440130E94432319
:1035A0000CC00E94CA37882309F43BCA42CA0E9451
:1035B000713E882309F45ACA61CAC155DF4F0FB65C
:1035C000F894DEBF0FBECDBFCF91DF911F910F9159
:1035D000FF90EF90DF90CF90BF90AF909F908F9033
:1035E0007F906F905F904F903F902F90089580E074
:1035F00092E09093600980935F09109262091092A3
:10360000610910926409109263098FE597E0909325
:1036100066098093650910926709109268098EE621
:1036200099E00E94DE7B88E799E00E94DE7B82E8D9
:1036300099E00E94DE7B8CE899E00E94DE7B089591
:10364000462FFC0162816F700E9415500895FC01A5
:1036500062816F700E942A500895DF93CF9300D04B
:1036600000D000D0CDB7DEB780914C1290914D12B2
:103670009A8389838B81807F8B83CE0101960E9400
:10368000271B882379F480914A1290914B129D83D5
:103690008C838E81807F84608E83CE0104960E940D
:1036A000271B01C081E026960FB6F894DEBF0FBE3F
:1036B000CDBFCF91DF9108950F931F93DF93CF93E9
:1036C000CDB7DEB72C970FB6F894DEBF0FBECDBFD7
:1036D0008C0180914C1290914D129A8389838B8139
:1036E000807F8B83CE0101960E94271B882391F552
:1036F00080914C1290914D129D838C838E81807F9E
:1037000081608E83CE01049661E00E9473138091E4
:103710004A1290914B1298878F838985807F8460AD
:103720008987CE0107960E94271B882321F0C801B4
:103730000E94B51B0FC080914C1290914D129B8737
:103740008A878C85807F81608C87CE010A9660E0B5
:103750000E9473132C960FB6F894DEBF0FBECDBF38
:10376000CF91DF911F910F9108950F931F93DF93D6
:10377000CF93CDB7DEB72C970FB6F894DEBF0FBE50
:10378000CDBF8C0180914C1290914D129A83898308
:103790008B81807F8B83CE01019660E00E94731342
:1037A00080914C1290914D129D838C838E81807FED
:1037B0008E83CE01049661E00E94201BF8011082E6
:1037C00080914A1290914B1298878F838985807FD0
:1037D00084608987CE0107960E94271B882319F0F1
:1037E000C8010E945C1B80914C1290914D129B87E6
:1037F0008A878C85807F81608C87CE010A9660E005
:103800000E9473132C960FB6F894DEBF0FBECDBF87
:10381000CF91DF911F910F9108950F931F93DF9325
:10382000CF93CDB7DEB72C970FB6F894DEBF0FBE9F
:10383000CDBF8C0180914C1290914D129A83898357
:103840008B81807F81608B83CE01019660E00E9436
:10385000731380914C1290914D129D838C838E81B5
:10386000807F81608E83CE01049661E00E94201BE0
:1038700080914A1290914B1298878F838985807F1F
:1038800084608987CE01079660E00E94731380915F
:103890004A1290914B129B878A878C85807F846027
:1038A0008C87CE010A9660E00E94201BC8010E940E
:1038B000B51BF8011182128213822C960FB6F89470
:1038C000DEBF0FBECDBFCF91DF911F910F91089545
:1038D000CF93DF93EC018B81882329F485E00E944C
:1038E000353281E08B83DF91CF9108950F931F9341
:1038F000DF93CF9300D00F92CDB7DEB78C01FC01E0
:103900008281853128F0C8010E94681C80E024C0B3
:1039100080914C1290914D129A8389838B81807F84
:103920008B83CE0101960E94271B882331F0F8017A
:10393000118282818F5F82830EC0F801818186307F
:1039400028F0C8010E945C1BF8011182F8018181F6
:103950008F5F8183128281E00F900F900F90CF9143
:10396000DF911F910F91089588E999E00E94707688
:103970000895DF93CF9300D0CDB7DEB7BC0181E0CF
:10398000898382E38A83CE01019642E050E00E945F
:10399000F27E0F900F90CF91DF910895CF93DF9338
:1039A000EC0140E050E060EE70E40E94D851CE019E
:1039B000029646E656E666EA7EE30E94D851CE01BC
:1039C000049640E050E060E172E40E94D851DF913B
:1039D000CF9108950F931F93CF93DF93EB018B014A
:1039E000085E1F4F009719F4CB0167E002C0CB01BE
:1039F00068E30E94FC7EC80162E30E94FC7ECE0167
:103A00000A960E94CE1CCE0140960E94CE1CCE018A
:103A10004A960E94B91CCE01069664EF71E00E949E
:103A2000127FCE01029665E070E00E94127FCE0107
:103A3000049664EF71E00E94127FCE0108966CE25A
:103A400071E00E94127FDF91CF911F910F91089535
:103A5000CF93DF93EC0140EA56E861E070E00E940A
:103A60000A7FCE01049649E150E060E070E00E94D8
:103A70000A7FCE01089643EE5FE060E070E00E94AE
:103A80000A7FBE01605F7F4F8BEF96E140E550E01B
:103A90000E94F27EDF91CF9108950F931F93DF93E1
:103AA000CF9300D00F92CDB7DEB78C0160E00E94BB
:103AB000FC7EC801029660E00E94FC7E8FEF898345
:103AC0001B821A82B8016C5F7F4FCE01019643E0E2
:103AD00050E00E94F27E0F900F900F90CF91DF91F7
:103AE0001F910F9108950F931F93DF93CF9300D0F1
:103AF00000D0CDB7DEB7082F162F80E491E067E045
:103B00004C830E94FC7E09831A834C814B83CE0137
:103B1000019664E471E043E050E00E94F27E0F9071
:103B20000F900F900F90CF91DF911F910F910895FB
:103B3000EF92FF920F931F93CF93DF937B018C0142
:103B4000EA01CA01B7010E94127FCE010496B801B2
:103B50000E94127FDF91CF911F910F91FF90EF9004
:103B60000895AC016BE770E084EF91E00E94981D2E
:103B70000895CF93DF93EC016CED70E00E94127F0B
:103B8000CE0102966CED70E00E94127FCE01049689
:103B900064E670E00E94127FCE01069665E00E9406
:103BA000FC7EDF91CF910895DF93CF93CDB7DEB741
:103BB0006D970FB6F894DEBF0FBECDBFDE01159630
:103BC000EFE2F5E085E001900D928150E1F781ECA4
:103BD00093E29A83898384E193ED9C838B8380E0D5
:103BE00092E062E270E044E150E00E94F27ECE0199
:103BF000059666E070E045E050E00E94F27E84E0C9
:103C000090E06FE90E94FC7E8CE090E06BE10E9406
:103C1000FC7EDE011A96EBE1F5E084E101900D9265
:103C20008150E1F782E490E061E00E943A518823FC
:103C300041F085EE9BE2A0E0B0E08A879B87AC87ED
:103C4000BD87CE010A966EE070E044E150E00E942C
:103C5000F27E84E790E00E94281D88E591E00E94B2
:103C6000B91DCE01019664E470E044E050E00E948A
:103C7000F27E80E090E060E071E00E94EA1C81E06A
:103C800090E06CE171E00E94EA1C80E491E00E9407
:103C90004D1D8AE491E00E94B11D86E591E060E04F
:103CA0000E94FC7E6D960FB6F894DEBF0FBECDBFAE
:103CB000CF91DF9108951F93DF93CF93CDB7DEB7F8
:103CC00064970FB6F894DEBF0FBECDBF182F8330B8
:103CD00008F011E082E490E0612F0E94FC7EDE019A
:103CE0001196E7E0F5E084E101900D928150E1F753
:103CF000113041F485EE9BE2A0E0B0E089839A8325
:103D0000AB83BC83CE0101966EE070E044E150E0ED
:103D10000E94F27E64960FB6F894DEBF0FBECDBF50
:103D2000CF91DF911F91089582E490E061E00E94BD
:103D30003A5191E0813009F090E0892F089581E0B7
:103D40000E945B1E80E491E00E944D1D8AE491E098
:103D50000E94B11D88E591E00E94B91D089582E09E
:103D600090E06CE00E94FC7E82E490E061E00E94C2
:103D7000FC7E0E94D41D08955F926F927F928F9275
:103D80009F92AF92BF92CF92DF92EF92FF920F93EA
:103D90001F93DF93CF93CDB7DEB72F970FB6F8946D
:103DA000DEBF0FBECDBF3C01562E2F83388749871B
:103DB000EA86FB860C87AD86BE86CF86809146124A
:103DC000909147129A8389832B81207F22602B83D5
:103DD0009D838C838E81807F85608E83C301BE012D
:103DE000635F7F4FAE014F5F5F4F9E012C5F3F4F80
:103DF0000E94BB7B88E395E0F30196878587578611
:103E000090E1C92ED12CC60CD71CA301435F5F4F94
:103E10008AE0E82EF12CE80CF91CC601B30100E29F
:103E200011EA27E030E00E94C652D301AA5ABF4FE0
:103E3000FE01379683E001900D928150E1F7F30186
:103E4000E75AFF4F5082A401465E5F4FC301865A76
:103E50009F4FB6010A851B852C850E94E950F3010E
:103E6000EC59FF4F918280822F960FB6F894DEBFF7
:103E70000FBECDBFCF91DF911F910F91FF90EF90BB
:103E8000DF90CF90BF90AF909F908F907F906F907A
:103E90005F9008950F931F93CF93DF93EC018C01F4
:103EA0000A5A1F4FC80160E00E947313C80161E005
:103EB0000E94201BCE0140960E941352CE010E9408
:103EC000227BCE01865A9F4F0E94BF50DF91CF9137
:103ED0001F910F910895CF93DF93EC0140960E94BC
:103EE0007053CE01865A9F4F0E949D50DF91CF9113
:103EF0000895865A9F4F662319F00E948F500895A7
:103F00000E94BA500895882321F080918000806833
:103F100003C0809180008F73809380000895882370
:103F200021F08091A000806803C08091A0008F7371
:103F30008093A00008950F931F93DF93CF9300D039
:103F400000D000D0CDB7DEB7062F1FB7F894FC0124
:103F50008281882309F5862F81508E3FA0F080E072
:103F60000E948F1F80914C1290914D129A838983E9
:103F70008B81807F83608B8361E00F3F09F060E07D
:103F8000CE01019622C070E07093A9006093A80052
:103F900081E00E948F1F24C0813011F5862F81504F
:103FA0008E3FB0F080E00E94831F8091401290917C
:103FB00041129D838C838E81807F85608E8361E03A
:103FC0000F3F09F060E0CE0104960E94731308C011
:103FD00070E0709389006093880081E00E94831FE5
:103FE0001FBF26960FB6F894DEBF0FBECDBFCF9190
:103FF000DF911F910F910895CF93DF93EC010E9401
:104000008F1391E089270E948813CE0161E80E94F6
:10401000B876DF91CF910895FC0183A194A1009718
:1040200041F023A134A181E02430310519F480E06E
:10403000089580E00895CF92DF92EF92FF920F9360
:104040001F93CF93DF93EC018B018881882399F133
:104050007E01DC2ECF2CCE0160E00E94587687FFD7
:104060002AC00E948037882321F0CE010E94833726
:1040700008C00E947D37882321F40E946B3E88236C
:1040800021F1C80161E80E94B87613C08D2D9C2DE6
:104090006C2F0E9458760E94D3142196CE15DF050E
:1040A000ACF3C80161E802C0C80162E80E94B876BA
:1040B000789481E001C080E0DF91CF911F910F9152
:1040C000FF90EF90DF90CF900895F894E8800E94E1
:1040D0007A13FF248E159F0538F3C0E0D0E0DECFC1
:1040E0000895CF93DF93EB0161E00E945D768A3102
:1040F000910540F4CE0161E80E94B876CE0160E0FF
:1041000070E007C0CE0161E80E94B876CE0168E990
:1041100071E00E94BB76DF91CF9108959F92AF929C
:10412000BF92CF92DF92EF92FF920F931F93DF9394
:10413000CF93CDB7DEB765970FB6F894DEBF0FBE4D
:10414000CDBF6B01F8948E010F5F1F4FC8010E9415
:104150002D3BC60161E80E94B876C80160E070E0BE
:104160000E94C533FC014081518162817381C60187
:104170000E94D176C80161E070E00E94C533FC0165
:104180004081518162817381C6010E94D176C8014C
:1041900062E070E00E94C533FC0140815181628180
:1041A0007381C6010E94D17602E010E060E08DE1EB
:1041B000A82EB12C0A9D70010B9DF00C1A9DF00CDD
:1041C000112485E09AE0E80EF91E962E990C990CC0
:1041D000C7010E94D978882311F022E001C020E0B5
:1041E000C7012D8B0E94F5782D89622F6929682BD4
:1041F000015010409FEF0F3F1907E1F6C6010E94E2
:10420000B876789465960FB6F894DEBF0FBECDBF32
:10421000CF91DF911F910F91FF90EF90DF90CF90A2
:10422000BF90AF909F9008959F92AF92BF92CF9210
:10423000DF92EF92FF920F931F93DF93CF93CDB74F
:10424000DEB765970FB6F894DEBF0FBECDBF8B010A
:10425000F8947E010894E11CF11CC7010E942D3BDB
:10426000C80161E80E94B876C70160E070E00E9472
:10427000C533FC014081518162817381C8010E9474
:10428000D176C70161E070E00E94C533FC01408136
:10429000518162817381C8010E94D176C70162E0B9
:1042A00070E00E94C533FC014081518162817381BD
:1042B000C8010E94D176C70163E070E00E94C53357
:1042C000FC014081518162817381C8010E94D176D5
:1042D000C70164E070E00E94C533FC014081518158
:1042E00062817381C8010E94D17624E0C22ED12C54
:1042F00060E09DE1A92EB12CCA9C7001CB9CF00C12
:10430000DA9CF00C112485E09AE0E80EF91E962E56
:10431000990C990CC7010E94D978882311F022E0EA
:1043200001C020E0C7012D8B0E94F5782D89622FF6
:104330006929682B0894C108D1089FEFC9169FEF1F
:10434000D906D1F6C80170E00E94BB7678946596D4
:104350000FB6F894DEBF0FBECDBFCF91DF911F9196
:104360000F91FF90EF90DF90CF90BF90AF909F9014
:1043700008950F931F93CF93DF93EB018C010D5F93
:104380001F4FCB0161E80E94B876C8010E94A9388E
:10439000682FCE010E94B876DF91CF911F910F91C7
:1043A00008956F927F928F929F92AF92BF92CF9219
:1043B000DF92EF92FF920F931F93DF93CF930F92B1
:1043C000CDB7DEB77C018B01CDB6DEB68DB69EB61D
:1043D000ADB6BEB6CB0161E80E94B876C70161E018
:1043E0000E945876882379F00E94EC38BC0100972F
:1043F00051F0C8010E94B876C80160E00E94B8760A
:104400003C2D292D37C08DB79EB74F970FB6F89426
:104410009EBF0FBE8DBFEDB6FEB60894E11CF11C29
:10442000C7016FE140E050E00E948436BC01F70113
:104430008081882329F06115710511F48E3281F392
:10444000C8010E94B87620E0E22FF0E02F3161F041
:10445000EE0DFF1D6081662339F0C80129830E949B
:10446000B87629812F5FF0CFC80160E00E94B8764E
:104470003A2D2B2D832F922F0FB6F8949EBF0FBE8F
:104480008DBF0FB6F894DEBE0FBECDBE0F90CF919C
:10449000DF911F910F91FF90EF90DF90CF90BF9031
:1044A000AF909F908F907F906F9008958F929F9282
:1044B000AF92BF92CF92DF92EF92FF920F931F9332
:1044C000DF93CF93CDB7DEB7A82EE92E6B018DB663
:1044D0009EB661E00E945D768C018A2D9E2D63E080
:1044E0000E945876482FA82EBB248DB79EB78A19F4
:1044F0009B090FB6F8949EBF0FBE8DBFEDB6FEB6FA
:104500000894E11CF11CC701B80150E00E94DC7E58
:10451000C60161E80E94B87600E010E008C0F7012B
:1045200061917F01C6010E94B8760F5F1F4F0A1587
:104530001B05ACF30FB6F8949EBE0FBE8DBECF9197
:10454000DF911F910F91FF90EF90DF90CF90BF9080
:10455000AF909F908F9008952F923F924F925F92CD
:104560006F927F928F929F92AF92BF92CF92DF9283
:10457000EF92FF920F931F93DF93CF930F92CDB7DC
:10458000DEB7C82EB92E4B012DB63EB661E00E94B3
:104590005D76A82E792E8C2D9B2D63E00E94587697
:1045A000D82E482E55248DB79EB7841995090FB67D
:1045B000F8949EBF0FBE8DBF0DB71EB70F5F1F4F84
:1045C000602E1983C8016A2D772D4D2D50E00E9471
:1045D000DC7EE02EF12E00E010E00BC0602F6C5F5F
:1045E0008C2D9B2D0E945876F70181937F010F5FE0
:1045F0001F4F0415150594F3862D99816A2D772D8B
:104600004D2D50E00E94F27EC40161E80E94B87610
:10461000C4016D2D0E94B8760FB6F8943EBE0FBE51
:104620002DBE0F90CF91DF911F910F91FF90EF90D2
:10463000DF90CF90BF90AF909F908F907F906F90C2
:104640005F904F903F902F9008950F931F93CF93BB
:10465000DF93EB0161E00E945876082F80FF02C0D3
:104660000E94FD3A01FF02C00E94C413CE0161E81E
:104670000E94B876CE0160E00E94B876DF91CF91BB
:104680001F910F9108951092020A1092010A089545
:104690000F931F93CF93DF938091D209882379F4EE
:1046A00002ED19E0C2E2D0E0CE0160E00E943A5192
:1046B000F80181938F012196C233D105A9F780912A
:1046C000D209882369F4A2EDB9E080E090E0FC0112
:1046D000EC59FE4FE491ED9301968E309105B9F7B8
:1046E00082ED99E0DF91CF911F910F91089582EEB5
:1046F00099E008958091010A9091020A089582EE4E
:1047000099E00E9475389C01009731F482E090E0B6
:104710009093020A8093010AC9010895CF92DF9213
:10472000EF92FF920F931F93CF93DF936C017B0166
:10473000CB0161E80E94B87602EE19E0C1E0D0E05A
:1047400008C0C6016C2F0E945876F80181938F0132
:104750002196F601808190E0C817D90794F3109252
:10476000000A0E947F23682FC7010E94B876DF915C
:10477000CF911F910F91FF90EF90DF90CF90089510
:104780000E94AF3E882331F085E090E09093020ACA
:104790008093010A0E94C4130E94FD3A85E09AE0CA
:1047A0000E94AA3A08958091010A9091020A8130EC
:1047B000910571F484E090E09093020A8093010ADD
:1047C00088EC99E040E452E46FE070E00E94E27B04
:1047D00081E08093030A08952F923F924F925F9257
:1047E0007F928F929F92AF92BF92CF92DF92EF9281
:1047F000FF920F931F93DF93CF93CDB7DEB72C9724
:104800000FB6F894DEBF0FBECDBF8C017C876B87DF
:10481000FC018081882309F4A9C1702E812EC80172
:1048200061E00E945876982EC80162E00E94587696
:10483000E82FF0E0E632F10508F098C1EE58FF4F9E
:10484000EE0FFF1F0590F491E02D09948B859C8558
:1048500061E80E94B8768B859C8568E971E083C128
:104860008B859C8561E80E94B8760FE012E0F80124
:10487000E1908F018B859C856E2D0E94B876EE208D
:1048800009F476C1F2E00E321F0789F771C181E0A9
:104890008093030A30C08B859C8561E80E94B876BE
:1048A000892D813019F0992031F009C015E1E12EF0
:1048B0001BE0F12E04C0BFEAEB2EBAE0FB2EC701CD
:1048C000409676C0992D913019F0992031F009C0A9
:1048D000A5E1CA2EABE0DA2E04C0FFEACF2EFAE043
:1048E000DF2E872D982D62E00E945D76BC01C60107
:1048F00040960E94F6528B859C8561E8C8C0C8012D
:104900006B857C850E94562233C1C8016B857C85EE
:104910000E94AC222DC18B859C850E94FC1F28C162
:10492000E92DE13019F0992031F009C0E5E1AE2E12
:10493000EBE0BE2E04C07FEAA72E7AE0B72E872DCB
:10494000982D62E00E945876682F70E06170707058
:10495000C5010E94791FCFCF802F912F63E00E9465
:104960005876682F70E06170707085E09AE00E9460
:104970000B31FEC08B859C8561E80E94B876F92DCD
:10498000F13019F0992031F009C065E1462E6BE055
:10499000562E04C05FEA452E5AE0552EC2014096BD
:1049A00032C08B859C8561E80E94B87687ED9DE0DA
:1049B0000E941453D5C08B859C8561E80E94B8760F
:1049C000892D813019F0992031F009C045E1242E5C
:1049D0004BE0342E04C03FEA232E3AE0332EC101CF
:1049E000409607C08B859C8561E80E94B87687ED6C
:1049F0009DE00E941053B4C08B859C8561E80E94A5
:104A0000B87687ED9DE00E94FA52682F3EC08B85F4
:104A10009C8561E80E94B876992D913019F0992013
:104A200031F009C0E5E1FBE0FA83E98304C08FEAD5
:104A30009AE09A83898389819A8140960E942454BE
:104A4000882311F000E801C000E087ED9DE00E949E
:104A50002454882311F080E401C080E0082B992DB4
:104A6000913019F0992031F009C0E5E1FBE0FC83B9
:104A7000EB8304C08FEA9AE09C838B838B819C81BB
:104A800040960E94FA52602F682B8B859C850E946D
:104A9000B8766EC08B859C8561E80E94B876992DAA
:104AA000913019F0992031F009C0E5E1FBE0FE8377
:104AB000ED8304C08FEA9AE09E838D838D819E8171
:104AC00040960E941C53BC018B859C850E94BB763E
:104AD000992D913019F0992031F009C0E5E1FBE002
:104AE000F887EF8304C08FEA9AE098878F838F81DD
:104AF000988540960E942053BC018B859C850E941E
:104B0000BB76992D913019F0992031F009C0E5E17B
:104B1000FBE0FA87E98704C08FEA9AE09A878987E1
:104B200089859A8540960E942453BC018B859C857B
:104B30000E94BB7687ED9DE00E941C53BC018B85D3
:104B40009C850E94BB7687ED9DE00E942053BC01AE
:104B50008B859C850E94BB7687ED9DE00E94245347
:104B6000BC018B859C850E94BB7602C080E001C0A1
:104B700081E02C960FB6F894DEBF0FBECDBFCF916B
:104B8000DF911F910F91FF90EF90DF90CF90BF903A
:104B9000AF909F908F907F905F904F903F902F901D
:104BA0000895EF92FF920F931F93CF93DF938C01A1
:104BB000EB01FC018081882309F4CEC0C80160E0CC
:104BC0000E94587687FDC8C0E82FF0E0EA31F10571
:104BD00008F0C2C0E856FF4FEE0FFF1F0590F4919A
:104BE000E02D0994C801BE010E947120B7C0CE011A
:104BF00061E80E94B87602EEE02E09E0F02E87010F
:104C0000CE01F70161917F010E94B876F8018081A1
:104C1000882309F4A3C0F1E0EF16FAE0FF0679F764
:104C20009DC08091010A9091020A9C012150304060
:104C30002230310530F08530910519F0873091052B
:104C400031F485E09AE064E070E00E94D42C81E0C9
:104C50008093030ACE0161E80E94B8767FC0CE013E
:104C600061E80E94B8760E947A13AC0160E070E0BF
:104C700017C0C801BE010E948E2070C0C801BE01CD
:104C80000E9414216BC0C801BE010E94B92166C0F8
:104C9000CE0161E80E94B8760E941E38AB01BC01CB
:104CA000CE0157C0C801BE010E948E2357C0C80163
:104CB000BE010E94D12152C0CE010E94FC1F4EC0F5
:104CC000C801BE010E94EC2349C0CE0161E80E94E8
:104CD000B876F8940E94A13A882321F40E94921396
:104CE000882311F460E001C061E0CE010E94B87633
:104CF000789434C0C801BE010E9456222FC0C8015A
:104D0000BE010E94AC222AC0C801BE010E94252318
:104D100025C0CE0161E80E94B876CE0140E050E0A7
:104D2000BA010E94D176CE0140E050E0BA010E9463
:104D3000D176CE0140E050E0BA010E94D176CE019A
:104D400040E050E0BA010E94D176CE0140E050E050
:104D5000BA010E94D17602C080E001C081E0DF91FB
:104D6000CF911F910F91FF90EF9008950F931F9394
:104D7000DF93CF93CDB7DEB72A970FB6F894DEBF97
:104D80000FBECDBF85E992E10E940C20882309F077
:104D9000DEC08091C809882309F4D7C088EC99E067
:104DA0000E94FF7B882309F0D0C08E010F5F1F4F48
:104DB000C8010E94DE7BA8ECB9E0F8018AE001900E
:104DC0000D928150E1F78FEF99E6A8E18150904074
:104DD000A040E1F700C0000001E08091030A8823B1
:104DE00099F0002389F41092030A8091040A0E942A
:104DF0004A281092040A8EEB99E00E94227C1092BD
:104E0000D2091092E2099CC0809192129091931263
:104E1000009709F18091921290919312843091053C
:104E2000D1F08091BE09882349F48EEB99E040E2ED
:104E30005EE460E070E00E94E27B0DC08EEB99E0E2
:104E40000E94FF7B882339F08FE692E10E94F5757E
:104E500084E08093911280919112882399F080913F
:104E60009112843029F485E09AE060E070E004C09B
:104E700085E09AE063E070E00E94D42C8FE692E136
:104E80000E94037680919212909193128430910542
:104E9000D1F58EEB99E00E94227C85E992E10E9497
:104EA0007876002361F085E992E169E80E94B8769E
:104EB00085E09AE066E070E00E94D42C1CC08091EE
:104EC000010A9091020A8630910581F08FE692E105
:104ED00065E972E10E941B20882369F48FE692E164
:104EE00065E972E10E94D125882329F485E992E1E0
:104EF00065E80E94B8768FE692E10E9403768BE621
:104F000092E10E94857C8091010A9091020A823090
:104F1000910541F40E947D37882321F41092020A02
:104F20001092010A8091010A9091020A8530910540
:104F300019F08730910559F40E946B3E882339F4AB
:104F40001092020A1092010A02C000E046CF2A968F
:104F50000FB6F894DEBF0FBECDBFCF91DF911F918A
:104F60000F910895CF93DF93FC0182819381009785
:104F700021F481E0818780E019C0848195812081BE
:104F80003181B9010E94837DC681D781C80FD91FA5
:104F9000848195810196B9010E94837D95838483E4
:104FA000828193810197938382838881DF91CF915E
:104FB0000895DF92EF92FF920F931F93DF93CF93A9
:104FC000CDB7DEB76F970FB6F894DEBF0FBECDBF7B
:104FD0007C018091010A9091020A8130910591F142
:104FE000823091051CF4009739F13DC08230910563
:104FF00021F085309105B9F525C0DD248E010F5FC4
:105000001F4FC7010E94B227F801ED0DF11D8083EB
:10501000D394FE01ED0DF11D8081882391F7C80125
:1050200068E172E00E94A47E0097E9F082EE99E0C8
:10503000B8010E94AD7E17C081E090E09093020A13
:105040008093010A00E0C7010E94B227E02FF0E040
:10505000EE51F64F80830F5FE02FF0E0EF51F64FF7
:105060008081882381F76F960FB6F894DEBF0FBE5C
:10507000CDBFCF91DF911F910F91FF90EF90DF9007
:1050800008958EEB99E00E94DE7B88EC99E00E9407
:10509000DE7B0895DF93CF930F92CDB7DEB7682FF5
:1050A000F89484B7662349F088E10FB6F8948093AA
:1050B0006000109260000FBE14BE69830E94ED373D
:1050C0000E946E3E0E94FD3A0E94C4130E940B5142
:1050D0000E941B7B85E09AE069810E945B2E789498
:1050E0000F90CF91DF91089585E09AE00E94AA3A4F
:1050F00081E00E944A2878940E94B6260E94D91422
:1051000085E09AE00E944C2DF7CFCF93DF93EC011E
:105110000E9405508A81807F8A83CE0103960E9477
:1051200005508D81807F8D83CE0106960E940550AB
:105130008885807F8887CE0109960E9405508B85DF
:10514000807F8B87CE010C960E9405508E85807FD4
:105150008E87CE010F960E9405508989807F898BAA
:10516000DF91CF910895CF93DF93EC0182E796E032
:1051700099838883FE01EA5AFF4F1082CE01865A36
:105180009F4F0E94DE7BCE018C599F4F0E94D471AD
:105190001C82DF91CF910895CF93DF93EC010296AB
:1051A0000E94DE7BCE010C960E94DE7BCE014696ED
:1051B0000E94DE7BDF91CF910895CF93DF93EC01C6
:1051C00026EF36E0FC0121933193CF010E943F701E
:1051D000CE010A960E94D471CE0149960E94DE7BD0
:1051E000DF91CF910895CF93DF93EC018AE097E0B0
:1051F00099838883CE0105960E947F72CE010E9618
:105200000E94DD28CE01C5960E942B70CE01CD965E
:105210000E943570DF91CF9108952F923F924F9267
:105220005F926F927F928F929F92AF92BF92CF9236
:10523000DF92EF92FF920F931F93DF93CF93CDB73F
:10524000DEB7CE50D1400FB6F894DEBF0FBECDBF53
:105250003C0100E010E0C301800F911F0E948528EF
:10526000035E1F4F01391105B1F7C3018B569F4FE4
:105270000E94DE7BC30181569F4F0E94DE7B80919E
:105280004C1290914D12282F89839A834B81407F35
:1052900043604B83E82E8C839D830E81007F0460E6
:1052A0000E838091461290914712A82E8F83988783
:1052B0005985507F53605987C30186559F4F60E0E1
:1052C0003A81F32EB884C52E812C71E0972E0E946E
:1052D000BC1E8091401290914112282F8A879B8793
:1052E0004C85407F45604C87E82E8D879E870F85D3
:1052F000007F06600F878091461290914712A82E7A
:10530000888B998B5A89507F54605A8BC301805F78
:105310009E4F61E03B85F32EB988C52E5CE1852E5A
:1053200051E0952E0E94BC1E16E7A12E11E0B12E71
:10533000A60CB71CC5010E94CC28B6E98B2EB1E0A3
:105340009B2E860C971C8091421290914312482FFD
:105350008B8B9C8B6D89607F64606D8B082F8E8B2F
:105360009F8B288D207F2360288FC82E898F9A8F4E
:105370003B8D307F32603B8FC4015C89152FD52E69
:10538000E32E0E94FF5780914212909143129D8F0D
:105390008C8F2E8D207F25602E8F98A38F8F89A1D3
:1053A000807F866089A3C3018F5A9C4FC35FDE4F05
:1053B00099838883CD50D140A2E04A2E5A2E460CC4
:1053C000571CFBEF2F2EF2E03F2E260C371CC3019B
:1053D00087559E4FB501A4019E01245E3F4F8E016B
:1053E000015E1F4F72016101C35FDE4FA880B9806B
:1053F000CD50D1400E94B154C2010E946072F301AD
:10540000E750FD4F8CE397E09183808386E396E03D
:10541000F10191838083C30183509D4F0E94D47119
:10542000C301855F9C4F0E94F328C35FDE4F8881D4
:105430009981CD50D1400E94B328830102541C4F62
:10544000C8016FE040E00E946A7AA30140535C4FBC
:105450008EE395E0FA0191838083C3018E529C4FC5
:10546000B80100E513EC20E030E0E0E1EE2EE1E0F1
:10547000FE2E0E94C652F301E85EFB4F81E080835E
:1054800080914812909149129BA38AA32CA1207F5E
:105490002CA39EA38DA32FA1207F21602FA399A7CA
:1054A00088A72AA5207F22602AA720915212309136
:1054B00053123CA72BA74DA5407F41604DA73FA7A6
:1054C0002EA728A9207F28AB9AAB89AB8BA9807F18
:1054D00083608BABBCE78B2E912C8C0E9D1EC40180
:1054E000BE016E5D7F4FAE014B5D5F4F9E01285D3B
:1054F0003F4F8E01055D1F4FAEE2EA2EF12CEC0E00
:10550000FD1EF1E3CF2ED12CCC0EDD1EE2E0AE2E3F
:10551000B12C0E946E78D301F4018DE101900D92BF
:105520008150E1F780914812909149129DAB8CAB6C
:105530002EA9207F24602EAB98AF8FAB29AD207FA2
:10554000256029AF9BAF8AAF2CAD207F26602CAFA2
:1055500020915212309153123EAF2DAF4FAD407F8C
:1055600043604FAFDE01A05CBF4F11963C932E937A
:10557000FE01EE5BFF4F2081207F22602083FE0131
:10558000ED5BFF4F918380838281807F8760828380
:1055900019E9812E912C8C0E9D1EC401BE016C5CFC
:1055A0007F4FAE01495C5F4F9E01265C3F4F8E01ED
:1055B000035C1F4F7D016F01E2E0AE2EB12C0E9413
:1055C0006E78D3015D96F4018DE101900D928150CA
:1055D000E1F7BE016A5B7F4F8091501290915112AA
:1055E000FB01918380832281207F2283AE01475B70
:1055F0005F4FFA01918380832281207F2160228383
:105600002CE4A22EB12CAC0EBD1EF501918380833B
:105610002281207F22602283DE01A15BBF4F209187
:1056200052123091531211963C932E9312960C9174
:105630001297007F076012960C93129702E5E02EF6
:10564000F12CEC0EFD1EF701318320832281207F97
:105650002660228315E5C12ED12CCC0EDD1EF6016D
:10566000918380838281807F83608283F6EB8F2E9B
:10567000912C8C0E9D1EC40195018D01E2E0AE2E91
:10568000B12C0E946E78D301DA96F4018DE101907D
:105690000D928150E1F78E01085A1F4F80913E1202
:1056A00090913F12F801918380832281207F2260B4
:1056B00022833BE5E32EF12CEC0EFD1EF7019183D6
:1056C00080832281207F236022832EE5C22ED12C6D
:1056D000CC0EDD1EF601918380838281807F846001
:1056E000828381E6A82EB12CAC0EBD1EC5010E949E
:1056F0000550F5018281807F8283B4E68B2E912C48
:105700008C0E9D1EC4010E940550F4018281807F91
:105710008283FE01E959FF4F80913E1290913F1222
:10572000918380838281807F85608283A3ED4A2E6E
:10573000512C4C0E5D1EC201B801A70196018501D6
:1057400074016F01E2E0AE2EB12C0E946E78D3019D
:10575000A95ABF4FF2018DE101900D928150E1F7FE
:105760008E0106591F4F80913E1290913F12F80111
:10577000918380832281207F266022832DE6E22E82
:10578000F12CEC0EFD1EF701918380838281807FD6
:105790008760828390E7C92ED12CCC0EDD1E8091CC
:1057A0004A1290914B12F601918380838281807F0F
:1057B0008260828383E7A82EB12CAC0EBD1EC5018A
:1057C0000E940550F5018281807F8283B6E78B2E8F
:1057D000912C8C0E9D1EC4010E940550F401828103
:1057E000807F8283FE01E758FF4F80914E12909197
:1057F0004F12918380838281807F86608283A0EFB5
:105800004A2E512C4C0E5D1EC201B801A701960113
:10581000850174016F01E2E0AE2EB12C0E946E781A
:10582000D301AC58BF4FF2018DE101900D92815030
:10583000E1F7C25FDE4F0FB6F894DEBF0FBECDBFFB
:10584000CF91DF911F910F91FF90EF90DF90CF905C
:10585000BF90AF909F908F907F906F905F904F9090
:105860003F902F9008956FB7F8948F569F4FFC018B
:1058700020813181428153816FBFB901CA010895EE
:105880000F931F93CF93DF93EC01FC01EF56FF4F73
:1058900080819181A281B38180589F4FAF4FBF4FCC
:1058A00080839183A283B3830E948F138823D1F4D2
:1058B0000E94973D8E01075E1B4FC8010E942D1B61
:1058C000882381F0C8010E94761C882359F4FE01C8
:1058D000E35EFB4F81E08083C15EDB4F83E090E0BD
:1058E00099838883DF91CF911F910F910895CF9372
:1058F000DF93EC01FC01E15EFB4F7183608361305B
:105900007105C1F48E529C4F0E942454882391F457
:105910000E94941E882371F0CE0186549F4F0E94EE
:105920002454882359F0CE01805E9E4F0E94245457
:10593000882321F0C35EDB4F81E08883DF91CF9124
:10594000089581569F4F40E059EE64EA75E30E9446
:10595000E27B08951F920F920FB60F920BB60F9233
:1059600011242F933F934F935F936F937F938F9364
:105970009F93AF93BF93EF93FF9385E09AE00E94CC
:10598000402CFF91EF91BF91AF919F918F917F91AB
:105990006F915F914F913F912F910F900BBE0F90A0
:1059A0000FBE0F901F9018950F931F93DF93CF9307
:1059B00000D00F92CDB7DEB78B0161157105A1F450
:1059C00010922B0E10922A0E80914012909141124B
:1059D0009A8389838B81807F87608B83CE01019638
:1059E00060E00E9473130CC08091270E90E0861730
:1059F000970731F082E090E090932B0E80932A0E6F
:105A00000093270E0F900F900F90CF91DF911F9171
:105A10000F9108954115510531F410922D0E1092F9
:105A20002C0E81E008C06115710541F410922D0E15
:105A300010922C0E80E00E949D5408956093280ED1
:105A40004093290E81E090E090932D0E80932C0ED0
:105A50000895CF93DF93EC0169E170E04FE050E0EF
:105A60000E940A2DCE0187559E4F6FEF0E949657D8
:105A7000C25EDB4F81E08883DF91CF910895CF93A1
:105A8000DF93EC0187559E4F0E948155CE010E9405
:105A9000292DDF91CF910895EF92FF920F931F93DD
:105AA000CF93DF938C01FC01E755FF4F8081882362
:105AB000E1F0F9EAEF2EF1E0FF2EE00EF11EC70152
:105AC0000E941D55E801CB56DF4FCE010E94FF7B9F
:105AD000882359F0C7010E940556C7010E9423552B
