:100000009AC00000B3C00000B1C00000AFC0000043
:10001000ADC00000ABC00000A9C00000A7C0000038
:10002000A5C00000A3C00000A1C000005BC4000088
:100030001FC400009BC0000099C0000097C00000D2
:1000400095C0000093C0000091C000008FC0000068
:100050008DC000008BC0000089C000000CC10000F2
:1000600085C0000083C0000081C000007FC0000088
:100070007DC000007BC0000079C0000077C0000098
:1000800075C0000073C0000071C000006FC00000A8
:100090006DC000006BC000001201100102000008DA
:1000A000C12314D301000102DC0109023E00020158
:1000B00000C0320904000001020201000524000111
:1000C0001004240206052406000107058203080027
:1000D000FF09040100020A000000070504024000B5
:1000E00001070583024000010403090432034D00A7
:1000F00061006B006500720042006F007400200018
:1001000049006E006400750073007400720069009D
:10011000650073000000240354006800650020009F
:100120005200650070006C0069006300610074009B
:100130006F007200000011241FBECFEFD2E0DEBFBF
:10014000CDBF11E0A0E0B1E0E2EDFFE002C005901C
:100150000D92A631B107D9F712E0A6E1B1E001C0D6
:100160001D92AF32B107E1F7FAD031C749CF9C01F8
:10017000DC01AE57BF4FED91FC9111974191119663
:10018000FC93EE9380589F4FE817F90711F42D93D5
:100190003C939FB7F894F901EC57FF4F8081815051
:1001A00080839FBF842F0895DF92EF92FF920F9379
:1001B0001F93FC018489813019F0823021F405C03D
:1001C00040E3D42E04C0DD2402C030E2D32E838964
:1001D000823011F488E0D82A8589873031F0883060
:1001E00031F0863031F482E003C084E001C086E063
:1001F000D82A1092C9001092C8001092CA00E78451
:10020000F0880189128980E0E81681EEF80680E026
:10021000080780E0180719F420E130E00FC0C8019A
:10022000B701969587957795679560587B47814E7E
:100230009F4FA8019701A9D6215030403093CD009F
:100240002093CC00D092CA0080E0E81681EEF80638
:1002500080E0080780E0180711F082E001C080E02C
:100260008093C80088E98093C9001F910F91FF9087
:10027000EF90DF9008951F920F920FB60F92112406
:100280002F938F939F93EF93FF939091CE008EB314
:100290008430F1F4E0919901F0919A019083E0911A
:1002A0009901F0919A01CF01019690939A01809360
:1002B00099018959914021F489E191E092838183E8
:1002C0009FB7F89480919D018F5F80939D019FBFA0
:1002D000FF91EF919F918F912F910F900FBE0F90F3
:1002E0001F9018952F9AFC01858580FF03C02E98DA
:1002F0005F9802C02E9A5F9A2F98089580E091E04F
:10030000DAC580E091E08DC584B7877F84BF28E19E
:100310000FB6F89420936000109260000FBE87E63D
:1003200090E09093CD008093CC0086E08093CA004B
:100330001092C8002093C900539A5A9A8AB18063D8
:100340008AB98BB180638BB988D284E085BD5F9A0E
:10035000579A2F9A2E9A279A269A2F9808950F9394
:100360001F93CF93DF93D0DF2FB7F8948EE991E0FE
:1003700090931F0280931E0290932102809320028B
:100380002FBF2FB7F89489E191E090939A01809361
:10039000990190939C0180939B012FBF7894CEE9A3
:1003A000D1E003E08FB7F894909122028FBF90388C
:1003B00009F180E091E0ABD497FD1CC0E0911E02F2
:1003C000F0911F028083E0911E02F0911F02CF0185
:1003D000019690931F0280931E028E51924011F459
:1003E000D283C1839FB7F894809122028F5F80935C
:1003F00022029FBF8FB7F89410919D018FBFA899DB
:1004000002C0113678F1A89A80919D01882361F08D
:100410005D980093160108C089E191E0A8DE682F7D
:1004200080E091E0DAD411501123B1F780911601E8
:10043000882351F08091160181508093160180919C
:100440001601882309F45D9A80911701882351F0E1
:1004500080911701815080931701809117018823A3
:1004600009F45C9A8FB7F894909122028FBF992378
:1004700069F08EE991E07BDE982F8091C80085FFBE
:10048000FCCF9093CE005C980093170180E091E040
:1004900095D42AD487CFDA01923049F0933061F0B5
:1004A0009130F9F4E8E9F0E022E130E01EC0EAEA38
:1004B000F0E02EE330E019C0813049F0813018F0CF
:1004C000823079F408C0E8EEF0E0849107C0ECEEE9
:1004D000F0E0849103C0E6E1F1E08491282F30E060
:1004E00004C0E0E0F0E020E030E0ED93FC93C901CF
:1004F000089528E030E040E003C04F5F220F331F33
:1005000028173907D0F3842F8295807F0895809330
:10051000E9008091EB0081608093EB001092ED0088
:100520006093EC004093ED008091EE00881F8827D7
:10053000881F08951092F40090E09093E9001092C3
:10054000F0001092E8001092ED008091EB008E7F99
:100550008093EB009F5F953081F70895809127028B
:1005600088238CF403C08EB38823B1F08091E80017
:1005700082FFF9CF8091E8008B778093E80008959F
:100580008EB3882349F08091E80080FFF9CF8091F5
:10059000E8008E778093E800089594E68091EC005F
:1005A00080FF05C08091E80080FF05C023C08091D6
:1005B000E80082FD1FC08EB3882311F482E0089505
:1005C0008EB3853011F483E008958091EB0085FFB0
:1005D00002C081E008958091E10082FFDFCF809129
:1005E000E1008B7F8093E100992311F484E008956A
:1005F0009150D4CF80E008959C0140912D025091FC
:100600002E024617570718F4F90120E038C061158B
:10061000710511F0AB01F8CF8091E8008E778093DF
:10062000E80040E050E0F0CF8091E80083FF02C096
:1006300081E008958091E80082FD2DC08EB388236B
:1006400081F18EB3853079F18091E80080FF17C089
:100650009091F20006C081918093F100415050408A
:100660009F5F4115510511F09830A8F320E09830B4
:1006700009F421E08091E8008E778093E80041152D
:10068000510591F6222381F606C08EB3882349F0E6
:100690008EB3853041F08091E80082FFF6CF80E094
:1006A000089582E0089583E008959C0140912D0211
:1006B00050912E024617570710F490E03BC0611589
:1006C000710511F0AB01F9CF8091E8008E7780932E
:1006D000E80040E050E0F1CF8091E80083FF02C0E5
:1006E00081E008958091E80082FD30C08EB38823B8
:1006F00099F18EB3853091F18091E80080FF1AC0A6
:100700008091F20009C0F9012F5F3F4FE491E0931F
:10071000F100415050408F5F4115510511F0883074
:1007200090F390E0883009F491E08091E8008E77B2
:100730008093E8004115510579F6992369F606C0C2
:100740008EB3882349F08EB3853041F08091E80064
:1007500082FFF6CF80E0089582E0089583E0089557
:100760009C016115710529F48091E8008B778093D5
:10077000E800F90120C08091E80083FF02C081E019
:1007800008958EB3882339F18EB3853031F180918D
:10079000E80082FFF0CF06C08091F10081936150A4
:1007A000704021F08091F2008823B1F78091E80039
:1007B0008B778093E80061157105E9F606C08EB36A
:1007C000882349F08EB3853041F08091E80080FFA6
:1007D000F6CF80E0089582E0089583E0089542D046
:1007E00044D01EBA109225021092240210922302C5
:1007F00084E089BD89B5826089BD09B400FEFDCF62
:100800008091D800982F9F779093D800806880932C
:10081000D800809163008E7F809363008091D80020
:100820008F7D8093D8008091E0008E7F8093E000E0
:100830008091E1008E7F8093E1008091E2008160F1
:100840008093E2008091E100877F8093E1008091B6
:10085000E20088608093E2000895C1DF81E0809328
:10086000260208951092E20008951092E100089582
:100870001F920F920FB60F9211241F932F933F9345
:100880004F935F936F937F938F939F93AF93BF9398
:10089000EF93FF93E9EEF0E0108117701082E0EF24
:1008A000F0E08081877F80837894C3D0F894A9EEAC
:1008B000B0E01C92E0EFF0E08081886080831C93C0
:1008C000FF91EF91BF91AF919F918F917F916F9128
:1008D0005F914F913F912F911F910F900FBE0F90FD
:1008E0001F9018951F920F920FB60F9211242F93FD
:1008F0003F934F935F936F937F938F939F93AF93A8
:10090000BF93EF93FF938091E10080FF1BC0809124
:10091000E20080FF17C08091E1008E7F8093E100AC
:100920008091E2008E7F8093E2008091E2008061FE
:100930008093E2008091D80080628093D80019BC37
:100940001EBAD1D18091E10084FF29C08091E200DC
:1009500084FF25C084E089BD89B5826089BD09B462
:1009600000FEFDCF8091D8008F7D8093D8008091CC
:10097000E1008F7E8093E1008091E2008F7E809382
:10098000E2008091E20081608093E2008091250284
:10099000882311F481E001C084E08EBBA4D1809152
:1009A000E10083FF27C08091E20083FF23C0809194
:1009B000E100877F8093E10082E08EBB10922502E8
:1009C0008091E1008E7F8093E1008091E2008E7F34
:1009D0008093E2008091E20080618093E200AADDD2
:1009E00080E060E042E093DD8091F00088608093D9
:1009F000F00079D18091E10082FF0AC08091E2008D
:100A000082FF06C08091E1008B7F8093E1006BD173
:100A1000FF91EF91BF91AF919F918F917F916F91D6
:100A20005F914F913F912F910F900FBE0F901F90AC
:100A300018951F93DF93CF93CDB7DEB7AC970FB662
:100A4000F894DEBF0FBECDBFE7E2F2E08091F10087
:100A5000819322E0EF32F207C9F7809127023091AB
:100A60002802353009F487C0363040F43130C9F1FE
:100A7000313070F0333009F01DC133C0383009F423
:100A8000EFC0393009F4FEC0363009F013C192C00E
:100A9000803821F0823809F00DC108C090912302FE
:100AA00080912402882399F0926011C080912B02DA
:100AB00087708093E9008091EB0090E025E09695A7
:100AC00087952A95E1F7982F91701092E90080910F
:100AD000E800877F8093E8009093F1001092F10086
:100AE000CAC0882319F0823009F0E4C090E08F7109
:100AF0009070009721F0029709F0DDC00CC0809142
:100B00002902813009F0D7C010922402333069F5F0
:100B1000809324022AC080912902882331F52091F4
:100B20002B02277009F4C7C02093E9008091EB00E5
:100B300080FFC1C0333021F48091EB00806213C08C
:100B40008091EB0080618093EB0081E090E002C037
:100B5000880F991F2A95E2F78093EA001092EA0025
:100B60008091EB0088608093EB001092E900809107
:100B7000E800877F83C0882309F09CC01091290278
:100B80008091E800877F8093E800E8DC04C08EB3A2
:100B9000882309F490C08091E80080FFF8CF812F6E
:100BA0008F7711F492E001C093E09EBB8068809340
:100BB000E30081C08058823008F07CC08091290217
:100BC00090912A0223E08C3D920799F55FB7F89443
:100BD000DE0115964EE020E030E061E2E42FF0E027
:100BE00060935700849120FF03C082958F704F5F00
:100BF000982F9F70892F805D8A3308F0895F8C93CE
:100C000011961C9211972F5F3F4F12962431310598
:100C100029F75FBF8AE28B8383E08C838091E800B1
:100C2000877F8093E800CE0103966AE270E0E4DCFF
:100C300011C060912B02AE014F5F5F4F2CDCBC01F5
:100C40000097C9F18091E800877F8093E80089814F
:100C50009A812BDD8091E8008B778093E8002BC090
:100C6000803841F58091E800877F8093E80080918B
:100C700025028093F1008091E8008E778093E80050
:100C80006DDC19C08823B1F490912902923098F458
:100C90008091E800877F8093E800909325025EDCD6
:100CA00080912502882311F483E001C084E08EBB8B
:100CB00028DB01C023DB8091E80083FF0AC080911C
:100CC000EB0080628093EB008091E800877F809347
:100CD000E800AC960FB6F894DEBF0FBECDBFCF9143
:100CE000DF911F91089508951F938EB3882361F0BB
:100CF0001091E9001092E9008091E80083FF01C0A3
:100D000098DE17701093E9001F9108950895FC0173
:100D10008EB3843021F587859089A189B2890097A7
:100D2000A105B105E1F085818093E9008091E8009B
:100D300082FF15C08091F200882319F42FEF3FEF56
:100D400004C08091F100282F30E08091F2008823C8
:100D500041F48091E8008B778093E80002C02FEF88
:100D60003FEFC9010895FC018EB3843011F58785EA
:100D70009089A189B2890097A105B105D1F081813F
:100D80008093E9008091F2008823A9F09091E80017
:100D90008091E8008E778093E80095FD0CC0FDDB24
:100DA000982F882349F48091E8008E778093E8009B
:100DB00003C092E001C090E0892F0895FC018EB33A
:100DC000843051F487859089A189B2890097A10563
:100DD000B10511F0CF01C7CF08951F93FC01162F65
:100DE0008EB38430D9F487859089A189B289009720
:100DF000A105B10599F081818093E9008091E80017
:100E000085FD08C08091E8008E778093E800C5DBFF
:100E1000882329F41093F10080E001C082E01F9143
:100E200008950F931F93CF93DF93EC010D96FC0170
:100E300089E0DF011D928A95E9F72A813B810981CA
:100E40008C81882311F410E001C014E0C90151DB4A
:100E5000182B1260802F61E8412F59DB882329F17C
:100E60002E813F810D818885882311F410E001C017
:100E700014E0C9013EDB182B1260802F60E8412F7F
:100E800046DB882391F02A853B8509858C8588235C
:100E900011F410E001C014E0C9012BDB182B126023
:100EA000802F61EC412F33DB01C080E0DF91CF91D7
:100EB0001F910F910895CF93DF93EC018091E8008B
:100EC00083FF60C0888190E020912B0230912C023A
:100ED0002817390709F056C080912802813261F045
:100EE000823220F4803209F04DC019C0823269F19B
:100EF000833209F047C038C080912702813A09F057
:100F000041C08091E800877F8093E800CE010F9672
:100F100067E070E071DB8091E8008B7713C080910F
:100F20002702813279F58091E800877F8093E8007D
:100F3000CE010F9667E070E013DCCE0135D98091C9
:100F4000E8008E778093E8001DC0809127028132EF
:100F5000C9F48091E800877F8093E800809129029E
:100F60008D87CE01BFD90DC080912702813251F407
:100F70008091E800877F8093E800CE01609129028C
:100F8000C5DEECDADF91CF910895A1E21A2EAA1BFB
:100F9000BB1BFD010DC0AA1FBB1FEE1FFF1FA21729
:100FA000B307E407F50720F0A21BB30BE40BF50B26
:100FB000661F771F881F991F1A9469F760957095AF
:100FC000809590959B01AC01BD01CF010895F894E7
:020FD000FFCF51
:100FD200000340000004400000020800000000007E
:060FE20000000000000009
:00000001FF
